:020000040800F2
:100000000000022091110108399D00083B9D000865
:100010003D9D00083F9D0008419D00080000000034
:1000200000000000000000000000000011EF0008C8
:10003000439D000800000000B1EF000875EC0008C7
:10004000E1110108E1110108E1110108E1110108C4
:10005000E1110108E1110108E1110108E1110108B4
:10006000E1110108E1110108E1110108E1110108A4
:10007000E1110108E1110108E1110108E111010894
:10008000E1110108E1110108E1110108E111010884
:10009000E1110108E1110108E1110108E111010874
:1000A000E1110108E1110108E1110108E111010864
:1000B000E1110108E1110108E1110108E111010854
:1000C000E1110108E1110108E1110108459D000855
:1000D000E1110108559D0008E1110108E111010835
:1000E000E1110108E1110108E1110108E111010824
:1000F000E1110108659D0008E1110108E111010805
:10010000E1110108E1110108E1110108E111010803
:10011000E1110108E1110108E1110108E1110108F3
:10012000E1110108E1110108759D0008859D000895
:10013000E11101080000000000000000E1110108C9
:10014000E1110108E1110108E1110108E1110108C3
:10015000E1110108E1110108959D0008E111010874
:10016000E1110108E1110108A59D0008B59D0008F5
:10017000E1110108C59D000800000000000000001A
:08018000E1110108E111010881
:1001C00010B5054C237833B9044B13B10448AFF391
:1001D00000800123237010BD380B002000000000B8
:1001E000BC76010808B5034B1BB103490348AFF3C4
:1001F000008008BD000000003C0B0020BC76010818
:10020000F0B44C1E4F2C41D8DFE804F028282828F1
:10021000404040403E3E283E3E3E3E3E3E3E3E3E0C
:100220003E3E3E402A2A2A2A2A2A2A2A283E3E3EA2
:100230003E3E403E2A292840282A2A3E2940403E68
:100240003E3E28282828283E28283E2840403E3E7A
:100250003E4040403E3E3E282A282A2AB2B1ABB159
:10026000D0E90545AC4211DA0669270106EB041511
:100270004FF0000C0134C5F804C04461F155284624
:10028000C5E90223F0BC7047002AE9D100252846C1
:10029000F0BC704710B4C3681C78522C0A460FD0CB
:1002A0004F2C03D008465DF8044B7047C16A0331F8
:1002B000C16220210133C3605DF8044B00239FE736
:1002C000C16A0231C1621F21F4E700BF002963D077
:1002D00038B505460C462378013B4F2B37D8DFE86D
:1002E00003F03131315036363B3B31313131313130
:1002F00031313131313131313136313131313131E9
:1003000031313131282831313631313131373131E4
:10031000313131363B3131313131313131313131BE
:100320003131363631373737373631313131313196
:100330003131A3681B78052B04D1D5F8383101334E
:10034000C5F83831D5F81C31B3F5006F08DD38BD7C
:10035000A468002CBFD138BDE468002CBBD1FAE7FB
:100360000133C5F81C31A1682846FFF7AFFFE168EB
:100370002846FFF7ABFFD5F81C31013BC5F81C310F
:1003800038BDD5F844310133C5F84431D5F81C31B6
:10039000B3F5006FDBDCE3E7704700BF7AB32DE90C
:1003A000F0410A440D460446D0F80011571E013DA5
:1003B0004FF0000809E00B46BD4201F10101C4F80D
:1003C0000011E65484F8046117D0FF2915F8016F75
:1003D000F1D1D4E9423284F8FF8020469847D4F81E
:1003E00028310133C4F8283100230121BD42C4F86B
:1003F0000011E65484F80461E7D1BDE8F08170474C
:100400002DE9F041026815786E2D07462CD0A5F134
:100410003003092B33D84FF0000EDFF868C00020FE
:100420006FF0004802E0B0EBD10F19DC01323A6006
:100430001478A4F1300300EB8000A8EB0301DBB2D9
:1004400005EB4006092BACFB01012546A6F1300067
:10045000E9D9BEF1000F01D0C6F13000BDE8F0814E
:100460004FF0FF30BDE8F081531C03605578A5F1D3
:100470003002092A03D81A464FF0010ECDE70020BA
:10048000ECE700BFCDCCCCCC38B5D0E905329342F7
:100490000FDA026902EB03141901002565600133CC
:1004A0004225436155540C30FFF7AAFFA060204657
:1004B00038BD0024204638BD10B5C3681A785F2ABD
:1004C00004460DD06E2A0DD00C30FFF799FF013095
:1004D00008D4E3681A785F2A04D10133E36010BDC1
:1004E0000020FAE74FF0FF3010BD00BFC3681A7854
:1004F000542A19D1013370B5C3600446FFF7DCFFFD
:10050000021E0FDBD4E905318B420BDA216901EBC6
:1005100003101D01002646600133052663614E5518
:10052000826070BD002070BD0020704770B5044629
:100530000C30FFF765FF051E3EDDE66863689B1B18
:100540009D4237DCA26873195207E36004D5725DDF
:10055000242A04BF0133E360092D12DCD4E90532FB
:10056000934227DA206900EB031000220133426036
:100570006361FEB1C0E90265002343600370A062BD
:1005800070BD1B490822304612F04CFC30B9337A5A
:100590002E2B13D05F2B11D0242B0FD0D4E9053292
:1005A0009A4207DD206900EB03100022013342600C
:1005B0006361DFE70020E2E7002070BD737A4E2B15
:1005C000ECD1E26AD4E905311632551B8B42E56263
:1005D000F0DA2269074D02EB0310591C1B0161611F
:1005E00000214160D1541523C0E90253C7E700BF81
:1005F000448201085082010830B5C368856A044608
:100600001878422883B00A4610D10133E3602046AF
:100610000192FFF78BFF019A03464C212046FFF71A
:10062000EFFDE368197842290246EED01046A56234
:1006300003B030BD2DE9F843C3681A78532A30D18E
:100640005A1CC2605A78044692B39A1CC2605A7807
:100650005F2A42D0A2F13000C3B2092B24D8002176
:100660000DE0303B99421CD8E1680A78481C1AB169
:10067000E0600A785F2A39D0A2F130001946C0B292
:1006800001EBC1030928A2F1410502EB8303E8D97C
:10069000192D06D801EBC10302EB8303373B9942C6
:1006A000E2D90020BDE8F883A2F14103192BD6D985
:1006B000A36803F00803002B14BF0125002500D117
:1006C000B1B9354B742103F1A80001E013F81C1FE8
:1006D000914214D08342F9D1E3E70023226A9A427F
:1006E000DFD9E26952F82300BDE8F8830133F5E76A
:1006F000E3681B78433B012B98BF0D46E1E75E6939
:10070000002E42D0D4E905208242D3F818C041DA45
:1007100027694FEA021E07EB02114FF00009013270
:100720004FF01808C1F80490626107F80E80C1E923
:10073000026CA16235B3D3E90351E36A82420B44F0
:10074000E36225DA236903EB0210160100274760F4
:100750000132182762619F55C0E90251E3681B7896
:10076000422B9FD101462046FFF746FF002898D034
:10077000D4E90832934294DAE1695A1C41F8230023
:1007800022628FE7D3E90151D7E7D4E90520D1E709
:100790000020E3E70021CCE79C77010838B5044648
:1007A00029B9C3681A787AB15A1CC26019786829C5
:1007B00019D0762908D104F10C052846FFF720FE50
:1007C000E3681A785F2A01D0002038BD0133E36066
:1007D0002846FFF715FEE3681A785F2AF4D1013343
:1007E000E360012038BD04F10C00FFF709FEF2E7D9
:1007F000C3681A785F2A01D00120704710B55A1CCF
:10080000C2605A785F2A044605D00C30FFF7F8FD25
:10081000C043C00F10BD023340F80C3FFFF7F0FD9E
:10082000002809DB092805DDE3681A785F2A03D16F
:100830000133E360012010BD002010BD28B909E09C
:10084000002908DDC068013940B103782F2BF7D0AB
:10085000002070477047FBD180687047704700BF29
:100860000346D0F8100130B1096843680029D86800
:1008700000DBE3E770470122C3F81821704700BF8F
:10088000002943D038B505460C4623784C2B33D885
:10089000DFE803F030323232322730383832323249
:1008A000323232323232323232323232303232322A
:1008B000323232323232323232323230323232321A
:1008C0003032323232323038323232323232323206
:1008D0003232323232303032323230303032323004
:1008E000300004F108012846FFF7BAFF10B1037881
:1008F0002F2B00D0002038BDA1682846FFF7C0FF8D
:100900000028F8D1E468002CBFD1F3E7002070473D
:10091000F0B514465268A5684B1C1344AB4283B033
:100920000E46074611D8E5686DB9D4E9000339468B
:100930001844324607F0DCFBD4E9003233449D54BE
:1009400061683144616003B0F0BDE268002AFAD109
:1009500055B16D00AB42FCD82068294612F094FBDB
:1009600038B12060A560DEE7022B4FF00205F0D819
:10097000F2E70190206811F093FF019B0122C4E986
:100980000033C4E90232DEE72DE9F04FC268157882
:1009900085B000238D420446039300F028820F4661
:1009A000994603AE4FF00108D4F830A0C4F8308067
:1009B00013784C2B7FD0542B00F09C80732B4DD0A0
:1009C000662B24D15378702B00F09980204601F0DB
:1009D000DBFC0546002800F087800378322B00F00E
:1009E000B280342B00F060810AD8332B08D18368A1
:1009F000032B05D8DFE813F031015D01040004008A
:100A0000C4F830A00025284605B0BDE8F08FA3F15A
:100A10003001092935D8204601F08AFE0546002814
:100A200062D0E3681A78492A00F0A180C4F830A0A7
:100A30002A4600232E212046FFF7E2FB30600028E3
:100A400041D0E2681378BB4200F10C06ACD1039DA3
:100A500001322846E26005B0BDE8F08F5378722B72
:100A600000F0E580702BB1D10232E260204600F048
:100A70000BFA002302464B212046FFF7C1FB054637
:100A80001DE06F2B24D0692B7ED153786C2B9DD128
:100A90000232E26000255078002800F0968145215E
:100AA0002046FFF771FF2A46034631212046FFF713
:100AB000A7FB054603E0204601F088FF0546C4F881
:100AC00030A0002DB4D10025284605B0BDE8F08F38
:100AD00053786E2B7FF47AAF0232E260204601F049
:100AE00027FE054600289CD12846C4F830A005B052
:100AF000BDE8F08F2046FFF7F9FC0546DFE7931CC1
:100B0000E3609378542B5FD02046FFF7D5FC6FF05D
:100B1000004398423FF474AF431C3FF471AF01307F
:100B2000D4E905329342BFF66BAF2269190102EB9B
:100B300003154FF0060C0133C5F80490636102F809
:100B400001C0A86072E78068E26A816803680239C0
:100B50000A44E2621A78732A25D0D0F80CB0BBF1AF
:100B6000030F3FF64DAFDFE80BF0783380AF013372
:100B7000E360204600F0A8FB2A46034604212046F5
:100B8000FFF73EFB05469AE7742B7FF41FAF5378BF
:100B90006C2B7FF41BAF0232E260204600F0FCFFBA
:100BA000E268054677E759787429D6D19978002903
:100BB000D3D1204600F0F0FF03462A4637212046D5
:100BC000FFF71EFB05467AE70332E2600020A7E745
:100BD0001978702920D06D291ED04FF0000B732A90
:100BE00012D15A78502A0FD19B786BB9204600F069
:100BF0006BFB0346BBF1000FDFD01A4639212046BC
:100C0000FFF7FEFA0346D8E7204600F03DF9034619
:100C1000BBF1000FF1D1D0E758788842DDD1E1680F
:100C200008785F28DBD10131E1601A78D5E702321C
:100C3000E260204600F0B0FF0546204601F078FD56
:100C4000E3681978492900F0C48003462A46012147
:100C50002046FFF7D5FA054631E72A46002336211C
:100C60002046FFF7CDFA054629E7AA6812685178B1
:100C7000632900F0CD801A78662A00F0D9802046DA
:100C8000019300F001F9019B83461A78632A72D11F
:100C900059786C296FD1997800296CD1452120466B
:100CA000FFF772FE024675E0E3681A785F2A00F0EB
:100CB000A780204600F0E8F82A4603463721204660
:100CC000FFF79EFA0546FAE6712A17D15A78752A77
:100CD00014D19A7892B9204600F0D6F8834620467F
:100CE00000F0D2F802462046019200F0CDF8019AB9
:100CF000034670BBC4F830A0054684E61A78662A1D
:100D000000F09D806E2A7FF47BAE5B78772B02D05B
:100D1000612B7FF475AE5F212046FFF735FE8346D9
:100D2000204600F039FFE36819784529024600F0B3
:100D3000A680702900F0958069297FF461AE5B7808
:100D40006C2B7FF45DAE0190204600F09DF8019A77
:100D500003463C212046FFF753FA5A4603463B21FF
:100D60002046FFF74DFA2A4603463A212046FFF770
:100D700047FA0546A3E6642A1AD15978742917D18F
:100D80009978A9B9204601F0D3FCE368197849297C
:100D9000024658D0134639215A462046FFF730FA0A
:100DA0002A46034638212046FFF72AFA054686E6FA
:100DB000702A05D15A78742A02D19B78002BE1D091
:100DC000204600F061F80246E4E7C4F830A005468A
:100DD00019E601330190E360204600F075FA019AAC
:100DE000034604212046FFF70BFA03462EE70132A3
:100DF000C2602E211A4605B0BDE8F04FFFF700BAD9
:100E00000133E36045212046FFF7BEFD0346D4E6EB
:100E10001278A2F16301012903D9723A012A3FF63F
:100E20002AAF2046019300F0B7FE019B83462CE7D2
:100E30002046019301F0A8FA019B834625E720464E
:100E400001F0A2FA4AE701330190E360204600F086
:100E50003BFA019A034604212046FFF7D1F90246E6
:100E600098E7597869297FF4CBAD02330190E360AC
:100E700045212046FFF788FD019A034669E70133C3
:100E8000E360002365E700BFC26813784C2B00F0D5
:100E90008B80542B00F08A80F0B5732B83B004460E
:100EA00052D0662B30D0A3F1300109290CD820464E
:100EB00001F03EFC0546002872D0E3681A78492A02
:100EC00076D0284603B0F0BD6F2B4BD0692B7DD177
:100ED00053786C2B00F09780204601F055FA0546B8
:100EE00000285DD00378322B42D0342B00F07F8174
:100EF00056D8332B54D18368032B51D8DFE813F035
:100F0000C700F300500050005378702BE4D1931CBD
:100F1000C3609378542B00F01181FFF7CDFAC343DF
:100F200033F000433CD00130D4E90532934237DA44
:100F3000226902EB0315190100266E6001330626B3
:100F400063615654A860BCE75378722B4AD0702B6B
:100F5000C2D10232C260FFF797FF002302464B2145
:100F600020462EE053786E2BB6D10232C2609EE747
:100F70008168E36A8A680E68023A1344E362337850
:100F8000732B4FD17278742A4CD1B278002A49D190
:100F9000204600F001FE2A4603463721204610E095
:100FA0000025284603B0F0BD01F010BDFFF79EBA42
:100FB0000133E360204600F087F92A460346042106
:100FC000204603B0BDE8F040FFF71AB9742B83D177
:100FD00053786C2B80D10232E26000F0DDFDE268D4
:100FE000054613E00232C26000F0D6FD05462046F9
:100FF00001F09EFBE368197849291AD003462A4676
:1010000020460121DDE70232E26000255378002B03
:10101000C6D045212046FFF7B7FC2A4603463121BA
:101020002046CEE7CF68032FBAD8DFE807F03013A9
:10103000356101330190E360204600F045F9019AE3
:10104000034604212046FFF7DBF82A460346012128
:101050002046B6E73278702A79D06D2A77D00027FB
:10106000732B6FD17378502B6CD1B378002B69D16F
:10107000204600F029F903462FB11A4639212046AF
:10108000FFF7BEF803462A462046372199E72A464D
:1010900020460023362194E7AB681B685A78632A00
:1010A00000F0B9803378662B00F0C3802046FFF74C
:1010B000EBFE07463378632B7BD172786C2A78D1AC
:1010C000B278002A75D145212046FFF75DFC024623
:1010D000134639213A462046FFF792F82A4603463E
:1010E000382120466DE72046FFF7CEFE0346CAE7CB
:1010F000712B37D17378752B34D1B37893BB2046DD
:10110000FFF7C2FE06462046FFF7BEFE0746204612
:10111000FFF7BAFE034600283FF442AF3A463C21AF
:101120002046FFF76DF8324603463B212046FFF785
:1011300067F82A4603463A21204642E70332C26056
:101140000020F1E62046FFF79FFE034694E7717802
:10115000914284D1E26811785F2981D10132E26045
:1011600033787CE73378662B6FD06E2B7FF418AF23
:101170007378772B02D0612B7FF412AF5F2120466A
:10118000FFF702FC0646204600F006FDE3681978EA
:101190004529074669D070295BD069297FF400AFE3
:1011A0005B786C2B7FF4FCAE2046FFF76DFE0346A8
:1011B000B4E7642B28D17278742A25D1B2781ABB8F
:1011C000204601F0B5FAE3681978492902467FF410
:1011D0007FAF01330190E360204600F075F8019A7B
:1011E000034604212046FFF70BF8024670E7E36848
:1011F0001A785F2A7FF477AF0133E36045212046F8
:10120000FFF7C2FB03463EE7702B17D02046FFF7DF
:101210003BFE02465CE71B78A3F16302012A03D977
:10122000723B012B3FF63EAF204600F0B5FC07466F
:1012300040E7204601F0A8F807463BE77378742B97
:10124000E4D1B378002BBBD0E0E7204601F09CF856
:1012500058E75A78692A7FF4A3AE0233E360452148
:101260002046FFF791FB034658E70133E360002374
:1012700054E700BF38B5C26813784C2B1DD0044624
:1012800005D8493B012B13D8BDE838404EE0582B18
:101290000ED101320123056BC2600363FFF7F4FD39
:1012A000E36825631A78452A0BD10133E36038BD22
:1012B0002046BDE8384000F06FBCBDE8384001F082
:1012C00085BB002038BD00BF70B5C368866A1A7838
:1012D000452A82B004461FD00023019301AD09E0E6
:1012E000FEF78EFF286000F10C0560B1E3681A7804
:1012F000452A0BD02046FFF7BDFF024600232F21D1
:101300002046002AECD1002002B070BD0198A662F0
:101310000133E36002B070BD5A1C0023C2602F216C
:101320001A4602B0BDE87040FEF76ABFC1680A788D
:10133000493A012A02D80131C160C5E7002070474F
:101340002DE9F043C2681378472B83B0044601D0DF
:10135000542B34D1E16A01F11403E3621378542B66
:101360005DD0472B40F0A680531CE3605378002BE0
:1013700000F0A080931CE3605378562B00F2B680F7
:10138000402B40F29780413B152B00F29380DFE821
:1013900013F01701910091009100910091009100CC
:1013A00091009100910091009100910091009100B5
:1013B00091009100240191003001910041010E46FD
:1013C00000F020FA0546002874D0002E77D0A368DC
:1013D000DB0774D42B784D2BA3F11C01A3F14F0232
:1013E00000F0D68000F2D280042940F2D180022B96
:1013F00061D1EA6813784D2BA3F11C00A3F14F01D2
:1014000003D000F2AF81042855D89268EA601378BF
:101410004D2BA3F11C00A3F14F01F2D1F5E7531CB2
:10142000E3605378002B45D0931CE3605378413B35
:10143000352B3FD8DFE813F033013E0016013E00A4
:101440003E000E013E0006018E0186013E003E0078
:101450003E003E003E003E003E003E007E01740124
:101460003E006A0162013E003E003E003E003E003A
:101470003E003E003E003E003E003E004B013E006E
:101480003E003E003E003B013E003E003E003E006E
:101490003E003E003E003E003E003E003E003E005C
:1014A0003E00F600D4E905039842C0F27281E36879
:1014B0000B44E3600025284603B0BDE8F083E368F1
:1014C0001B78002BF7D0452BF5D029460B78042B41
:1014D00000F0738154D94D2BA3F14F0202D059D99A
:1014E000012A5AD889680029F0D157E0722BE1D13E
:1014F00004F10C00FEF784FF0128DBDDE3681A78B5
:10150000002AD7D05F1CE7601B785F2BD2D1002266
:10151000451E90464FF041093B78002BCAD0242B42
:1015200040F024817B78532B00F05E815F2B00F02C
:101530005981242BBED11946D4E90503984280F283
:1015400055812669070106EB00130130C3F80480BA
:10155000606106F80790E76899600237023DE7602E
:10156000002A00F0288140212046FEF749FE02466D
:1015700000289FD0002DCFDC204600233F2127E00C
:10158000022B0AD1C9680029A0D107E0012A92D80C
:10159000AD681FE71C3B042BA4D90021204601F0B5
:1015A0006DF8002886D036B92B78022B03D103784A
:1015B000292B08BF866003462A462046032107E000
:1015C00000212046FFF7BCFE0023024617212046DB
:1015D00003B0BDE8F043FEF713BE204600F012F959
:1015E00001902046FEF750FF019A0346162120463F
:1015F000EEE79378002120462BB1D31CE36093786B
:101600006E2B00F0F880FFF79BFE00230246492175
:101610002046DDE7204600F0F5F8002302461321BE
:101620002046D5E776212046FFF7B8F800283FF49A
:1016300041AF00212046FFF783FE00230246102120
:101640002046C5E7204600F0DDF8002302461421BD
:101650002046BDE7204600F09FFA002302460E21F7
:101660002046B5E7204600F097FA054604F10C0045
:10167000FEF7C6FE0028FFF61DAFE3681A785F2A62
:101680007FF418AF0133E360204600F085FAE36A87
:10169000591D0246E1622B4620460B2198E7204661
:1016A000FFF7E8FD002302463021204690E768213D
:1016B0002046FFF773F800283FF4FCAE00212046D7
:1016C000FFF73EFE002302460F21204680E700215F
:1016D0002046FFF763F800283FF4ECAE00212046D7
:1016E000FFF75CF800283FF4E5AE00212046FFF745
:1016F00027FE002302461121204669E7204600F01C
:1017000081F8002302461521204661E70F31E1628E
:10171000204600F041FA002302460921204657E7FF
:101720000A31E162204600F037FA002302460A211E
:1017300020464DE7204600F02FFA002302460D21F7
:10174000204645E7204600F027FA002302461221F2
:1017500020463DE7204600F01FFA002302460C21F8
:10176000204635E701293FF6A6AE4EE63E4600216B
:1017700007E016F8013F002B3FF494AE242B3FF412
:1017800091AE0131A942F4DBD4E9050383427FF72E
:101790008EAE236903EB00130130C3F8048060614F
:1017A00083F80080E0689F604718C3F80480D96020
:1017B0006D1AE760D4E61A46DCE68B6863B11978E7
:1017C000082901F1FF3209D806293FF6E6AE012AC1
:1017D00002D8DB68002BF2D10121DFE6353918BFD2
:1017E0000121DBE62E21A7E62F21A5E6E3680233DF
:1017F000E36000255FE6FFF7A3FD002302464A21D0
:101800002046E5E62DE9F047C26813784E3B84B0E8
:1018100004460C2B08D8DFE803F028070707071356
:10182000072107070707760000F082FFE3681B78AF
:10183000492B054600F0A980284604B0BDE8F08792
:101840005378742B00F0AB800021FEF7F3FEE368C1
:101850001B78492B0546EFD12046F0E000F068FFE9
:101860000546284604B0BDE8F0870132C26003A9EE
:10187000012200F043FE0746002800F08B80002183
:101880002046FEF707FDE1680E7880462EB3DFF8AC
:1018900004934FF0000A442E6AD0A6F13003DBB265
:1018A0001C2B40F2FD80A6F16103192B00F2FA8097
:1018B000204600F03DFF0546BAF1000F06D0012199
:1018C0002B4652462046FEF79BFC0546532E08D178
:1018D000E168AA460E78002EDDD100253D60ABE719
:1018E0000546E1680E78452E00F08C80002DF4D07E
:1018F000D4E908329342F0DAE269581C42F82350E6
:10190000AA462062E6E70132C2600021FFF718FD17
:10191000054600283ED0E368197845293AD15A1C7B
:10192000E2605978732900F0F680642900F0918014
:101930002046FFF767FF034650B10278462A07D0DA
:10194000482A05D001902046FEF752FF019B08B3BC
:101950002A78032A05D1EA681178292904BF0021D1
:1019600091602A4620460221FEF74AFC054663E7BD
:101970004B7803F0DF03542B204652D000F0D8FE02
:101980000546BAF1000F9AD1ABE718B1D4E9083295
:1019900093424EDB0025284604B0BDE8F087D0E92D
:1019A000053102328B42C26080F2B380026977480F
:1019B00002EB0315591C1B01616100216960D154C0
:1019C0000323C5E90203204600F0B2FE2A4603467F
:1019D00001212046FEF714FCE36AE2680333E36268
:1019E0001378492B05467FF427AF0028D2D0D4E9DD
:1019F00008329342CEDAE1695A1C41F82300226290
:101A000020461CE0152329FA03F3DB075AD52046AC
:101A100000F08EFE002D3FF463AFAA46012105467B
:101A20004EE700F0B9F80546BAF1000F7FF447AF72
:101A300057E7E1695A1C41F8230020462262FFF76C
:101A400075FC2A46034604212046FEF7D9FB0546CD
:101A5000F2E60233E3602046FEF72EFD071E99DB17
:101A60002046FFF7CFFE064628B10378462B02D06A
:101A7000482B40F08480D4E905239A4265DA216935
:101A800001EB021310014FF0000CC3F804C0013247
:101A90004FF0470C626101F800C0C3E9026757E7E5
:101AA0005546B0E7552E32D0532E66D1012120463F
:101AB000FEF7C0FD0546BAF1000F7FF400AFE16804
:101AC000AA4607E7492E42D0542E4CD0452E09D0C5
:101AD0004D2E7FF402AF002D3FF4FFAE0131E160E7
:101AE000AA46F7E63D60002D3FF454AFB8F1000F71
:101AF00004D0039BC8F80830CDF80C80E3681A784E
:101B0000452A7FF447AF0133039DE36094E65546D1
:101B10007DE7002557E70233E3602046FEF768FEC5
:101B200000283FF437AFD4E905239A420DDA216942
:101B3000174E01EB0213501C120160610020586027
:101B400088540E22C3E9026202E7002300E7002D59
:101B50003FF4C3AE0131E1602046FFF7B5FBAA4672
:101B600004210546ACE62046FEF7C0FCAA46054621
:101B7000BAF1000F7FF4A3AEB3E65546A4E72046C2
:101B8000FEF736FE00287FF476AF03E7788201087F
:101B900068820108FF0308102DE9F041C1680B7845
:101BA000722B82B0044658D0562B56D04B2B54D0B3
:101BB000442B00F09E80A3F130024A2A00F290806C
:101BC000DFE812F02D012D012D012D012D012D0138
:101BD0002D012D012D012D018E008E008E008E0015
:101BE0008E008E008E0001028E0044018E008E0059
:101BF000600166018E008E008E008E008E00410214
:101C00002D01740182018E0090019E01C201E90143
:101C10008E008E008E008E002D018E008E008E00B4
:101C20008E008E008E0010011001100110011001B5
:101C3000100110011001100110018E00100110019F
:101C4000100110018E008E008E0010011001520153
:101C500010011001100110011001002201A92046FD
:101C600000F04CFC054600283AD0E3681B78462B70
:101C700020463AD0FFF790FF2860002830D0037844
:101C80001F3B012B05D8019A836882602A68019264
:101C90002B60019D25B3D4E90832934220DAE16933
:101CA0005A1C284641F82350226202B0BDE8F08158
:101CB0000123056B0363FFF7E7F825630246002362
:101CC00043212046FEF79CFA0546019040B1E368A7
:101CD0001A782AB15A1CE2601B78452B00F0A780C5
:101CE0000025284602B0BDE8F08100F0EBFC28603A
:101CF000C3E74B7803F0DF024F2AAED0773B012BCE
:101D0000ABD94B1CC3604B78002BE9D08B1CC36054
:101D10004B78463B302BE3D801A252F823F000BFAA
:101D200077200008E11C0008E11C0008E11C000805
:101D3000E11C0008E11C0008E11C0008E11C00088F
:101D4000E11C0008E11C0008E11C0008E11C00087F
:101D5000E11C0008E11C0008B11C0008E11C00089F
:101D6000E11C0008E11C0008E11C0008E11C00085F
:101D7000E11C0008E11C0008E11C0008E11C00084F
:101D8000E11C0008E11C0008E11C00081321000808
:101D9000E11C0008ED200008B72100088D21000893
:101DA00063210008E11C0008392100089322000883
:101DB000E11C0008E11C0008E11C0008E11C00080F
:101DC0006B220008E11C000855220008E11C0008F5
:101DD000E11C00082B220008B11C000801220008A9
:101DE000C7210008D4E90525BF48613B03EB830305
:101DF000AA4200EB830380F2AB82206900EB02155C
:101E0000160100276F6001322727626187555868E5
:101E1000E26AAB6001310244E160E26261E72046C0
:101E2000FFF7F0FC05460190002D3FF459AFD4E9CF
:101E300008329342BFF654AFE16941F82350019D47
:101E40005A1C2846226202B0BDE8F0810131E160EF
:101E50002046FFF7A1FE0023024625212046FEF77B
:101E6000CFF905460190DFE70131E1602046FEF73A
:101E70005DFB0023024628212046FEF7C1F90546F6
:101E80000190D1E7204600F01DFC05460190CBE70C
:101E90000131E1602046FFF77FFE00230246262144
:101EA0002046FEF7ADF905460190BDE70131E1603E
:101EB0002046FFF771FE0023024624212046FEF74C
:101EC0009FF905460190AFE70131E1602046FFF739
:101ED00063FE0023024622212046FEF791F90546C3
:101EE0000190A1E70131E1602046FFF755FE002394
:101EF000024623212046FEF783F90546019093E729
:101F00004B78A3F13002092A05D95F2B03D0413B5E
:101F1000192B00F2E28100212046FEF78BFBE368DB
:101F200001901A78492A05467FF4DBAE0133E3605D
:101F30002046FFF7C9F92A46034604212046FEF74A
:101F40005FF9054601906FE72046FEF7CFFAE66895
:101F500001903378492B05467FF466AF636B002B05
:101F600040F0C88100283FF4BBAED4E908218A4282
:101F7000BFF6B6AEE16941F8220001322262327842
:101F8000493A012A05D80136E6602046FFF79CF958
:101F900003462A46D1E70131E1602046FEF7C6FA42
:101FA000E36801901A78492A054600F07B812046B3
:101FB000FFF7F2FD019B024621212046FEF720F9A2
:101FC0000546019030E74D1CE5604B785F2B00F033
:101FD0006781303B092B00F272812B461946013391
:101FE000E3601A78303A092AF8D9D4E90520824208
:101FF000A3EB0507BFF674AED4F810C000200CEBBD
:10200000021602F1010E874270604FEA0212C4F814
:1020100014E07FF765AE70600CF80200C6E9025765
:102020004A785F2A7FF45CAE1D460135E5602046A4
:10203000FFF7B2FD324603462A212046FEF7E0F8BC
:1020400005460190F0E60131E1602046FFF7A4FD6E
:10205000054600283FF444AE2046FFF79DFD0346A9
:1020600000283FF43DAE2A462B212046FEF7C8F853
:1020700005460190D8E6D0E90532934280F26C81A2
:10208000006900EB03121D010026566001332C2667
:102090006361019246558B78303BDBB2092B94BFCC
:1020A00001230023938103D804F10C00FEF7A8F963
:1020B0002046019DFFF770FD019BA8609B68002BE7
:1020C0003FF40EAE04F10C00FEF79AF9E2681378C3
:1020D00013B1531CE3601378019DA3F173025342C3
:1020E0005341EB81FDE500BF60780108D0E905327E
:1020F0009342BFF6F5AD0269994E02EB0315591CE8
:102100001B01416100210E206960D154C5E90260C4
:10211000E7E5D0E905329342BFF6E2AD0269914EA0
:1021200002EB0315591C1B01416100210420696069
:10213000D154C5E90260D4E5D0E90532934280F27A
:1021400007810269884902EB031500206860581C6A
:102150001B0160612720D054E36AA9600433E36265
:10216000BFE5D0E90532934280F2F28002697F49EF
:1021700002EB031500206860581C1B0160612720DA
:10218000D054E36AA9600933E362AAE5D0E90532D5
:10219000934280F2DD800269754902EB031500204D
:1021A0006860581C1B0160612720D054E36AA96055
:1021B0000A33E36295E5D0E90532934280F2C880A4
:1021C00002696C49D4E78B785F2B00F0B780FEF78B
:1021D0005BF90546002D3FF483ADE3681A785F2A6A
:1021E0007FF47EAD0133E3602046FFF7D5FC2A463D
:1021F00003462D212046FEF703F80546019013E61D
:10220000D0E90532934280F2A38002695A4902EB79
:10221000031500206860581C1B0160612720D05402
:10222000E36AA9600733E3625BE5D0E905329342D4
:1022300080F28E800269514902EB0315002068602C
:10224000581C1B0160612720D054E36AA960083341
:10225000E36246E5FFF7A0FC002302464B2120463F
:10226000FDF7CEFF05460190DEE5D0E90532934249
:102270006EDA0269424902EB031500206860581CBF
:102280001B0160612720D054E36AA9601133E36227
:1022900027E5D0E9053293425ADA02693949CBE79A
:1022A0000026C2E60133E3602046FFF70DF82A4618
:1022B000034604212046FDF7A3FF019077E60123A2
:1022C000256B23632046FEF7DFFD256306460028C5
:1022D0003FF406ADE3681A78A3E62046FFF792FACA
:1022E0000546019000283FF4FBAC0378182B7FF4DF
:1022F0009EADF6E4731CE3602046D4F81480276A90
:10230000E56AFEF7E1FFE3681A78492A034606D03A
:10231000E562E660019DC4F81480276284E5019AB5
:10232000002A3FF4DDACD4E908108142BFF6D8ACF6
:10233000E569481C45F821202062FEE503310123B0
:10234000056BC1600363FEF79FFD2563054641E70A
:10235000002301939B68FFDE00231B70FFDE00BF9C
:10236000848201087C820108A47A0108687A010845
:10237000907A01087C7A0108B87A0108CC7A0108C1
:10238000F47A0108E07A0108F8B5C3681F780646B8
:102390005FBB4FF0000E394D432100228B1A03EB37
:1023A000D37302EB6303180105EB031C2C58207850
:1023B000B84206D094BF5A1C19468A42EED100207A
:1023C000F8BD60787045F5D1D6E905329342F6DA6A
:1023D000326902EB031019010024446001333224F6
:1023E00073615454C0F808C0F8BD5A1CC26093F819
:1023F00001E01F78BEF1000F02D1762FCBD0C8E7E5
:102400009A1CC260762F93F801E01BD1AEF1300424
:10241000E3B2092BBFD8FEF789F8D6E905318B4224
:102420000246CCDA316901EB03105F1C00254560E0
:102430001B017761002AC2D033264560CE54C0E923
:102440000242F8BD632FA6D1BEF1760FA3D1D0E929
:102450000C34B3FA83F35B094363FFF79DFB736BA3
:10246000024633B1002335213046FDF7C9FE7463BF
:10247000F8BD34213046FDF7C3FEF8E7087B0108BC
:1024800030B5C26883B000230193137823B30446A8
:1024900001AD11E04F2B16D0FFF77EFB0246002363
:1024A0002E212046C2B1FDF7ABFE2860A0B1E26844
:1024B000137800F10C054BB1452B204606D02E2B8E
:1024C00004D0522BE6D15378452BE5D1019818B1B1
:1024D000C36823B103B030BD002003B030BD8268B3
:1024E00011782729F6D19268117C0929F2D1516817
:1024F000E26A521AE2628360ECE700BF2DE9F04F16
:10250000D0F80CC0171E9CF8003083B004460D466E
:1025100015BF4FF01E0A4FF01B0A4FF01D094FF078
:102520001A0914BF4FF01C084FF019080E464FF05F
:10253000010B722B15D0562B13D04B2B11D0442BE3
:1025400006D00FB9462B5DD0304603B0BDE8F08F02
:102550009CF8012002F0DF014F2902D0773A012ACE
:10256000EFD80CF10102722BE26016D0562B2CD062
:102570004B2B24D09CF80130002B3ED00CF10203F1
:10258000E3609CF80110782951D06F2923D1E36AC8
:102590000933E3624F21002304E0E36A0933E36275
:1025A0004146002300222046FDF72AFE306020B37A
:1025B000D4F80CC000F108069CF80030B9E7E36AD3
:1025C0000633E36251460023ECE7E36A0933E36232
:1025D00049460023E6E74F293CD1D4E90B320933C1
:1025E000E362C4F830B0204601910092FEF74CFC43
:1025F000009A01992263034628BB0026304603B0A7
:10260000BDE8F08FAE429FD01D241E201C2105E0A6
:10261000192A15D003F10805AE4295D02B681A7817
:102620001A2A0AD01B2AF3D118702B68F2E7E36A42
:102630001133E3624D210023B4E71C702B68E9E7F6
:1026400019702B68E6E7E26810784528D5D1013289
:10265000E260A7E77729D0D1E36A0633E362204638
:10266000FFF70EFF03460028C7D0E268117845291E
:10267000C3D10132E260502194E700BF70B5C36856
:102680001A784A2A05461AD081B12846FFF784FAFB
:10269000044690B12846FFF7F3FE034668B1224690
:1026A00028462921BDE87040FDF7AABD28460C4602
:1026B000FFF7E6FE03460028F1D1002070BD01338C
:1026C000C360E2E710B50446806810F480200BD1A7
:1026D000A26BB2F5006F06D8511CE368A1631978AC
:1026E000462907D0A26310BDE3681A78462A01D0B4
:1026F000002010BD5A1CE2605A78592A04BF0233E8
:10270000E36001212046FFF7B9FF01462046FDF7AF
:10271000C1FDE3681A78452A04BF0133E360A3686A
:1027200018BF00205B03DED4A26B013ADAE700BFDA
:10273000F8B5C2681378A3F13001092904464FD9CE
:10274000A3F16101192914D86F2B04D153786E2B92
:1027500004BF0232C2602046FFF716FE054610B1E4
:102760000378322B49D0E368197842293FD02846B4
:10277000F8BDA3F1430101296CD94C2B5AD0552B3C
:1027800063D153786C2B00F0D080742B5DD1531C37
:10279000C360517874295BD10232C260FDF78CFEB0
:1027A0000028C0F2EF80D4E90532934280F2EA803B
:1027B00022691E0102EB03150021013348276960DD
:1027C00063619755D4E908329342A86080F2DA80B9
:1027D000E169E26841F82350013323621178C4E7CC
:1027E000FDF7A4FEE368197842290546BFD12946C2
:1027F0002046BDE8F840FDF7FFBE8268E36A9168B5
:10280000126807330B44E36213786C2BABD1537817
:10281000692BA8D19378002BA5D12046FDF786FE21
:102820002A46034637212046FDF7EAFCE3680546C1
:1028300019789AE70132C260FDF778FE054620B1AB
:102840002046FDF7D5FF00288DD100252846F8BD8C
:1028500000258AE7806A18B1017851B3182928D079
:10286000432B30D15378492B00F09080A3F13101F4
:102870000429EAD8303B0232DEB2E260D4E9053105
:102880008B4280F29780216901EB031503F1010C63
:1028900000276F601B01C4F814C0002800F090806E
:1028A0004FF0070C6F6001F803C02E72E8601178DA
:1028B0005BE7C168E36A0B44E362117843290B4686
:1028C000D0D04429C4D15178303905292AD8DFE83D
:1028D00001F0031D262923204FF0010CD4E9053116
:1028E000951C8B42E56062DA216901EB03155F1CE0
:1028F00000266E601B01676100285ED008276E60AD
:10290000CF5485F808C0E86091782EE74FF0020CAC
:10291000E4E74FF0050CE1E74FF0040CDEE74FF081
:10292000030CDBE7194600251FE7531CC3605178F1
:102930006C298DD10232C260FFF7A2FDE368064622
:1029400008B31978452983D10133E3602046FDF7A8
:10295000B3FD002816DBD4E90532934212DA22696E
:102960001F0102EB0315002101334FF0460C696093
:10297000636102F807C0D4E908329342C5E90260F6
:10298000FFF626AFE36819780025EEE6531CE360F6
:102990009378A3F13101042915D80332E260303B6A
:1029A0002046DEB2FFF7F8F8A06AE26866E79178A1
:1029B0000025DAE611780025D7E691780546D4E6B9
:1029C00011780546D1E651780025CEE6F8B5C26803
:1029D00013784C2B31D1531CC36051785F290546C5
:1029E00033D05A290CD10133EB6000212846FEF781
:1029F000A7FCEB681A78452A1FD10133EB60F8BDBC
:102A0000FFF7CAF8C8B10378272B06D183681A7C70
:102A10001AB15A68EB6A9B1AEB62EA6814786E2C5A
:102A20000DD03D21452C39D0134603E0EB601C78D6
:102A3000452C12D00133002CF8D10020F8BD531CD6
:102A4000EB6054783E211A46ECE7931CC360927801
:102A50005A2A18BF0020CED1C5E79C1AD5E90563D4
:102A60009E4219DAD5F810C000270CEB061306F1C8
:102A7000010EBC425F604FEA0616C5F814E00BDD9C
:102A80005F600CF80670C3E9022402462846FDF791
:102A9000B7FBEB681A78AEE70023F6E70024DDE722
:102AA0002DE9F04F044697B0002A74D05368012BEB
:102AB000154670DCD0F81C21B2F5806F6BDC0E4639
:102AC000591C6960D0F81871D0F82C11029502F1E8
:102AD000010C02A8C4F81CC10391C4F82C01002FFA
:102AE00040F0D88095F800C0BCF1500F01F216807C
:102AF000DFE81CF0E707200120018C0371081804AF
:102B0000BE07B1078C07660740071A07F406CE0612
:102B10008D06670641061B06F505CF05A905830549
:102B20005D0537050D05FB00FB00FB00D800D80054
:102B3000D800D800D800D800D80008020802D80071
:102B4000D8004A023E0222027802DE01DC02DE01E7
:102B50009A019A0175093009B009D70814080A09C1
:102B6000FD0838032D03720A620AFB01FB015701BD
:102B700057013C0A2A0A080AD909EB0AC50A9F0A22
:102B8000790A1408E804C2049C0442044608D800E8
:102B90001B08D800D8000123C4F8183117B0BDE8CD
:102BA000F08FAA6893681B685978632902F05284F1
:102BB00005F10C033146204603F044FE0746002889
:102BC00042F04084AB681A78322A02F0DC849B68B9
:102BD000C949186805F038FBEB6820B99A68117884
:102BE000032902F019869A683146204603F0DAFD7F
:102BF000AF68C249BB68D3F80080404605F024FBAB
:102C00008146002842F0B084D4F80031FF2B0ED169
:102C100084F8FF0019462046D4E942329847D4F898
:102C20002831C4F800915A1CC4F828214B46591C7D
:102C30005B22C4F80011E25484F80421EB683146A9
:102C4000DA682046FFF72CFFD4F80031FF2B0FD1B4
:102C50000026194684F8FF60D4E94232204698479E
:102C6000D4F82831C4F800615A1CC4F8282133462E
:102C70005D22591CC4F80011E25484F80421AB68A9
:102C80001A78322A02F02E856B68D4F81C21039939
:102C9000013B013AC4F82C116B60C4F81C2117B039
:102CA000BDE8F08F0022D4E94431CDE9061506A92C
:102CB000C4F814110021CDE90813A946002A36D022
:102CC00031462046FFF7ECFE089B002B01F068859B
:102CD000069BC4F814310FB1C4F810816B68D4F8A6
:102CE0001C210399013B013AD4E7D4F814E173465F
:102CF000BEF1000F0ED0996849B95A681278A2F156
:102D00001900022802F2EB81944502F0DB811B6876
:102D1000002BF0D1A94606ABC4F81431D4F8103119
:102D2000CDF818E00022CDE90823CDF81C90D9F8A1
:102D30000820C5E7AA6831462046FFF7B1FE16F025
:102D4000040A02F0DA80D4F80031FF2B0FD10027FB
:102D5000194684F8FF70D4E9423220469847D4F8E7
:102D60002831C4F800715A1CC4F828213B462E2291
:102D7000591CC4F80011E25484F80421D5F80C80E1
:102D800098F80030472B02F0F68142463146204643
:102D9000FFF786FE6B68D4F81C210399013B013ACA
:102DA00078E7AA681378272B01F06E870027D4F8FC
:102DB0000011FF290ED14FF00008D4E9423284F807
:102DC000FF8020469847D4F82831AA68013341464D
:102DD000C4F828312823481CC4F800016354204655
:102DE00084F804313146FFF75BFED4F80031FF2B45
:102DF00001F07487591C2922C4F80011E25484F8A8
:102E000004212B783E2B02F03182082F02F0BD8086
:102E1000EA6831462046FFF743FE6B68D4F81C2170
:102E20000399013B013A35E7AA681AB131462046B9
:102E3000FFF736FEEB68002B02F02C81D4F800314E
:102E4000FD2B0ED90027E75419462046D4E942321B
:102E50009847D4F82831C4F800715A1CC4F82821C6
:102E60003B46DFF89C904FF02C0809F1010B4FF026
:102E7000000A19460CE00B460131CB45C4F800119D
:102E800004F8038084F8048101F0AB8419F8018F01
:102E9000FF29F0D1D4E9423284F8FFA020469847B8
:102EA000D4F828310133C4F8283101210023E4E7A4
:102EB000D4E9443106AA0020CDE90615C4F814214E
:102EC0000890EA68099331462046FFF7E9FD089B20
:102ED000002B01F0FC866B68D4F81C210699C4F81D
:102EE0001411013B0399013AD4E60123C4F81831C7
:102EF0006B68013BCEE600BF74840108788401084A
:102F00004C840108D4F82031D5F808902BB999F8F1
:102F10000070052F02F0C3811F4699F80030232B63
:102F200001F096842A789A4201F09284242B02F0D0
:102F30001783D4F814E1EDE6B30601F12F86AA68F1
:102F4000002A02F0DD8016F0400026F0600602F054
:102F5000E080D4F81431314605F10C02204603F02C
:102F6000DBF86B68D4F81C210399013B013A91E628
:102F7000AA6831462046FFF793FD6B68D4F81C2100
:102F80000399013B013A85E616F0040641F064849A
:102F9000AF68D7E9007000283FF47CAE3844D4F81D
:102FA000001100F1FF39013FB04609E00B46013145
:102FB000B945C4F80011E65484F8046101F0CE85E7
:102FC000FF2917F8016FF1D1D4E9423284F8FF806C
:102FD00020469847D4F828310133C4F8283101211C
:102FE0000023E5E7D4E9443E0DF1180971460022BB
:102FF000CDF800E0CDF818E0CDE908230795C4F836
:103000001491CE46002902F094844FF00108B44692
:10301000009FC3464E4617E0BB689BB9B8F1030F4B
:1030200002F2728097E80F00AAF1400E8EE80F00BE
:103030004AF8406C09EB0816C4F8146108F101085D
:10304000C7F808B03F683FB17B681B78193B022B7B
:1030500016AB03EB081ADFD9EA68614620466646DC
:10306000FFF71EFD089B009AC4F81421BBB9B8F104
:10307000010F0CD009EB08180AAF58F80C2C314698
:10308000A8F11008204602F041FD4745F5D1D4F8DB
:103090001431314605F10802204603F06DFA6B68E1
:1030A000D4F81C210399013B013AF3E5B5F90E3040
:1030B000002B41F04587AA68D84B9168994201F0EE
:1030C000498531462046FFF7EBFCD4F80031FF2B51
:1030D0000FD10026194684F8FF60D4E94232204619
:1030E0009847D4F82831C4F800615A1CC4F8282144
:1030F00033462022591CC4F80011E25484F80421FC
:10310000B5F90C30002B41F0C684C54F984607F145
:1031100005095F260BE00B460131B945C4F80011E3
:10312000E65484F8046101F0AE8417F8016FFF29BA
:10313000F1D1D4E9423284F8FF8020469847D4F890
:1031400028310133C4F8283101210023E5E7EB6879
:103150001B78392B3FF425AD0123C4F818316B6877
:10316000013B97E5D5E9028798F80030322B01F052
:103170001386342B42F0EE83D4F80031FF2B10D1AC
:103180004FF00009194684F8FF90D4E942322046F6
:103190009847D4F82831C4F800915A1CC4F8282163
:1031A0004B46591C2822C4F80011E25484F804212B
:1031B000D8F8082031462046FFF772FCD4F80031D9
:1031C000FF2B10D14FF00008194684F8FF80D4E996
:1031D000423220469847D4F82831C4F800815A1C5E
:1031E000C4F8282143462922591CC4F80011E2548E
:1031F00084F804213A463146204603F0D3FA6B683E
:10320000D4F81C210399013B013A43E5D4F8143169
:10321000D5F8088000930023C4F81431B8F1000FEA
:1032200002F0C2800DF11809D4F810E11F461846CB
:103230004A46C2E90038C2E9020E98F800104D294A
:10324000A1F11C0AA1F14F0C07F10107134601F08F
:10325000DD8200F26087BAF1040F41F2D7820229C1
:10326000C4F8142116D1D8F80C8098F80030472BF8
:1032700002F0578309EB071C98F800304D2BA3F19F
:103280001C01A3F14F0201F0EB8601F2E68604294E
:1032900041F2E68698F80030042B04D1CDE904E829
:1032A00004ABC4F81031EA6831462046FFF7F8FB5A
:1032B00098F80030042B02D1049BC4F8103109EBBC
:1032C00007174FF02008AA4657F8085CE5B9D4F86C
:1032D0000011FF290BD1D4E9423284F8FF50204677
:1032E0009847D4F8283101332946C4F828314B1CBB
:1032F000C4F8003157F80C2C04F801802046314600
:1033000084F8048102F002FC103FB945DCD1009B37
:10331000C4F8143155466B68D4F81C210399013B5D
:10332000013AB7E4D4F82031002B01F08C833D4FF3
:10333000D4F8001107F1040961264FF000080BE0F2
:103340000B460131B945C4F80011E65484F8046114
:1033500001F0CB8317F8016FFF29F1D1D4E9423294
:1033600084F8FF8020469847D4F828310133C4F808
:10337000283101210023E5E7A9682046FDF780FAFE
:103380004FF0000A002802F0878103782F2B41F0CC
:103390004D828368002B01F04982C0680AF1010A5E
:1033A0000028F2D1AB681A460AF1FF330093904629
:1033B000A146019503E00137BA4541F30882C9F8F7
:1033C0002471424631464846FFF76AFB009B9F4204
:1033D000F1DA154CD9F8001104F1010B2C250BE0A2
:1033E0000B460131A345C9F8001109F8035089F8CB
:1033F0000451E0D014F8015FFF29F1D14FF0000330
:1034000089F8FF304846D9E942329847D9F828313F
:103410000133C9F8283101210023E3E700790108CD
:103420003C840108C48201084C840108DFF8F88359
:10343000D4F8001108F1190A6E274FF000090BE0CB
:103440000B460131C245C4F80011E75484F80471F9
:1034500001F0148118F8017FFF29F1D1D4E942323B
:1034600084F8FF9020469847D4F828310133C4F8F7
:10347000283101210023E5E7DFF8B083D4F80011FB
:1034800008F1150A74274FF000090BE00B460131D3
:10349000C245C4F80011E75484F8047101F0E180DA
:1034A00018F8017FFF29F1D1D4E9423284F8FF9066
:1034B00020469847D4F828310133C4F82831012137
:1034C0000023E5E7D74FD4F8001107F10D097B265B
:1034D0004FF000080BE00B460131B945C4F800116C
:1034E000E65484F8046100F08B8717F8016FFF2918
:1034F000F1D1D4E9423284F8FF8020469847D4F8CD
:1035000028310133C4F8283101210023E5E7D5E94A
:10351000026000283FF4BEAB3044D4F8001100F143
:10352000FF39013E4FF0000809E00B460131B1457B
:10353000C4F80011E75484F8047101F03881FF29C0
:1035400016F8017FF1D1D4E9423284F8FF80204699
:103550009847D4F828310133C4F8283101210023D9
:10356000E5E7DFF8CC82D4F8001108F1100A6827EB
:103570004FF000090BE00B460131C245C4F80011C1
:10358000E75484F8047100F0888718F8017FFF2958
:10359000F1D1D4E9423284F8FF9020469847D4F81C
:1035A00028310133C4F8283101210023E5E7DFF891
:1035B0008482D4F8001108F1140A72274FF0000930
:1035C0000BE00B460131C245C4F80011E75484F802
:1035D000047100F0CA8718F8017FFF29F1D1D4E9FE
:1035E000423284F8FF9020469847D4F828310133BE
:1035F000C4F8283101210023E5E7DFF83C82D4F844
:10360000001108F1180A54274FF000090BE00B468F
:103610000131C245C4F80011E75484F8047100F088
:10362000978718F8017FFF29F1D1D4E9423284F855
:10363000FF9020469847D4F828310133C4F8283148
:1036400001210023E5E7DFF8F481D4F8001108F147
:10365000150A54274FF000090BE00B460131C24513
:10366000C4F80011E75484F8047100F0648718F876
:10367000017FFF29F1D1D4E9423284F8FF9020463E
:103680009847D4F828310133C4F8283101210023A8
:10369000E5E7DFF8AC81D4F8001108F1120A6727DA
:1036A0004FF000090BE00B460131C245C4F8001190
:1036B000E75484F8047100F0318718F8017FFF297E
:1036C000F1D1D4E9423284F8FF9020469847D4F8EB
:1036D00028310133C4F8283101210023E5E7DFF860
:1036E0006481D4F8001108F10E0A6A274FF000092E
:1036F0000BE00B460131C245C4F80011E75484F8D1
:10370000047100F0FE8618F8017FFF29F1D1D4E999
:10371000423284F8FF9020469847D4F8283101338C
:10372000C4F8283101210023E5E7DFF81C81D4F833
:10373000001108F1190A63274FF000090BE00B464E
:103740000131C245C4F80011E75484F8047100F057
:10375000CB8618F8017FFF29F1D1D4E9423284F8F1
:10376000FF9020469847D4F828310133C4F8283117
:1037700001210023E5E7DFF8D480D4F8001108F137
:10378000100A76274FF000090BE00B460131C245C5
:10379000C4F80011E75484F8047100F0988618F812
:1037A000017FFF29F1D1D4E9423284F8FF9020460D
:1037B0009847D4F828310133C4F828310121002377
:1037C000E5E7DFF88C80D4F8001108F1140A6E27C1
:1037D0004FF000090BE00B460131C245C4F800115F
:1037E000E75484F8047100F0658618F8017FFF291A
:1037F000F1D1D4E9423284F8FF9020469847D4F8BA
:1038000028310133C4F8283101210023E5E7DFF82E
:103810004480D4F8001108F10F0A74274FF0000912
:1038200026E000BF28850108188401081C840108CF
:1038300004840108EC830108D0830108B8830108DF
:10384000A483010894830108788301086483010834
:10385000608301084C8301080B460131C245C4F85E
:103860000011E75484F8047100F0808718F8017F94
:10387000FF29F1D1D4E9423284F8FF9020469847DD
:10388000D4F828310133C4F8283101210023E5E7B9
:10389000DFF86485D4F8001108F1110A74274FF09D
:1038A00000090BE00B460131C245C4F80011E75492
:1038B00084F8047100F04D8718F8017FFF29F1D1D9
:1038C000D4E9423284F8FF9020469847D4F8283152
:1038D0000133C4F8283101210023E5E7DFF81C8516
:1038E000D4F8001108F10C0A74274FF000090BE01E
:1038F0000B460131C245C4F80011E75484F8047145
:1039000000F00D8718F8017FFF29F1D1D4E9423288
:1039100084F8FF9020469847D4F828310133C4F842
:10392000283101210023E5E7DFF8D484D4F8001121
:1039300008F1170A63274FF000090BE00B4601312D
:10394000C245C4F80011E75484F8047100F0BD8644
:1039500018F8017FFF29F1D1D4E9423284F8FF90B1
:1039600020469847D4F828310133C4F82831012182
:103970000023E5E7DFF88C84D4F8001108F1070A8A
:1039800056274FF000090BE00B460131C245C4F841
:103990000011E75484F8047100F08A8618F8017F5A
:1039A000FF29F1D1D4E9423284F8FF9020469847AC
:1039B000D4F828310133C4F8283101210023E5E788
:1039C000DFF84484D4F8001108F10A0A76274FF092
:1039D00000090BE00B460131C245C4F80011E75461
:1039E00084F8047100F0578618F8017FFF29F1D19F
:1039F000D4E9423284F8FF9020469847D4F8283121
:103A00000133C4F8283101210023E5E7D4F800117F
:103A1000FF290CD10027D4E9423284F8FF702046F8
:103A20009847D4F8283101333946C4F828317E2329
:103A30004A1CC4F80021635484F80431EA68314612
:103A40002046FFF72DF86B68D4F81C210399013B41
:103A5000013AFFF71FB9EA6831462046FFF720F820
:103A60006B68D4F81C210399013B013AFFF712B9A6
:103A7000D5F80880B8F1000F40F06A87DD4FD4F820
:103A8000001107F1030974260BE00B460131B9451B
:103A9000C4F80011E65484F8046100F0CC8717F8EC
:103AA000016FFF29F1D1D4E9423284F8FF8020462A
:103AB0009847D4F828310133C4F828310121002374
:103AC000E5E716F0040640F0F286D5E9027000281A
:103AD0003FF4E0A83844D4F8001100F1FF39013F69
:103AE000B04609E00B460131B945C4F80011E6546F
:103AF00084F8046101F04A80FF2917F8016FF1D1C1
:103B0000D4E9423284F8FF8020469847D4F828311F
:103B10000133C4F8283101210023E5E70123C4F86B
:103B200018316B68013BFFF7B5B8DFF8E082AA688F
:103B300031462046FEF7B4FF08F1070AD4F8001119
:103B400020274FF000090BE00B460131C245C4F8B5
:103B50000011E75484F8047100F0328518F8017FF1
:103B6000FF29F1D1D4E9423284F8FF9020469847EA
:103B7000D4F828310133C4F8283101210023E5E7C6
:103B8000DFF88C82AA6831462046FEF789FF08F1EB
:103B9000040AD4F800115B274FF000090BE00B4634
:103BA0000131C245C4F80011E75484F8047100F0F3
:103BB000338518F8017FFF29F1D1D4E9423284F826
:103BC000FF9020469847D4F828310133C4F82831B3
:103BD00001210023E5E700237207D4F81481D4F80B
:103BE0004871D5F80890C4F81431C4F8485107D585
:103BF00099F8003023B9D9F80C20062A01F05E8527
:103C00004A4631462046FEF74BFF94F804313C2BE0
:103C100001F0A480D4F80011FF290DD14FF0000964
:103C2000D4E9423284F8FF9020469847D4F82831EE
:103C300001334946C4F828313C234A1CC4F800210A
:103C4000635484F80431EA6831462046FEF728FFC1
:103C500094F804313E2B01F06480D4F80011FF2960
:103C60000CD10026D4E9423284F8FF602046984700
:103C7000D4F8283101333146C4F828313E234A1C98
:103C8000C4F80021635484F804316B68D4F81C2113
:103C90000399C4F81481C4F84871013B013AFEF756
:103CA000F9BFDFF87081D4F8001108F1080A6F2716
:103CB0004FF000090BE00B460131C245C4F800117A
:103CC000E75484F8047100F02E8218F8017FFF2970
:103CD000F1D1D4E9423284F8FF9020469847D4F8D5
:103CE00028310133C4F8283101210023E5E7AA680F
:103CF0003146204602F01AFD6B68D4F81C21039966
:103D0000013B013AFEF7C6BFDFF80881D4F8001185
:103D100008F1080A6F274FF000090BE00B4601314C
:103D2000C245C4F80011E75484F8047100F07B82A6
:103D300018F8017FFF29F1D1D4E9423284F8FF90CD
:103D400020469847D4F828310133C4F8283101219E
:103D50000023E5E7D5E902281AB131462046FEF7EF
:103D60009FFED4F80031FF2B0DD10027194684F8AF
:103D7000FF70D4E9423220469847D4F828315A1CC3
:103D8000C4F828213B46581C7B27C4F80001314663
:103D9000E7544246204684F80471FEF781FED4F8C9
:103DA0000011FF290CD10026D4E9423284F8FF60CB
:103DB00020469847D4F8283101333146C4F82831D9
:103DC0004A1C7D23C4F80021635484F804316B68D5
:103DD000D4F81C210399013B013AFEF75BBFDFF8E1
:103DE0003880D4F8001108F11D0A74274FF000093B
:103DF00020E000BFC8840108388301082883010837
:103E000004830108F8820108EC8201083885010862
:103E1000948201085C840108CC8201080B460131C0
:103E2000C245C4F80011E75484F8047100F01C8204
:103E300018F8017FFF29F1D1D4E9423284F8FF90CC
:103E400020469847D4F828310133C4F8283101219D
:103E50000023E5E7D5F80890D34FD9F80880D4F8C7
:103E6000001107F1070B6F264FF0000A0BE00B461D
:103E70000131BB45C4F80011E65484F8046100F038
:103E80005F8117F8016FFF29F1D1D4E9423284F83C
:103E9000FFA020469847D4F828310133C4F82831D0
:103EA00001210023E5E7AA68C04906A80FF012FC2B
:103EB00006A804F045FB002800F0A08106AED4F867
:103EC000001106EB00094FF0000809E00B46013134
:103ED000B145C4F80011E75484F8047100F08E81F4
:103EE000FF2916F8017BF1D1D4E9423284F8FF8032
:103EF00020469847D4F828310133C4F828310121ED
:103F00000023E5E7D4F800012E7AFF2814D14FF002
:103F10000008D4E94232014684F8FF8020469847E1
:103F2000D4F828016B68D4F81C210399471CC4F805
:103F300028714046013B013A471CC4F800712654E1
:103F400084F80461FEF7A6BEAA6831462046FEF753
:103F5000A7FDEA6831462046FEF7A2FD6B68D4F85B
:103F60001C210399013B013AFEF794BEDFF8408221
:103F7000D4F8001108F10D0A6A274FF000090BE090
:103F80000B460131C245C4F80011E75484F80471AE
:103F900000F03C8118F8017FFF29F1D1D4E94232C9
:103FA00084F8FF9020469847D4F828310133C4F8AC
:103FB000283101210023E5E7EB6818783B2804D17C
:103FC000DB681B783C2B01F0B1810123C4F8183168
:103FD0006B68013BFEF75EBE0123C4F818316B68C5
:103FE000013BFEF757BEDFF8CC81D4F8001108F191
:103FF000070A7B274FF000090BE00B460131C24551
:10400000C4F80011E75484F8047100F0548118F8E2
:10401000017FFF29F1D1D4E9423284F8FF90204694
:104020009847D4F828310133C4F8283101210023FE
:10403000E5E7DFF88481D4F8001108F11B0A67274F
:104040004FF000090BE00B460131C245C4F80011E6
:10405000E75484F8047100F0218118F8017FFF29EA
:10406000F1D1D4E9423284F8FF9020469847D4F841
:1040700028310133C4F8283101210023E5E7DFF8B6
:104080003C81D4F8001108F11C0A67274FF00009A1
:104090000BE00B460131C245C4F80011E75484F827
:1040A000047100F0EE8018F8017FFF29F1D1D4E906
:1040B000423284F8FF9020469847D4F828310133E3
:1040C000C4F8283101210023E5E7DFF8F480D4F8B3
:1040D000001108F1090A64274FF000090BE00B46B4
:1040E0000131C245C4F80011E75484F8047100F0AE
:1040F000628118F8017FFF29F1D1D4E9423284F8B6
:10410000FF9020469847D4F828310133C4F828316D
:1041100001210023E5E7BCF1010F40F27783C4F8E9
:104120001421FFF7B7B8EA6831462046FEF7B8FC1D
:104130006B68D4F81C210399013B013AFEF7AABD34
:10414000D9F804603378613B192B1AD8FF290DD1B7
:104150000026D4E9423284F8FF6020469847D4F81C
:104160002831C4F800610133C4F82831D4F80021A3
:104170002023511CC4F80011A35484F80431D9F849
:1041800004604346F21812F8012C202A08BF08F1F7
:10419000FF33002B01F0D382013ED4F8001106EB6F
:1041A00003094FF0000817E050840108B0820108AD
:1041B000A884010818850108F8840108D88401083A
:1041C000B88401080B460131B145C4F80011E75429
:1041D00084F8047100F0F382FF2916F8017FF1D111
:1041E000D4E9423284F8FF8020469847D4F8283139
:1041F0000133C4F8283101210023E5E76B68D4F8C6
:104200001C210399013B013AFEF744BDAA683146DF
:104210002046FEF745FC6B68D4F81C210399013B4E
:10422000013AFEF737BDD4F8483133B1D4F8102144
:10423000079306AB0692C4F81031AA681378042BD2
:1042400000F0C68431462046FEF72AFCD4F84831F7
:1042500013B1069BC4F810316B68D4F81C21039984
:10426000013B013AFEF716BDAA6831462046FEF72B
:1042700017FC6B68D4F81C210399013B013AFEF747
:1042800009BDAA6831462046FEF70AFC6B68D4F8DF
:104290001C210399013B013AFEF7FCBCAA68314698
:1042A0002046FEF7FDFB6B68D4F81C210399013B07
:1042B000013AFEF7EFBCD4F82031AA68D34F01339E
:1042C0003146C4F820312046FEF7EAFBD4F820310D
:1042D000D4F80011013BC4F8203107F10109292667
:1042E0004FF000080AE00B460131B945C4F800114F
:1042F000E65484F8046111D017F8016FFF29F2D158
:10430000D4E9423284F8FF8020469847D4F8283117
:104310000133C4F8283101210023E6E7EA68BC49EB
:10432000013206A80FF0D6F906A804F009F910B377
:1043300006AED4F8001106EB00094FF0000808E0C3
:104340000B460131B145C4F80011E75484F80471FB
:1043500013D0FF2916F8017BF2D1D4E9423284F858
:10436000FF8020469847D4F828310133C4F828311B
:1043700001210023E6E7D4F80011FF290CD1002623
:10438000D4E9423284F8FF6020469847D4F82831B7
:1043900001333146C4F828314A1C7D23C4F800217A
:1043A000635484F804316B68D4F81C210399013BF1
:1043B000013AFEF76FBC3146AA682046FEF770FB53
:1043C000D4F80011FF290CD10026D4E9423284F838
:1043D000FF6020469847D4F8283101333146C4F8AD
:1043E00028314A1C2923C4F80021635484F804317D
:1043F0006B68D4F81C210399013B013AFEF74ABCD3
:10440000AA688349013206A80FF064F906A804F0EF
:1044100097F810B306AED4F8001106EB00094FF080
:10442000000808E00B460131B145C4F80011E7541B
:1044300084F8047113D0FF2916F8017BF2D1D4E976
:10444000423284F8FF8020469847D4F8283101335F
:10445000C4F8283101210023E6E7D4F80011FF2930
:104460000CD10026D4E9423284F8FF6020469847F8
:10447000D4F8283101333146C4F828314A1C7D2351
:10448000C4F80021635484F804316B68D4F81C210B
:104490000399013B013AFEF7FDBBAA68314620466D
:1044A000FEF7FEFA6B68D4F81C210399013B013A30
:1044B000FEF7F0BBAA6831462046FEF7F1FA6B68BA
:1044C000D4F81C210399013B013AFEF7E3BBAA682B
:1044D00031462046FEF7E4FA6B68D4F81C210399B4
:1044E000013B013AFEF7D6BBAA6831462046FEF7EB
:1044F000D7FA6B68D4F81C210399013B013AFEF707
:10450000C9BBAA6831462046FEF7CAFA6B68D4F8E0
:104510001C210399013B013AFEF7BCBBAA68314656
:104520002046FEF7BDFA6B68D4F81C210399013BC5
:10453000013AFEF7AFBBAA6831462046FEF7B0FA53
:104540006B68D4F81C210399013B013AFEF7A2BB2A
:10455000AA6831462046FEF7A3FA6B68D4F81C21FE
:104560000399013B013AFEF795BBDFF8A880EA68A2
:1045700031462046FEF794FA08F1040AD4F80011F7
:1045800020274FF000090BE00B460131C245C4F86B
:104590000011E75484F8047100F0F58018F8017FE9
:1045A000FF29F1D1D4E9423284F8FF9020469847A0
:1045B000D4F828310133C4F8283101210023E5E77C
:1045C0003146EA682046FEF76BFAD4F80011FF295D
:1045D0000CD10026D4E9423284F8FF602046984787
:1045E000D4F8283101333146C4F828314A1C5D2300
:1045F000C4F80021635484F804316B68D4F81C219A
:104600000399013B013AFEF745BB00BF2485010831
:10461000B0820108E48301083146EA682046FEF7CB
:104620003FFAD4F80011FF290CD10026D4E9423218
:1046300084F8FF6020469847D4F82831013331468A
:10464000C4F828314A1C5D23C4F80021635484F85F
:1046500004316B68D4F81C210399013B013AFEF741
:1046600019BBAA6831462046FEF71AFA6B68D4F8DF
:104670001C210399013B013AFEF70CBBAA683146A5
:104680002046FEF70DFA6B68D4F81C210399013B14
:10469000013AFEF7FFBAAA6831462046FEF700FA53
:1046A0006B68D4F81C210399013B013AFEF7F2BA7A
:1046B000AA6831462046FEF7F3F96B68D4F81C214E
:1046C0000399013B013AFEF7E5BADFF8B885AA681D
:1046D00031462046FEF7E4F908F1030AD4F8001148
:1046E0002D274FF000090AE00B460131C245C4F8FE
:1046F0000011E75484F804711ED018F8017FFF29D7
:10470000F2D1D4E9423284F8FF9020469847D4F899
:1047100028310133C4F8283101210023E6E7AA68D3
:1047200031462046FEF7BCF96B68D4F81C2103998A
:10473000013B013AFEF7AEBAEA6831462046FEF781
:10474000AFF96B68D4F81C210399013B013AFEF7DD
:10475000A1BAAA6831462046FEF7A2F96B68D4F8E0
:104760001C210399013B013AFEF794BAAA6831462D
:104770002046FEF795F96B68D4F81C210399013B9C
:10478000013AFEF787BAAA6831462046FEF788F953
:104790006B68D4F81C210399013B013AFEF77ABA01
:1047A0004A463146204601F0B1F9FEF791BA6B68EE
:1047B000D4F81C210399013B013AFEF76BBA6B68F0
:1047C000D4F81C210399013B013AFEF763BA019D1D
:1047D000D9F81C216B6803994C46013B013AFEF75E
:1047E00059BAEA680F4620463146D4F82861FEF7E8
:1047F00057F9D4F828319E4200F054846B68D4F8FD
:104800001C210399013B013AFEF744BAD8F808800D
:10481000B8F1000F00F0C685042F02F110027EF4FB
:1048200008AD0122C4E94532FEF775BDAB681A46F2
:10483000BAF1000F7EF4B8AD6B68D4F81C2103996F
:10484000013B013AFEF726BA2B782F2B00D0A94660
:10485000D4F814E1FEF75FBAAE68D6E9026000282A
:104860003EF418AA3044D4F8001100F1FF39013E9B
:104870004FF0000809E00B460131B145C4F80011C2
:10488000E75484F8047100F07981FF2916F8017F5C
:10489000F1D1D4E9423284F8FF8020469847D4F819
:1048A00028310133C4F8283101210023E5E7D5E997
:1048B000026006EB00084645BEF4ECA94FF0000983
:1048C00009E04B1CC4F80031675484F804710136C8
:1048D000B04540F24B81A8EB0603032B377801DD8E
:1048E0005F2F11D0D4F80011FF29EAD1D4E9423268
:1048F00084F8FF9020469847D4F828310133C4F853
:10490000283100210123DDE773785F2BEAD1B378EA
:10491000552BE7D1F31C9845E4D9002005E0174654
:10492000984507EB001001F012809A4613F8017BBE
:10493000A7F130025FFA82FCBCF1090FA7F1410137
:10494000EDD90529A7F1610200F2A384373FE7E71B
:10495000C94FD4F8001107F1050A7B264FF0000972
:104960000AE00B460131BA45C4F80011E65484F858
:10497000046111D017F8016FFF29F2D1D4E9423256
:1049800084F8FF9020469847D4F828310133C4F8C2
:10499000283101210023E6E7B849424606A80EF077
:1049A00099FE06A803F0CCFD10B306AED4F80011B2
:1049B00006EB00094FF0000808E00B460131B14555
:1049C000C4F80011E75484F8047111D0FF2916F8D7
:1049D000017BF2D1D4E9423284F8FF802046984727
:1049E000D4F828310133C4F8283101210023E6E747
:1049F000D4F80031FF2B0FD10026194684F8FF6050
:104A0000D4E9423220469847D4F82831C4F80061EE
:104A10005A1CC4F828213346591C7D22C4F80011C1
:104A2000E25484F804216B68D4F81C210399013BFB
:104A3000013AFEF72FB96B68D4F81C210399013BAA
:104A4000013AFEF727B905F108012046FBF708FFF8
:104A50000246002800F0B88403782F2B00F0A984C8
:104A6000D4F810713B68C4F8103131462046FEF787
:104A700017F86B68D4F81C210399C4F81071013B36
:104A8000013AFEF707B96B68D4F81C210399013B82
:104A9000013AFEF7FFB87A4E5F2706F105094FF09D
:104AA00000080AE00B460131B145C4F80011E75493
:104AB00084F8047111D016F8017FFF29F2D1D4E9EE
:104AC000423284F8FF8020469847D4F828310133D9
:104AD000C4F8283101210023E6E76B68D4F81C21D3
:104AE0000399013B013AFEF7D5B8AA686349013240
:104AF00006A80EF0EFFD06A803F022FD10B306AEE7
:104B0000D4F8001106EB00094FF0000808E00B464E
:104B10000131B145C4F80011E75484F8047111D093
:104B2000FF2916F8017BF2D1D4E9423284F8FF80E4
:104B300020469847D4F828310133C4F828310121A0
:104B40000023E6E76B68D4F81C210399013B013A86
:104B5000FEF7A0B8D4F80011FEF7D2BA6B68D4F80B
:104B60001C210399013B013AFEF794B86B68D4F815
:104B70001C210399013B013AFEF78CB86B68D4F80D
:104B80001C210399013B013AFEF784B86B68D4F805
:104B90001C210399013B013AFEF77CB826F0600125
:104BA00005F10C02D4F814310091204601F0B4FA5A
:104BB000AA680099002A00F0CA852046FDF770FF18
:104BC0006B68D4F81C210399013B013AFEF762B8E7
:104BD000926831462046FDF763FFD4F8483113B19F
:104BE000069BC4F8103194F804313C2B00F00F857B
:104BF000D4F80031FF2B0FD10027194684F8FF703D
:104C0000D4E9423220469847D4F82831C4F80071DC
:104C10005A1CC4F828213B46591C3C22C4F80011F8
:104C2000E25484F80421AB683146DA682046FDF787
:104C300037FF94F804313E2B00F0CC84D4F80031D7
:104C4000FF2B0FD10026194684F8FF60D4E94232C9
:104C500020469847D4F82831C4F800615A1CC4F89B
:104C6000282133463E22591CC4F80011E25484F82E
:104C70000421FFF7F1BA00BFD0840108B082010817
:104C8000448401082083010893681F7C062F00F2EA
:104C9000BF81002F3EF48BA8EB6893F80080B8F139
:104CA000000F7EF484A8BCF13E0F00F0F486EA68A1
:104CB00031462046023FFDF7F3FE042F00F2148731
:104CC000DFE817F0C606A306960689067C0631467D
:104CD0002A46204600F01AFFFEF7FDB800221946CA
:104CE00084F8FF202046D4E942329847D4F828318E
:104CF00001210B442922C4F82831C4F80011227084
:104D000084F804212B783E2B7EF47FA8D4F8002170
:104D10002D23511CC4F80011A35484F80431FEF76C
:104D200074B8D4F80031FF2B0FD10026194684F84F
:104D3000FF60D4E9423220469847D4F82831C4F8BD
:104D400000615A1CC4F8282133462022591CC4F89B
:104D50000011E25484F80421FEF77FBFD4F800313B
:104D6000FF2B10D14FF00009194684F8FF90D4E9C9
:104D7000423220469847D4F82831C4F800915A1C92
:104D8000C4F828214B462022591CC4F80011E254D3
:104D900084F80421FEF73EBFD8F80830D249D3F892
:104DA00000A0504603F050FA3B7810B9032B00F0F6
:104DB0009E85392B00F08985CC49504603F044FA92
:104DC0008146002800F036859AF80030732B2BD1ED
:104DD0009AF80130502B27D19AF8023023BB1E4697
:104DE00003E0FF68002F00F0FA823B782F2B40F0A1
:104DF000F682BB68002B00F0F2821A784B2A18BFAB
:104E00000136EED199682046FBF73AFD034648B1DA
:104E1000002304E082682AB1C068013310B102782F
:104E20002F2AF7D01E44DCE742463146204601F0E7
:104E30007DFC9AF80030672B13D19AF80130732B60
:104E40000FD19AF8023063B93A4631462046FDF751
:104E500027FE6B68D4F81C210399013B013AFDF74A
:104E600019BFA349504603F0EFF9804600287EF4AD
:104E7000C1A9D4F80031FF2B0ED184F8FF001946E8
:104E80002046D4E942329847D4F82831C4F800814A
:104E90005A1CC4F828214346581C4FF0280CC4F86B
:104EA00000013A4604F803C03146204684F804C1A4
:104EB000FDF7F6FDD4F80031FF2B0FD1002619467F
:104EC00084F8FF60D4E9423220469847D4F828316C
:104ED000C4F800615A1CC4F828213346591C292201
:104EE000C4F80011E25484F804216B68D4F81C2142
:104EF0000399013B013AFDF7CDBE7E4FD4F8001176
:104F000007F102090AE00B460131B945C4F8001166
:104F100004F8038084F804813DF430AFFF2917F8CA
:104F2000018BF0D1D4E9423284F8FFA020469847A3
:104F3000D4F828310133C4F8283101210023E4E7F3
:104F40006D4FD4F8001107F105094FF0000A0AE08F
:104F50000B460131B945C4F8001104F8038084F808
:104F600004813EF4A8A8FF2917F8018BF0D1D4E9F9
:104F7000423284F8FFA020469847D4F82831013304
:104F8000C4F8283101210023E4E7D4F80031FF2BD5
:104F90000FD10027194684F8FF70D4E94232204629
:104FA0009847D4F82831C4F800715A1CC4F8282155
:104FB0003B46591C5B22C4F80011E25484F80421DA
:104FC000EA6831462046FDF76BFDD4F80031FF2B2F
:104FD0000FD10026194684F8FF60D4E942322046FA
:104FE0009847D4F82831C4F800615A1CC4F8282125
:104FF0003346591C5D22C4F80011E25484F80421A0
:105000006B68D4F81C210399013B013AFDF742BEBD
:10501000072F7DF4CCAEEB68197800297DF4C7AE7C
:10502000D96801297DF4C3AEBCF13D0F7DF4BFAE5C
:105030009B681B78302B00F04A85312B7DF4B7AE8E
:105040002E4904222046FBF7A9F96B68D4F81C21ED
:105050000399013B013AFDF71DBE012A3EF623A943
:10506000042FACF1100B0CF1100A00F09D819BE8AD
:105070000F008CE80F0000234AF81C8C4AF8183CFB
:10508000D8F80880C4F814C14AE905EB0137D446C2
:10509000FEF7F2B86B68D4F81C210399013B013A82
:1050A000FDF7F8BDD4F80031BB427FF4A7AB6B68C5
:1050B000D4F81C210399023FC4F80071013B013A66
:1050C000FDF7E8BDAA6831462046FDF7E9FC6B68AC
:1050D000D4F81C210399013B013AFDF7DBBD0F46D3
:1050E000A946FDF718BE00BF688401086C8401085A
:1050F000948701089C82010834840108A084010877
:1051000026F06006FDF725BF0123C4F81831FDF72E
:10511000C6BF06ABD4F81471C4F81431CDE90750FA
:10512000D4F810310697314620460993FDF7B8FCB4
:10513000089F069BC4F81431002F40F0EA83D4F88E
:105140000031FF2B0ED1194684F8FF70D4E94232AA
:1051500020469847D4F82831C4F800715A1CC4F886
:1051600028213B462022591CC4F80011E25484F83F
:105170000421FDF7EEBED24FD4F8001107F10D0A5D
:105180004FF0000B09E00B460131BA45C4F800119D
:1051900004F8039084F8049111D0FF2917F8019BBB
:1051A000F1D1D4E9423284F8FFB020469847D4F8D0
:1051B00028310133C4F8283101210023E5E7D8F86C
:1051C0000C20C049013206A80EF084FA06A803F0AC
:1051D000B7F918B306AFD4F8001107EB00094FF088
:1051E000000B09E00B460131B945C4F8001104F881
:1051F00003A084F804A111D0FF2917F801ABF1D165
:10520000D4E9423284F8FFB020469847D4F82831D8
:105210000133C4F8283101210023E5E7AA4FD4F86F
:10522000001107F1030A4FF0000B09E00B460131B2
:10523000BA45C4F8001104F8039084F8049111D021
:10524000FF2917F8019BF1D1D4E9423284F8FFB06D
:1052500020469847D4F828310133C4F82831012179
:105260000023E5E7D8F80880FDF78FBDFF297FF41C
:105270004DAD4FF00008D4E9423284F8FF8020465B
:105280009847D4F82831C4F800810133C4F8283194
:105290003CE5052A00F26583573FFFF741BBD4E99F
:1052A0004CC7002F40F3D181E646924604E09F426E
:1052B0000EF1080E00F0C8815CF83320914503F12F
:1052C0000103F4D1034603E05B68002B00F09382F6
:1052D0001A68914503D09542F6D18342F4D009F182
:1052E00008012046FBF7BCFA8146A0B1002799F8D7
:1052F00000302F2B7DF411AED4F824110029FFF6D5
:10530000A3AA4846FBF79AFA814600287DF405AE29
:105310000FB1C4F810810123C4F818316B68D4F8B8
:105320001C210399013B013AFDF7B4BCAA6805F1C1
:105330000C033146204601F085FA0746002840F06C
:105340004A82D5E902A2DAF80810D36808685F49F2
:10535000D2F808B0D3E9029802F076FF002840F0B6
:10536000FE815A463146204601F01CFA524631462B
:10537000204601F0DBF94A463146204601F012FA98
:10538000534903222046FBF709F84246314620469E
:1053900001F008FA6B68D4F81C210399013B013A2B
:1053A000FDF778BCC4F814210123C4F81831FDF7C7
:1053B000B2BFD4F824110029FFF652ABFBF73EFA36
:1053C000024600287FF44CAB0123C4F818316B6807
:1053D000D4F81C210399013B013AFDF75BBC394924
:1053E000324606A80EF076F906A803F0A9F808B32D
:1053F00006AED4F8001137184FF0000909E00B464B
:10540000591CB742C4F8001104F8038084F80481E1
:1054100010D0FF2916F8018BF1D1D4E9423284F87B
:10542000FF9020469847D4F828310133C4F828313A
:105430000023E5E76B68D4F81C210399013B013A8E
:10544000FDF728BC6B68D4F81C210399013B013A95
:10545000FDF720BC1B78A3F16301012903D9723B3E
:10546000012B3DF6A5AB3146204601F05FF9D4F89B
:105470000031FF2B0FD10027194684F8FF70D4E9C3
:10548000423220469847D4F82831C4F800715A1C9B
:10549000C4F828213B46591C3C22C4F80011E254B0
:1054A00084F80421EB680B4F9A6831462046FDF7DB
:1054B000F7FA07F10209D4F800114FF0000A15E0DD
:1054C000A0820108B0820108B48201087C8401082E
:1054D00080840108708401080B46591CB945C4F842
:1054E000001104F8038084F8048110D0FF2917F814
:1054F000018BF1D1D4E9423284F8FFA020469847CD
:10550000D4F828310133C4F828310023E5E7EB68EB
:105510003146DA682046FDF7C3FAD4F80031FF2B94
:105520000FD10026194684F8FF60D4E942322046A4
:105530009847D4F82831C4F800615A1CC4F82821CF
:105540003346591C2922C4F80011E25484F804217E
:105550006B68D4F81C210399013B013AFDF79ABB13
:10556000D9F80820FDF79FBBB549404602F06CFE14
:10557000002840F0C881EB683146DA68204601F027
:1055800011F9FDF77CBB9A68916801297DF41FAB86
:10559000526812783E2A7DF41AABD4F80031FF2B02
:1055A0000ED184F8FF0019462046D4E942329847CC
:1055B000D4F82831C4F800715A1CC4F828213B469D
:1055C000591C2822C4F80011E25484F80421AB6865
:1055D000FDF7FDBAD4F80031FF2B0FD10026194694
:1055E00084F8FF60D4E9423220469847D4F8283145
:1055F000C4F800615A1CC4F8282133462022591CE3
:10560000C4F80011E25484F80421FFF717BBD4F862
:105610000031FF2B0FD10027194684F8FF70D4E921
:10562000423220469847D4F82831C4F800715A1CF9
:10563000C4F828213B462022591CC4F80011E2542A
:1056400084F80421FFF7D4BA5246D4F838319F4287
:1056500080F2AA817B1C0CEBC70EC4F834314CF8E5
:105660003790D4F810710EF1040E002F00F0A381D2
:10567000D4E95003984200F1010C80F29581D4F8EE
:105680003C31C4F840C103EBC00378685860CEF8E1
:1056900000303F689E46E8E7AA683146204601F0A0
:1056A00081F8684903222046FAF778FE6B68D4F83F
:1056B0001C210399013B013AFDF7ECBA6249D9F884
:1056C00008000EF029F800287EF49AAAEA6831460C
:1056D0002046FDF7E5F95D4902222046FAF75EFE15
:1056E000FEF7D3BA9B689A68012A7DF4CDAA5B685D
:1056F0001B783E2B7DF4C8AAD4F80031FF2B0FD1C4
:105700000026194684F8FF60D4E9423220469847C3
:10571000D4F82831C4F800615A1CC4F82821334653
:10572000591C2922C4F80011E25484F804216B6842
:10573000D4F81C210399013B013AFDF7ABBA6B6821
:10574000D4F81C210399013B013AFDF7A3BA6B6819
:10575000D4F81C210399013B013AFDF79BBA3C495F
:1057600004222046FAF71AFEDBF80830F3B15A4655
:105770003146204601F016F8D4F80031FF2B0ED147
:10578000194684F8FF70D4E9423220469847D4F88D
:105790002831C4F800715A1CC4F828213B46202245
:1057A000591CC4F80011E25484F804214A463146D9
:1057B0002046FDF775F9B8F1000F14D04246314686
:1057C000204600F0EFFF6B68D4F81C210399013BE1
:1057D000013AFDF75FBA6B68D4F81C210399013BCD
:1057E000013AFDF757BA6B68D4F81C210399013BC5
:1057F000013AFDF74FBADEF80430D4F81081C4F84E
:10580000103109F108012046FBF72AF881460028EB
:105810003FF47FAD01276AE5D3681B78292B1CBFB5
:105820000123C4F8183192683146204600F0BAFFCF
:10583000FDF7DEB939462046FBF722F880B912E0C1
:1058400074840108C4840108B8820108C082010878
:1058500084840108836833B1C06809F1010910B17B
:1058600003782F2BF6D0A4494A4606A80DF032FF44
:1058700006A802F065FE00B306AE37184FF0000828
:10588000D4F8001116F8019BFF290DD1D4E942325A
:1058900084F8FF8020469847D4F82831C4F8008166
:1058A0000133C4F8283100214B1CB742C4F8003141
:1058B00004F8019084F80491E2D16B68D4F81C21BB
:1058C0000399013B013AFDF7E5B9BA683146204634
:1058D00000F068FF42463146204600F027FF6B6823
:1058E000D4F81C210399013B013AFDF7D3B9BB68F9
:1058F0001A78012A7FF460AAFA681278292A08BF68
:105900001F46FFF759BA3A463146204600F00EFFCF
:1059100031E66B68D4F81C210399013B013AFDF78D
:10592000B9B9D8F80880B8F1000F3FF43DADFDF7E4
:10593000A1BCEA6831462046FDF7B2F8089B009A00
:10594000C4F81421002B3DF4A2ABFDF7A8BB5F27E0
:10595000FEF7C8BF42463146204600F0E7FEFDF79D
:1059600049BCD045F3D95F2FF1D1FF283EF6BAAF3D
:10597000D4F80011FF29C7B20DD1D4E9423284F81E
:10598000FF9020469847D4F82831C4F8009101339D
:10599000C4F8283100214B1CC4F800315646675426
:1059A00084F80471FEF793BF0123C4F818316B68C3
:1059B000013BFDF76FB9CEF8007090E44F49032228
:1059C0002046FAF7EBFC6B68D4F81C210399013BE5
:1059D000013AFDF75FB94A4902222046FAF7DEFC98
:1059E0006B68D4F81C210399013B013AFDF752B9C9
:1059F000444902222046FAF7D1FC6B68D4F81C21F6
:105A00000399013B013AFDF745B9D4F80031FF2B6A
:105A10000FD10026194684F8FF60D4E942322046AF
:105A20009847D4F82831C4F800615A1CC4F82821DA
:105A30003346591C6C22C4F80011E25484F8042146
:105A40006B68D4F81C210399013B013AFDF722B998
:105A5000D4F80031FF2B0FD10026194684F8FF60DF
:105A6000D4E9423220469847D4F82831C4F800617E
:105A70005A1CC4F828213346591C7522C4F8001159
:105A8000E25484F804216B68D4F81C210399013B8B
:105A9000013AFDF7FFB8D4F80031FF2B0ED11946BB
:105AA00084F8FF80D4E9423220469847D4F8283160
:105AB000C4F800815A1CC4F8282143462D22591CE1
:105AC000C4F80011E25484F80421FFF7F0B80E493D
:105AD00005222046FAF762FC6B68D4F81C21039972
:105AE000013B013AFDF7D6B86B68D4F81C21039945
:105AF000013B013AFDF7CEB8B08201089484010859
:105B0000908401088C840108988401082DE9F047ED
:105B10001378033B154604460E464D2B4FD8DFE85D
:105B200013F0BD004E004E004E004E004E004E00E1
:105B30004E004E004E004E004E004E004E004E00F5
:105B40004E004E004E004E004E004E004E005300E0
:105B500077009A00530077009A00C200CF00DC0063
:105B6000EF003801460169018C014E004E004E00E5
:105B70004E0000014E0035024E004E004E004E0019
:105B80004E004E004E004E004E004E004E004E00A5
:105B90004E004E004E004E004E004E004E004E0095
:105BA0004E004E004E004E004E004E004E004E0085
:105BB0004E004E004E00B0014E00D401FA012A46BC
:105BC000BDE8F047FCF76CBFD84ED0F8001106F1E5
:105BD0000808202500270BE00B460131B045C4F82A
:105BE0000011E55484F8045100F0998016F8015F23
:105BF000FF29F1D1D4E9423284F8FF70204698475A
:105C0000D4F828310133C4F8283101210023E5E715
:105C1000C74ED0F8001106F10808202500270AE039
:105C20000B460131B045C4F80011E55484F8045125
:105C300075D016F8015FFF29F2D1D4E9423284F819
:105C4000FF7020469847D4F828310133C4F8283132
:105C500001210023E6E7B74ED0F8001106F1050850
:105C6000202500270AE00B460131B045C4F8001199
:105C7000E55484F8045152D016F8015FFF29F2D19F
:105C8000D4E9423284F8FF7020469847D4F828318E
:105C90000133C4F8283101210023E6E7AA68BDE8F2
:105CA000F047FCF7FDBED0F80031FF2B00F0E68195
:105CB0002022591CC0F80011C25480F804216AE067
:105CC000D0F80031FF2B00F0CA81591C2022C4F803
:105CD0000011E25484F804216BE0D0F80011FF2990
:105CE00000F0AF814A1C2023C4F80021635484F8DB
:105CF0000431EA6831462046BDE8F047FCF7D0BEE3
:105D000011F004060BD1D0F80011FF2900F0F48146
:105D10004A1C2A23C4F80021635484F80431BDE8E6
:105D2000F08790F80431282B0BD0D0F80011FF2910
:105D300000F0D4814A1C2023C4F80021635484F865
:105D400004317D4FAA6831462046FCF7A9FE07F1D1
:105D50000208D4F800113A2500260AE00B4601316A
:105D60004745C4F80011E55484F80451D7D017F81A
:105D7000015FFF29F2D1D4E9423284F8FF60204666
:105D80009847D4F828310133C4F828310121002381
:105D9000E6E7D0F80011FF2900F080814A1C262395
:105DA000C4F80021635484F80431BDE8F087D0F8CA
:105DB0000011624E262506F1010800270AE00B4675
:105DC0000131B045C4F80011E55484F80451A6D05F
:105DD00016F8015FFF29F2D1D4E9423284F8FF704E
:105DE00020469847D4F828310133C4F828310121DE
:105DF0000023E6E7524ED0F8001106F107086325AC
:105E000000270AE00B4601314645C4F80011E5546D
:105E100084F8045183D016F8015FFF29F2D1D4E948
:105E2000423284F8FF7020469847D4F82831013375
:105E3000C4F8283101210023E6E7424ED0F80011D2
:105E400006F10908692500270BE00B460131B04532
:105E5000C4F80011E55484F804513FF460AF16F81B
:105E6000015FFF29F1D1D4E9423284F8FF70204666
:105E70009847D4F828310133C4F828310121002390
:105E8000E5E7314ED0F8001106F110082025002773
:105E90000BE00B460131B045C4F80011E55484F81D
:105EA00004513FF43CAF16F8015FFF29F1D1D4E96A
:105EB000423284F8FF7020469847D4F828310133E5
:105EC000C4F8283101210023E5E7DFF88080D0F80D
:105ED000003108F1080A20274FF000090AE01A46AD
:105EE0000133D045C4F80031A75484F8047172D04E
:105EF00018F8017FFF2BF2D1194684F8FF90D4E9FE
:105F0000423220469847D4F828310133C4F828316A
:105F100000220123E5E7DFF83880D0F8003108F1EE
:105F2000050A20274FF000091FE000BF4485010843
:105F3000508501085C850108A88501088C85010849
:105F4000908501089C850108648501087885010811
:105F5000848501081A460133C245C4F80031A754AC
:105F600084F8047137D018F8017FFF2BF2D119465D
:105F700084F8FF90D4E9423220469847D4F828317B
:105F80000133C4F8283100220123E5E7DFF88481DA
:105F9000D0F8001108F1090A20274FF000090AE0A3
:105FA0000A460131C245C4F80011A75484F80471AF
:105FB0002FD018F8017FFF29F2D1D4E9423284F8BA
:105FC000FF9020469847D4F828310133C4F828318F
:105FD00001210022E6E7EA68002A3FF4A0AEFF2B89
:105FE0006BD0591C2825C4F800112046E5543146D1
:105FF00084F80451FCF754FDD4F80011FF2911D0A6
:106000004A1C2923C4F80021635484F80431BDE8F4
:10601000F0873146AA682046FCF742FDD4F800110B
:10602000FF29EDD10025D4E9423284F8FF50204603
:106030009847D4F8283101332946C4F82831012281
:10604000DFE70027D0E9423280F8FF709847D4F8A4
:10605000283101333946C4F82831012243E60025AE
:10606000194680F8FF50D0E942329847D4F82831D9
:106070005A1CC4F828212B46012127E60022194684
:1060800080F8FF20D0E942329847D4F82831202206
:106090000133C4F82831227001217FE60025D4E9BC
:1060A000423284F8FF5020469847D4F82831013313
:1060B0002946C4F82831012271E60027194684F8E0
:1060C000FF70D4E9423220469847D4F82831EA6874
:1060D000591CC4F828113B46012183E70027D0E969
:1060E000423280F8FF709847D4F82831013339469E
:1060F000C4F8283101221EE6D0E9423280F8FF6060
:106100009847D4F8283101333146C4F828310122A8
:10611000FFE500BFAC8501082DE9F04704460E46B7
:1061200017461D46002B62D09A68002A5FD15A6834
:1061300010781938122857D8DFE800F00A0A0A56F2
:10614000565656560A8989890A0A565656560A00DC
:1061500094F80431202B00F08180D4F80031FF2B1B
:1061600000F0A080591C2022FF29C4F80011E2543D
:1061700084F8042176D04B1C4FF02809C4F8003174
:1061800004F801904FF0000AD4F8148184F80491C7
:106190002A46C4F814A153463146204600F0ACF814
:1061A000D4F80021FF2A00F08E80511C2923FF29FA
:1061B000C4F80011A35484F8043126D1002384F8D4
:1061C000FF302046D4E9423298472823237084F8D0
:1061D0000431D4F828313A68591C0123C4F8281135
:1061E000C4F80031D2B921E01B68002B9CD10023F8
:1061F000D4F81481C4F8143131462A46204600F000
:106200007BF8D4F80011FF29D8D028224B1CC4F801
:106210000031625484F804213A682AB1314620469C
:10622000FCF73EFCD4F80031FF2B2BD05A1C292060
:10623000C4F800213146E0542A4684F804010123C1
:10624000204600F059F8C4F81481BDE8F08794F8AE
:10625000043103F0FD02282A7FF47CAFD4F800114A
:10626000FF2988D14FF00008D4E9423284F8FF803A
:1062700020469847D4F828310133C4F828314146E4
:10628000012379E70027194684F8FF70D4E94232E8
:1062900020469847D4F828315A1CC4F828213B4698
:1062A0000122C4E70022194684F8FF202046D4E9E1
:1062B00042329847D4F8283120220133C4F82831DB
:1062C0002270012157E7114684F8FFA0D4E9423239
:1062D0002046984742F62903238084F80491D4F895
:1062E00028313A68591C0223C4F82811C4F8003137
:1062F000002A93D19AE700BF002A00F0BB802DE965
:10630000F04F054689B00F461E4614464FF001086F
:1063100019E0A0F11C03042B12D9E368D5F8109101
:10632000C4F808802928C5F8103157D02A2860D031
:10633000022821D039462846FFF7E8FBC5F810911E
:106340002468002C47D0D5F81821002A43D1A3682F
:10635000002BF5D162681078002EDED14D28EFD0E9
:10636000D7D94F380128EBD9E368D5F81091C4F894
:106370000880C5F81031DDE70026D5F81481926851
:10638000C5F8146139462846FCF78AFB17F0040A61
:10639000C5F814813DD0D5F80011FF295CD04A1C06
:1063A0002E23C5F800216B5485F804316368DC683E
:1063B0002378472B5FD04D2BA3F14F02A3F11C0193
:1063C00024D021D8042921D9224639462846FCF771
:1063D00067FBC5F8109109B0BDE8F08F23680C3257
:1063E00039462846FFF798FEC5F8109109B0BDE878
:1063F000F08F236808323946284600F0BDF8C5F80A
:10640000109109B0BDE8F08F012ADDD8A468237887
:10641000D1E7DFF85881D5F8001108F1010B3A26D1
:106420000AE00B460131D845C5F80011EE5485F855
:106430000461BBD018F8016FFF29F2D1D5E94232CF
:1064400085F8FFA028469847D5F828310133C5F8CC
:10645000283101210023E6E7D5E9423285F8FF60C3
:1064600028469847D5F8283101333146C5F82831F8
:10647000012295E77047DFF8F880D5F8001108F1A0
:106480000C0B7B264FF0000A0AE00B460131D84581
:10649000C5F80011EE5485F8046111D018F8016FA9
:1064A000FF29F2D1D5E9423285F8FFA02846984766
:1064B000D5F828310133C5F8283101210023E6E75A
:1064C000E2682949013201A80DF004F901A802F09F
:1064D00037F818B301AED5F8001106EB000B4FF0FA
:1064E000000A09E00B460131B345C5F8001105F873
:1064F000038085F8048113D0FF2916F8018BF1D1B0
:10650000D5E9423285F8FFA028469847D5F82831CA
:106510000133C5F8283101210023E5E7D5F8001142
:10652000DFF850807D2608F1020B4FF0000A0BE0E7
:106530000B460131C345C5F80011EE5485F80461DE
:106540003FF464AF18F8016FFF29F1D1D5E9423269
:1065500085F8FFA028469847D5F828310133C5F8BB
:10656000283101210023E5E7B08201089C8201085F
:10657000A0820108B48201082DE9F84F04460E46B6
:1065800091466BB11D461A469368002B58D012688D
:10659000002AF9D1134631462A462046FFF7ACFEC1
:1065A000D4F80031FF2B57D02022591CC4F8001119
:1065B000E25484F80421FF291AD05B224B1CC4F852
:1065C0000031625484F80421D9F800202AB1314600
:1065D0002046FCF765FAD4F80031FF2B20D0591C77
:1065E0005D22C4F80011E25484F80421BDE8F88F5C
:1065F000002384F8FF302046D4E9423298475B23D9
:10660000237084F80431D4F82831D9F80020591CBB
:106610000123C4F82811C4F80031002AD7D1DEE7DD
:106620000025194684F8FF50D4E9423220469847A5
:10663000D4F828315A1CC4F828212B460121CFE771
:10664000526812782A2A22D131462A462046FFF77C
:1066500053FED4F80011AEE70022194684F8FF205B
:106660002046D4E94232984745F620325B2384F82D
:1066700004312280D4F82831D9F80020591C022393
:10668000C4F82811C4F80031002AA0D1A7E7DFF828
:106690009880D4F800119B4608F1010A20270BE0EE
:1066A0000B46C24501F10101C4F80011E75484F81A
:1066B000047117D018F8017FFF29F1D1D4E94232D3
:1066C00084F8FFB020469847D4F828310133C4F845
:1066D000283100230121C245C4F80011E75484F891
:1066E0000471E7D131462A4600232046FFF704FE15
:1066F000D4F80011FF2907D029224B1CC4F800311F
:10670000625484F804214DE7002384F8FF302046CA
:10671000D4E942329847D4F8283129220133C4F809
:106720002831227001233FE7C08401082DE9F041A0
:106730001578322D03D0BDE8F041FCF7B1B993686C
:10674000D3E901565EB32E44D0F800110446013E51
:10675000013D00270AE00B46B54201F10101C4F8F2
:10676000001104F8038084F8048118D0FF2915F87B
:10677000018FF0D1D4E9423284F8FF702046984767
:10678000D4F828310133C4F8283100230121B5425F
:10679000C4F8001104F8038084F80481E6D1BDE850
:1067A000F08100BF2DE9F0411378012B15460E460C
:1067B000044620D9312B1ED0062B1CD0D0F80071F6
:1067C000FF2F1FD07A1C2823C4F800213146E3553F
:1067D0002A46204684F80431FCF762F9D4F8001107
:1067E000FF291FD04A1C2923C4F80021635484F8D0
:1067F0000431BDE8F0812A4631462046BDE8F0412B
:10680000FCF74EB94FF00008D0E94232394680F823
:10681000FF809847D4F8283101334746C4F828311F
:106820000122D0E70025D4E9423284F8FF50204607
:106830009847D4F8283101332946C4F82831012279
:10684000D1E700BF2DE9F04F926812681578662DE8
:1068500083B07AD11B68D3E9028A9AF800303C2BC6
:106860004FF0FF3308BFDAE902A90C46D0F8241133
:10687000C0F824315378019118BF4FF000096C2BF8
:10688000074600F0A08064D84C2B01D0522B55D184
:10689000D7F80011FF2900F0E5804A1C2823C7F82B
:1068A000002138467B545246214687F80431754D05
:1068B000FFF778FF214642463846FFF737FF05F1DC
:1068C000020BD7F800112E264FF0000A0BE00B4602
:1068D000AB4501F10101C7F80011FE5487F80461CE
:1068E00017D015F8016FFF29F1D1D7E9423287F8A7
:1068F000FFA038469847D7F828310133C7F8283128
:1069000000230121AB45C7F80011FE5487F804614C
:10691000E7D1424621463846FFF708FF4A4621465E
:106920003846FFF73FFFD7F80011FF297DD04A1CFA
:106930002923C7F800217B5487F80431019BC7F84D
:106940002431012003B0BDE8F08F002003B0BDE882
:10695000F08F722BF2D1D0F80011FF2974D04A1CAD
:106960002823C7F8002138467B545246214687F831
:106970000431FFF717FF2146434C42463846FFF7E4
:10698000D5FE04F10308D7F800112E2500260AE0F1
:106990000B4601314445C7F80011FD5487F80451F6
:1069A000CCD014F8015FFF29F2D1D7E9423287F841
:1069B000FF6038469847D7F828310133C7F82831A7
:1069C00001210023E6E7314DD0F8001105F1030B5A
:1069D00028264FF000090BE00B46AB4501F1010101
:1069E000C7F80011FE5487F8046117D015F8016F3D
:1069F000FF29F1D1D7E9423287F8FF90384698470E
:106A0000D7F828310133C7F8283100230121AB45DD
:106A1000C7F80011FE5487F80461E7D142462146C9
:106A20003846FFF783FE524679E70024D7E9423221
:106A300087F8FF4038469847D7F828310133214678
:106A4000C7F82831012273E70025D0E9423280F8E7
:106A5000FF509847D7F8283101332946C7F8283125
:106A600001227DE70025D7E9423287F8FF503846FA
:106A70009847D7F8283101332946C7F82831012231
:106A80000CE700BFC4840108C0850108B88501086F
:106A90002DE9F04FE5B090F80090B9F15F0F00AF2D
:106AA00004468846164600F0F280C4490822204673
:106AB0000CF032FE48B9237A2E2B00F0D7805F2BE2
:106AC00000F0D480242B00F0D1804FF0000A204643
:106AD00001F036FD22184FEA400B1123FA60BBF596
:106AE000006F4FF00002C7E90434C7E9072BC7E97C
:106AF0000C22C7E90E22F862BC60BA623A6400F266
:106B0000AF806D468100A5EB4013073121F00701EE
:106B10009D46ADEB010DBAF1010FC7F824D0BB6162
:106B200000F0C980AAF10201012900F2CA80E17ACD
:106B3000BAF1020F08BF4FF0440904F10B0A18BF65
:106B40004FF045095F29C7F814A000F0A780504610
:106B50007B6001F0F5FCBBF1000F7B6840F31A810C
:106B6000002201215A60F961002800F01381C3E975
:106B700002A01A701A464946002307F10800F9F7E7
:106B80003FFB7C698146204601F0DAFC23187B61DB
:106B9000235C002B40F09280B9F1000F00F08E8052
:106BA00007F1440420464946C4E94433C4E9493363
:106BB000C4E94633C4E94B33C4E94D33C4E94F3328
:106BC0007B60C4F8003184F80431C4F82031C4F883
:106BD0004431C4F80881C4F80C61F9F777FBD4F8A4
:106BE0001C21B2F5006FD4F83821BCBF7B68C4F813
:106BF0001C31D4F84431012A1046E846B8BF0120C0
:106C000003FB02F3A8EBC002012B9546EC461946A4
:106C1000B8BF0121ACEBC1018D464A4600261121C7
:106C20002046C4F84431C4F830C1C4F83CD1C4F89B
:106C30004861FBF735FFD4F80011D4F808316654E9
:106C4000C5462046D4F80C219847D4F81801B0FA6C
:106C500080F04009AD4607F5CA77BD46BDE8F08F24
:106C6000104607F5CA77BD46BDE8F08F637A442B1E
:106C700002D0492B7FF429AFA27A5F2A7FF425AF97
:106C8000492B0CBF4FF0020A4FF0030A1FE743786D
:106C90005A2B7FF40AAF4FF0010A18E7217B5A29DB
:106CA0007FF455AF0D34114607F108007C61FAF707
:106CB00047FB03465EE7B9F15F0F0AD00020AD46FF
:106CC000C9E707F10800FAF767FF7B6981461B787F
:106CD0005FE763785A2BF1D10234514607F108007F
:106CE0007C61FAF72DFB3B6913F0010F81464FF0F1
:106CF00000025FD0D7F814C09CF800302E2B7FF430
:106D000048AF14469CF80130A3F16102192A45D915
:106D10005F2B43D0303B092B4CD89CF800106346C6
:106D20002E2912D15A78303A092A0ED89A78A2F12F
:106D30003001092903F1020305D813F8012FA2F14C
:106D400030010929F9D92E2AECD0D7E90701884268
:106D50007B61A3EB0C021FDAB96901EB001300F1B0
:106D6000010E002A5C604FEA0010C7F81CE013DD3A
:106D70005C600C54C3E902C24A464E2107F1080088
:106D8000F9F73EFAD7F814C09CF800302E2B814654
:106D9000B8D0FEE60023EDE60023EDE70CF1020299
:106DA000134612F8011BA1F161001928F8D95F29D7
:106DB000F6D0B5E77B691B78EBE600BF448201089B
:106DC0002DE9F0411E4684B0002840D00C461546FF
:106DD00009B1002A3BD0002329496A46CDE9003396
:106DE000CDE90233FFF754FE002839D0039B009F02
:106DF000D3B9DDF80880002F3CD02CB3384601F021
:106E00009FFB2B68984219D2421C3946204601F05C
:106E10006FF938460BF044FD27460EB1002333606E
:106E2000384604B0BDE8F0814FF00108002FE4D1EE
:106E30008EB14FF0FF3333600027F1E720460BF0AF
:106E40002FFDC5F80080E8E7002DFAD1E5E716B17F
:106E50006FF0020333600027384604B0BDE8F081CC
:106E600000980BF01DFD002EF5D06FF0010333608C
:106E70000027D5E7002EEED0B8F1010FD9D0F4E706
:106E80001109000860B108B539B1FFF701FE00280B
:106E900014BF00206FF0010008BD6FF0020008BDB4
:106EA0006FF00200704700BF53B94AB9002908BF0C
:106EB00000281CBF4FF0FF314FF0FF3001F0C0B889
:106EC000ADF1080C6DE904CE00F006F8DDF804E041
:106ED000DDE9022304B070472DE9F047089D044620
:106EE0008C46002B40F083808A42174647D9B2FA7D
:106EF00082F242B1C2F1200024FA00F091409740A2
:106F000040EA010C94404FEA1748230CBCFBF8F60A
:106F10001FFA87FE08FB16C143EA014306FB0EF188
:106F2000994209D9FB1806F1FF3080F01981994286
:106F300040F21681023E3B445B1AA4B2B3FBF8F068
:106F400008FB103344EA034400FB0EFEA64509D9B2
:106F50003C1900F1FF3380F00581A64540F2028123
:106F600002383C4440EA0640A4EB0E0400261DB162
:106F7000D4400023C5E900433146BDE8F08702B99B
:106F8000FFDEB2FA82F2002A50D1CB1B4FEA174E35
:106F90001FFA87F80126B3FBFEFC210C0EFB1C3305
:106FA00041EA034108FB0CF38B4207D979180CF135
:106FB000FF3002D28B4200F2E9808446C91AA3B2A4
:106FC000B1FBFEF00EFB101143EA014408FB00F890
:106FD000A04507D93C1900F1FF3302D2A04500F2C9
:106FE000D9801846A4EB080440EA0C40BFE78B4266
:106FF00009D9002D00F0B1800026C5E90001304616
:107000003146BDE8F087B3FA83F6002E4AD18B42B1
:1070100002D3824200F2B880841A61EB030101209E
:107020008C46002DA8D0C5E9004CA5E7C2F120038D
:1070300020FA03F6974001FA02F04FEA174ED940C2
:107040003043030CB1FBFEF61FFA87F80EFB161156
:1070500043EA014306FB08F1994204FA02F409D914
:10706000FB1806F1FF3C80F08D80994240F28A8047
:10707000023E3B445B1A81B2B3FBFEF00EFB1033C1
:1070800041EA034100FB08F38B4207D9791800F16C
:10709000FF3C73D28B4271D902383944CB1A40EA93
:1070A000064678E7C6F1200C03FA06F422FA0CF340
:1070B0001C4320FA0CF701FA06F34FEA144E21FAAA
:1070C0000CF11F433B0CB1FBFEF91FFA84F80EFBD9
:1070D000191143EA014109FB08FA8A4502FA06F24E
:1070E00000FA06F308D9611809F1FF3048D28A4541
:1070F00046D9A9F102092144A1EB0A01BFB2B1FBB3
:10710000FEF00EFB101147EA014700FB08F8B845F6
:1071100007D9E71900F1FF312ED2B8452CD9023832
:10712000274440EA0940A7EB0807A0FB02894F4526
:10713000C64649461AD317D05DB1B3EB0E0267EBD2
:10714000010707FA0CFCF2404CEA0202F740C5E9DD
:10715000002700263146BDE8F0872E4628460BE77B
:107160000646E9E61846FDE64345E5D2B8EB020ED1
:1071700069EB04010138DFE70846D2E760468DE796
:107180008146B9E7664675E730464AE7ACF1020C3E
:10719000394413E702383C4424E700BF03685A002F
:1071A0004CBF43F0004323F000431844704700BF36
:1071B0002DE9F84329B34F1E044615463E464FF0CD
:1071C000000808EB060101EBD171491004EBC1097D
:1071D0004846FFF7E3FF0346C80008308F422044CB
:1071E00009D0AB4209D8FFF7D9FF0138A8420AD22B
:1071F00001F10108E5E7AB4205D9884501D04E1EF3
:10720000DFE74FF000094846BDE8F883012807D0C2
:10721000022807D0044B00280CBF184600207047F6
:107220000248704702487047D1780008D5780008B6
:10723000D978000830B5234B83B004468D1E3BB38C
:1072400001A92846AFF30080E8B101992A46FFF76B
:10725000AFFF0146B8B1FFF7A1FF4B68A064012B57
:107260002BD0002B01F1040023DBFFF797FF002355
:10727000C4E913030368002B10DBFFF78FFF2061C5
:10728000002003B030BD00230920236103B030BDCE
:107290000D490E48091AC9100191D7E7C3F30360DD
:1072A000FFF7B4FF0028206114BF0020092003B0BD
:1072B00030BD0123C4E91303DCE70023236105206B
:1072C000DFE700BF0000000060900108508E010859
:1072D0000368DA0710B5044606D49B0700F148009E
:1072E00009D500F04BFC2368590709D51A070ED5BC
:1072F000DB0613D510BD00F039FC23685907F5D41F
:1073000004F1D00000F042FC23681A07F0D404F521
:10731000A87000F043FC2368DB06EBD404F5E870AA
:10732000BDE8104000F07EBC0346006800B1184480
:10733000704700BF09207047704700BF70B5044612
:107340000E46316C2046FFF775FF054688B9336C51
:107350006361324623692146012098470828F0D00E
:10736000072806D12846316CFFF7E6FF301D00F0F4
:10737000F1FB0BF001F800BF2DE9F0470D1D0646AB
:1073800014460FCDADF5727D0DF10C0CACE80F007D
:107390000FCDACE80F000FCDACE80F0095E80F0063
:1073A00002ADF768D6F818808CE80F0000232B6038
:1073B00021E02B6C73614FF4F07229467AA800F03B
:1073C00097FE33697AAA314650469847889BCDE9A3
:1073D000005821466B648146334632460120B84747
:1073E0000446E8B94FF4F0727AA9284600F080FE0E
:1073F000B9F1080F1BD1296C3046FFF71BFF093488
:107400005FFA84FA81460028D3D0AB6B4AF01001B2
:10741000CDE9005832466B6401203346B84708B1C5
:107420004FF0090948460DF5727DBDE8F087B9F1C6
:10743000070FF5D12046296CFFF77EFF03A800F067
:1074400089FB00BF406C7047F0B5CB6B0B640E1D21
:107450000F4605460FCEF9B001AC0FC40FCE0FC4D6
:107460000FCE0FC496E80F004FF0FF3684E80F00F0
:10747000009606E02B696A46294698470828044684
:1074800008D110992846FFF7D5FE0028F2D0092030
:1074900079B0F0BD6846FFF71BFF062CF7D13946DF
:1074A0002846FFF74BFF00BF30B4DD6BC16082613F
:1074B00019461D64002230BC5EE700BF70B5C66887
:1074C00043690B64AEB903690A4604460D4601469A
:1074D00002209847072805D008280FD129462046C2
:1074E000FFF72CFF3046296CFFF726FF281D00F020
:1074F00031FB0122FFF740FF0AF03EFF0AF03CFF9C
:10750000C2681AB1CA6B0A64002235E79CE700BF63
:10751000704700BF836801460BB1012018477047D0
:10752000012912D009D873B90F2A0CD800EB8202B6
:1075300018465368009A136070470339012994BFB5
:10754000012002207047022070470846704700BFA4
:1075500010B584B0002303AC0A4600941946FFF727
:10756000DFFF039804B010BD012912D009D873B908
:107570000F2A0CD800EB8200009A1268426018466D
:1075800070470339012994BF01200220704702206F
:1075900070470846704700BF10B584B0002303ACA5
:1075A000039200940A461946FFF7DEFF04B010BDAF
:1075B000F0B5D36B1364151D8C4606460FCDADF5A3
:1075C0000F7D17AC0FC40FCD0FC40FCD0FC495E8BE
:1075D0000F004FF0FF3784E80F006546169710E064
:1075E000FFF7DAFF294616A8B047034616AA6946F0
:1075F000082083B9049B9847052804460CD0092825
:1076000009D026996846FFF715FE03466A460C2105
:1076100016A8002BE4D0092416A8FFF759FE20462F
:107620000DF50F7DF0BD00BF2DE9F04FCC6C89B09A
:107630000D4654F8041B0694174600F003081E4636
:10764000002B79D00B0CDAB209048DF81D3002231F
:1076500004EB820405918DF81C302B6DB8F1020FFC
:1076600008BFAC6B13F001030CD0384605A900F03D
:1076700073FB18B9082009B0BDE8F08F092009B0E4
:10768000BDE8F08FD4F800A0BAF1000FEDD001935F
:1076900000F008030293022E4AD0B4F800A0B4F818
:1076A00002900434AA6C29F0010B0F213846934450
:1076B000FFF74EFF834539D82AF001025A4482422F
:1076C00094BF002001204FEA490303F002030AF0AF
:1076D000010A43EA0A03012B49D0022B32D0002BC6
:1076E000CCD1B8F1000F02D0002840F0CD80043496
:1076F000D4F800A0BAF1000FCDD105A9384600F0AA
:107700002BFB0028BAD1019B002BB3D00F213846A8
:10771000FFF71EFF0E2102463846FFF73DFF3846B1
:107720006A4A0F21FFF738FF0720A8E70020CAE7C1
:10773000D4F804900834B5E7090203230591ADF8A5
:107740001C308AE7236823F0004BB8F1000F45D1C5
:1077500028B1029A002A5CD0BBF1000F74D0002B34
:1077600000DA04340BF1010B04EB8B04C0E7B8F131
:10777000000F19D1B0B1D4E90023991C4FEAD2729D
:107780003FF47CAF05F158010133049100F0908083
:10779000201DFFF7C9FD04AB014628460AF0B8F8E2
:1077A00000285BD10834A3E70D213846D5F8209096
:1077B000FFF7CEFE8145F5D1AB6A9C42F2D120465F
:1077C000FFF7ECFC0F2102463846FFF7E5FE38468E
:1077D0002A460021FFF7E0FE072050E70D2138463A
:1077E000D5F82090FFF7B4FE814501D02368B6E7B5
:1077F000AB6A9C42FAD104220021C5E90B12A318FE
:10780000C5F828B06B6323688B4259DB01230193D1
:10781000A8E705F15803CDF80C8004F1040AB0463E
:1078200091461E460DE00496FFF77EFD04AB01462F
:10783000002228460AF06CF809F101090AF1040A4D
:10784000E8B9D9455046EED138460D21FFF780FE04
:10785000049B2862C5E90934062010E781460D2102
:107860003846FFF775FEB9F1020F286225D12B4685
:10787000049A43F82C2F6B62AC620620FFE6464662
:107880002368DDF80C806AE72046FFF787FC0434A4
:107890000246AC63284614460AF09AF800283FF4E2
:1078A000EDAE384622460F21FFF776FE0720E6E6CA
:1078B00038460D21FFF74CFE2862049B6B62DBE724
:1078C0000BF1010004EB80007AE700BF011B010807
:1078D0000023A9E60123A7E60223A5E62DE9F0434C
:1078E0000646C3B015461C46042900F2B980DFE8FD
:1078F00001F09A53B7290300002C40F0B180102A00
:1079000000F2AE800368D80600F1F38020AF38465D
:1079100000F092F9B06B0023012404FA03F22A422A
:10792000014604D051F8042B47F8232008460133C0
:10793000042BF2D1B063384600F074F9002043B054
:10794000BDE8F083032C40F08B8094B204EB12432B
:10795000102B4FEA124500F2838003681F0700F1E5
:10796000D08020AF384600F03BF907EBC501B56B7E
:1079700054B10B46E81A01EBC401E4001A5843F86D
:10798000042B8B42FAD125443846B56300F006F942
:10799000002043B0BDE8F083012C4FEA124895B2B5
:1079A0005AD0052C5CD108EB0509B9F1200F57D846
:1079B000B8F10F0F77D9A946002D40F08880B36B3E
:1079C0006DB320AF4FF0000907EBC807043F03EB8E
:1079D000C50553F8041B47F8041FAB42F9D1B9F1B0
:1079E000000F0FD06F464146102938BF102107EB1A
:1079F000C101843903EBC90553F8040B41F8040FA6
:107A0000AB42F9D1012C00F08480B8F10F0FB563BF
:107A100045D9B9F1000F02D0684600F0B7F8002050
:107A200043B0BDE8F083DCB9876B2346012094B2F4
:107A300006F1040C00FA03F22242394604D051F850
:107A4000042B4CF823200F460133102BF2D115F4F0
:107A50000050E4D1B76304E008EB0503102B03D911
:107A6000022043B0BDE8F083B8F10F0FF8D83368B7
:107A7000DA0706D5304623F0030340F8483B00F010
:107A800079F820AF384600F075F8B36B002D99D126
:107A90001D460435B563384600F068F8BFE720A8F6
:107AA00000F06CF8B5E7B9F1100F40D9A9F1100951
:107AB0003368D90708D523F00103304643F00203A9
:107AC00040F8483B00F05EF8B9F1000F32D033685F
:107AD0005A0720D4B8F10F0F25D96F463846C8F1A0
:107AE000100500F057F8002DB36B7FF77CAF20AF87
:107AF0006AE723F01003336006F5E87000F09CF8A5
:107B000004E723F00803036000F5A87000F068F8AC
:107B100027E720AFBDE7304623F0040340F8D03B11
:107B200000F038F8D6E720A800F02CF8D5E74FF0A1
:107B30000009BDE7B8F10F0F3FF641AF20AF38465F
:107B400000F020F8B36B002D7FF43CAF384600F016
:107B500015F864E700F1340191E838009C46A64628
:107B60004CF8045D90E8FF0FE54600BD90EC210B5A
:107B7000704700BF80EC210B704700BF90EC200BDA
:107B8000704700BF80EC200B704700BFD0EC200B8B
:107B9000704700BFC0EC200B704700BFF0EC020143
:107BA000F0EC0211F0EC0221F0EC0231F0EC0241B9
:107BB000F0EC0251F0EC0261F0EC0271F0EC0281A9
:107BC000F0EC0291F0EC02A1F0EC02B1F0EC02C199
:107BD000F0EC02D1F0EC02E1F0EC02F1704700BFF2
:107BE000E0EC0201E0EC0211E0EC0221E0EC0231F9
:107BF000E0EC0241E0EC0251E0EC0261E0EC0271E9
:107C0000E0EC0281E0EC0291E0EC02A1E0EC02B1D8
:107C1000E0EC02C1E0EC02D1E0EC02E1E0EC02F1C8
:107C2000704700BFB0FC0181B0FC0191B0FC01A124
:107C3000B0FC01B1704700BFA0FC0181A0FC019124
:107C4000A0FC01A1A0FC01B1704700BFEC4600B54B
:107C50002DE900502DE9FF1F4FF000032DE90C0026
:107C600001A9FFF7F1FBDDF840E012B0704700BF5B
:107C7000EC4600B52DE900502DE9FF1F4FF0000341
:107C80002DE90C0001A9FFF719FCDDF840E012B066
:107C9000704700BFEC4600B52DE900502DE9FF1FED
:107CA0004FF000032DE90C0001A9FFF729FCDDF8D6
:107CB00040E012B0704700BFEC4600B52DE900501F
:107CC0002DE9FF1F4FF000032DE90C0001ABFFF77A
:107CD000EBFBDDF840E012B0704700BFEC4600B5AA
:107CE0002DE900502DE9FF1F4FF000032DE90C0096
:107CF00001AAFFF75DFCDDF840E012B0704700BF5D
:107D0000027A7AB9437AA3B14268013B10B4437254
:107D100013680321141D01721A024460026010BC32
:107D2000180E70470368013A02721A020260180EB8
:107D30007047B020704700BF00B585B003AA00238C
:107D4000009219460C22FFF7EBFB039805B05DF893
:107D500004FB00BFF0E700BF2DE9F043054685B006
:107D60000E464FF000083046FFF7CAFFB028044621
:107D700000F0B280070620D500F0F003802B4DD034
:107D8000902B36D0A02B60D0B02B74D0C02B00F03D
:107D90008B8000F0F803D02B0BD100F007020132EA
:107DA00042F40022052301212846FFF797FD002811
:107DB000D9D0092005B0BDE8F0830DF10C090023EE
:107DC00019468700CDF800900D222846FFF7A8FB42
:107DD000FFB2039BCDF80090043760064CBFDF1B59
:107DE000FF18002319460D2228460397FFF7BCFB16
:107DF000B9E700F00D030D2BDBD003AF002300F03B
:107E00000F02194600972846FFF78AFB00230097C8
:107E100019460D222846FFF7A7FBA4E73046FFF7D7
:107E20006FFF24022043B0F5004FC2D004010023AD
:107E3000A2B219462846FFF751FD0028B9D114F423
:107E4000004F18BF4FF001088DE7C24302F007034F
:107E50004FF47F621A41010702F47F624FF0000382
:107E600048BF42F4804219462846FFF737FD0028F4
:107E70003FF479AF9DE7B12833D0B22800F08B8072
:107E8000B32839D000F0FC03B42B92D000F00702E5
:107E90000132012342F4002219462846FFF71EFD55
:107EA00000283FF460AF84E7C62842D0C7284CD0F2
:107EB00000F0F803C02B5BD0C82860D0C9287FF43D
:107EC00078AF3046FFF71CFF020300F00F0002F40A
:107ED00070220130024365E7B8F1000F18D000208E
:107EE00068E73046FFF70CFF024600283FF461AF19
:107EF00010F0F003D0D05CE73046FFF701FF01033C
:107F000000F00F0001F47021421C01230A43C3E773
:107F100003AC43460E22414600942846FFF700FB7F
:107F20000094284643460F224146FFF71DFB40467A
:107F300040E73046FFF7E4FE010300F00F0001F4D4
:107F40007021421C03230A43A6E73046FFF7D8FE00
:107F5000024600283FF42DAF10F0F0037FF429AF64
:107F600004212846FFF7BAFC00283FF4FCAE20E7C6
:107F700000F00F020132032342F420228CE7304646
:107F8000FFF7BEFE00F0F00200F00F0310320133E5
:107F900043EA023206E700230DF10C090D221946CF
:107FA000CDF800902846FFF7BBFA3046FFF7A8FE51
:107FB00002064FF002070CD5039B00F07F00B8408B
:107FC000034430460393FFF79BFE030607F10707C0
:107FD000F2D4039BCDF8009000F07F0403F501720A
:107FE000BC400023144419460D2228460394FFF791
:107FF000BBFAB8E610B5C26C84B0536803248DF8A0
:108000000C401B0202F108040846D279019301A931
:1080100002948DF80D20FFF79FFE04B010BD00BF45
:1080200008B5FFF797FE806C08BD00BF08B5FFF7E5
:1080300091FEC06CC379023300EB830008BD00BF22
:10804000704700BF000000000000000000000000BA
:1080500001F0FF01102A2BDB10F0070F08D010F8F9
:10806000013B013A8B422DD010F0070F42B3F6D1FD
:10807000F0B441EA012141EA014122F007047FF016
:1080800000070023F0E80256083C85EA010586EA6D
:10809000010685FA47F5A3FA87F586FA47F6A5FAA9
:1080A00087F68EB9EED1F0BC01F0FF0102F00702B5
:1080B00032B110F8013B013A83EA010313B1F8D160
:1080C0000020704701387047002D06BF3546033841
:1080D000073815F0010F07D1013015F4807F02BF7A
:1080E000013015F4C03F0130F0BC0138704700BFCB
:1080F000844641EA000313F003036DD1403A41D3B3
:1081000051F8043B40F8043B51F8043B40F8043B71
:1081100051F8043B40F8043B51F8043B40F8043B61
:1081200051F8043B40F8043B51F8043B40F8043B51
:1081300051F8043B40F8043B51F8043B40F8043B41
:1081400051F8043B40F8043B51F8043B40F8043B31
:1081500051F8043B40F8043B51F8043B40F8043B21
:1081600051F8043B40F8043B51F8043B40F8043B11
:1081700051F8043B40F8043B51F8043B40F8043B01
:10818000403ABDD2303211D351F8043B40F8043BA1
:1081900051F8043B40F8043B51F8043B40F8043BE1
:1081A00051F8043B40F8043B103AEDD20C3205D3B1
:1081B00051F8043B40F8043B043AF9D2043208D0A9
:1081C000D2071CBF11F8013B00F8013B01D30B881B
:1081D00003806046704700BF082A13D38B078DD0F9
:1081E00010F003038AD0C3F10403D21ADB071CBFCB
:1081F00011F8013B00F8013B80D331F8023B20F835
:10820000023B7BE7043AD9D3013A11F8013B00F86D
:10821000013BF9D20B7803704B7843708B788370F5
:1082200060467047000000000000000000000000F1
:10823000000000000000000000000000000000003E
:10824000A2EB0300704700BF02780B78012A28BF19
:108250009A42F5D16DE9044540EA0104CDE902678F
:108260006FF0000C4FEA447212B380EA010414F07C
:10827000070F6AD100F0070420F0070004F003059F
:1082800021F007014FEAC505F0E8042314F0040FBC
:10829000F1E804670CFA05F462EA040266EA0406EF
:1082A0000AD063EA0403624667EA0407664603E00D
:1082B000F0E80423F1E8046782FA4CF582EA060448
:1082C000A4FA8CF46CBB83FA4CF583EA0705A5FA93
:1082D0008CF595B950E9022351E9026782FA4CF511
:1082E00082EA0604A4FA8CF483FA4CF583EA0705C3
:1082F000A5FA8CF52543DBD09CB92DBAB5FA85F4E7
:1083000024F0070427FA04F1DDE9026723FA04F3F5
:1083100003F0FF0001F0FF01FDE80445A0EB0100C0
:10832000704724BAB4FA84F424F0070426FA04F15E
:10833000DDE9026722FA04F202F0FF0001F0FF011A
:10834000FDE80445A0EB0100704714F0030F3CD199
:1083500010F0030428D150F8082B51F8083B82FA9A
:108360004CF582EA0305A5FA8CF55DB950F8042CAA
:1083700051F8043C82FA4CF582EA0305A5FA8CF523
:10838000002DE8D02DBAB5FA85F424F0070423FABD
:1083900004F122FA04F202F0FF0001F0FF01FDE80F
:1083A0000445A0EB010070474FEAC40420F003002D
:1083B00050F8082B21F0030151F8083B0CFA04F4A3
:1083C00062EA040263EA0403C9E710F003041AD066
:1083D000A1EB040120F00300E40750F8042B06D0C1
:1083E0000FD28B785FFAA2F4E41A06D12BB1CB78C6
:1083F0005FFAB2F4E41A00D11BB920465DF8104BC5
:10840000704701F1040150F8042BCC0721F003015F
:1084100051F8043B48D824D222F07F4482FA4CF52C
:1084200094EA1325A5FA8CF50AD165B951F8043BF5
:1084300084EA0204B4EB036F0ED150F8042BEBE78F
:108440004FEA132355E035F07F454DD10878FDE81C
:108450000445C0F1000070474FEA126203F0FF03C9
:1084600047E002EA1C4482FA4CF594EA1345A5FA67
:108470008CF50AD165B951F8043B84EA0204B4EBE7
:10848000034F0CD150F8042BEBE74FEA134330E0D5
:1084900015EA1C4528D10B884FEA124229E04FEA21
:1084A000124203EA1C4324E002F0FF0482FA4CF576
:1084B00094EA1365A5FA8CF50AD165B951F8043B25
:1084C00084EA0204B4EB032F09D150F8042BEBE744
:1084D0004FEA13630DE015F0FF0F05D10B684FEA6B
:1084E000122223F07F4304E04FF00000FDE8044532
:1084F000704712BA1BBA82FA4CF482EA0304A4FA57
:108500008CF5B5FA85F402FA04F203FA04F34FEAA3
:108510001260FDE80445A0EB136070470000000006
:10852000000000000000000000000000000000004B
:10853000000000000000000000000000000000003B
:1085400090F800F06DE9024520F007016FF0000C93
:1085500010F0070491F820F040F049804FF000043B
:108560006FF00700D1E9002391F840F000F1080016
:1085700082FA4CF2A4FA8CF283FA4CF3A2FA8CF34E
:108580004BBBD1E9022382FA4CF200F10800A4FAB5
:108590008CF283FA4CF3A2FA8CF3E3B9D1E9042309
:1085A00082FA4CF200F10800A4FA8CF283FA4CF340
:1085B000A2FA8CF37BB9D1E9062301F1200182FAFA
:1085C0004CF200F10800A4FA8CF283FA4CF3A2FA00
:1085D0008CF3002BC6D0002A04BF04301A4612BA0E
:1085E000B2FA82F2FDE8024500EBD2007047D1E911
:1085F000002304F00305C4F100004FEAC50514F0A0
:10860000040F91F840F00CFA05F562EA05021CBF70
:1086100063EA050362464FF00004A9E781F00041D8
:1086200002E000BF83F0004330B54FEA41044FEA57
:10863000430594EA050F08BF90EA020F1FBF54EAF2
:10864000000C55EA020C7FEA645C7FEA655C00F08E
:10865000E2804FEA5454D4EB5555B8BF6D420CDD5F
:108660002C4480EA020281EA030382EA000083EAE2
:10867000010180EA020281EA0303362D88BF30BD82
:1086800011F0004F4FEA01314FF4801C4CEA1131D8
:1086900002D0404261EB410113F0004F4FEA033337
:1086A0004CEA133302D0524263EB430394EA050FC2
:1086B00000F0A780A4F10104D5F1200E0DDB02FA31
:1086C0000EFC22FA05F2801841F1000103FA0EF2C5
:1086D000801843FA05F359410EE0A5F120050EF18B
:1086E000200E012A03FA0EFC28BF4CF0020C43FABC
:1086F00005F3C01851EBE37101F0004507D54FF0C9
:10870000000EDCF1000C7EEB00006EEB0101B1F518
:10871000801F1BD3B1F5001F0CD349085FEA30005E
:108720004FEA3C0C04F101044FEA445212F5800F69
:1087300080F09A80BCF1004F08BF5FEA500C50F106
:10874000000041EB045141EA050130BD5FEA4C0CE9
:10875000404141EB0101013C28BFB1F5801FE9D246
:1087600091F0000F04BF01460020B1FA81F308BF69
:108770002033A3F10B03B3F120020CDA0C3208DD35
:1087800002F1140CC2F10C0201FA0CF021FA02F110
:108790000CE002F11402D8BFC2F1200C01FA02F180
:1087A00020FA0CFCDCBF41EA0C019040E41AA2BFA5
:1087B00001EB0451294330BD6FEA04041F3C1CDA6D
:1087C0000C340EDC04F11404C4F1200220FA04F08D
:1087D00001FA02F340EA030021FA04F345EA030137
:1087E00030BDC4F10C04C4F1200220FA02F001FAF9
:1087F00004F340EA0300294630BD21FA04F029467B
:1088000030BD94F0000F83F4801306BF81F4801113
:108810000134013D4EE77FEA645C18BF7FEA655C86
:1088200029D094EA050F08BF90EA020F05D054EA58
:10883000000C04BF1946104630BD91EA030F1EBF5D
:108840000021002030BD5FEA545C05D14000494161
:1088500028BF41F0004130BD14F580043CBF01F554
:10886000801130BD01F0004545F0FE4141F470013A
:108870004FF0000030BD7FEA645C1ABF1946104615
:108880007FEA655C1CBF0B46024650EA013406BF16
:1088900052EA033591EA030F41F4002130BD00BFD5
:1088A00090F0000F04BF0021704730B54FF4806492
:1088B00004F132044FF000054FF0000150E700BF13
:1088C00090F0000F04BF0021704730B54FF4806472
:1088D00004F1320410F0004548BF40424FF000015F
:1088E0003EE700BF42004FEAE2014FEA31014FEAA2
:1088F00002701FBF12F07F4393F07F4F81F06051F1
:10890000704732F07F4208BF704793F07F4F04BF3B
:1089100041F40021704730B54FF4607401F0004518
:1089200021F000411CE700BF50EA010208BF704778
:1089300030B54FF000050AE050EA010208BF704769
:1089400030B511F0004502D5404261EB41014FF4D2
:10895000806404F132045FEA915C3FF4D8AE4FF0DA
:1089600003025FEADC0C18BF03325FEADC0C18BFBD
:10897000033202EBDC02C2F1200300FA03FC20FA0E
:1089800002F001FA03FE40EA0E0021FA02F114445B
:10899000BDE600BF70B54FF0FF0C4CF4E06C1CEA74
:1089A00011541DBF1CEA135594EA0C0F95EA0C0FE5
:1089B00000F0DEF82C4481EA030621EA4C5123EA58
:1089C0004C5350EA013518BF52EA033541F4801187
:1089D00043F4801338D0A0FB02CE4FF00005E1FB3A
:1089E00002E506F00042E0FB03E54FF00006E1FB84
:1089F00003569CF0000F18BF4EF0010EA4F1FF04C7
:108A0000B6F5007F64F5407404D25FEA4E0E6D4106
:108A100046EB060642EAC62141EA55514FEAC52017
:108A200040EA5E504FEACE2EB4F1FD0C88BFBCF593
:108A3000E06F1ED8BEF1004F08BF5FEA500E50F144
:108A4000000041EB045170BD06F0004646EA01010A
:108A500040EA020081EA0301B4EB5C04C2BFD4EB3C
:108A60000C0541EA045170BD41F480114FF0000E35
:108A7000013C00F3AB8014F1360FDEBF002001F0A3
:108A8000004170BDC4F10004203C35DA0C341BDC1D
:108A900004F11404C4F1200500FA05F320FA04F0EF
:108AA00001FA05F240EA020001F0004221F0004123
:108AB00010EBD37021FA04F642EB06015EEA430E96
:108AC00008BF20EAD37070BDC4F10C04C4F12005C6
:108AD00000FA04F320FA05F001FA04F240EA020079
:108AE00001F0004110EBD37041F100015EEA430E4A
:108AF00008BF20EAD37070BDC4F1200500FA05F26A
:108B00004EEA020E20FA04F301FA05F243EA0203E8
:108B100021FA04F001F0004121FA04F220EA0200F7
:108B200000EBD3705EEA430E08BF20EAD37070BD3D
:108B300094F0000F0FD101F00046400041EB01011D
:108B400011F4801F08BF013CF7D041EA060195F0FF
:108B5000000F18BF704703F00046520043EB0303B9
:108B600013F4801F08BF013DF7D043EA06037047A6
:108B700094EA0C0F0CEA135518BF95EA0C0F0CD0B1
:108B800050EA410618BF52EA4306D1D181EA0301F7
:108B900001F000414FF0000070BD50EA410606BFF1
:108BA0001046194652EA430619D094EA0C0F02D136
:108BB00050EA013613D195EA0C0F05D152EA03367B
:108BC0001CBF104619460AD181EA030101F0004199
:108BD00041F0FE4141F470014FF0000070BD41F0E2
:108BE000FE4141F4780170BD70B54FF0FF0C4CF4BC
:108BF000E06C1CEA11541DBF1CEA135594EA0C0FDB
:108C000095EA0C0F00F0A7F8A4EB050481EA030E27
:108C100052EA03354FEA013100F088804FEA03330E
:108C20004FF0805545EA131343EA12634FEA0222DC
:108C300045EA111545EA10654FEA00260EF000419D
:108C40009D4208BF964244F1FD0404F5407402D2EF
:108C50005B084FEA3202B61A65EB03055B084FEA80
:108C600032024FF480104FF4002CB6EB020E75EB7D
:108C7000030E22BFB61A754640EA0C005B084FEAA5
:108C80003202B6EB020E75EB030E22BFB61A754622
:108C900040EA5C005B084FEA3202B6EB020E75EB6D
:108CA000030E22BFB61A754640EA9C005B084FEAE5
:108CB0003202B6EB020E75EB030E22BFB61A7546F2
:108CC00040EADC0055EA060E18D04FEA051545EAE1
:108CD00016754FEA06164FEAC30343EA52734FEA8A
:108CE000C2025FEA1C1CC0D111F4801F0BD141EA03
:108CF00000014FF000004FF0004CB6E711F4801F68
:108D000004BF01430020B4F1FD0C88BFBCF5E06F47
:108D10003FF6AFAEB5EB030C04BFB6EB020C5FEA57
:108D2000500C50F1000041EB045170BD0EF0004EAC
:108D30004EEA113114EB5C04C2BFD4EB0C0541EADE
:108D4000045170BD41F480114FF0000E013C90E6DB
:108D500045EA060E8DE60CEA135594EA0C0F08BF9F
:108D600095EA0C0F3FF43BAF94EA0C0F0AD150EA9E
:108D700001347FF434AF95EA0C0F7FF425AF104631
:108D800019462CE795EA0C0F06D152EA03353FF459
:108D9000FDAE1046194622E750EA410618BF52EAD6
:108DA00043067FF4C5AE50EA41047FF40DAF52EAAA
:108DB00043057FF4EBAE12E74FF0FF3C06E000BF47
:108DC0004FF0010C02E000BF4FF0010C4DF804CD54
:108DD0004FEA410C7FEA6C5C4FEA430C18BF7FEA14
:108DE0006C5C1BD001B050EA410C0CBF52EA430C42
:108DF00091EA030F02BF90EA020F0020704710F1C2
:108E0000000F91EA030F58BF994208BF90422CBF50
:108E1000D8176FEAE37040F0010070474FEA410C49
:108E20007FEA6C5C02D150EA013C07D14FEA430C67
:108E30007FEA6C5CD6D152EA033CD3D05DF8040BD8
:108E4000704700BF8446104662468C46194663460A
:108E500000E000BF01B5FFF7B7FF002848BF10F1E1
:108E6000000F01BD4DF808EDFFF7F4FF0CBF012026
:108E700000205DF808FB00BF4DF808EDFFF7EAFFA2
:108E800034BF012000205DF808FB00BF4DF808ED5D
:108E9000FFF7E0FF94BF012000205DF808FB00BF52
:108EA0004DF808EDFFF7CEFF94BF012000205DF8DC
:108EB00008FB00BF4DF808EDFFF7C4FF34BF0120E9
:108EC00000205DF808FB00BF4FEA410C7FEA6C5CB4
:108ED00002D150EA013C0AD14FEA430C7FEA6C5CB4
:108EE00002D152EA033C02D14FF0000070474FF02C
:108EF000010070474FEA410212F5001215D211D558
:108F00006FF47873B3EB625212D94FEAC12343F086
:108F1000004343EA505311F0004F23FA02F018BF08
:108F2000404270474FF00000704750EA013005D1D1
:108F300011F0004008BF6FF0004070474FF0000094
:108F4000704700BF00F5A83292F8E211D2F8E42190
:108F50004AF6E00301FB032320331844704738B579
:108F60000D461446A1B2284608F0FCF80028F9D1B5
:108F700038BD00F5A83393F8E23143B9012300F579
:108F8000A83080F8E2310023C0F8E43170470023B4
:108F9000F5E700F5A83393F8E2313BB901224AF630
:108FA000E00303FB02F32033184470470022F6E786
:108FB00000F5A833B3F8E0319BB28B42F8D100F54D
:108FC000A8300023A0F8E0317047000021B1044B25
:108FD0004FF480029A617047014B40229A617047BA
:108FE0000004024019B1044B10229A617047024BF1
:108FF0004FF480129A6170470004024010B582B0AD
:1090000004468DF807100021FFF7ECFF64230122CE
:109010000DF10701606803F0B4F802B010BD10B59F
:1090200082B004468DF807100121FFF7DBFF6423AF
:1090300001220DF10701606803F0A3F802B010BD32
:10904000F8B504460D4616461F460121FFF7CAFF34
:109050002FB1B2B22946606803F06AF9F8BD642303
:10906000B2B22946606803F08CF8F7E72DE9F041C9
:1090700082B004460F4616461D46BDF820802A21C0
:10908000FFF7BCFF3B0A8DF804308DF80570330AFA
:109090008DF806308DF80760002304220DEB0201E5
:1090A0002046FFF7CDFF2B212046FFF7A7FF2B0A15
:1090B0008DF804308DF805504FEA18238DF80630EE
:1090C0008DF80780002304220DEB02012046FFF7F4
:1090D000B7FF02B0BDE8F08170B504460D461646F4
:1090E000012202704BB13C21FFF788FF0123324679
:1090F00029462046FFF7A4FF70BD2C21FFF77EFF15
:10910000F4E7000008B501224FF40061014801F0C6
:10911000B1FC08BD0000024038B504460D46544B72
:109120004FF400029A61052000F05EFF0121204605
:10913000FFF74CFF0A2000F057FF00212046FFF701
:1091400045FF782000F050FFEF212046FFF756FF43
:10915000EB212046FFF752FF14212046FFF75FFF67
:10916000FE212046FFF74AFFEF212046FFF746FF8A
:10917000EB212046FFF742FF14212046FFF74FFF67
:1091800084212046FFF73AFF40212046FFF747FFA2
:1091900085212046FFF732FFFF212046FFF73FFFE2
:1091A00086212046FFF72AFFFF212046FFF737FFE1
:1091B00087212046FFF722FFFF212046FFF72FFFE0
:1091C00088212046FFF71AFF0A212046FFF727FFD4
:1091D00089212046FFF712FF21212046FFF71FFFBC
:1091E0008A212046FFF70AFF00212046FFF717FFDC
:1091F0008B212046FFF702FF80212046FFF70FFF5B
:109200008C212046FFF7FAFE01212046FFF707FFD9
:109210008D212046FFF7F2FE01212046FFF7FFFED9
:109220008E212046FFF7EAFEFF212046FFF7F7FEDA
:109230008F212046FFF7E2FEFF212046FFF7EFFED9
:10924000B6212046FFF7DAFE00212046FFF7E7FEB1
:1092500000212046FFF7E3FE36212046FFF7CEFE31
:10926000032D0BD8DFE815F006006C0271027602C0
:109270000004024018212046FFF7D1FE3A21204683
:10928000FFF7BCFE637A012B00F06E82022B00F028
:109290007082002B00F0638290212046FFF7AEFE23
:1092A00008212046FFF7BBFE08212046FFF7B7FE46
:1092B00008212046FFF7B3FE08212046FFF7AFFE46
:1092C000BD212046FFF79AFE06212046FFF7A7FEA4
:1092D000BC212046FFF792FE00212046FFF79FFEAB
:1092E000FF212046FFF78AFE60212046FFF797FE08
:1092F00001212046FFF793FE04212046FFF78FFE51
:10930000C3212046FFF77AFE13212046FFF787FE90
:10931000C4212046FFF772FE13212046FFF77FFE8F
:10932000C9212046FFF76AFE22212046FFF777FE7B
:10933000BE212046FFF762FE11212046FFF76FFE97
:10934000E1212046FFF75AFE10212046FFF767FE75
:109350000E212046FFF763FEDF212046FFF74EFE79
:1093600021212046FFF75BFE0C212046FFF757FE28
:1093700002212046FFF753FEF0212046FFF73EFE74
:1093800045212046FFF74BFE09212046FFF747FE07
:1093900008212046FFF743FE08212046FFF73FFE45
:1093A00026212046FFF73BFE2A212046FFF737FE05
:1093B000F1212046FFF722FE43212046FFF72FFE32
:1093C00070212046FFF72BFE72212046FFF727FE73
:1093D00036212046FFF723FE37212046FFF71FFEE8
:1093E0006F212046FFF71BFEF2212046FFF706FE05
:1093F00045212046FFF713FE09212046FFF70FFE07
:1094000008212046FFF70BFE08212046FFF707FE44
:1094100026212046FFF703FE2A212046FFF7FFFD05
:10942000F3212046FFF7EAFD43212046FFF7F7FD31
:1094300070212046FFF7F3FD72212046FFF7EFFD74
:1094400036212046FFF7EBFD37212046FFF7E7FDE9
:109450006F212046FFF7E3FDED212046FFF7CEFD0B
:109460001B212046FFF7DBFD0B212046FFF7D7FD30
:10947000AE212046FFF7C2FD77212046FFF7CFFD42
:10948000CD212046FFF7BAFD63212046FFF7C7FD37
:1094900070212046FFF7B2FD07212046FFF7BFFDF0
:1094A00007212046FFF7BBFD04212046FFF7B7FD4B
:1094B0000E212046FFF7B3FD0F212046FFF7AFFD39
:1094C00009212046FFF7ABFD07212046FFF7A7FD46
:1094D00008212046FFF7A3FD03212046FFF79FFD4B
:1094E000E8212046FFF78AFD34212046FFF797FD4B
:1094F00062212046FFF782FD18212046FFF78FFDED
:109500000D212046FFF78BFD71212046FFF787FDD7
:10951000ED212046FFF783FD70212046FFF77FFDF8
:1095200070212046FFF77BFD18212046FFF777FDCD
:109530000F212046FFF773FD71212046FFF76FFDD5
:10954000EF212046FFF76BFD70212046FFF767FDF6
:1095500070212046FFF763FD63212046FFF74EFD93
:1095600018212046FFF75BFD11212046FFF757FD2C
:1095700071212046FFF753FDF1212046FFF74FFDF3
:1095800070212046FFF74BFD70212046FFF747FD75
:1095900018212046FFF743FD13212046FFF73FFD2A
:1095A00071212046FFF73BFDF3212046FFF737FDF1
:1095B00070212046FFF733FD70212046FFF72FFD75
:1095C00064212046FFF71AFD28212046FFF727FDDA
:1095D00029212046FFF723FDF1212046FFF71FFD3B
:1095E00001212046FFF71BFDF1212046FFF717FD63
:1095F00000212046FFF713FD07212046FFF70FFD4E
:1096000066212046FFF7FAFC3C212046FFF707FDC4
:1096100000212046FFF703FDCD212046FFF7FFFC88
:1096200067212046FFF7FBFC45212046FFF7F7FCAA
:1096300045212046FFF7F3FC10212046FFF7EFFC01
:1096400000212046FFF7EBFC00212046FFF7E7FC56
:1096500000212046FFF7E3FC67212046FFF7CEFC00
:1096600000212046FFF7DBFC3C212046FFF7D7FC1A
:1096700000212046FFF7D3FC00212046FFF7CFFC56
:1096800000212046FFF7CBFC01212046FFF7C7FC55
:1096900054212046FFF7C3FC10212046FFF7BFFCF2
:1096A00032212046FFF7BBFC98212046FFF7B7FC8C
:1096B00074212046FFF7A2FC10212046FFF7AFFCE3
:1096C00085212046FFF7ABFC80212046FFF7A7FC51
:1096D00000212046FFF7A3FC00212046FFF79FFC56
:1096E0004E212046FFF79BFC00212046FFF797FC08
:1096F00098212046FFF782FC3E212046FFF78FFC91
:1097000007212046FFF78BFC35212046FFF776FC2A
:1097100021212046FFF772FC11212046FFF76EFC45
:10972000782000F061FC29212046FFF767FC142017
:1097300000F05AFCB7EE000A2046FFF7E3FC38BD04
:1097400028212046FFF76BFC98E548212046FFF7CB
:1097500066FC93E588212046FFF761FC8EE5032136
:109760002046FFF75CFC97E505212046FFF757FCF4
:1097700092E506212046FFF752FC8DE500B585B045
:10978000002300930193029303931548154A026046
:109790004FF48032426083600361037680F82030AA
:1097A000C362114A8262C3600122C26180F8303014
:1097B000426100F0C7FC60B90023009301220192CE
:1097C00002936946064800F0E9FC28B905B05DF847
:1097D00004FB00F047F9EFE700F044F9F6E700BFBB
:1097E000540B0020002001400100000F00B589B09B
:1097F000002303930493059306930793026803F1F0
:10980000804303F590339A4202D009B05DF804FB1F
:109810000022019203F58C33596C41F48071596434
:10982000596C01F48071019101990292196B41F018
:10983000010119631B6B03F001030293029B0723D1
:10984000039303230493059203A9024801F028F827
:10985000DBE700BF0000024010B582B00024019495
:10986000114B1A6B42F480021A631B6B03F48003E2
:109870000193019B224605213A2000F069FD3A2020
:1098800000F09AFD224605213B2000F061FD3B20BF
:1098900000F092FD22460521462000F059FD4620A9
:1098A00000F08AFD02B010BD0038024008B507F094
:1098B00051F807F0A7FB024B186806F0F1FA08BD53
:1098C0009C0B002008B5044A0021044805F00EFA5C
:1098D000034B186008BD00BF547F0108AD98000815
:1098E0009C0B0020F0B58BB00024059406940794DF
:1098F000089409940194264B1A6B42F080021A6373
:109900001A6B02F080020192019A02941A6B42F0E3
:1099100004021A631A6B02F004020292029A039480
:109920001A6B42F001021A631A6B02F001020392F1
:10993000039A04941A6B42F002021A631B6B03F041
:1099400002030493049B134F22464FF400613846F0
:1099500001F090F8104D2246D021284601F08AF8F7
:109960004FF400630593012606960794089405A911
:10997000384600F095FFD0230593069607940323FD
:10998000089305A9284600F08BFF0BB0F0BD00BF7F
:1099900000380240000002400004024008B50B48B5
:1099A0000B4B03600B4B436000238360C3604FF499
:1099B0008042026143618361C361036201F060F828
:1099C00000B908BD00F04EF8FBE700BFA00B002077
:1099D00000540040A086010030B589B000230393F5
:1099E00004930593069307930268154B9A4201D09E
:1099F00009B030BD00250195124C236B43F00203E2
:109A00002363236B03F002030193019B4FF4407324
:109A10000393122304930123059303230693042342
:109A2000079303A9084800F03BFF0295236C43F419
:109A300000132364236C03F400130293029BD7E703
:109A400000540040003802400004024008B502689B
:109A5000034B9A4200D008BD00F0B4FAFBE700BF08
:109A60000020004072B6FEE700B595B0302200211C
:109A700008A809F073FA002303930493059306934F
:109A800007930193204A116C41F080511164126CCC
:109A900002F080520192019A02931C4B1A6842F420
:109AA00080421A601B6803F480430293029B0123E7
:109AB00008934FF48033099302230E934FF48002EE
:109AC0000F9204221092A82211921293072313934B
:109AD00008A801F067FE98B90F23039302230493AB
:109AE000002305934FF4A05306934FF4805307933C
:109AF000052103A802F0B8F820B915B05DF804FB01
:109B0000FFF7B0FFFFF7AEFF0038024000700040E3
:109B100008B500F03DFA02F09BF9FFF7A5FFFFF74B
:109B2000E1FEFFF799FEFFF729FE00F00BF800F0C9
:109B300089F9FFF733FF05F0ABF8FFF7C3FE05F037
:109B4000B9F8FEE708B50D480D4B03604FF482737A
:109B5000436000238360C360036143614FF400727C
:109B60008261C3610362436283620A23C36202F0BB
:109B7000A9FA00B908BDFFF775FFFBE7540C0020F8
:109B8000003001402DE9F04188B000230393049395
:109B90000593069307930268324B9A4202D008B0AD
:109BA000BDE8F08104460025009503F584335A6C26
:109BB00042F480525A645A6C02F480520092009A25
:109BC00001951A6B42F001021A631A6B02F001024E
:109BD0000192019A02951A6B42F002021A631B6B02
:109BE00003F002030293029B802303934FF00208C9
:109BF000CDF810800595032706970526079603A93B
:109C0000194800F04DFE08230393CDF81080059508
:109C10000697079603A9154800F042FE1448154B15
:109C200003604FF0C063436040238360C5604FF41E
:109C30008063036145618561C5610562456200F02D
:109C400049FC58B90A4BA3649C63002205212320D8
:109C500000F07EFB232000F0AFFBA0E7FFF702FF40
:109C6000F0E700BF00300140000002400004024065
:109C7000F40B00205864024000B583B0002200922B
:109C80000D4B596C41F480415964596C01F4804189
:109C9000009100990192196C41F0805119641B6C7C
:109CA00003F080530193019B0F216FF0010000F03E
:109CB0004FFB03B05DF804FB0038024010B588B0DC
:109CC000014600222D2000F043FB2D2000F074FB04
:109CD00000240194144B1A6C42F480721A641B6CB9
:109CE00003F480730193019B02A903A802F092F888
:109CF00002F070F843000D48A0FB03239B0C013BCE
:109D00000B480C4A026040F2E732C26043600461D3
:109D1000846002F0D3FD10B1012008B010BD0448EA
:109D200002F062FCF9E700BF0038024083DE1B430B
:109D3000AC0C002000200040FEE7FEE7FEE7FEE757
:109D4000FEE7704708B5024802F0B2FB08BD00BF4D
:109D5000540C002008B5024803F0F0F808BD00BF1D
:109D6000B80D002008B5024802F086FC08BD00BF0F
:109D7000AC0C002008B5024800F0A4FC08BD00BFF0
:109D8000F80C002008B5024800F09CFC08BD00BF9C
:109D9000F40B002008B5024800F094FC08BD00BF99
:109DA000580D002008B5024801F00AF908BD00BFAF
:109DB000B047002008B5024801F002F908BD00BF15
:109DC000B047002008B5024801F0FAF808BD00BF0E
:109DD000B04700200120704708B508F0D5FA1623D7
:109DE00003604FF0FF3008BD08B54FF0FF31FFF7BB
:109DF000F3FFFEE708B503460B4A126842B10A4A70
:109E0000106803446A46934206D8074A136008BDA7
:109E1000054A06491160F2E708F0B6FA0C23036020
:109E20004FF0FF30F3E700BFF40C002048A1012001
:109E3000034AD2F8883043F47003C2F88830704780
:109E400000ED00E010B50F480F4B03604FF4E13315
:109E5000436000238360C36003610C22426183611D
:109E6000C36102F097FE48B9064C204606F0D4FFC5
:109E700080220649204603F04BFA10BDFFF7F2FDA1
:109E8000F2E700BFB80D002000100140FC0D0020DB
:109E900030B589B000230393049305930693079389
:109EA000026803F1804303F588339A4201D009B078
:109EB00030BD04460025019503F594335A6C42F0F9
:109EC00010025A645A6C02F010020192019A029533
:109ED0001A6B42F001021A631B6B03F00103029339
:109EE000029B4FF4C063039302230493059503235D
:109EF00006930723079303A9204800F0D1FC2048CC
:109F0000204B03604FF0006343608560C5604FF4F1
:109F100080630361456185614FF48073C3610562AD
:109F2000456200F0D7FA18BB154BA3639C63164833
:109F3000164B03604FF000634360402383600023AF
:109F4000C3604FF48062026143618361C361036255
:109F5000436200F0BFFA70B90B4B63639C6300224D
:109F60000521252000F0F4F9252000F025FA9EE7D0
:109F7000FFF778FDD8E7FFF775FDEDE70000024039
:109F8000F80C002040640240580D0020B8640240E4
:109F900008B50B4B1A6842F400721A601A6842F452
:109FA00080621A601A6842F480721A60032000F01E
:109FB000BDF90020FFF782FEFFF75EFE002008BD1E
:109FC000003C0240034A1168034B1B780B441360AA
:109FD000704700BF7C0E002004000020014B186871
:109FE000704700BF7C0E002038B50446FFF7F6FF2F
:109FF0000546B4F1FF3F02D0044B1B781C44FFF729
:10A00000EDFF401BA042FAD338BD00BF0400002082
:10A010004A4B5A6822F440325A605A6841680A43EF
:10A020005A600268536823F480735360026853686F
:10A03000016943EA012353600268536823F04073C7
:10A0400053600268536881680B43536002689368E9
:10A0500023F40063936002689368C1680B439360C4
:10A06000826A374B9A4257D00268936823F0706334
:10A07000936002689368816A0B43936002689368F7
:10A0800023F04053936002689368C16A0B43936066
:10A090000268936823F00203936002689368017E6C
:10A0A00043EA4103936090F82030002B3FD00268D0
:10A0B000536843F4006353600268536823F46043B9
:10A0C000536001684B68426A013A43EA42334B608D
:10A0D0000268D36A23F47003D3620168CB6AC26951
:10A0E000013A43EA0253CB620268936823F4007397
:10A0F00093600268936890F8301043EA41239360BC
:10A100000268936823F480639360026893684169EE
:10A1100043EA8123936070470268936823F0706379
:10A1200093600268936823F040539360B0E702683D
:10A13000536823F400635360CAE700BF0023014063
:10A140000100000F38B310B50446036C43B1236C13
:10A1500013F0100F0BD00120002384F83C3010BD09
:10A16000FFF744FB0023636484F83C30EFE7236C83
:10A1700023F4885323F0020343F0020323642046B0
:10A18000FFF746FF00206064236C23F0030343F0D5
:10A1900001032364E0E701207047000030B482B07F
:10A1A0000023019390F83C30012B00F0B78001238D
:10A1B00080F83C300B68092B3ED90568EA689BB2F1
:10A1C00003EB43031E3B072404FA03F322EA0303D1
:10A1D000EB600568EA688C680B8803EB43031E3B61
:10A1E00004FA03F31343EB604B68062B3AD8056877
:10A1F0006A6B03EB8303053B1F2404FA03F322EA93
:10A2000003036B6305686A6B4B6803EB8303053BD1
:10A210000C8804FA03F313436B630268404B9A42C1
:10A2200050D002683E4B9A4255D0002380F83C3013
:10A23000184602B030BC704705682A699BB203EB30
:10A240004303072404FA03F322EA03032B6105689E
:10A250002A698C680B8803EB430304FA03F3134366
:10A260002B61C1E70C2B16D805682A6B03EB83031F
:10A27000233B1F2404FA03F322EA03032B6305683C
:10A280002A6B4B6803EB8303233B0C8804FA03F32C
:10A2900013432B63C1E70568EA6A03EB8303413B81
:10A2A0001F2404FA03F322EA0303EB620568EA6A57
:10A2B0004B6803EB8303413B0C8804FA03F313431D
:10A2C000EB62AAE70B68122BABD1164A536843F432
:10A2D00080035360A5E70B68103B012BA5D8114AFA
:10A2E000536843F4000353600B68102B9DD10E4B51
:10A2F0001B6802F1467202F52E3202F28332A2FB93
:10A3000003239B0C03EB83035B00019302E0019B9F
:10A31000013B0193019B002BF9D186E7022088E7DE
:10A32000002001400023014000000020074AD368BC
:10A3300023F4E0631B041B0C000200F4E060034301
:10A3400043F0BF6343F40033D360704700ED00E097
:10A3500030B4174BDB68C3F30223C3F10704042CAA
:10A3600028BF04241D1D062D18D9033B4FF0FF35CF
:10A3700005FA04F421EA0401994005FA03F322EAFC
:10A380000303194300280BDB0901C9B200F1604047
:10A3900000F5614080F8001330BC70470023E5E70A
:10A3A00000F00F000901C9B2024B1954F4E700BFD5
:10A3B00000ED00E014ED00E0002807DB00F01F02D4
:10A3C000400901239340024A42F82030704700BF01
:10A3D00000E100E030B405682C6824F480242C608F
:10A3E000046863608368402B05D003689960036844
:10A3F000DA6030BC704703689A600368D960F8E798
:10A4000010B40368D9B210390C4AA2FB01421209F8
:10A410000B4CA25CC2655F2909D923F47F7323F03A
:10A42000030304338365806D5DF8044B704723F4A8
:10A430007F7323F003038365F5E700BFABAAAAAAE5
:10A44000907F0108836A826992B9012B0AD0022B9E
:10A4500002D00BB100207047C36A13F0807F28D16F
:10A4600000207047C36AB3F1C07F24D0002070473A
:10A47000B2F5005F09D0022B25D9032B25D1C36A81
:10A4800013F0807F23D100207047032B03D8DFE82F
:10A4900003F01404140A00207047C36A13F0807F8D
:10A4A0000DD100207047C36AB3F1C07F09D00020EE
:10A4B000704701207047012070470120704701203C
:10A4C000704701207047012070470020704701202D
:10A4D0007047000070B50446FFF780FD002C5BD08C
:10A4E0000546022384F83530002384F8343022688E
:10A4F000136823F00103136023681A6812F0010F38
:10A500000AD0FFF76BFD431B052BF5D920236365AC
:10A51000032084F8350070BD1A6820481040616837
:10A52000A2680A43E1680A4321690A4361690A4350
:10A53000A1690A43E1690A43216A0A430243616A45
:10A5400004291ED01A602668756925F00705636A1C
:10A550001D43042B07D1A36A1D43E36A1BB12046A8
:10A56000FFF770FF90B975612046FFF749FFE26D74
:10A570003F239340836000206065012384F83530D9
:10A58000C9E7E16A206B01430A43DBE740236365C7
:10A59000012084F83500BEE70120BCE73F8010F0C1
:10A5A00038B50446856D90F8340001282BD0012081
:10A5B00084F8340094F83500C0B2012804D0002398
:10A5C00084F83430022038BD022084F835000020A1
:10A5D00060652046FFF7FEFEE26D3F239340AB60CF
:10A5E0002268136843F016031360236C23B12268BA
:10A5F000136843F0080313602268136843F00103F3
:10A6000013600020DFE70220DDE770B50446866DA9
:10A61000FFF7E4FC94F83530DBB2022B06D0802340
:10A620006365002384F83430012070BD054622683C
:10A63000136823F0160313602268536923F0800324
:10A640005361236CE3B12268136823F0080313609D
:10A650002268136823F00103136023681B6813F05A
:10A66000010F11D0FFF7BAFC431B052BF5D92023AE
:10A670006365032084F83500002384F83430D4E780
:10A68000A36C002BDFD1E3E7E26D3F239340B3607F
:10A69000012384F83530002084F83400C5E790F8B1
:10A6A0003530DBB2022B03D0802343650120704795
:10A6B000052380F835300268136823F00103136026
:10A6C00000207047F0B583B0044600230193724B1D
:10A6D0001D68724BA3FB0535AD0A876D3E68C26DE0
:10A6E00008239340334210D003681A6812F0040F15
:10A6F0000BD01A6822F004021A60C26D082393403E
:10A70000BB60436D43F001034365E26D0123934059
:10A71000334209D02268526912F0800F04D0BB6026
:10A72000636D43F002036365E26D0423934033429B
:10A7300009D02268126812F0020F04D0BB60636D6A
:10A7400043F004036365E26D10239340334224D049
:10A750002268126812F0080F1FD0BB6023681A68C5
:10A7600012F4802F0DD01B6813F4002F04D1236C3A
:10A770009BB12046984710E0A36C73B120469847E0
:10A780000BE01A6812F4807F03D11A6822F00802E5
:10A790001A60236C0BB120469847E26D202393404A
:10A7A000334255D02268126812F0100F50D0BB60AF
:10A7B00094F83530DBB2052B0ED023681A6812F4FA
:10A7C000802F33D01B6813F4002F2AD1636C002B29
:10A7D0003ED0204698473BE02268136823F01603DA
:10A7E00013602268536923F080035361236CA3B183
:10A7F0002268136823F008031360E26D3F2393403F
:10A80000BB60012384F83530002384F83430236D95
:10A81000002B3FD0204698473CE0A36C002BE7D1AB
:10A82000EBE7E36BA3B12046984711E01A6812F4F6
:10A83000807F09D11A6822F010021A60012384F87F
:10A840003530002384F83430E36B0BB12046984751
:10A85000636DFBB1636D13F0010F17D0052384F80E
:10A8600035302268136823F001031360019B013324
:10A870000193AB4204D823681B6813F0010FF5D194
:10A88000012384F83530002384F83430E36C0BB1B5
:10A890002046984703B0F0BD00000020B5814E1B54
:10A8A00000230F2B00F2DD80F0B482B05DE08668FB
:10A8B0005F000324BC4026EA0406CC68BC40344355
:10A8C0008460466826EA02064C68C4F300129A4087
:10A8D0003243426057E0DC08083450F8247003F03B
:10A8E000070296000F22B24027EA02070A69B24027
:10A8F0003A4340F824205AE0072200E00022B24008
:10A900003A430234574E46F82420574A1468EA4323
:10A9100024EA05064F6817F4803F01D045EA040693
:10A92000514C2660646802EA04064F6817F4003F41
:10A9300001D045EA04064C4C6660A46802EA0406AD
:10A940004F6817F4801F01D045EA0406464CA66004
:10A95000E46822404E6816F4001F01D045EA040264
:10A96000414CE26001330F2B78D801229A400C68E9
:10A9700004EA020532EA0404F4D14C6804F003044A
:10A98000013C012C93D94A6802F00302032A09D042
:10A99000C4685E000322B24024EA02048A68B2401E
:10A9A0002243C2604A6802F00302022A93D004687C
:10A9B0005E000322B24024EA02044A6802F0030265
:10A9C000B240224302604A6812F4403FCAD00022DB
:10A9D0000192264A546C44F480445464526C02F44C
:10A9E00080420192019A9C08A61C1E4A52F82670C9
:10A9F00003F0030296000F22B24027EA02071C4A26
:10AA000090423FF47BAF02F5806290421AD002F58B
:10AA10008062904218D002F58062904216D002F512
:10AA20008062904214D002F58062904212D002F50A
:10AA30008062904210D002F5806290423FF45CAF99
:10AA400008225CE701225AE7022258E7032256E770
:10AA5000042254E7052252E7062250E702B0F0BC78
:10AA60007047704700380140003C01400038024008
:10AA7000000002400AB1816170470904816170479A
:10AA8000002800F0CC80F8B5044690F83D30002B4B
:10AA900077D0242384F83D302268136823F0010323
:10AAA00013602268136843F400431360226813683C
:10AAB00023F40043136001F08DF962685A4B9A4207
:10AAC00064D85A4B98428CBF00230123002B40F0DE
:10AAD000A880574DA5FB0035AF0C2668716821F0A2
:10AAE0003F0141EA9541716021680B6A23F03F0301
:10AAF00065684D4A95424FD87A1C13430B6225680E
:10AB0000E96921F44F4121F0FF016368464A93420D
:10AB10004CD801385B00B0FBF3F0013040F6FC7319
:10AB2000184278D0C0F30B030B43EB6121680B682C
:10AB300023F0C003E269206A024313430B602168DB
:10AB40008B6823F4034323F0FF032269E068024388
:10AB500013438B602168CB6823F0FF036269A0690F
:10AB600002431343CB602268136843F00103136070
:10AB700000202064202384F83D30206384F83E00C8
:10AB8000F8BD80F83C30FEF727FF82E7294B98425A
:10AB90008CBF0023012399E74FF4967202FB07F262
:10ABA000254DA5FB025292090132A6E7A268BAB967
:10ABB000461E03EB4307B6FBF7F60136C6F30B065A
:10ABC000B6FA86F6760946BBC2B9421E03EB4303CA
:10ABD000B2FBF3F20132C2F30B0242F40043A3E7EB
:10ABE000461E03EB830707EB8707B6FBF7F6013634
:10ABF000C6F30B06B6FA86F67609E4E7421E03EBC7
:10AC0000830303EB8303B2FBF3F20132C2F30B02C3
:10AC100042F4404388E7042386E7012384E70120C8
:10AC200070470120ACE700BFA08601007F841E00B2
:10AC300083DE1B43FF083D00D34D62102DE9F04732
:10AC400082B0D0F80080C1EBC10300EB83035A6DE2
:10AC50001B6D9A4255D807460C46C1469B1AC1EB5C
:10AC6000C10200EB8202526C9A4200D31A4602F1F2
:10AC7000030A4FEA9A0A15E006F1030A4FEA9A0A14
:10AC8000C4EBC40507EB8505A96C3B7C0093B3B20C
:10AC9000E2B2404602F09CFEAB6C3344AB646B6D99
:10ACA0001E446E6509EB441303F510639B699BB268
:10ACB000534512D3C4EBC40207EB8202516D136DEE
:10ACC00099420AD24BB15B1AC4EBC40207EB820271
:10ACD000566C9E42D0D31E46CEE7C4EBC40007EBB1
:10ACE00080073A6D7B6D9A420FD804F00F04012360
:10ACF000A340D8F8344824EA0304C8F834480020B4
:10AD000000E0012002B0BDE8F0870020FAE7F0B5CE
:10AD10008BB0002800F08C800546046890F8BD33A5
:10AD20002BB3032385F8BD33E36B13F4807F01D18C
:10AD300000232B61286802F0EBFB2C4654F8107BB3
:10AD40006E460FCC0FC60FCC0FC694E8030086E802
:10AD500003002B1D0ECB384602F01CFB044658B1F5
:10AD6000022385F8BD33012420460BB0F0BD80F8E6
:10AD7000BC3305F0A9FED4E70021286803F02AF8C7
:10AD8000234616E0C3EBC30205EB8202012182F8E1
:10AD90003D1082F83C30A2F84230002182F83F108A
:10ADA00051649164C3EBC30205EB82021165013368
:10ADB000DBB269688B42E5D316E0C4EBC40305EB54
:10ADC0008303002283F8FD2183F8FC4183F8FF21EF
:10ADD000C3F80422C3F80822C4EBC40305EB8303C1
:10ADE000C3F810220134E4B2A142E6D82C4654F84C
:10ADF000107B6E460FCC0FC60FCC0FC694E8030035
:10AE000086E803002B1D0ECB384602F0BDFB04463E
:10AE100020B1022385F8BD330124A5E7002385F87E
:10AE20003830012385F8BD33286802F090FF9BE796
:10AE3000012499E7026890F8BC33012B19D010B5B2
:10AE40000446012380F8BC33836A012B09D02068B3
:10AE500002F058FB206802F06CFF002084F8BC036D
:10AE600010BD8369012BF2D0936B43F4803393635D
:10AE7000EDE702207047000070B504460D460068FB
:10AE8000066C00EB411303F530639A6821690129D0
:10AE900011D035498E4250D03DB9C5EBC50304EB06
:10AEA0008303D3F81032002B58D0E9B2204605F0C6
:10AEB000A1FE002070BD12F0080F09D02B498E4270
:10AEC000F7D912F4004FF4D04FF400429A60F0E743
:10AED00012F0200F02D020229A60EAE712F0280F29
:10AEE000E7D122498E4206D912F4004F03D04FF425
:10AEF00000429A60DDE7C5EBC50204EB8202D2F89E
:10AF000004121B69C3F31203C91AC2F81412D2F84F
:10AF10000412D2F808320B44C2F8083215B9D2F83C
:10AF2000103223B1E9B2204605F064FEC1E704F512
:10AF30007172012102F090FFF4E712F4004F03D088
:10AF40004FF400429A60B4E712F0200F01D02022A3
:10AF50009A60E9B2204605F04DFEAAE704F5717249
:10AF6000002102F079FFA0E70A31544F0A30544F14
:10AF700038B5044603681D6C03EB4113D3F8081B76
:10AF80000E4A954207D903F5306311F4004F02D001
:10AF90004FF400429A60204605F024FE074B9D4284
:10AFA00002D92369012B01D0002038BD04F571724C
:10AFB0000121206802F050FFF6E700BF0A30544F2D
:10AFC0002DE9F04F83B004460568284602F0FEFEE6
:10AFD00010B103B0BDE8F08F2F460646206802F09E
:10AFE000C4FE0028F5D0206802F0BFFE10F0020F6A
:10AFF00004D02268536903F002035361206802F011
:10B00000B4FE10F0100F14D02268936923F01003DF
:10B010009361D5F8208008F00F09C8F34343022B51
:10B0200068D0062B00F08D802268936943F01003EE
:10B030009361206802F099FE10F4002F40F0938095
:10B04000206802F092FE10F4802F40F0D780206834
:10B0500002F08BFE0028C0F24381206802F085FEDA
:10B0600010F4006F0AD0D5F8083813F0010F40F043
:10B0700051812268536903F400635361206802F030
:10B0800074FE10F4805F40F04981206802F06DFE8C
:10B0900010F4005F40F0A881206802F066FE10F016
:10B0A000080F40F0B981206802F05FFE10F4801FA5
:10B0B00040F0BB81206802F058FE10F4001F40F001
:10B0C000BE81206802F051FE10F0804F40F0C18137
:10B0D000206802F04AFE10F0040F3FF47AAF2368B4
:10B0E0005D6815F0040F40F0BD81226853682B4362
:10B0F00053606EE747F6F07318EA030F94D04FEAF7
:10B10000181B4FEAC9030193C9EBC90A04EB8A0A69
:10B11000C8F30A12DAF80812284602F079FDCBF3D8
:10B120000A0BDAF808325B44CAF80832019BA3EB39
:10B13000090304EB8303D3F814325B44CAF81432D6
:10B1400072E7082204F57171284602F061FDC8F328
:10B150000A18C9EBC90204EB8202D2F81432434444
:10B16000C2F8143260E7206802F003FE8046B14660
:10B1700017E007EB49130122C3F8082B4946204684
:10B18000FFF77AFE1DE007EB49130822C3F8082BEE
:10B1900049462046FFF7ECFE16E009F101094FEAA7
:10B1A0005808B8F1000F3FF44BAF18F0010FF4D07E
:10B1B0005FFA89F1206802F0ECFD824610F0010F81
:10B1C000D7D11AF0080FDED11AF0100F04D007EB18
:10B1D00049131022C3F8082B1AF0200F04D007EBF4
:10B1E00049132022C3F8082B1AF4005FD5D007EBCF
:10B1F00049134FF40052C3F8082BCEE7206802F041
:10B20000C0FD8046B1462AE05946204605F0FEFCC6
:10B210001AF0080F04D007EB49130822C3F80829D5
:10B220001AF0100F04D007EB49131022C3F80829B5
:10B230001AF0400F04D007EB49134022C3F8082945
:10B240001AF0020F04D007EB49130222C3F80829B1
:10B250001AF0800F3FD109F101094FEA5808B8F1FF
:10B26000000F3FF4F4AE18F0010FF4D05FFA89FB41
:10B270005946206802F096FD824610F0010FC7D0B3
:10B2800009F00F03012101FA03F2D7F8343823EA59
:10B290000203C7F8343807EB4913C3F808192369C8
:10B2A0008B42B1D1C9EBC90304EB8303596C9A6C8F
:10B2B0000A449A64B9F1000FA6D1C9EBC90304EBA3
:10B2C00083031B6D002B9FD104F57172012120684F
:10B2D00002F0C2FD98E749462046FFF7AFFCBAE707
:10B2E000D5F8043823F00103C5F8043894F8F43392
:10B2F000012B08D0204605F0C9FC2268536903F0F1
:10B3000000435361A9E6002184F8F413204600F0BD
:10B3100047FAF2E7204605F0A1FCAAE605F5006829
:10B32000D8F8043023F00103C8F804301021206855
:10B3300002F0F4F820E007EB46134FF67F31C3F834
:10B340000819D3F8002922F40012C3F80029D3F811
:10B35000002942F00062C3F80029C3F8081BD3F8A3
:10B36000002B22F40012C3F8002BD3F8002B42F07C
:10B370000062C3F8002B01366368B342DBD8D8F80B
:10B380001C3043F00113C8F81C30236BEBB1D8F824
:10B39000843043F00B03C8F88430D8F8443043F0CD
:10B3A0000B03C8F84430D5F8003823F4FE63C5F821
:10B3B000003804F57172217C206802F04DFD22688E
:10B3C000536903F4805353615FE6D8F8143043F4B3
:10B3D000005343F02B03C8F81430D8F8103043F072
:10B3E0000B03C8F81030DEE7206802F024FD206867
:10B3F00002F096F9E060256800F0E6FC0146227B49
:10B40000284602F00DF8204605F011FC2268536929
:10B4100003F4005353613FE6204605F002FC226826
:10B42000536903F0080353613DE60021204605F00F
:10B4300039FC2268536903F4801353613AE6002112
:10B44000204605F029FC2268536903F40013536178
:10B4500037E6204605F02CFC2268536903F0804350
:10B46000536135E6204605F029FC3EE690F8BC33F2
:10B47000012B0DD010B50446012380F8BC3380F8B1
:10B480003810006802F045FC002084F8BC0310BDB1
:10B4900002207047F8B507460C4611F0800F27D1FF
:10B4A00001F00F05C5EBC506B60006F5FC760644AF
:10B4B000311DC5EBC50500EB8505002085F8FD01B4
:10B4C00004F00F040C708A60CB704A7802B1CC8013
:10B4D000022B1DD097F8BC33012B1CD0012387F819
:10B4E000BC33386802F02DF9002087F8BC03F8BDA2
:10B4F00001F00F00C0EBC00189003831394404313C
:10B50000C0EBC00007EB8000012580F83D50D7E775
:10B5100000230B71DEE70220E9E710B504460A4676
:10B5200011F0800F20D101F00F00C0EBC0039B0091
:10B5300003F5FC732344191DC0EBC00004EB80002D
:10B54000002380F8FD3102F00F020A7094F8BC333A
:10B55000012B19D0012384F8BC33206802F03CF998
:10B56000002084F8BC0310BD01F00F00C0EBC00345
:10B570009B0038332344191DC0EBC00004EB80004E
:10B58000012380F83D30DEE70220ECE738B501F01A
:10B590000F04C4EBC401890001F5FC7101440431BE
:10B5A000C4EBC40500EB8505C5F80822C5F81032C8
:10B5B0000023C5F8143285F8FD3185F8FC41036994
:10B5C000012B06D064B9DAB2006802F073F90020EA
:10B5D00038BDC4EBC40500EB8505C5F80C22F1E7C6
:10B5E000DAB2006802F008FAF1E701F00F01C1EBEE
:10B5F000C10100EB8101D1F81402704738B501F0A8
:10B600000F04C4EBC4018900383101440431C4EB98
:10B61000C40500EB8505AA642B6500236B65012337
:10B6200085F83D3085F83C400369012B06D05CB9B4
:10B63000DAB2006802F03EF9002038BDC4EBC40560
:10B6400000EB8505EA64F2E7DAB2006802F0D4F9AB
:10B65000F2E738B501F00F054268954239D8044643
:10B660000B4611F0800F1FD1C1EBC101890001F51C
:10B67000FC7101440431C3EBC30300EB83030022DC
:10B6800083F8FD2101238B700D7094F8BC33012BDE
:10B6900021D0012384F8BC33206802F0DFFA8DB199
:10B6A000002084F8BC0338BDC5EBC50189003831E2
:10B6B00001440431C5EBC50300EB8303012283F889
:10B6C0003D20DFE704F57172217C206802F0C4FBA5
:10B6D000E6E70120E7E70220E5E701F00F03426813
:10B6E000934231D810B5044611F0800F1ED1C3EB40
:10B6F000C301890001F5FC7101440431C3EBC302AD
:10B7000000EB8202002082F8FD0100228A700B709B
:10B7100094F8BC33012B19D0012384F8BC33206882
:10B7200002F0C9FA002084F8BC0310BDC3EBC301CA
:10B730008900383101440431C3EBC30200EB8202BB
:10B74000012082F83D00E0E7012070470220ECE78D
:10B7500030B40468606A19B940EA0240A06218E097
:10B760000D46A36A00EB13400023691E8B4209D2E9
:10B7700003F1400104EB8101496800EB1140013302
:10B78000DBB2F2E740EA024005F13F0104EB810140
:10B790004860002030BC7047036859620020704741
:10B7A00070470000002800F0DF8170B582B00446C9
:10B7B000036813F0010F3BD0A64B9B6803F00C030A
:10B7C000042B2CD0A34B9B6803F00C03082B21D037
:10B7D0006368B3F5803F4FD0B3F5A02F52D09D4B97
:10B7E0001A6822F480321A601A6822F480221A60E1
:10B7F0006368002B50D0FEF7F1FB0546954B1B68A4
:10B8000013F4003F14D1FEF7E9FB401B6428F5D97F
:10B810000320B0E18F4B5B6813F4800FD8D08D4BC1
:10B820001B6813F4003F03D06368002B00F09E8177
:10B83000236813F0020F54D0864B9B6813F00C0F53
:10B840003ED0844B9B6803F00C03082B33D0E36895
:10B85000002B67D0804B01221A60FEF7BFFB054624
:10B860007C4B1B6813F0020F53D1FEF7B7FB401B54
:10B870000228F5D903207EE1764A136843F4803329
:10B880001360B5E7734B1A6842F480221A601A6895
:10B8900042F480321A60ABE7FEF7A0FB05466D4B21
:10B8A0001B6813F4003FC3D0FEF798FB401B6428CD
:10B8B000F5D903205FE1674B5B6813F4800FC6D1B5
:10B8C000644B1B6813F0020F03D0E368012B40F0B8
:10B8D0004F81604A136823F0F803216943EAC103EA
:10B8E0001360236813F0080F40D0636963B35B4BA8
:10B8F00001221A60FEF772FB0546564B5B6F13F090
:10B90000020F33D1FEF76AFB401B0228F5D9032052
:10B9100031E1504A136823F0F803216943EAC10377
:10B920001360DEE74C4B00221A60FEF757FB05461A
:10B93000484B1B6813F0020FD3D0FEF74FFB401BA0
:10B940000228F5D9032016E1444B00221A60FEF7C5
:10B9500045FB05463F4B5B6F13F0020F06D0FEF729
:10B960003DFB401B0228F5D9032004E1236813F0B6
:10B97000040F78D0374B1B6C13F0805F0DD1002380
:10B980000193344B1A6C42F080521A641B6C03F022
:10B9900080530193019B012500E00025304B1B687B
:10B9A00013F4807F21D0A368012B32D0052B36D031
:10B9B000284B1A6F22F001021A671A6F22F0040254
:10B9C0001A67A368002B34D0FEF708FB0646214B0C
:10B9D0001B6F13F0020F45D1FEF700FB801B41F2F5
:10B9E00088339842F3D90320C5E01D4A136843F415
:10B9F00080731360FEF7F2FA0646194B1B6813F4C6
:10BA0000807FD0D1FEF7EAFA801B0228F5D9032007
:10BA1000B1E0104A136F43F001031367D1E70D4BF8
:10BA20001A6F42F004021A671A6F42F001021A6795
:10BA3000C7E7FEF7D3FA0646064B1B6F13F0020F5B
:10BA400010D0FEF7CBFA801B41F288339842F3D92D
:10BA5000032090E00038024000004742800E474239
:10BA600000700040EDB9A369002B00F08380494AC3
:10BA7000926802F00C02082A51D0022B17D0464BD4
:10BA800000221A60FEF7AAFA0446424B1B6813F024
:10BA9000007F42D0FEF7A2FA001B0228F5D903204E
:10BAA00069E03C4A136C23F080531364DBE73A4BA4
:10BAB00000221A60FEF792FA0546364B1B6813F017
:10BAC000007F06D0FEF78AFA401B0228F5D9032032
:10BAD00051E0E369226A1343626A43EA8213A26A6D
:10BAE0005208013A43EA0243E26A43EA0263294AFE
:10BAF0005360294B01221A60FEF770FA0446254B69
:10BB00001B6813F0007F06D1FEF768FA001B0228BD
:10BB1000F5D903202FE000202DE000202BE0012BA1
:10BB20002BD01C4B5B6803F48001E269914226D163
:10BB300003F03F02216A8A4223D1616A47F6C0724C
:10BB40001A40B2EB811F1ED103F44031A26A5208A1
:10BB5000013AB1EB024F18D103F07063E26AB3EB24
:10BB6000026F14D1002006E001207047012002E09E
:10BB7000012000E0002002B070BD0120FBE70120A1
:10BB8000F9E70120F7E70120F5E70120F3E70120BD
:10BB9000F1E700BF0038024060004742F8B52F4B84
:10BBA0009B6803F00C03042B53D0082B53D12B4B71
:10BBB0005A6802F03F025B6813F4800F28D0274BCD
:10BBC0005B68C3F3881358010021C01A61F10001BA
:10BBD0008E0146EA906687013C1A66EB0105E90092
:10BBE00041EA5471E000C01841F100014B0243EA00
:10BBF000D0534402204619460023FBF755F9174B52
:10BC00005B68C3F3014301335B00B0FBF3F023E057
:10BC1000124B5B68C3F388135C010025E41A65F1DD
:10BC20000005AE0146EA9466A701381B66EB0501E4
:10BC3000CC0044EA5074C500E81844F100018B02BE
:10BC400043EA90538402204619460023FBF72CF95F
:10BC5000D5E7034800E00348F8BD00BF00380240C4
:10BC600000127A000024F400002800F09B8070B5D8
:10BC70000D4604464F4B1B6803F007038B4208D266
:10BC8000CBB24C4A1370136803F007038B4240F0A9
:10BC90008B80236813F0020F17D013F0040F04D029
:10BCA000454A936843F4E0539360236813F0080F08
:10BCB00004D0414A936843F4604393603E4A9368DA
:10BCC00023F0F003A1680B439360236813F0010F86
:10BCD00032D06368012B21D09A1E012A25D9364A19
:10BCE000126812F0020F61D033498A6822F0030211
:10BCF00013438B60FEF772F906462F4B9B6803F0E7
:10BD00000C036268B3EB820F16D0FEF767F9801B55
:10BD100041F288339842F0D9032042E0264A126863
:10BD200012F4003FE0D101203BE0234A126812F0F8
:10BD3000007FD9D1012034E01E4B1B6803F00703BC
:10BD4000AB4207D9EAB21B4B1A701B6803F007031A
:10BD5000AB422DD1236813F0040F06D0164A936826
:10BD600023F4E053E1680B439360236813F0080F5A
:10BD700007D0114A936823F46043216943EAC10361
:10BD80009360FFF70BFF0C4B9B68C3F303130B4A45
:10BD9000D35CD8400A4B18600A4B1868FDF78EFF39
:10BDA000002070BD012070470120FAE70120F8E76C
:10BDB0000120F6E7003C024000380240787F01088D
:10BDC0000000002008000020014B1868704700BFE9
:10BDD0000000002008B5FFF7F7FF044B9B68C3F392
:10BDE0008223034AD35CD84008BD00BF003802401C
:10BDF000887F010808B5FFF7E7FF044B9B68C3F392
:10BE00004233034AD35CD84008BD00BF003802402B
:10BE1000887F01080F2303600B4B9A6802F003022E
:10BE200042609A6802F0F00282609A6802F4E0527E
:10BE3000C2609B68DB0803F4E0530361034B1B689B
:10BE400003F007030B60704700380240003C0240DB
:10BE500038B5FEF7C3F80446464A136843F00103B9
:10BE60001360444B1B6813F0020F06D1FEF7B6F8BF
:10BE7000001B0228F5D9032038BD3E4D2B6843F046
:10BE800080032B60FEF7AAF804460023AB60394B11
:10BE90009B6813F00C0F08D0FEF7A0F8001B41F2CE
:10BEA00088339842F3D90320E6E7FEF797F8044673
:10BEB000304A136823F4502313602E4B1B6813F48D
:10BEC000003F06D0FEF78AF8001B6428F5D903204E
:10BED000D2E7FEF783F80446264A136823F08073FE
:10BEE0001360244B1B6813F0007F06D0FEF776F832
:10BEF000001B0228F5D90320BEE7FEF76FF80446C1
:10BF00001C4A136823F0806313601A4B1B6813F0FC
:10BF1000006F06D0FEF762F8001B0228F5D9032057
:10BF2000AAE7144B144A5A60144AC3F88420DA680A
:10BF300022F4F852DA60DA6822F40052DA60DA6841
:10BF400042F41F02DA60DA6842F40012DA605A6FD3
:10BF500022F001025A675A6F42F080725A67084B0A
:10BF6000084A1A60084B1868FDF7A8FE002883D01D
:10BF7000012081E70038024010300004003000202A
:10BF8000000000200024F400080000202DE9F04704
:10BF900082B00546884617461E46FEF71FF80A9BE4
:10BFA0001B1A03EB0609FEF719F882462A4B1B6899
:10BFB000C3F3CB3309FB03F301932B689C6838EA86
:10BFC00004030CBF01240024BC4240D0B6F1FF3F63
:10BFD000F3D0FEF703F8A0EB0A0048450AD2B9F106
:10BFE000000F07D0019A02B14A46019B013B019321
:10BFF0009146E2E72A68536823F0E00353606B68D8
:10C00000B3F5827F0BD0AB6AB3F5005F14D0012388
:10C0100085F85130002385F85030032018E0AB68D4
:10C02000B3F5004F02D0B3F5806FECD12A681368E6
:10C0300023F040031360E6E72A68136823F40053F3
:10C0400013602A68136843F400531360DFE700208D
:10C0500002B0BDE8F08700BF0000002030B585B019
:10C060000446164B1868164BA3FB0030400D4FF4E6
:10C070007A7505FB00F003906368B3F5827F0BD0FF
:10C08000039BBBB1039B013B039323689B6813F0A5
:10C09000800FF5D100200EE000920B460022802197
:10C0A0002046FFF773FF30B1636D43F020036365F3
:10C0B000032000E0002005B030BD00BF00000020DC
:10C0C000819F5E1600285AD010B50446436A33B9E2
:10C0D0004368B3F5827F05D00023C36102E00023EB
:10C0E000036143610023A36294F85130002B40D0D8
:10C0F000022384F851302268136823F04003136050
:10C10000636803F48273A26802F404421343E26892
:10C1100002F400621343226902F0020213436269CF
:10C1200002F001021343A26902F400721343E269B0
:10C1300002F038021343226A02F080021343A26A1B
:10C1400002F40052216813430B60638B03F0040375
:10C15000626A02F01002216813434B602268D369BF
:10C1600023F40063D36100206065012384F851301B
:10C1700010BD84F850302046FDF704FDB8E70120DB
:10C1800070472DE9F04383B01D4690F85030012BE5
:10C1900000F0CC80044688469146012380F8503058
:10C1A000FDF71CFF074694F85160F6B2012E40F0EF
:10C1B000AA80B8F1000F00F0A780B9F1000F00F0DD
:10C1C000A380032384F8513000236365C4F83080D2
:10C1D000A4F83490A4F83690A363A387E38763643C
:10C1E0002364A368B3F5004F1ED023681A6812F0C9
:10C1F000400F03D11A6842F040021A60E368B3F5B9
:10C20000006F1CD0636813B1B9F1010F52D1226BDA
:10C21000236812781A73236B01332363E38E9BB276
:10C22000013B9BB2E38645E02268136823F040039C
:10C2300013602268136843F480431360D5E7636892
:10C2400013B1B9F1010F16D1226B23681288DA609D
:10C25000236B02332363E38E9BB2013B9BB2E386E5
:10C2600009E0FDF7BBFEC01BA84202D3B5F1FF3FBA
:10C2700054D1002D54D0E38E9BB2002B2ED02368D6
:10C280009A6812F0020FECD0226B1288DA60236BEE
:10C2900002332363E38E9BB2013B9BB2E386EAE762
:10C2A000FDF79CFEC01BA84202D3B5F1FF3F39D178
:10C2B000002D39D0E38E9BB283B123689A6812F0C7
:10C2C000020FEDD0226B12781A73236B01332363B4
:10C2D000E28E92B2013A92B2E286EBE73A46294602
:10C2E0002046FFF7BBFE08B120236365A36833B97E
:10C2F00001932368DA6801929B680193019B636D47
:10C3000013B9002600E00226012384F851300023EF
:10C3100084F85030304603B0BDE8F0830326F3E7DD
:10C320000326F1E70326EFE70326EDE70226F1E710
:10C3300038B590F85030012B61D00446012380F8C5
:10C34000503090F85150EDB29D4252D1002951D059
:10C35000002A4FD0032380F8513000234365016346
:10C360008286C2868363436403648387C38783684A
:10C37000B3F5004F2AD0A36C224A1A64A36C224A58
:10C38000DA63A36C214ADA64A36C00221A6522687E
:10C39000E38E9BB20C32216BA06CFEF701F90146D3
:10C3A000F8B923681A6812F0400F03D11A6842F0F6
:10C3B00040021A602268536843F0200353602268E9
:10C3C000536843F0020353600D4613E0026813689C
:10C3D00023F0400313600268136843F48043136042
:10C3E000C9E7636D43F010036365012384F851309E
:10C3F00000E00225002384F85030284638BD02258D
:10C40000FBE700BF13C4000841C400081FC40008B4
:10C41000704708B5806BFFF7FBFF08BD704708B594
:10C42000806B0268536823F003035360436D43F04D
:10C4300010034365012380F85130FFF7EFFF08BD7B
:10C4400030B583B00546846BFDF7C8FD2B681B68CB
:10C4500013F4807F23D1024621684B6823F0200328
:10C460004B6021684B6823F002034B606421204637
:10C47000FFF7F4FD18B1636D43F020036365A36813
:10C4800033B901932368DA6801929B680193019B99
:10C490000023E386012384F85130636D23B92046DD
:10C4A00004F0F8FD03B030BD2046FFF7B7FFF9E711
:10C4B00030B585B00446026851689368C3F38010B4
:10C4C00013F0400F05D113F0010F02D011F0400F0F
:10C4D00069D113F0020F02D011F0800F67D1C3F3BE
:10C4E000401513F0200F03D110B913F4807F61D0F1
:10C4F00011F0200F5ED078B194F85100C0B203283B
:10C500005AD0606D40F00400606500200090D06853
:10C51000009090680090009865B1606D40F0010057
:10C5200060650020029090680290106820F0400042
:10C530001060029A13F4807F09D0636D43F0080302
:10C5400063650023039323689B680393039B636DD8
:10C55000002B2FD02268536823F0E003536001239F
:10C5600084F8513011F0030F2ED02268536823F065
:10C5700003035360E36C4BB1154A1A65E06CFEF798
:10C580008EF818B1636D43F040036365A36C8BB103
:10C590000F4A1A65A06CFEF782F858B1636D43F03C
:10C5A0004003636506E0236C2046984702E0636C15
:10C5B0002046984705B030BD00230193D36801930E
:10C5C00093680193019BF5E72046FFF727FFF1E70A
:10C5D000D5C5000808B5806B0023C387C386FFF765
:10C5E0001DFF08BD7047000090F83D30DBB2012B05
:10C5F00037D1022380F83D300268D36843F001034D
:10C60000D3600368194A934220D0B3F1804F1DD004
:10C61000A2F57C42934219D002F58062934215D074
:10C6200002F58062934211D002F5784293420DD018
:10C6300002F57052934209D0A2F59432934205D08C
:10C640001A6842F001021A60002070479A6802F0EE
:10C650000702062A07D01A6842F001021A60002079
:10C660007047012070470020704700BF0000014064
:10C67000704770477047704710B5044603681A69E1
:10C6800012F0020F11D0DA6812F0020F0DD06FF025
:10C6900002021A610123037703689B6913F0030FF9
:10C6A00070D0FFF7E6FF0023237723681A6912F0A2
:10C6B000040F12D0DA6812F0040F0ED06FF00402EB
:10C6C0001A610223237723689B6913F4407F5FD0AC
:10C6D0002046FFF7CEFF0023237723681A6912F064
:10C6E000080F12D0DA6812F0080F0ED06FF00802AF
:10C6F0001A61042323772368DB6913F0030F4ED0FC
:10C700002046FFF7B6FF0023237723681A6912F04B
:10C71000100F12D0DA6812F0100F0ED06FF0100266
:10C720001A61082323772368DB6913F4407F3DD027
:10C730002046FFF79EFF0023237723681A6912F033
:10C74000010F03D0DA6812F0010F36D123681A699D
:10C7500012F0800F03D0DA6812F0800F34D1236812
:10C760001A6912F0400F03D0DA6812F0400F32D18C
:10C7700023681A6912F0200F03D0DA6812F0200F34
:10C7800030D110BDFFF774FF2046FFF773FF8AE733
:10C790002046FFF76DFF2046FFF76CFF9BE7204622
:10C7A000FFF766FF2046FFF765FFACE72046FFF77F
:10C7B0005FFF2046FFF75EFFBDE76FF001021A61E1
:10C7C0002046FDF743F9C1E76FF080021A61204669
:10C7D00000F0A1F8C3E76FF040021A612046FFF7AE
:10C7E0004AFFC5E76FF020021A61204600F092F878
:10C7F000C7E700000368304A904212D0B0F1804F82
:10C800000FD0A2F57C4290420BD002F5806290429C
:10C8100007D002F58062904203D002F57842904240
:10C8200003D123F070034A681343234A90422AD06D
:10C83000B0F1804F27D0A2F57C42904223D002F580
:10C84000806290421FD002F5806290421BD002F5B8
:10C850007842904217D002F57052904213D002F500
:10C86000806290420FD002F5806290420BD0A2F518
:10C870009832904207D002F58062904203D002F5D0
:10C880008062904203D123F44073CA68134323F0BB
:10C8900080034A69134303608B68C3620B68836239
:10C8A000054B984203D003F58063984201D10B6990
:10C8B00003630123436170470000014040B310B59A
:10C8C000044690F83D30F3B1022384F83D30214610
:10C8D00051F8040BFFF78EFF012384F8463084F8EB
:10C8E0003E3084F83F3084F8403084F8413084F89A
:10C8F000423084F8433084F8443084F8453084F87A
:10C900003D30002010BD80F83C30FFF76BFEDBE7C8
:10C910000120704770477047026802F10C0353E82A
:10C92000003F23F0C0030C3242E800310029F3D16C
:10C93000202380F83D307047026802F10C0353E871
:10C94000003F23F490730C3242E800310029F3D108
:10C95000026802F1140353E8003F23F0010314328C
:10C9600042E800310029F3D1036B012B05D02023CD
:10C9700080F83E30002303637047026802F10C0325
:10C9800053E8003F23F010030C3242E80031002945
:10C99000F3D1ECE790F83D30DBB2212B01D002203F
:10C9A00070478368B3F5805F17D0036A5A1C026230
:10C9B0001A7803685A60C38C9BB2013B9BB2C38454
:10C9C0004BB90268D36823F08003D3600268D36850
:10C9D00043F04003D360002070470369002BE4D18B
:10C9E000036A1B880268C3F308035360036A0233B7
:10C9F0000362E0E770B504460268136923F440530C
:10CA0000C1680B431361836802691343426913438E
:10CA1000C2691A430168CB6823F4164323F00C0360
:10CA20001343CB600268536923F4407381690B435D
:10CA300053610368344A934206D002F58062934200
:10CA400002D0FFF7C7F901E0FFF7D4F9E369B3F5C6
:10CA5000004F2AD00026051846EB06012D1846EB9C
:10CA60000101CB0043EA5573EA0015461946636895
:10CA70009A009B0F281846EB0101FAF715FA234D8F
:10CA8000A5FB00325109642303FB11031B01323360
:10CA9000A5FB03235B0903F0F00202EB011203F094
:10CAA0000F03216813448B6070BD0026051846EB08
:10CAB00006012D1846EB0101CB0043EA5573EA004D
:10CAC0001546194662683346921846EB0303281848
:10CAD00046EB0101FAF7E8F90C4DA5FB00325109CC
:10CAE000642303FB1103DB003233A5FB03235B0943
:10CAF0005A0002F4F87202EB011203F007032168F6
:10CB000013448B60D0E700BF001001401F85EB513C
:10CB10002DE9F84305460F4616469946DDF8208074
:10CB20002C68246837EA04030CBF01240024B442B3
:10CB30002DD1B8F1FF3FF3D0B8F1000F05D0FDF7CC
:10CB40004DFAA0EB09004045EAD92A6802F10C032E
:10CB500053E8003F23F4D0730C3242E8003100293F
:10CB6000F3D12A6802F1140353E8003F23F00103D4
:10CB7000143242E800310029F3D1202385F83D30FA
:10CB800085F83E30002385F83C30032000E000208B
:10CB9000BDE8F88358B310B5044690F83D300BB3A8
:10CBA000242384F83D302268D36823F40053D360F3
:10CBB0002046FFF71FFF2268136923F49043136197
:10CBC0002268536923F02A0353612268D36843F42F
:10CBD0000053D36000202064202384F83D3084F883
:10CBE0003E3010BD80F83C30FDF752F9D8E7012007
:10CBF00070472DE9F04182B01E4690F83E30DBB21E
:10CC0000202B5CD104460D46904600295BD0002ABB
:10CC10005BD090F83C30012B59D0012380F83C3098
:10CC200000230364222280F83E200363FDF7D6F937
:10CC30000746A4F82C80A4F82E80A368B3F5805F83
:10CC400005D04FF00008002384F83C3017E023693A
:10CC500013B14FF00008F6E7A8460025F3E7236874
:10CC60005B68C3F3080328F8023B03E023685B68B2
:10CC70002B700135E28D92B2013A92B2E285E38DDA
:10CC80009BB2BBB100963B46002220212046FFF715
:10CC90003FFFF0B9002DE2D0A368B3F5805FE5D087
:10CCA00013B92369002BE1D023685B6803F07F038D
:10CCB0002B70DEE7202384F83E30002000E00220C5
:10CCC00002B0BDE8F0810120FAE70120F8E7022078
:10CCD000F6E70320F4E7000038B590F83D30DBB20A
:10CCE000202B38D10446002937D0002A37D090F8BD
:10CCF0003C30012B35D0012380F83C300162828426
:10CD0000C28400250564212380F83D30436B16481A
:10CD1000D863636B15481864636B1548D864636BFC
:10CD20001D6520681346021D606BFDF739FC236802
:10CD30006FF040021A6084F83C50226802F114033C
:10CD400053E8003F43F08003143242E800310029E9
:10CD5000F3D1002000E0022038BD0120FCE70120D3
:10CD6000FAE70220F8E700BF77CD0008DFCD000822
:10CD7000EFCD0008704708B50346806B1B681B6841
:10CD800013F4807F1AD10023C384026802F11403D4
:10CD900053E8003F23F08003143242E800310029B9
:10CDA000F3D1026802F10C0353E8003F43F0400363
:10CDB0000C3242E800310029F3D108BDFFF7DAFF59
:10CDC000FBE708B50168CA6822F04002CA60202269
:10CDD00080F83D20FFF7CEFF002008BD704708B562
:10CDE000806BFFF7FBFF08BD70477047704710B5B9
:10CDF000846B23685A6994F83D30DBB2212B10D044
:10CE000023685A6902F0400294F83E30DBB2222BCC
:10CE100011D0236C43F0100323642046FFF7E6FF94
:10CE200010BD02F08002002AEAD00023E3842046ED
:10CE3000FFF772FDE4E7002AEBD00023E3852046EC
:10CE4000FFF77AFDE5E708B5806B0023C385C3844F
:10CE5000FFF7CCFF08BD704790F83E30DBB2222BC5
:10CE600067D18368B3F5805F4DD0826AB3F5805F88
:10CE700004D0002B54D10369002B51D103685B68A7
:10CE80001370836A01338362C38D9BB2013B9BB2F3
:10CE9000C385002B4FD100B583B00268D36823F05F
:10CEA0002003D3600268D36823F48073D3600268E0
:10CEB000536923F001035361202380F83E30036B54
:10CEC000012B33D100230363026802F10C0353E802
:10CED000003F23F010030C3242E800310029F3D167
:10CEE00003681A6812F0100F06D0002201921A6827
:10CEF00001925B680193019B818DFFF7ACFF0020DD
:10CF000003B05DF804FB0269002AAED1826A0368AF
:10CF10005B68C3F308031380836A02338362B3E759
:10CF200003685B6803F07F031370AAE7FFF75CFFF9
:10CF3000E5E70220704700207047000030B583B05D
:10CF4000044602681368D068516913F00F0505D1D3
:10CF500013F0200F02D010F0200F19D12DB111F0D5
:10CF6000010119D110F4907F16D1216B01297DD0D8
:10CF700013F0800F03D010F0800F40F0158113F0F4
:10CF8000400F03D010F0400F40F0128103B030BDCD
:10CF90002046FFF761FFF9E713F0010F06D010F408
:10CFA000807F03D0226C42F00102226413F0040F50
:10CFB00004D019B1226C42F00202226413F0020F75
:10CFC00004D019B1226C42F00402226413F0080F5D
:10CFD00007D010F0200F00D119B1226C42F00802E6
:10CFE0002264226C002AD1D013F0200F02D010F05E
:10CFF000200F29D123685B6903F04003226C12F0F3
:10D00000080F00D163B32046FFF796FC23685B69E5
:10D0100013F0400F20D0226802F1140353E8003FC0
:10D0200023F04003143242E800310029F3D1A36B0E
:10D0300073B1614A1A65A06BFDF731FB0028A5D0DA
:10D04000A06B036D9847A1E72046FFF705FFD1E7E6
:10D050002046FFF7CBFE99E72046FFF7C7FE95E78E
:10D060002046FFF7C3FE002323648FE713F0100F61
:10D070003FF47EAF10F0100F3FF47AAF002301931E
:10D080001368019353680193019B536913F0400F98
:10D0900050D0A26B13685B689BB2002B3FF476AF55
:10D0A000A18D99427FF672AFE385D369B3F5807F96
:10D0B00037D0226802F10C0353E8003F23F4807359
:10D0C0000C3242E800310029F3D1226802F1140346
:10D0D00053E8003F23F00103143242E800310029F5
:10D0E000F3D1226802F1140353E8003F23F0400318
:10D0F000143242E800310029F3D1202384F83E3075
:10D1000000232363226802F10C0353E8003F23F05D
:10D1100010030C3242E800310029F3D1A06BFDF777
:10D1200074FAA18DE38D9BB2C91A89B22046FFF72C
:10D1300092FE2BE7A18DE38D9BB2C91A89B2E38DD4
:10D140009BB2002B3FF422AF00293FF41FAF2268AF
:10D1500002F10C0353E8003F23F490730C3242E8D1
:10D1600000300028F3D1226802F1140353E8003F95
:10D1700023F00103143242E800300028F3D12023C9
:10D1800084F83E3000232363226802F10C0353E845
:10D19000003F23F010030C3242E800300028F3D1A6
:10D1A0002046FFF758FEF1E62046FFF7F3FBEDE6D9
:10D1B0002046FFF706FEE9E647CE000808B5806B7B
:10D1C000036B012B02D0FFF710FE08BD818D4908CB
:10D1D000FFF741FEF9E708B50346806B1B681B6843
:10D1E00013F4807F2BD10023C385026802F10C0366
:10D1F00053E8003F23F480730C3242E800310029E9
:10D20000F3D1026802F1140353E8003F23F0010355
:10D21000143242E800310029F3D1026802F114030C
:10D2200053E8003F23F04003143242E80031002964
:10D23000F3D1202380F83E30036B012B05D0036B24
:10D24000012B0FD0FFF7D0FD08BD026802F10C03DF
:10D2500053E8003F23F010030C3242E8003100296C
:10D26000F3D1ECE7818DFFF7F6FDEDE730B583B044
:10D27000044613468162828500250564222280F8D7
:10D280003E20826B1F48D063A26B1F481064A26BC4
:10D290001E48D064A26B156520680A46011DA06B6C
:10D2A000FDF77EF9019523681A6801925B68019386
:10D2B000019B84F83C50226802F10C0353E8003FC4
:10D2C00043F480730C3242E800310029F3D1226824
:10D2D00002F1140353E8003F43F00103143242E823
:10D2E00000310029F3D1226802F1140353E8003F12
:10D2F00043F04003143242E800310029F3D100200A
:10D3000003B030BDD7D10008BDD10008EFCD000873
:10D3100008B590F83E30DBB2202B0DD171B17AB157
:10D3200090F83C30012B0DD0012380F83C300023D5
:10D330000363FFF79BFF00E0022008BD0120FCE72C
:10D340000120FAE70220F8E782B000230193019B55
:10D35000013301930E4A934214D80369002BF6DA85
:10D3600000230193036943F001030361019B01332F
:10D370000193074A934208D8036913F0010FF5D1CE
:10D38000002000E0032002B070470320FBE700BF4D
:10D39000400D030084B010B5044603A880E80E00D9
:10D3A000089B012B1FD1A36B23F48033A363E36895
:10D3B00023F4840323F04003E360E36823F4401381
:10D3C000E3600F9B012B09D02046FFF7BDFF069BB2
:10D3D000012B1BD0BDE8104004B07047E36843F454
:10D3E0008013E360F0E7E36843F04003E360204626
:10D3F000FFF7AAFF0C9B23B9A36B43F48033A3630D
:10D40000E5E7A36B23F48033A363E0E7A36843F06D
:10D410000603A360A36843F02003A360DAE70000DB
:10D42000022A0AD00921C26822F47052C260C3687D
:10D4300043EA8123C36000207047234B0B44234AF7
:10D4400093422FD9224B0B44224A93422CD9A1F567
:10D450007403A3F51053204A934227D9A1F1837393
:10D46000A3F5E7431D4A934222D31D4B0B441D4AAB
:10D4700093421FD91C4B0B441C4A93421CD31C4B98
:10D480000B441C4A934219D3A1F1B773A3F5585327
:10D49000194A934214D3194B0B44194A934211D29F
:10D4A0000721C0E70F21BEE70E21BCE70D21BAE737
:10D4B0000C21B8E70B21B6E70A21B4E70921B2E74E
:10D4C0000821B0E70621AEE7405327FFFF340C00E8
:10D4D000401E1BFF3F420F007F4F120020D613005B
:10D4E00060B6E5FE5FE3160000D3CEFE40771B007A
:10D4F000C05BB3FEC091210020753800E05459FE96
:10D50000E09C4100836843F0010383600020704782
:10D51000836823F0010383600020704782B00023FA
:10D520000193890141F020010161019B01330193C5
:10D53000054A934205D8036913F0200FF5D1002066
:10D5400000E0032002B07047400D030082B00023CA
:10D55000019310230361019B01330193054A934218
:10D5600005D8036913F0100FF5D1002000E0032067
:10D5700002B07047400D0300D0F800381943C0F8DE
:10D58000001800207047000084B02DE9F8430446DD
:10D5900009A880E80E002546002306E003F14002BA
:10D5A00004EB82020021516001330E2BF6D9DDF825
:10D5B0004C80B8F1000F24D1D4F8043843F00203B2
:10D5C000C4F80438A36B43F40013A363A36B23F4E0
:10D5D0000023A363A36B23F48023A3630023C4F875
:10D5E000003E04F50066D4F80038C4F800380E9BFD
:10D5F000012B14D10B9B6BB900212046FFF7BCFF18
:10D6000011E0A36B23F40013A363A36B43F4002383
:10D61000A363E3E701212046FFF7AEFF03E0032108
:10D620002046FFF7A9FF10212046FFF777FF81462C
:10D6300008B14FF001092046FFF788FF08B14FF00D
:10D640000109002333617361F3610AE0C3B94FF04C
:10D650000060C2F8000900220A614FF67F328A603A
:10D660000133099F9F4210D905EB431202F5106167
:10D67000D2F800090028E9DB0020C2F80009EAE737
:10D680004FF09040C2F80009E5E700230AE0BBB183
:10D690004FF09040C2F8000B00220A614FF67F3233
:10D6A0008A6001339F4210D905EB431202F53061C5
:10D6B000D2F8000B0028EADB0020C2F8000BEBE7F1
:10D6C0004FF00060C2F8000BE6E7336923F4807383
:10D6D00033610023A3616FF0804363610C9B1BB92E
:10D6E000A36943F01003A361A2690C4B1343A36128
:10D6F0000F9B1BB1A36943F00803A361B8F1010FAD
:10D7000004D04846BDE8F84304B07047A36943F02D
:10D71000804343F00403A361F3E700BF00383C807B
:10D72000D0F8083813F0060307D0022B07D0062BD9
:10D7300001D00F2070470220704700207047022060
:10D74000704770B40C784B78012B22D0D0F81C387D
:10D7500004F00F060122B24043EA0243C0F81C382D
:10D7600000EB4410D0F8003B13F4004F0ED1D0F87A
:10D77000003B8A68C2F30A02C97842EA8142134335
:10D7800043F0805343F40043C0F8003B002070BCDA
:10D790007047D0F81C2804F00F06B3409BB2134327
:10D7A000C0F81C3800EB4410D0F8003913F4004FD7
:10D7B000ECD1D0F800398A68C2F30A02C97842EA8B
:10D7C000814242EA84541C4344F0805444F40044AF
:10D7D000C0F80049DAE7000030B40B784A78012A33
:10D7E00024D000EB4313D3F8002B002A50DBD0F8F1
:10D7F0003C580A7802F00F02012404FA02F225EAEA
:10D800000242C0F83C28D0F81C28097801F00F012A
:10D810008C4022EA0444C0F81C48D3F8001B234A79
:10D820000A40C3F8002B002030BC704700EB4313C4
:10D83000D3F80029002A1EDBD0F83C580A7802F001
:10D840000F02012404FA02F292B225EA0202C0F8A1
:10D850003C28D0F81C28097801F00F018C40A4B2B4
:10D8600022EA0404C0F81C48D3F80019104A0A4000
:10D87000C3F80029D7E7D3F8002942F00062C3F8C3
:10D880000029D3F8002942F08042C3F80029D3E7E9
:10D89000D3F8002B42F00062C3F8002BD3F8002B22
:10D8A00042F08042C3F8002BA1E700BF0078F3EFFD
:10D8B000007833EC70B40B784C78012C26D000EB58
:10D8C000431000F530631C69E40CE4041C611C691E
:10D8D00024F0FF5424F4C0141C614C690CB18C6812
:10D8E0004C611C6944F400241C611C698D68C5F3FB
:10D8F00012052C431C61012A65D0D0F8003B43F08F
:10D900000443C0F8003B002070BC70474C696CBBFE
:10D9100000EB4314D4F8105925F0FF5525F4C01539
:10D92000C4F81059D4F8105945F40025C4F810591A
:10D93000D4F81059ED0CED04C4F81059012A33D075
:10D9400000EB4313D3F8002942F00442C3F8002946
:10D950004B69002BD7D0D0F834380A7802F00F0189
:10D9600001228A401343C0F83438CCE700EB43145B
:10D9700004F510642569ED0CED042561256925F099
:10D98000FF5525F4C01525614E698D68AE4200D95A
:10D990004D61256945F40025256125694E69C6F369
:10D9A000120635432561C9E70A691AB100EB431134
:10D9B000C1F8142900EB4310D0F8002942F00442CA
:10D9C000C0F800299FE7CA68002A96D05A6194E7F8
:10D9D00070B49DF80C4064B903339D08AC4208D282
:10D9E00000EB023303F5805351F8046B1E600134E1
:10D9F000F4E7002070BC7047F0B583B00B784C782A
:10DA0000012C2BD000EB431303F530642569ED0C9A
:10DA1000ED042561256925F0FF5525F4C015256124
:10DA20004D69002D40F0C38025698E68C6F312064B
:10DA300035432561256945F400252561012A00F05B
:10DA4000CB80CA78012A00F0CD80D3F8002B42F0B9
:10DA50000442C3F8002B002003B0F0BD4C6984BB26
:10DA600000EB4314D4F8105925F0FF5525F4C015E8
:10DA7000C4F81059D4F8105945F40025C4F81059C9
:10DA8000D4F81059ED0CED04C4F81059012A4CD00B
:10DA900000EB4313D3F8004944F00444C3F80049B1
:10DAA000CC78012C6AD04B69002BD4D0D0F8342824
:10DAB000097801F00F040121A1400A43C0F834287D
:10DAC000C9E700EB4314D4F81059ED0CED04C4F889
:10DAD0001059D4F8105925F0FF5525F4C015C4F895
:10DAE0001059D4F810694D698F683D44013DB5FB6C
:10DAF000F7F5464F07EAC5453543C4F81059D4F841
:10DB000010594E69C6F312063543C4F8105904F58E
:10DB10001064CD78012DB9D1256925F0C045256166
:10DB2000256945F000552561B0E70A691AB100EB97
:10DB30004314C4F81429CA78012A08D000EB43130F
:10DB4000D3F8002942F00442C3F8002983E7D0F853
:10DB5000082812F4807F08D100EB4311D1F8002986
:10DB600042F00052C1F80029E8E700EB4311D1F878
:10DB7000002942F08052C1F80029DFE7D0F80848B8
:10DB800014F4807F0CD1D3F8004944F00054C3F85A
:10DB9000004900928B8A0A78C968FFF719FF5AE793
:10DBA000D3F8004944F08054C3F80049F1E78E6887
:10DBB0003544013DB5FBF6F52669144F07EAC54724
:10DBC0003E43266127698E68ADB206FB05F5C5F3B5
:10DBD00012053D43256131E7CA68002A3FF431AFA1
:10DBE00062612EE7D0F8082812F4807F06D1D3F8BE
:10DBF000002B42F00052C3F8002B26E7D3F8002B8D
:10DC000042F08052C3F8002B1FE700BF0000F81F4E
:10DC1000F0B482B0074608463E46950802F003027B
:10DC20000023AB4206D206F58054246840F8044B2A
:10DC30000133F6E77AB107F580573B680193002579
:10DC4000EBB2DC00019BE34000F8013B0135013AF7
:10DC500092B2002AF4D102B0F0BC70470B784A7837
:10DC6000012A14D000EB4310D0F8002B002A06DB69
:10DC70002BB1D0F8003B23F08043C0F8003BD0F834
:10DC8000003B43F40013C0F8003B0020704700EB5A
:10DC90004310D0F80029002A06DB2BB1D0F8003958
:10DCA00023F08043C0F80039D0F8003943F4001362
:10DCB000C0F80039E9E70B784A78012A0ED000EB6A
:10DCC0004310D0F8003B23F40013C0F8003BCB789E
:10DCD000023BDBB2012B15D90020704700EB43104B
:10DCE000D0F8003923F40013C0F80039CB78023B98
:10DCF000DBB2012BF0D8D0F8003943F08053C0F8E4
:10DD00000039E9E7D0F8003B43F08053C0F8003B0E
:10DD1000E2E7D0F8003823F4FE63C0F80038D0F80A
:10DD20000038090101F4FE611943C0F80018002011
:10DD30007047D0F8003E23F00303C0F8003ED0F84F
:10DD4000043823F00203C0F8043800207047D0F8EC
:10DD5000003E23F00303C0F8003ED0F8043843F03F
:10DD60000203C0F8043800207047426980691040FF
:10DD70007047D0F8183800F50060C0691840000CF2
:10DD80007047D0F8183800F50060C069184080B2BC
:10DD9000704700EB4111D1F8082B00F50060406995
:10DDA0001040704710B4D0F81048D0F8343801F063
:10DDB0000F02D340DB01DBB2234300EB411000F53F
:10DDC0001060806818405DF8044B7047406900F0AF
:10DDD0000100704738B50546C36823F0C043C360EF
:10DDE000012913D019BBC36843F08043C3600024EA
:10DDF0000120FCF7F9F801342846FFF7E7FF08B1E6
:10DE0000312CF5D9322C14D0002038BDC36843F032
:10DE10000053C36000240120FCF7E6F801342846D3
:10DE2000FFF7D4FF0128EDD0312CF4D9EAE7012027
:10DE3000EBE70120E9E7D0F8003923F4FF6323F092
:10DE40000703C0F80039D0F8043843F48073C0F8F1
:10DE5000043800207047000010B4046C154B9C423D
:10DE600003D9D0F8003B002B16DB0024C0F8104B80
:10DE7000D0F8104B44F40024C0F8104BD0F8104BED
:10DE800044F01804C0F8104BD0F8104B44F0C044D4
:10DE9000C0F8104B012903D000205DF8044B7047F7
:10DEA000C0F8142BD0F8003B43F08023C0F8003BAF
:10DEB000F2E700BF0A30544F10B5D0F8BC4284B12D
:10DEC000D0F8C0327BB194F80002FF280DD09B68D7
:10DED00094F8012221469847FF2384F8003200205D
:10DEE00010BD0320FCE70020FAE70020F8E700005F
:10DEF00043230380004870474400002043230380ED
:10DF00000048704788000020432303800048704782
:10DF1000D80000200A23038000487047CC0000206E
:10DF200038B5D0F8BC5275B1044602F01CFFC5F8F4
:10DF30000C02D4F8C032DB6805F50371D5F8040291
:10DF40009847002038BD0320FCE738B5D0F8C4421C
:10DF5000D0F8BC3253B301EB810200EB820292692C
:10DF60004AB1C1EBC10504EB8504656CB2FBF5F465
:10DF700005FB142272B10022C3F81422D0F8C0228B
:10DF80001469ACB10A4603F50471D3F80802A0473E
:10DF9000002038BD01EB810300EB830300249C616A
:10DFA0002346224602F028FF2046F2E70320F0E74E
:10DFB0000020EEE7F0B583B0D0F8BC6200238DF806
:10DFC0000730ADF80430002E6CD007460C460B78B5
:10DFD00013F060052AD0202D5ED1CA88F2B113F06B
:10DFE000800F0FD0D0F8C0329B68314660789847D8
:10DFF000E288072A28BF07223146384600F0F8FD9C
:10E0000000254CE04B7886F800328B7986F8013297
:10E01000CA88314600F001FE002540E0D0F8C03249
:10E020009B68002248789847002538E04E780B2EF0
:10E030002ED8DFE806F006342D2D2D2D2D2D2D2D7B
:10E04000152490F89C32DBB2032B03D000F0A8FA21
:10E05000032524E0022201A900F0CAFD35461EE096
:10E0600090F89C32DBB2032B03D000F099FA032521
:10E0700015E001220DF1070100F0BAFD0FE090F864
:10E080009C32DBB2032B0AD000F08AFA032506E0AB
:10E0900000F086FA032502E000F082FA0325284604
:10E0A00003B0F0BD0325FAE738B50446812102F03C
:10E0B00083FE002525870121204602F07DFEA4F87D
:10E0C00078518221204602F077FEA4F84C50A4F843
:10E0D0004E50D4F8BC324BB1D4F8C0325B6898478C
:10E0E000D4F8BC0202F04AFEC4F8BC52002038BD8D
:10E0F00070B504464FF4077002F03CFEB8B3064614
:10E10000C4F8BC02237CBBBB4FF400730222812104
:10E11000204602F046FE012525874FF400730222B7
:10E120002946204602F03DFEA4F878511023A4F8B9
:10E130004E30082303228221204602F032FE0123C2
:10E14000A4F84C30D4F8C0321B6898470023C6F8B6
:10E150001432C6F81832257C15BB4FF40073D6F87C
:10E1600004220121204602F04FFE284670BD002304
:10E17000C4F8BC320225F8E7402302228121204660
:10E1800002F00FFE01252587402302222946204662
:10E1900002F007FEA4F878511023A4F84E30C8E727
:10E1A0004023D6F804220121204602F02DFE00254E
:10E1B000DBE719B1C0F8C012002070470320704798
:10E1C000D0F8BC322BB1C3F80812C3F810220020DB
:10E1D000704703207047D0F8BC321BB1C3F804125B
:10E1E0000020704703207047D0F8BC22A2B108B5C8
:10E1F000D2F814320BB1012008BD0123C2F8143249
:10E20000D2F81032C362D2F81032D2F8082281213B
:10E2100002F0F2FD0020EFE70320704798B108B547
:10E2200003460020C3F8B802C3F8C002C3F8CC020A
:10E2300009B1C3F8B412012183F89C121A70184670
:10E2400002F042FD08BD0320704710B582B00023E4
:10E25000ADF8063061B10446C0F8B812CB6A4BB1D4
:10E260000DF106009847C4F8CC02002002B010BDA2
:10E270000320FBE70020F9E708B502F08AFD08BD9E
:10E2800008B5D0F8B83213B11B68984708BD032011
:10E29000FCE708B5D0F8B8320BB15B6898470020AE
:10E2A00008BD38B5044600F2AA25284600F064F9F6
:10E2B0000123C4F89432B4F8B032C4F8983294F818
:10E2C000AA1201F01F03012B0DD0022B10D02BB18D
:10E2D00001F08001204602F077FD03E02946204648
:10E2E00000F009FB38BD2946204600F03CFBF9E769
:10E2F0002946204600F06BFBF4E738B504460D468E
:10E3000041BB1346D0F89422032A01D0084638BDF9
:10E31000D0F85C11D0F86021914209D890F89C3275
:10E32000DBB2032B0FD0204600F08EFC2846EEE730
:10E33000891AC0F85C118A4228BF0A46194600F0C3
:10E340007BFC2846E3E7D0F8B8321B69002BEAD003
:10E350009847E8E790F89C32DBB2032B01D000200D
:10E36000D5E7D0F8B8329B690BB19847CFE70020CA
:10E37000CDE738B504460D4600294AD11346D0F8FA
:10E380009422022A05D094F8A032012B3CD02846D2
:10E3900038BDC269016A8A420ED88A4218D094F800
:10E3A0009C32DBB2032B27D08021204602F00CFDEB
:10E3B000204600F054FCE6E7521AC261194600F00C
:10E3C00024FC00231A461946204602F01DFDDAE718
:10E3D00083699942E3D8D0F898229342DFD2002291
:10E3E000114600F012FC0021C4F898120B460A46B0
:10E3F000204602F009FDC6E7D4F8B832DB68002BEE
:10E40000D2D020469847CFE7002384F8A032284690
:10E41000BEE790F89C32DBB2032B01D00020B7E7B7
:10E42000D0F8B8325B690BB19847B1E70020AFE78D
:10E43000012380F89C320023C0F894324360C0F876
:10E44000A432D0F8B832F3B170B50446D0F8BC228B
:10E450001AB15B680BB10021984740230022114696
:10E46000204602F09EFC0126A4F864614025C4F811
:10E4700060512B4600228021204602F092FCA684A7
:10E480002562002070BD0320704701740020704792
:10E4900090F89C32DBB280F89D32042380F89C32E5
:10E4A0000020704790F89C32DBB2042B01D0002092
:10E4B000704790F89D32DBB280F89C32F7E7D0F8D5
:10E4C000B82262B108B590F89C32DBB2032B01D0C0
:10E4D000002008BDD36923B198470020F9E7032045
:10E4E00070470020F5E7D0F8B82262B108B590F87F
:10E4F0009C32DBB2032B01D0002008BD136A23B18C
:10E5000098470020F9E7032070470020F5E7D0F88E
:10E51000B82262B108B590F89C32DBB2032B01D06F
:10E52000002008BD536A23B198470020F9E7032073
:10E5300070470020F5E70020704708B5012380F8F8
:10E540009C32D0F8B83213B15B680179984700204B
:10E5500008BD034600201A781AB10130C0B2013359
:10E56000F9E7704708B54B88012B00D008BDC0F80B
:10E57000A43200F069FBF9E70B7803704B78437025
:10E580008B78CA7843EA022343800B794A7943EABD
:10E59000022383808B79CA7943EA0223C3807047C0
:10E5A00010B50446802102F00FFC0021204602F045
:10E5B0000BFC10BD30B583B004460D460023ADF80A
:10E5C00006304A88130A013B062B00F2AB80DFE8D5
:10E5D00003F0041F33A9A98D9A00D0F8B4321B6848
:10E5E0000DF10601007C9847EA88002A00F0A3801C
:10E5F000BDF80630002B00F099809A4228BF1A46D9
:10E60000ADF806200146204600F0F2FA03B030BD16
:10E61000037C43B9D0F8B8329B6A0DF106009847E5
:10E6200002234370E0E7D0F8B832DB6A0DF1060050
:10E63000984702234370D7E7D2B2052A52D8DFE8C1
:10E6400002F003101D2A3744D0F8B4325B6823B1BE
:10E650000DF10601007C9847C6E72946FFF7A0FFA9
:10E66000D4E7D0F8B4329B6823B10DF10601007CE9
:10E670009847B9E72946FFF793FFC7E7D0F8B432C8
:10E68000DB6823B10DF10601007C9847ACE7294611
:10E69000FFF786FFBAE7D0F8B4321B6923B10DF15A
:10E6A0000601007C98479FE72946FFF779FFADE711
:10E6B000D0F8B4325B6923B10DF10601007C9847B4
:10E6C00092E72946FFF76CFFA0E7D0F8B4329B69C8
:10E6D00023B10DF10601007C984785E72946FFF735
:10E6E0005FFF93E72946FFF75BFF8FE7037C33B9B2
:10E6F000D0F8B8325B6B0DF10600984774E72946F5
:10E70000FFF74EFF82E7037C43B9D0F8B8321B6BAA
:10E710000DF1060098470723437065E72946FFF788
:10E720003FFF73E72946FFF73BFF6FE72946204687
:10E73000FFF736FF6AE7204600F086FA66E738B54D
:10E7400004468B88FBB9CB88EBB94B887F2B1AD852
:10E7500003F07F0590F89C32DBB2032B0CD080F8DD
:10E760009E52294602F040FB204600F06DFA35B17A
:10E77000022384F89C3209E0FFF712FF06E0012330
:10E7800084F89C3202E02046FFF70AFF38BD000003
:10E7900070B504460E468D782E4B1D70012D10D895
:10E7A00090F89C32DBB2022B0FD0032B23D0FFF763
:10E7B000F7FE284B19782046FFF76BFD0325284606
:10E7C00070BDFFF7EDFE0325F9E78DB145602946E1
:10E7D000FFF756FD054620B131462046FFF7E0FE23
:10E7E000EDE7204600F030FA032384F89C32E6E798
:10E7F00000F02AFAE3E7CDB141688D4225D0C9B2D5
:10E80000FFF747FD134B197861602046FFF738FD8D
:10E810000546B0B131462046FFF7C2FE21792046B9
:10E82000FFF737FD022384F89C32C8E7022380F803
:10E830009C3245602946FFF72CFD204600F004FA83
:10E84000BDE7204600F000FAB9E700F0FDF9002529
:10E85000B5E700BF800E002008B5CB88012B0BD197
:10E8600090F89C32DBB2022B09D9032B09D101228B
:10E87000011D00F0BDF901E0FFF792FE08BD5BB29B
:10E8800013B9FFF78DFEF9E70146002341F8083F71
:10E89000012200F0ADF9F1E708B590F89C32013B98
:10E8A000022B12D8CB88022B0CD10123C360D0F8E5
:10E8B000A4320BB10323C360022200F10C0100F06B
:10E8C00097F908BDFFF76CFEFBE7FFF769FEF8E775
:10E8D00008B590F89C32013B022B09D84B88012BDC
:10E8E00000D008BD0023C0F8A43200F0ADF9F8E76D
:10E8F000FFF756FEF5E738B50C7804F06004202CDD
:10E9000006D0402C04D054B1FFF74AFE002404E0A6
:10E91000D0F8B8329B6898470446204638BD4D78F9
:10E92000092D1DD8DFE805F012191C161C08051C5E
:10E930000F0BFFF73FFEF0E7FFF701FFEDE7FFF7F3
:10E9400027FF0446E9E7FFF787FFE6E7FFF7A4FFA5
:10E950002C46E2E7FFF706FEDFE7FFF7B9FFDCE74B
:10E96000FFF71EFED9E770B505460C460B7803F09D
:10E970006003202B07D0402B05D023B1FFF710FEFA
:10E980000026304670BD95F89C32013B022B18D80A
:10E990002379012B0FD8D5F8B8329B682146284639
:10E9A00098470646E388002BEBD10028E9D128469A
:10E9B00000F04AF9E5E721462846FFF7F1FD002679
:10E9C000DFE721462846FFF7EBFD0026D9E7F8B53B
:10E9D00006460D468B880C7804F06004202C08D085
:10E9E000D9B2402C05D06CB12946FFF7D9FD0024DF
:10E9F00006E0D6F8B8329B68294630469847044668
:10EA00002046F8BD6F78012F2FD0032F05D0002F9F
:10EA100059D02946FFF7C4FDF2E790F89C32DBB2EB
:10EA2000022B05D0032B12D02946FFF7B9FDE7E7EB
:10EA300009B1802904D129463046FFF7B1FDDFE74F
:10EA400002F0C2F98021304602F0BEF9D8E76B88A7
:10EA500023B919B1802901D0EB881BB1304600F0F1
:10EA6000F3F8CDE702F0B0F9F8E790F89C32DBB2AA
:10EA7000022B05D0032B12D02946FFF791FDBFE7EB
:10EA800009B1802904D129463046FFF789FDB7E74F
:10EA900002F09AF98021304602F096F9B0E76B88CF
:10EAA000002BADD111F07F0F0AD1304600F0CCF829
:10EAB000D6F8B8329B6829463046984704469FE707
:10EAC00002F08AF9F1E790F89C22D2B2022A06D02D
:10EAD000032A29D02946FFF763FD3C4690E709B198
:10EAE000802913D113F0800F15D101F07F0101EBC4
:10EAF0008101890001F5A8713144043100230B60C4
:10EB00000222304600F074F83C4679E72946FFF7C8
:10EB100047FD3C4674E701F07F0101EB810189006C
:10EB2000103131440431E9E75BB2002B1FDB01F007
:10EB30000F0202EB820200EB8202B2F8642122B3E0
:10EB4000002B27DB01F07F0303EB83039C0004F51C
:10EB5000A8743444043409B1802924D100232360EB
:10EB600002222146304600F043F83C4648E701F0D7
:10EB70000F0202EB820200EB8202928C002ADFD1AC
:10EB80002946FFF70DFD3C463AE72946FFF708FD09
:10EB90003C4635E701F07F0303EB83039C00103410
:10EBA00034440434D7E7304602F0C6F810B10123EC
:10EBB0002360D5E700232360D2E7C0B170B50D46CE
:10EBC00016460446FFF7C5FC01304000308028702F
:10EBD00003236B700223227842B1EA5401345A1C99
:10EBE000D2B20021A9540233DBB2F4E770BD704702
:10EBF00010B513460222C0F894228361C3610A460D
:10EC0000002102F0F9F8002010BD08B513460A46AD
:10EC1000002102F0F1F8002008BD10B513460322D0
:10EC2000C0F89422C0F85831C0F85C310A4600217F
:10EC300002F0EAF8002010BD08B513460A4600218C
:10EC400002F0E2F8002008BD08B50422C0F89422C2
:10EC500000231A46194602F0CFF8002008BD08B577
:10EC60000522C0F8942200231A46194602F0CCF877
:10EC7000002008BD08B5054B1B6801F0E9FB012821
:10EC800000D108BD00F0C6F9FBE700BF10E000E0CE
:10EC9000EFF305832BB9064B186828B901221A60D7
:10ECA00070476FF0050070474FF0FF30704700BFAE
:10ECB000E0100020EFF3058373B90A4B1B68012BAA
:10ECC0000DD110B50024084BDC77064B02221A60E8
:10ECD00001F042F9204610BD6FF0050070474FF07B
:10ECE000FF307047E010002000ED00E0F0B587B085
:10ECF00000240594EFF3058474BB68B322B3156850
:10ED0000936903B918235C1E372C49D8546814F052
:10ED1000010F47D156696EB14FEA960C94682CB139
:10ED2000D7685B2F02D9176907B1C6B92CB14FF06C
:10ED3000FF340EE04FF0800CF0E7D4688CB9146912
:10ED400094B14FF0FF3404E01546002418234FF02F
:10ED5000800C012C0AD0ACB1059807B0F0BD01249D
:10ED6000F7E74FF0FF34F4E70024F2E71469926804
:10ED70000292019400930B466246294601F022F864
:10ED80000590E9E705AA019200930B461FFA8CF261
:10ED9000294601F051F80128DED000230593DBE776
:10EDA0000020DAE70020D8E7034B0360034B0B6039
:10EDB00080231360704700BF84100020840E002061
:10EDC000034B0360034B0B604FF480731360704779
:10EDD000E4140020E410002000F1080343604FF029
:10EDE000FF328260C3600361002303607047002329
:10EDF0000361704743684B609A688A60516099600C
:10EE00000861036801330360704730B40D68B5F1E1
:10EE1000FF3F11D000F108031C465B681A68AA4244
:10EE2000FAD963684B6099608C606160086103681F
:10EE30000133036030BC70470469F2E7036941683D
:10EE400082688A60416851605A68824206D0002216
:10EE500002611A68013A1A601868704782685A603D
:10EE6000F5E7000082B0002301930D4B1B68B3F15E
:10EE7000FF3F08D04FF0500383F31188BFF36F8F2B
:10EE8000BFF34F8FFEE74FF0500383F31188BFF3BA
:10EE90006F8FBFF34F8F019B002BFCD002B07047E8
:10EEA0001C01002008480068006880F308884FF0C3
:10EEB000000080F3148862B661B6BFF34F8FBFF3D2
:10EEC0006F8F00DF00BF000008ED00E0DFF80C00EE
:10EED000016841F4700101607047000088ED00E0B6
:10EEE0004FF0807340F8043C21F0010140F8081C09
:10EEF000054B40F80C3C40F8202C6FF0020340F822
:10EF0000243C4438704700BF65EE00080000000054
:10EF1000074B19680868B0E8F04F80F30988BFF321
:10EF20006F8F4FF0000080F311887047AFF30080BF
:10EF3000B83C00204FF0500383F31188BFF36F8F6C
:10EF4000BFF34F8F0A4A136801331360012B00D0BF
:10EF50007047084B1B6813F0FF0FF9D04FF05003B8
:10EF600083F31188BFF36F8FBFF34F8FFEE700BFAE
:10EF70001C01002004ED00E0094B1B6843B94FF071
:10EF8000500383F31188BFF36F8FBFF34F8FFEE7FA
:10EF9000013B034A13600BB983F31188704700BF2C
:10EFA0001C01002000000000000000000000000024
:10EFB000EFF30980BFF36F8F154B1A681EF0100F27
:10EFC00008BF20ED108A20E9F04F10602DE90900FC
:10EFD0004FF0500080F31188BFF34F8FBFF36F8F56
:10EFE00001F01CF94FF0000080F3118809BC19688A
:10EFF0000868B0E8F04F1EF0100F08BFB0EC108AA0
:10F0000080F30988BFF36F8F704700BFAFF30080B4
:10F01000B83C002008B54FF0500383F31188BFF3CC
:10F020006F8FBFF34F8F00F0EFFF18B1034B4FF01E
:10F0300080521A60002383F3118808BD04ED00E0BC
:10F04000084A0023136008490B60084B1B680849F5
:10F05000A1FB03139B09013B06490B6007231360C7
:10F06000704700BF10E000E018E000E00000002062
:10F07000D34D621014E000E03A4B1A683A4B9A42C2
:10F0800029D0384B1A68394B9A422DD010B582B02E
:10F09000374B1A78D2B20192FF221A701B78DBB27A
:10F0A0008DF803309DF8033003F05003314A13709C
:10F0B000314B07221A609DF8033013F0800F1CD0EB
:10F0C0002D4A1368013B13609DF803305B00DBB2EF
:10F0D0008DF80330EFE74FF0500383F31188BFF34F
:10F0E0006F8FBFF34F8FFEE74FF0500383F311880C
:10F0F000BFF36F8FBFF34F8FFEE71F4B1B68032BD0
:10F1000008D04FF0500383F31188BFF36F8FBFF324
:10F110004F8FFEE71B0203F4E063174A1360019B65
:10F12000DBB2134A1370154B1A6842F470021A606E
:10F130001A6842F070421A60FFF782FF0024104BF9
:10F140001C60FFF7C3FE0F4A136843F0404313608F
:10F15000FFF7A8FE01F062F8FFF784FE204602B038
:10F1600010BD00BF00ED00E071C20F4170C20F4141
:10F1700000E400E0401500204415002020ED00E0F0
:10F180001C01002034EF00E0EFF305830F2B0FD9B3
:10F19000104A9B5CDBB2104A12789A4208D94FF0B1
:10F1A000500383F31188BFF36F8FBFF34F8FFEE7D8
:10F1B0000A4B1B6803F4E063094A1268934208D9BA
:10F1C0004FF0500383F31188BFF36F8FBFF34F8F5E
:10F1D000FEE77047F0E300E0401500200CED00E092
:10F1E00044150020134A12F0070F1FD0D11D21F043
:10F1F0000701C1F51C53103313440A460E48026040
:10F20000002141601344083B23F007030B480360CF
:10F2100059601960991A51601360094B1960094BC4
:10F220001960094B4FF000421A60704742F21073A8
:10F23000E4E700BF4C150020703C0020481500207A
:10F24000643C0020603C00205C3C002010B4134B68
:10F250001A461B688342FBD35168541884420AD073
:10F2600041684418A3420BD00360904200D0106064
:10F270005DF8044B70474068014451601046EFE769
:10F28000074C2468A34206D05B68194441601368A8
:10F290001B680360E9E70460E7E700BF703C0020FB
:10F2A0004815002070B5044600F0A0FE364B1B68E0
:10F2B000A3B1364B1B681C424ED134B1083414F054
:10F2C000070F02D024F007040834002C46D0304B3E
:10F2D0001B68A34251D32F4B1D6804E0FFF782FF48
:10F2E000E7E72B4615466A68A24202D22A68002A3E
:10F2F000F7D1254A1268AA4241D01E6808362A680A
:10F300001A606B681B1B102B10D9281910F0070FFF
:10F3100008D04FF0500383F31188BFF36F8FBFF312
:10F320004F8FFEE743606C60FFF790FF6A681849F3
:10F330000B689B1A0B60184909688B4201D2164969
:10F340000B60124B1B6813436B6000232B60134A46
:10F3500013680133136002E0002600E0002600F08D
:10F36000E1FE16F0070F0CD04FF0500383F3118825
:10F37000BFF36F8FBFF34F8FFEE70026EFE7002646
:10F38000EDE7304670BD00BF481500205C3C002012
:10F39000603C0020703C0020643C0020683C002061
:10F3A000002834D038B50446A0F1080550F8043CD4
:10F3B000174A1268134208D14FF0500383F31188A3
:10F3C000BFF36F8FBFF34F8FFEE750F8081C41B1BA
:10F3D0004FF0500383F31188BFF36F8FBFF34F8F4C
:10F3E000FEE723EA020340F8043C00F0FFFD54F876
:10F3F000041C084A13680B4413602846FFF726FFD5
:10F40000054A13680133136000F08CFE38BD704765
:10F410005C3C0020603C00206C3C002010B50446A1
:10F42000FFF788FDA26BE36B9A4204D00024FFF73C
:10F43000A3FD204610BD0124F9E710B50446FFF7EF
:10F4400079FDA36B23B90124FFF796FD204610BD7B
:10F450000024F9E770B504461546866B026C5AB96C
:10F4600003681BB100200136A66370BD806800F000
:10F47000FFFF0023A360F6E76DB94068F8F738FE98
:10F48000226C636813446360A268934219D32368B3
:10F4900063602846E7E7C068F8F72AFE226C51420D
:10F4A000E3689B1AE3602268934202D2A3680B448C
:10F4B000E360022D01D00020D5E726B1013E0020F7
:10F4C000D1E72846CFE70020CDE70346026C6AB1BA
:10F4D00010B50846D9681144D9609C68A14201D38F
:10F4E0001968D960D968F8F703FE10BD704738B5C0
:10F4F0000546FFF71FFD95F8454064B203E000F0B4
:10F50000A1FF013C64B2002C08DD6B6A33B105F148
:10F51000240000F003FF0028F3D0F0E7FF2385F874
:10F520004530FFF729FDFFF705FD95F8444064B22B
:10F5300003E000F087FF013C64B2002C08DD2B697A
:10F5400033B105F1100000F0E9FE0028F3D0F0E738
:10F55000FF2385F84430FFF70FFD38BD38B5E0B123
:10F560000D460446FFF7E6FC2168E26B236C03FBC3
:10F570000210A0600020A0636160013A02FB031347
:10F58000E360FF2384F8443084F84530EDB9236903
:10F5900063B9FFF7F1FC012038BD4FF0500383F34E
:10F5A0001188BFF36F8FBFF34F8FFEE704F1100098
:10F5B00000F0B4FE0028ECD0084B4FF080521A60E7
:10F5C000BFF34F8FBFF36F8FE3E704F11000FFF736
:10F5D00003FC04F12400FFF7FFFBDAE704ED00E091
:10F5E00038B51D46049C0B4649B92460E06323648A
:10F5F00001212046FFF7B2FF84F84C5038BD22604D
:10F60000F4E740B94FF0500383F31188BFF36F8FD5
:10F61000BFF34F8FFEE730B585B01C46054653B1AA
:10F6200092B189B94FF0500383F31188BFF36F8F04
:10F63000BFF34F8FFEE74FF0500383F31188BFF302
:10F640006F8FBFF34F8FFEE76AB150230393039B85
:10F65000502B13D04FF0500383F31188BFF36F8FFB
:10F66000BFF34F8FFEE70029EFD04FF0500383F335
:10F670001188BFF36F8FBFF34F8FFEE7039B01230A
:10F6800084F8463000949DF820302846FFF7A8FF04
:10F69000204605B030BD0000F0B585B0019288B1BC
:10F6A0000E461D460446B1B1022D20D1E36B012B5D
:10F6B0001DD04FF0500383F31188BFF36F8FBFF35A
:10F6C0004F8FFEE74FF0500383F31188BFF36F8F26
:10F6D000BFF34F8FFEE7036C002BE5D04FF05003D4
:10F6E00083F31188BFF36F8FBFF34F8FFEE700F0F6
:10F6F000AFFE074658B9019B002B44D04FF0500392
:10F7000083F31188BFF36F8FBFF34F8FFEE700279E
:10F7100039E02A4631462046FFF79CFE626A6AB904
:10F7200038B13C4B4FF080521A60BFF34F8FBFF39C
:10F730006F8FFFF721FC012005B0F0BD04F124001C
:10F7400000F0ECFD0028F4D0324B4FF080521A60EC
:10F75000BFF34F8FBFF36F8FEBE7FFF70DFC002078
:10F76000EAE702A800F020FE012719E0002384F850
:10F77000443021E0002384F8453023E02046FFF7A1
:10F78000B6FE00F0CFFCFFF7D5FBA26BE36B9A420D
:10F79000BFD3022DBDD0019B002BDED0002FE0D0C7
:10F7A000FFF7EAFB00F022FCFFF7C4FB94F84430BB
:10F7B0005BB2B3F1FF3FD9D094F845305BB2B3F1FF
:10F7C000FF3FD7D0FFF7D8FB01A902A800F0F8FD52
:10F7D000C8B92046FFF722FE0028CFD0019904F1D6
:10F7E000100000F067FD2046FFF781FE00F09AFC54
:10F7F0000028C8D1074B4FF080521A60BFF34F8FDB
:10F80000BFF36F8FBFE72046FFF771FE00F08AFC61
:10F81000002091E704ED00E02DE9F84390B189461E
:10F8200090461F460446B1B1022F20D1E36B012B55
:10F830001DD04FF0500383F31188BFF36F8FBFF3D8
:10F840004F8FFEE74FF0500383F31188BFF36F8FA4
:10F85000BFF34F8FFEE7036C002BE5D04FF0500352
:10F8600083F31188BFF36F8FBFF34F8FFEE7FFF76E
:10F870008BFCEFF311864FF0500383F31188BFF335
:10F880006F8FBFF34F8FA26BE36B9A4206D3022FA9
:10F8900004D0002086F31188BDE8F88394F8455021
:10F8A0006DB2A36B3A4649462046FFF7D3FDB5F14A
:10F8B000FF3F05D06B1C5BB284F845300120E9E7BF
:10F8C000636A0BB90120E5E704F1240000F026FD8E
:10F8D00030B1B8F1000F05D00120C8F80000D9E719
:10F8E0000120D7E70120D5E7F0B585B0019290B1AE
:10F8F0000E460446C1B100F0ABFD074600BB019BBC
:10F90000002B5CD04FF0500383F31188BFF36F8F4F
:10F91000BFF34F8FFEE74FF0500383F31188BFF31F
:10F920006F8FBFF34F8FFEE7036C002BE3D04FF0D8
:10F93000500383F31188BFF36F8FBFF34F8FFEE740
:10F9400000273CE031462046FFF7BFFD013DA5639F
:10F95000236923B9FFF710FB012005B0F0BD04F1C6
:10F96000100000F0DBFC0028F4D0354B4FF0805243
:10F970001A60BFF34F8FBFF36F8FEBE7FFF7FCFA0F
:10F980000020EAE702A800F00FFD012721E0002394
:10F9900084F8443029E0002384F845302BE02046E9
:10F9A000FFF7A5FD00F0BEFB09E02046FFF79FFD35
:10F9B00000F0B8FB2046FFF740FD00283DD1FFF7DF
:10F9C000B9FAA56B002DBDD1019B002BD6D0002F1D
:10F9D000D8D0FFF7D1FA00F009FBFFF7ABFA94F8A3
:10F9E00044305BB2B3F1FF3FD1D094F845305BB205
:10F9F000B3F1FF3FCFD0FFF7BFFA01A902A800F093
:10FA0000DFFC0028D1D12046FFF717FD0028C6D023
:10FA1000019904F1240000F04DFC2046FFF767FD3A
:10FA200000F080FB0028CAD1054B4FF080521A60CD
:10FA3000BFF34F8FBFF36F8FC1E700208DE700BF8B
:10FA400004ED00E0002300E00133072B0BD8064A49
:10FA500052F83320002AF7D1034A42F8331002EB60
:10FA6000C303586070477047783C002070B5044667
:10FA70000D461646FFF75EFA94F844305BB2B3F1D8
:10FA8000FF3F0DD094F845305BB2B3F1FF3F0BD090
:10FA9000FFF772FAA36B5BB12046FFF728FD70BD3C
:10FAA000002384F84430EDE7002384F84530EFE785
:10FAB0003246294604F1240000F014FCECE7000073
:10FAC000084B1B681B6823B9074B4FF0FF321A60C5
:10FAD0007047044B1B68DB68DB685A68024B1A608E
:10FAE000704700BFBC3C0020604100202DE9F0477A
:10FAF00080460D4617469946089EDDF824A00A9CCC
:10FB00009200A521206B03F029FA236B07F18042B4
:10FB1000013A03EB820727F0070785B300220F2A7B
:10FB200007D8A95CA31883F83410AB5C0BB1013281
:10FB3000F5E7002384F84330372E00D93726E662F4
:10FB4000E66400252565201DFFF751F904F1180032
:10FB5000FFF74DF92461C6F13806A6616462656558
:10FB600084F858504A4641463846FFF7B9F92060B4
:10FB7000BAF1000F01D0CAF80040BDE8F0870023B9
:10FB800084F83430D8E7000038B50024372C08D882
:10FB900004EB840293000E481844FFF71DF901346A
:10FBA000F4E70C4D2846FFF717F90B4C2046FFF7FA
:10FBB00013F90A48FFF710F90948FFF70DF909484A
:10FBC000FFF70AF9084B1D60084B1C6038BD00BFE9
:10FBD000C43C0020384100204C4100206C410020F2
:10FBE0009841002084410020BC3C0020C03C002003
:10FBF00010B50446FFF79EF9214A136801331360DC
:10FC0000204B1B685BB1204B1B686BB91D4B1B68FD
:10FC1000DA6AE36A9A4207D81A4B1C6004E0194B6F
:10FC20001C601368012B27D0184A13680133136036
:10FC30006364E06A164B1B68984201D9144B186044
:10FC400000EB8000211D134B03EB8000FFF7D2F87F
:10FC5000FFF792F90C4B1B686BB10A4B1B68DA6A11
:10FC6000E36A9A4207D20C4B4FF080521A60BFF3FE
:10FC70004F8FBFF36F8F10BDFFF786FFD4E700BF34
:10FC800024410020B83C0020804100203041002069
:10FC900034410020C43C002004ED00E010B50446CF
:10FCA00090F8593063B1012B11D0022B0ED04FF0D8
:10FCB000500383F31188BFF36F8FBFF34F8FFEE7BD
:10FCC000006BFFF76DFB2046FFF76AFB10BDFFF7E7
:10FCD00067FBFBE70F4B1B68D3B110B5FFF72AF9A1
:10FCE0000D4BDB68DC68201DFFF7A8F80B4A136892
:10FCF000013B1360074A1368013B1360FFF73CF9AF
:10FD00002046FFF7CBFF034B1B68002BE6D110BD4D
:10FD1000704700BF28410020984100202441002066
:10FD200008B5FFF7D7FF064B1B68012BF9D9054B28
:10FD30004FF080521A60BFF34F8FBFF36F8FF0E721
:10FD4000C43C002004ED00E070B504460D46174B9E
:10FD50001E68174B18680430FFF770F8B4F1FF3FC6
:10FD60000DD03444124B1B685C60A64210D9114B75
:10FD700018680F4B19680431FFF747F870BD002D64
:10FD8000EFD00B4B196804310B48FFF733F8F5E758
:10FD90000A4B1868064B19680431FFF736F8084B10
:10FDA0001B68A342EAD9064B1C60E7E7AC41002080
:10FDB000B83C0020C03C002084410020BC3C002016
:10FDC0006041002070B586B00B9D0C9C75B1B4B13C
:10FDD0005C260496049E5C2E1AD04FF0500383F3E9
:10FDE0001188BFF36F8FBFF34F8FFEE74FF05003C3
:10FDF00083F31188BFF36F8FBFF34F8FFEE74FF090
:10FE0000500383F31188BFF36F8FBFF34F8FFEE76B
:10FE1000049E2563022584F8595000250395029419
:10FE200005AD01950A9D0095FFF760FE2046FFF79E
:10FE3000DFFE059806B070BD2DE9F04385B007469A
:10FE4000884614461E469000FFF72CFA00B3814600
:10FE50005C20FFF727FA0546B0B1C0F83090E5B155
:10FE6000002385F85930039302950D9B01930C9B59
:10FE700000933346224641463846FFF737FE284670
:10FE8000FFF7B6FE012005E04846FFF789FAE6E7EE
:10FE90004FF0FF3005B0BDE8F0834FF0FF30F9E7D9
:10FEA00038B50446FFF746F824B3251D2846FEF76B
:10FEB000C5FFA36A1BB104F11800FEF7BFFF1E4A7D
:10FEC0001368013313601D4B1B68A34215D01C4AF5
:10FED0001368013B13602046FFF7E0FEFFF7F0FDDB
:10FEE000FFF74AF8174B1B681BB1144B1B68A34262
:10FEF0000CD038BD114B1C68D7E729461248FEF7D5
:10FF000079FF124A136801331360E9E7104B1B684D
:10FF100043B14FF0500383F31188BFF36F8FBFF3EA
:10FF20004F8FFEE70B4B4FF080521A60BFF34F8F9D
:10FF3000BFF36F8FDDE700BF30410020B83C0020E9
:10FF400024410020804100209841002028410020C9
:10FF50002C41002004ED00E010B588B00024059489
:10FF6000069407AA06A905A8FEF71EFF059B0293A3
:10FF7000069B019300942346079A17491748FFF7F9
:10FF800021FF48B100F028FB0346012B06D0B3F156
:10FF9000FF3F18D008B010BD0023F6E74FF0500324
:10FFA00083F31188BFF36F8FBFF34F8F0C4B4FF06C
:10FFB000FF321A600B4B01221A600B4B00221A60B1
:10FFC000FFF75AF8E6E74FF0500383F31188BFF3C9
:10FFD0006F8FBFF34F8FFEE7987F010821FD000868
:10FFE0006041002080410020AC410020024A13689B
:10FFF00001331360704700BF2C410020014B18688B
:020000040801F1
:10000000704700BFAC410020F8B53B4B1B68002B8C
:100010006AD13A4B1D6801351D60C5B9384B1B6864
:100020001B6843B14FF0500383F31188BFF36F8F08
:10003000BFF34F8FFEE7324A1168324B18681060E9
:100040001960314A136801331360FFF739FD2F4BF4
:100050001B68AB4211D900242D4B1B68DB6A03EBF4
:1000600083039A002B4B9B58012B00D901242A4B68
:100070001B68002B3DD001243BE0002416E0234BFD
:100080004FF0FF321A60E7E7204A1360E4E703EB22
:1000900083039A0039461F481044FEF7ABFEF26A0C
:1000A0001B4B1B68DB6A9A4200D30124144B1B686C
:1000B0001B68002BE3D0124B1B68DB68DE6873689B
:1000C0009D42E1D3371D3846FEF7B8FEB36A1BB137
:1000D00006F11800FEF7B2FEF36A104A1268934266
:1000E000D5D90E4A1360D2E70D4A13680133136065
:1000F00000242046F8BD00BF2C410020AC41002068
:10010000BC3C0020C03C0020644100206041002035
:10011000B83C0020C43C0020B04100203441002005
:100120006841002038B5344B1B6843B94FF0500389
:1001300083F31188BFF36F8FBFF34F8FFEE7FEF796
:10014000F9FE2D4B1A68013A1A601B68002B4DD13D
:100150002A4B1B680BB9002449E00024284B1B687C
:100160001BB3274BDB68DC6804F11800FEF766FE62
:10017000251D2846FEF762FEE06A224B1B68984266
:1001800001D9204B186000EB800029461E4B03EB81
:100190008000FEF72FFEE26A1C4B1B68DB6A9A4266
:1001A000DCD31B4B01221A60D8E70CB1FFF788FCA7
:1001B000184B1C6874B9164B1C68C4B1164B4FF031
:1001C00080521A60BFF34F8FBFF36F8F01240EE090
:1001D000013C07D0FFF718FF0028F9D00C4B012293
:1001E0001A60F5E70B4B00221A60E4E70024FEF7E3
:1001F000C3FE204638BD00BF2C4100202441002012
:100200006C41002034410020C43C0020B83C002058
:10021000B04100206841002004ED00E0204B1B6845
:100220001BB1204B01221A6070471E4B00221A603E
:100230001D4B1B6803EB83018A001C498A585AB97D
:100240000BB1013BF6E74FF0500383F31188BFF386
:100250006F8FBFF34F8FFEE710B403EB8300820074
:100260000A4450684068506003EB8304A2001446BF
:100270000832114488420DD003EB830291000B4AEF
:100280000A445268D1680A4A1160074A13605DF84F
:10029000044B70474068054A22445060ECE700BFB9
:1002A0002C410020B041002034410020C43C0020FB
:1002B000B83C002058B110B50C46094B19681831EC
:1002C000FEF7A3FD01212046FFF73EFD10BD4FF0D4
:1002D000500383F31188BFF36F8FBFF34F8FFEE797
:1002E000B83C002038B570B10C4615460A4B196869
:1002F0001831FEF77FFD0DB14FF0FF34294620463F
:10030000FFF722FD38BD4FF0500383F31188BFF390
:100310006F8FBFF34F8FFEE7B83C002038B5C3683E
:10032000DC6824B304F118052846FEF787FD184B56
:100330001B682BBB251D2846FEF780FDE06A154B88
:100340001B68984201D9134B186000EB80002946C6
:10035000114B03EB8000FEF74DFDE26A0F4B1B686B
:10036000DB6A9A4211D901200D4B18600EE04FF064
:10037000500383F31188BFF36F8FBFF34F8FFEE7F6
:1003800029460848FEF736FDE7E7002038BD00BFE4
:100390002C41002034410020C43C0020B83C002007
:1003A000B04100206C410020034B1B680360034BED
:1003B0001B684360704700BF64410020AC410020CF
:1003C000F8B5C8B10C460546F9B1FEF7B3FD1B4BB5
:1003D00019686B68C81A2268B2F1FF3F26D02F68EF
:1003E000174E3668B74201D08B4224D9824215D8C5
:1003F0000023236001241AE04FF0500383F3118897
:10040000BFF36F8FBFF34F8FFEE74FF0500383F3BF
:100410001188BFF36F8FBFF34F8FFEE75B1A134452
:1004200023602846FFF7C0FF002400E00024FEF709
:10043000A3FD2046F8BD0124F9E700BFAC41002030
:1004400064410020014B01221A607047B041002036
:10045000054B1B6833B1054B1B680BB1002070477F
:100460000220704701207047804100202C4100206D
:1004700000283BD038B504461E4B1B68834208D089
:100480004FF0500383F31188BFF36F8FBFF34F8F8B
:10049000FEE7036D43B94FF0500383F31188BFF3B8
:1004A0006F8FBFF34F8FFEE7013B0365C16AC26CDC
:1004B00091421DD00BB1002038BD051D2846FEF726
:1004C000BDFCE06CE062C0F13803A3610A4B1B681D
:1004D000984201D9084B186000EB80002946074B71
:1004E00003EB8000FEF786FC0120E5E70020704763
:1004F0000020E1E7B83C002034410020C43C00204B
:10050000064B1A6813682BB90123036023B9D3681B
:10051000186870470023F8E700207047B4410020B6
:1005200008B54160006191420CD8D21A83699A42A1
:1005300001D3012008BD011D094B1868FEF765FCB9
:100540000020F7E79A4201D2994206D2011D054BDD
:100550001868FEF75AFC0020ECE70120EAE700BF2C
:10056000B8410020B441002030B583B0FEF7E2FC72
:10057000114B1B681BB1FEF7FFFC03B030BD0F4DE4
:100580002846FEF729FC0E4C2046FEF725FC0D4BB5
:100590001D600D4B1C60002300930C4B0C4A102176
:1005A0000A20FFF72EF8044B18600028E3D0094911
:1005B000FFF748FADFE700BFD84200205C42002086
:1005C00070420020B4410020B84100208842002041
:1005D000BC410020A07F010810B588B0FFF7C4FF20
:1005E000124B1B68CBB100240594069407AA06A9F8
:1005F00005A8FEF7E5FB059B0293069B01930223EA
:1006000000932346079A0A490A48FFF7DBFB0A4A88
:10061000106010B1012008B010BD4FF0500383F3FB
:100620001188BFF36F8FBFF34F8FFEE7D8420020D2
:10063000A87F01083D090108DC420020C0B110B5C7
:1006400084B014461A4603461648006838B3009131
:100650000194029305291CDCFFF7FAFE022810D052
:1006600000231A4669460F480068FFF715F814E0A2
:100670004FF0500383F31188BFF36F8FBFF34F8F99
:10068000FEE70023069A694606480068FFF704F86B
:1006900003E000236946FFF7BFF804B010BD002057
:1006A000FBE700BFD842002070B582B01B4B1B682F
:1006B0001A6862B3DB681E68DC68251D2846FEF7F1
:1006C000BDFB236A2046984794F8283013F0040FA6
:1006D000ECD0A36933449E4207D26360246129466B
:1006E0000E4B1868FEF791FBE0E7002100910B46E6
:1006F00032462046FFF7A2FF0028D7D14FF0500323
:1007000083F31188BFF36F8FBFF34F8FFEE7044A67
:10071000106802490860136002B070BDB441002047
:10072000B841002038B50546FFF768FC0446074B82
:100730001B68834205D800232B60044B1C602046B5
:1007400038BDFFF7B1FF01232B60F6E7844200209C
:1007500070B582B005460E46174B1B68DB68DC6837
:10076000201DFEF76BFB94F8283013F0040F08D11E
:1007700023F0010384F82830236A2046984702B00A
:1007800070BDA1692B46324629442046FFF7C8FEBA
:100790000028F1D0002100910B462A462046FFF7A1
:1007A0004DFF0028E8D14FF0500383F31188BFF3C9
:1007B0006F8FBFF34F8FFEE7B441002070B582B05A
:1007C00006460C46FFF712FC01A8FFF7ABFF019BA2
:1007D00023BB05460CB9B04217D224B1114A1268A6
:1007E0001268CAB901242246711B0F4B1868FFF723
:1007F0003DF9FFF797FC98B90C4B4FF080521A6007
:10080000BFF34F8FBFF36F8F0AE0FFF78BFC2946D2
:100810003046FFF79DFF03E01C46E4E7FFF782FC4C
:1008200002B070BDB8410020D842002004ED00E0C5
:1008300010B588B006E007990698059B9847049B79
:10084000002B0BDA002204A93B4B1868FFF74CF889
:1008500000286FD0049B002BF1DAECE7069C63695B
:1008600013B1201DFEF7EAFA03A8FFF75BFF049B14
:10087000092BE7D8DFE803F00505053037500505FB
:10088000303794F8283043F0010384F82830059B72
:10089000A169024619442046FFF742FE0028D1D044
:1008A000236A2046984794F8283013F0040FC9D0E3
:1008B000A269002100910B46059802442046FFF7EB
:1008C000BDFE0028BED14FF0500383F31188BFF363
:1008D0006F8FBFF34F8FFEE794F8283023F00103AA
:1008E00084F82830AEE794F8283043F0010384F808
:1008F00028300599A16131B10346024601442046E2
:10090000FFF70EFE9EE74FF0500383F31188BFF30D
:100910006F8FBFF34F8FFEE794F8283013F0020F6C
:1009200004D023F0010384F828308BE72046FEF73B
:1009300037FD87E708B010BDD842002000B583B06E
:1009400001A8FFF7DDFD0199FFF738FFFFF770FF02
:10095000F6E7000008B501220F491048FDF75EFCDC
:1009600070B90F490D48FDF770FC60B90D490B488F
:10097000FDF71FFC50B90948FDF77EFC48B908BDDA
:10098000F9F770F8EDE7F9F76DF8EFE7F9F76AF8BE
:10099000F1E7F9F767F8F2E720010020E0420020D4
:1009A0000C0000207001002012230B8000487047CB
:1009B0003C01002004230B800048704750010020B8
:1009C0000023934217D230B40BE0373401F81340C0
:1009D00000015C00013400250D550133DBB2934268
:1009E00007D2040FB0F1204FEFD2303401F813409A
:1009F000EEE730BC7047704738B50A4B18680433CF
:100A00001C6804331B68C01800D138BD064D08228D
:100A1000A91CFFF7D5FF042205F112012046FFF7BC
:100A2000CFFFF2E7107AFF1F5401002008B51A2308
:100A30000B80FFF7E1FF014808BD00BF5401002013
:100A400008B50A4628B905490548FEF7B6F803482F
:100A500008BD02490248FEF7B0F8F8E7B0450020AB
:100A6000B07F010810B50A46034C21460348FEF743
:100A7000A4F8204610BD00BFB0450020C07F01088B
:100A800008B50A4628B905490548FEF796F803480F
:100A900008BD02490248FEF790F8F8E7B04500208B
:100AA000CC7F010808B50A4628B905490548FEF774
:100AB00084F8034808BD02490248FEF77EF8F8E7CB
:100AC000B0450020D87F01082DE9F0418AB000230D
:100AD0000593069307930893099302683C4B9A4247
:100AE00002D00AB0BDE8F08100250095394C236B97
:100AF00043F004032363236B03F004030093009B80
:100B00000195236B43F001032363236B03F001037F
:100B10000193019B0295236B43F002032363236B34
:100B200003F002030293029B0D2305934FF002088A
:100B3000CDF818800795032708970A26099605A976
:100B40002548F9F7ADFE28230593CDF818800795C1
:100B50000897099605A92148F9F7A2FE43F6234311
:100B60000593CDF8188007950897099605A91C48A4
:100B7000F9F796FE0395236B43F000532363236B31
:100B800003F000530393039B0495236B43F08043CE
:100B90002363236B03F080430493049B2A460521BF
:100BA0004A20F9F7D5FB4A20F9F706FC2A46052129
:100BB0004B20F9F7CDFB4B20F9F7FEFB2A46052128
:100BC0004D20F9F7C5FB4D20F9F7F6FB89E700BF8B
:100BD00000000440003802400008024000000240CB
:100BE0000004024008B500F57171D0F80404FDF767
:100BF00058FB08BD08B5C1EBC10300EB8303D3F874
:100C00000822D0F80404FDF778FB08BD08B5C1EB55
:100C1000C10300EB83039A6CD0F80404FDF7A9FB31
:100C200008BD08B5D0F80404FDF749FC08BD10B5AF
:100C30000446C3683BB1022B01D1012104E0F8F75F
:100C400011FF012100E00021D4F80404FDF71DFC90
:100C5000D4F80404FDF7ECFB10BD000010B5044609
:100C6000D0F80404FDF714FC2268D2F8003E43F0EB
:100C70000103C2F8003E236A23B1034A136943F01B
:100C80000603136110BD00BF00ED00E008B5D0F809
:100C90000404FDF707FC08BD08B5D0F80404FDF70F
:100CA00036FC08BD08B5D0F80404FDF71CFC08BDEF
:100CB00008B5D0F80404FDF73EFC08BD08B5D0F82F
:100CC0000404FDF73AFC08BD0378012B01D0002095
:100CD000704710B5164BC3F80404C0F8C432154A67
:100CE0001A6006225A600022DA60012119619961B6
:100CF000DA611A625A62DA621A635A631846FAF7BC
:100D000006F890B90A4C4FF400712046FAF744FDFA
:100D1000802200212046FAF71BFD4FF4BA72012110
:100D20002046FAF715FD002010BDF8F79BFEE9E715
:100D3000B047002000000440D0F8C43211F0800F0A
:100D400008D101F07F01C1EBC10103EB810191F8F2
:100D5000FE01704701F07F01C1EBC10103EB81018E
:100D600091F83E00704708B5D0F8C402FAF73DFC90
:100D700008BD000000487047B84B002070470328AA
:100D800005D8DFE800F005040205012070470320C4
:100D9000704708B5D0F8C402FAF74CF8FFF7EFFF38
:100DA00008BD10B514461A462346D0F8C402FAF717
:100DB00071FBFFF7E4FF10BD08B5D0F8C402FAF7E5
:100DC000ACFBFFF7DCFF08BD08B5D0F8C402FAF7AA
:100DD00040FCFFF7D4FF08BD08B5D0F8C402FAF70D
:100DE0007CFCFFF7CCFF08BD08B5D0F8C402FAF7C9
:100DF0003DFBFFF7C4FF08BD08B5D0F8C402FAF701
:100E0000FDFBFFF7BCFF08BD08B5D0F8C402FAF738
:100E1000BDFBFFF7B4FF08BD08B5054B1860054BD7
:100E20001868002302221946806802F037FB08BDCB
:100E3000D84D00208C010020022801D801207047E5
:100E400008B501F0A1FA09230360002008BD0000E5
:100E50000138012808D810B5144692B2044B18681E
:100E6000FBF73AFF204610BD4FF0FF30704700BF40
:100E7000D84D0020022801D80020704708B501F0A5
:100E800083FA092303604FF0FF3008BD08B501F075
:100E90007BFA092303604FF0FF3008BD08B548B95D
:100EA0004FF0FF33012208480068FBF7A2FE40B96B
:100EB000012008BD01F068FA092303604FF0FF30FC
:100EC000F7E70520F5E700BFD84D002008B5022858
:100ED00004D84FF400534B60002008BD01F054FAD1
:100EE00009230360F8E70000F8B5064600F5A833CB
:100EF0000020A3F8E00183F8E201C3F8E40103F560
:100F0000F473062403E0002018761C33013C002C07
:100F1000F9DA06F5A934C4F8B010C4F8B4200C20EE
:100F200000F060F9D4F8B02000230370426003722F
:100F300002234372C4F8AC00264D06F5A83707F526
:100F4000F477AC46BCE80F000FC79CE8070087E8C1
:100F50000700271D05F11C0CBCE80F000FC79CE81B
:100F6000070087E8070004F1200705F1380CBCE80A
:100F70000F000FC79CE8070087E8070004F13C0753
:100F800005F1540CBCE80F000FC79CE8070087E888
:100F9000070004F1580705F1700CBCE80F000FC7FB
:100FA0009CE8070087E8070004F1740705F18C0C42
:100FB000BCE80F000FC79CE8070087E807009034E3
:100FC000A8350FCD0FC495E8070084E80700304628
:100FD000F8BD00BFD8760108012800D0704708B5D9
:100FE0004FF6FF73994200D008BD034A03490448F5
:100FF000FFF77AFFF8E700BFA00B0020540C002099
:10100000DC4D002030B583B04FF4FA60F8F7ECFF08
:101010001E4C0021D4F8AC00F8F77EF8EF220092C5
:1010200000231946D4F8AC00F8F720F82CE0184853
:10103000F7F7AFFF014600234AF6C0022046F8F753
:101040004BF80135032D1CDC114C20222146204693
:10105000F7F785FFE0212046F7F7AAFF0B4BD3F8FF
:10106000AC402378002BF9D1002DE0D00848F7F7E9
:1010700090FF014601234AF6C0022046F8F72CF8FB
:10108000DFE70120F8F7B0FF0025DBE7DC9F012058
:10109000DC4D0020024BD3F8AC3000221A707047B0
:1010A000DC9F012008B54FF6FF710120FFF794FF88
:1010B00008BD0020704700207047002070470000E6
:1010C00038B50A88164BA3F8E021B3F8E0319BB29B
:1010D000E02B1AD0134BD3F8BC52134C2046F7F731
:1010E00031FFC5F8040204F5A834B4F8E0319BB22E
:1010F000B3F5007F0DD04FF40073D5F80422012121
:101100000848FFF781FE40B238BD0748F7F731FFC6
:10111000E0E7D4F8E43103F50073C4F8E431EAE71A
:10112000DC9D0120E0420020DC4D002038B50B4C56
:101130000B4D002221462846FDF742F804F5A8335E
:1011400093F8E2114AF6E00301FB03F12031214458
:101150002846FDF740F8002038BD00BFDC4D0020D8
:10116000E0420020094BD3F8BC32D3F814320BB163
:101170000120704710B5054C0A4601462046FDF790
:101180001FF82046FDF730F810BD00BFE0420020F8
:10119000DFF834D00D480E490E4A002302E0D4583F
:1011A000C4500433C4188C42F9D30B4A0B4C0023AF
:1011B00001E013600432A242FBD3F8F739FE01F0DC
:1011C0003BFBF8F7A5FC7047000002200000002060
:1011D000380B002074900108380B002044A1012036
:1011E000FEE70000012838BF012010B50446204664
:1011F00001F04EFB00B110BD00F0CCF908B1804702
:10120000F5E7042000F098F8024B034A0349036015
:1012100000F06CF91C80010829120108F87F010810
:1012200000487047E87F010810B5034B036004468F
:1012300000F0BEF8204610BD1C80010810B5054B1B
:101240000360044600F0B4F82046042100F004F8DE
:10125000204610BD1C80010800F052BBF0B4214CA8
:101260006368A0F108061BB350F8087CF519AB427F
:101270001ED82BD05A6804342AB90CE051681C1DC2
:10128000F1B113460A469542F8D329D1D5E9002198
:101290005960236817441A6899188E420DD05B680C
:1012A00040F8043C236840F8087C5E60F0BC70475E
:1012B00040F8043C6660F0BC704717441F60FAE7D2
:1012C0005B681A6899188E42E9D1F6E7D3E90023E2
:1012D000174440F8087C40F8043C6660F0BC704756
:1012E0002368D8E7C4A00120124900F10802486829
:1012F000082A38BF0822D8B1073222F00702043189
:1013000002E0011D4068A0B103689A42F9D89B1A17
:10131000072B0AD930B48418456865608350086883
:1013200002600C60083030BC704743680B600830C6
:1013300070477047C4A0012010B500F1800420461A
:1013400001F0A6FA034630B180220021184601F0D0
:1013500005FE803010BD2046FFF7C6FF034600287B
:10136000F2D100F049F800BF064A936880389842ED
:1013700005D9D2681344984201D2FFF76FBF01F03C
:101380008FBA00BFC4A0012038B5084C4FF41E65C9
:101390002846E56001F07CFAA06020B10023C0E996
:1013A0000053606038BDE060606038BDC4A00120BB
:1013B000704700BF704700BF004870472880010891
:1013C00010B504210446FFF747FF204610BD00BFBB
:1013D00000B583B0804700F0CFFF00F009FC00F0BB
:1013E000CBFF0C46019000F041FC0134019801D183
:1013F00000F086FB00F086FA08B5034B1868BFF3CF
:101400005B8FFFF7E5FF00BF8801002008B580472C
:10141000FFF7F2FF08B5034B1868BFF35B8FFFF7C8
:10142000F5FF00BF84010020024B1868BFF35B8FFB
:10143000704700BF88010020024B1868BFF35B8F24
:10144000704700BF8401002000B5012883B01DD87B
:10145000BFF35B8FA1F1280353E8002F013A43E863
:1014600000200028F8D1BFF35B8F62B951F81C3C13
:1014700001F1580013B101909847019803B05DF84D
:1014800004EBFFF771BF03B05DF804FB51F8140CD7
:10149000FFF79EFFF8B5002540E91E1240F8805C7A
:1014A0000446FFF7C9FF44F8700CFFF7BDFF472360
:1014B00043224E27552604F8583C2B230A4904F8AA
:1014C000515C04F8577C04F8566C04F8552C04F869
:1014D000542C04F8533C04F8523C44F86C0C44F887
:1014E000501CA4F18000F8BD4914010830B583B048
:1014F000CDE90021054600F001FC4468009A0199FD
:10150000034601345C602846FFF7C4FF044601230C
:1015100044F8283B2046F6F799FB204600F068FB8C
:10152000FFF76AFF10B500F0E9FBD0E90042013295
:10153000426064B194F82020472A0AD00022026059
:1015400020342046F6F7A6FB204600F051FBFFF7BB
:1015500053FF94F821204E2AF0D194F82220552AE6
:10156000ECD194F82320432AE8D194F82420432A8C
:10157000E4D194F825202B2AE0D194F826202B2AB8
:10158000DCD194F82720012AD8D8626952426261DE
:10159000D6E700BF024B1868BFF35B8F704700BFF0
:1015A000D4A0012010B5034B0360044600F04AF9B3
:1015B000204610BD1881010810B5054B0360044694
:1015C00000F040F920460C21FFF746FE204610BDF2
:1015D0001881010870B582B00D46069E96420446F9
:1015E00009D0A06804680696246A2946A44602B079
:1015F000BDE87040604719460192009300F064F81E
:10160000DDE900320028ECD0062002B070BD00BF3A
:101610002DE9F04F0C4681B01946DDE90A7ADDE983
:101620000C989B461546064600F04EF880B94F458B
:1016300027D0B0680668CDE90C98CDE90A7A214632
:10164000F4695B462A46A44601B0BDE8F04F604706
:10165000002CC8F8007088F804500CDB3C44A1450D
:101660000CBF4FF006094FF0010988F806900020E2
:1016700001B0BDE8F08F0234F9D1012388F80630BB
:10168000F5E75146304600F01FF80028D1D088F821
:101690000550ECE72DE9F04106460F4614461D467D
:1016A00000F00AF948B9B06806682246B4692B46CA
:1016B0003946A446BDE8F0416047BDE8F08100BF6F
:1016C000704700BF00207047814211D008B54068C4
:1016D00003782A2B0AD049680B782A2B08BF0131DE
:1016E000F6F7B2FDB0FA80F0400908BD002008BD51
:1016F0000120704770B53B4B1A7882B0002A41D167
:1017000001241C7000F024FE002831D04468364DBE
:1017100023782A2B08BF0134002211464FF0FF36F0
:1017200001AB20460196F5F74BFB2B680646DB68BC
:101730002E483022012101F06FF8019B93B12B68F4
:101740002046D96800F09CFE2B682948DB680222FD
:10175000012101F061F8019B13B9304601F0A0F8B6
:10176000FFF7E0FE2B683046D96800F089FEEBE712
:101770001D4B20481B682146DB682D2201F04CF8E8
:1017800000F0FAFD184B1C481B681D22DB68012184
:1017900001F042F800F0F0FD01290C4619D100F0EB
:1017A00027FA03689B6898472B680646DB6813484E
:1017B00021460B2201F030F82B683046D96800F042
:1017C0005FFE2B680A20D96800F0E4FD00F04EFAB5
:1017D000D6E700F00DFA00F049FAD1E700F046FA3A
:1017E00000F090F8D8A001208C010020748101083D
:1017F000A8810108AC81010854810108DC8101083D
:1018000070B5036884B000249E6900941023CDE96C
:10181000023415466B4612688DF80440B0479DF8B7
:10182000043003F00603062B03BF009B2B6001204E
:10183000204604B070BD00BF0098904214BF012044
:101840000620704710B5034B03600446FFF738FFCE
:10185000204610BD2082010810B5054B03600446E8
:10186000FFF72EFF20460821FFF7F6FC204610BDAB
:10187000208201082DE9F041DDE90815069F8F421D
:1018800090461E4604460CD031462046FFF71CFF0A
:1018900020B101232F6085F80480AB710020BDE8E2
:1018A000F0810799FFF710FF0028EDD085F805803B
:1018B0000020BDE8F08100BF38B515461C46FFF793
:1018C00003FF00B938BD082206232560E2602371BA
:1018D00038BD00BF2DE9F04116461D4607460C46AF
:1018E000FFF7F2FE48B9032D07D823683246394680
:1018F00020465B69BDE8F0411847BDE8F08100BFB4
:1019000000F0CEBF1EB400F095F81EBCF6F7B0F99B
:10191000F0B50278472A83B00C461D4619D0002343
:10192000294E0193336830469B68984760B9012778
:101930002368314620461E6901AA0123B04760BBD7
:101940000746384603B0F0BD019B1B680193022790
:10195000EEE743784E2BE2D18378552BDFD1C37865
:10196000432BDCD10379462B21D00379432BD6D1ED
:1019700043792B2BD3D183792B2BD0D1C379012B56
:10198000CDD80FD050F8206C5830336801909B6848
:10199000304698470028CAD0D6E7019B2B603846CE
:1019A00003B0F0BD50F8200C50F8786CEDE74379A7
:1019B0004F2BDAD18379522BD7D1C379002BD4D1D5
:1019C000024E0193AEE700BF448001083C8001084D
:1019D00010B5044600F092F9224612F82039472B40
:1019E00004D0836823BB8260012010BD63784E2B36
:1019F000F7D1A378552BF4D1E378432BF1D1237998
:101A0000432BEED163792B2BEBD1A3792B2BE8D190
:101A1000E379012BE5D854F8043C0133012B44F859
:101A2000043CE1D1836844F8083C8260012010BD89
:101A3000FFF7E2FC08B500F061F9836883B393F81F
:101A40002020472A04D00022826003F1200008BD34
:101A500093F821204E2AF6D193F82220552AF2D16C
:101A600093F82320432AEED193F82420432AEAD185
:101A700093F825202B2AE6D193F826202B2AE2D1B1
:101A800093F82720012ADED8DA69013ADA61002AC0
:101A9000DBD19A69826000229A6103F1200008BDBF
:101AA000FFF7AAFC0378472B01D00020704743784A
:101AB0004E2BFAD18378552BF7D1C378432BF4D131
:101AC0000379432BF1D143792B2BEED183792B2B47
:101AD000EBD1C07901288CBF00200120704700BFE6
:101AE00010B530B1044600F083F82046FFF7DAFF66
:101AF00008B9FFF781FC54F8140CFFF769FC00BF2C
:101B00002DE9F04F2DED028B85B00246FFF7CAFF9D
:101B100038B152E90674D2E90C85D2F828A0002623
:101B200005E00446074605468046824601261046E3
:101B300000F05EF80EB1FFF76DFC3846FFF766FC6B
:101B400000F056F80EB1FFF757FC00F0D3F8076825
:101B5000DFF898B097F82730012B0CBF3B6807F1EE
:101B60007803029328F00303019307F1200308EEA2
:101B7000103A4FF00009CA4521DDD5F80080B8F1D0
:101B8000000F00D0A84418EE100A02AB0022414614
:101B9000FFF7BEFE08B1FFF7C5FCD8F80030039090
:101BA0001B6940461F4603AA01235946B847019BBB
:101BB000002818BF064609F101091D44DBE746B1BC
:101BC0000420FFF7B9FB074B074A08490360FFF7FA
:101BD0008DFC2046FFF7FCFB00F048F800F046F8CB
:101BE000FFF790FED0800108B51301084C80010872
:101BF00038B5044600F082F82146056811F820390E
:101C0000472B03D085BB0160284638BD63784E2B37
:101C1000F8D1A378552BF5D1E378432BF2D1237972
:101C2000432BEFD163792B2BECD1A3792B2BE9D16B
:101C3000E379012BE6D854F80C3C002B11DB01337F
