:020000040800F2
:1000000040D900206102000863520008293E000820
:1000100061520008350500080D7800080000000056
:10002000000000000000000000000000A101000826
:100030003106000800000000FD0100083D560008E0
:100040007B0200087B0200087B0200087B0200089C
:100050007B0200087B0200087B0200087B0200088C
:100060007B0200087B0200087B02000839050008BB
:100070007B020008450500087B0200087B0200089F
:10008000510500085D0500087B0200087B0200089E
:100090007B0200087B0200087B0200087B0200084C
:1000A0007B0200087B0200087B0200087B0200083C
:1000B0007B0200087B02000819570008393E00083F
:1000C0002D3E00087B0200087B020008F95300085F
:1000D0007B020008E55F00087B0200087B02000845
:1000E0007B0200087B0200087B0200087B020008FC
:1000F0007B020008255700087B0200087B020008ED
:100100007B0200087B0200087B02000805540008FF
:100110007B0200087B0200087B0200087B020008CB
:100120007B0200087B0200086905000875050008CD
:100130007B02000800000000000000007B020008B5
:100140007B0200087B0200087B0200087B0200089B
:100150007B0200087B020008810500087B02000882
:100160007B0200087B0200087152000865520008FB
:100170007B0200087D520008000000000000000023
:100180007B0200087B020008DFF810D000F000F9C5
:1001900000F0CEF800480047E589000840D900206B
:1001A0002C4B19680868B0E8F04F80F30988BFF35A
:1001B0006F8F4FF0000080F311887047000000003F
:1001C00008480068006880F308884FF0000080F35A
:1001D000148862B661B6BFF34F8FBFF36F8F00DF35
:1001E00000BF00BF08ED00E0DFF80C00016841F43B
:1001F00070010160704700BF88ED00E0EFF30980F7
:10020000BFF36F8F134B1A681EF0100F08BF20ED5D
:10021000108A20E9F04F106009B44FF0500080F3CD
:100220001188BFF34F8FBFF36F8F09F069FC4FF058
:10023000000080F3118809BC19680868B0E8F04F25
:100240001EF0100F08BFB0EC108A80F30988BFF3CE
:100250006F8F704774000020EFF305807047000037
:100260000648804706480047FEE7FEE7FEE7FEE750
:10027000FEE7FEE7FEE7FEE7FEE7FEE709570008B8
:10028000890100082DE9F05F0546002092469B4653
:1002900088460646814640241BE02846414647469C
:1002A000224600F064F853465A46C01A914110D3D2
:1002B00011461846224600F04BF82D1A67EB01084C
:1002C0004F4622460120002100F042F817EB0009BA
:1002D0004E41201EA4F10104DFDC484631462A4687
:1002E0004346BDE8F09F40EA01039B0703D009E0C5
:1002F00008C9121F08C0042AFAD203E011F8013B12
:1003000000F8013B521EF9D27047D2B201E000F86A
:10031000012B491EFBD270470022F6E710B51346A9
:100320000A4604461946FFF7F0FF204610BD0000BC
:1003300070B5054C054D03E0206820448047241D1E
:10034000AC42F9D170BD000058A900085CA90008B2
:10035000202A04DB203A00FA02F100207047914085
:10036000C2F1200320FA03F3194390407047202A7A
:1003700004DB203A21FA02F00021704721FA02F34F
:10038000D040C2F120029140084319467047000056
:10039000064C074D06E0E06840F0010394E80700D2
:1003A00098471034AC42F6D3FFF7F2FE38A90008A4
:1003B00058A9000870B58C1810F8015B15F00703F8
:1003C00001D110F8013B2A1106D110F8012B03E0EE
:1003D00010F8016B01F8016B5B1EF9D12B0705D4F6
:1003E0000023521E0DD401F8013BFAE710F8013B3F
:1003F000CB1A921C03E013F8015B01F8015B521E5B
:10040000F9D5A142D8D3002070BD0000464910B5EF
:100410004A6822F440324A604A6843681A434A6094
:1004200001684A6822F480724A6001684A68036978
:1004300042EA03224A6001684A6822F040724A6038
:1004400001684A6883681A434A6001688A6822F42E
:1004500000628A6001688A68C3681A438A60816A98
:100460006FF07062D14201688A6822F070628A601F
:1004700001688A680CD0836A1A438A6001688A68B6
:1004800022F040528A6001688A68C36A1A4301E018
:1004900022F040528A6001688A6822F002028A6073
:1004A00001688A68037E42EA43028A6090F820105D
:1004B000002901684A680FD042F400624A6001686E
:1004C0004A6822F460424A6001684A68174C436AED
:1004D00004EB43331A4301E022F400624A600168EE
:1004E000CA6A22F47002CA620168CA6A838B104C1D
:1004F00004EB03531A43CA6201688A6822F400724B
:100500008A6001688A6890F8303042EA43228A6043
:1005100001688A6822F480628A6001688A6840699A
:1005200042EA8020886010BD0023014000E0FFFF08
:100530000000F0FFFEE70000014800F0DBB900001A
:1005400034040020014800F0D5B900003C0500202B
:10055000014800F0CFB90000DC040020014800F0A1
:10056000C9B90000D4030020014800F0C3B900005D
:10057000A8070020014800F0BDB90000F4050020E4
:10058000014800F0B7B900000808002001681823EE
:10059000CAB2103AB2FBF3F2054B6FF30901032A1A
:1005A0009B5CC36500D9091D816508467047000042
:1005B000DCA8000810B5014600208B698A6A4FF05C
:1005C000C07453B1B3F5005F15D072B1012A0CD0DD
:1005D000022A0AD0032A09D104E01AB1012A06D05E
:1005E000022A03D1C96AC90100D5012010BDC96A18
:1005F000A142FAD010BD002AF7D0012AF2D0022A77
:10060000F3D0032AF3D010BD30B50468256825F473
:1006100080252560046863608368402B036803D0ED
:1006200099600068C26030BD9A600068C16030BDEA
:10063000704772B6FEE7000078B50024009490F889
:100640003C20012A19D0012280F83C200A680723A7
:100650000568092A13D9EE680A3A02EB4202934070
:100660009E43EE600B788A680A3B03EB43039A4093
:100670000368DD682A43DA6010E0022078BD2E6945
:1006800002EB420293409E432E610B788A6803EB93
:1006900043039A4003681D692A431A614A681F236D
:1006A000072A13D205686E6B521E02EB820293403A
:1006B0009E436E630B790A885B1E92B203EB830341
:1006C0009A4003685D6B2A435A6327E005680D2A48
:1006D00012D22E6BD21F02EB820293409E432E63F6
:1006E0000B790A88DB1F92B203EB83039A400368FD
:1006F0001D6B2A431A6311E0EE6A0D3A02EB820287
:1007000093409E43EE620B790A880D3B92B203EB55
:1007100083039A400368DD6A2A43DA62164B056850
:10072000144A9D4206D10D68122D03D1556845F437
:100730008005556005689D4218D10B68102B01D0CB
:10074000112B13D1536843F4000353600968102937
:100750000CD10A490A4A0968B1FBF2F101EB8101A7
:10076000490000E0491E00910029FBD180F83C407F
:10077000002078BD002301400020014070000020CF
:1007800040420F0070B504004FF0000503D0206C0C
:10079000002610B107E0012070BD204600F01CF8D3
:1007A000666484F83C60206CC00610D4206C20F491
:1007B000885040F0020020642046FFF727FE666460
:1007C000206C20F0020040F00100206400E00125D0
:1007D00084F83C60284670BD10B586B004461421EC
:1007E0006846FFF799FD1149206888421CD11048DE
:1007F0000021026842F480720260006800F4807098
:1008000005900B481438026842F00102026000684B
:1008100000F001000590072000900320CDE90101C0
:100820006946044800F0EAF906B010BD0020014016
:1008300044380240000002402DE9F0410446876D33
:1008400000F0DAFA064694F835000025022806D0B2
:100850008020606584F834500120BDE8F081206874
:10086000016821F0160101602068416921F08001D2
:100870004161206C08B9A06C20B12068016821F0AA
:10088000080101602068016821F0010101600CE0AD
:1008900000F0B2FA801B052807D9202060650320EC
:1008A00084F8350084F83450D7E720680068C00722
:1008B000EED194F85C103F208840B860012084F8A5
:1008C000350084F834500020C7E790F8351002292D
:1008D00003D08021416501207047052180F8351043
:1008E0000068016821F0010101600020704790F864
:1008F000350070472DE9F84304464FF00009CDF864
:10090000009063484FF41651A56D0068B0FBF1F7F5
:100910002E6894F85C10082000FA01F131420FD0E3
:1009200021680A6852070BD50A6822F004020A609F
:1009300094F85C108840A860606D40F0010060652C
:1009400094F85C104FF0010808FA01F0304208D02A
:1009500021684969090604D5A860606D40F002006D
:10096000606594F85C1004208840304208D021680B
:100970000968890704D5A860606D40F004006065CF
:1009800094F85C1010208840304218D02168096823
:10099000090714D5A86020680168490304D50068D8
:1009A000000308D5A16C07E00168C90503D40168FC
:1009B00021F008010160216C09B12046884794F8B4
:1009C0005C1020208840304231D021680968C90677
:1009D0002DD5A86094F8350005282068016806D058
:1009E000490347D5006800031DD4616C1CE021F069
:1009F000160101602068416921F080014161206C8D
:100A000008B9A06C20B12068016821F008010160DC
:100A100094F85C103F208840A86084F8358084F802
:100A20003490216D1FE0E16B09B120468847606D6D
:100A300000282BD0606DC00714D0052084F8350045
:100A40002068016821F0010101600098401C0090BD
:100A5000B84203D820680068C007F6D184F8358012
:100A600084F83490E16C002910D001B02046BDE834
:100A7000F04308470168C905D5D4016821F0100189
:100A8000016084F8358084F83490CCE7BDE8F883C1
:100A9000700000202DE9F041044600F0ADF9064653
:100AA0005CB1022084F83500002584F834502068B9
:100AB000016821F0010101600DE00120BDE8F08135
:100AC00000F09AF9801B052805D9202060650320D5
:100AD00084F83500F2E720680068C007F0D122688A
:100AE000116820480140D4E901031843D4E90336D2
:100AF0003343184363691843A3691843E3691843F0
:100B0000236A18430843616A042903D1D4E90B130B
:100B100019430843106020684069666A20F00701A5
:100B200030460E43012704280CD1A06A0643E06A30
:100B300040B12046FFF73EFD20B14020606584F8BB
:100B40003570BAE7206846612046FFF71FFD94F82C
:100B50005C203F2191408160656584F835700020FC
:100B6000ACE700003F8010F02DE9F0410446866DAF
:100B700090F83400002501280DD0012084F83400BD
:100B800094F835700020012F07D084F83400022536
:100B90002846BDE8F0810220FBE7022784F8357083
:100BA00060652046FFF730FD94F85C103F208840D8
:100BB000B0602068016841F016010160206C20B12E
:100BC0002068016841F0080101602068016841F077
:100BD00001010160DCE7000070B5044600F00CF98B
:100BE0000546601C02D004480078044400F004F973
:100BF000401BA042FAD370BD640000202DE9F84FDD
:100C0000DFF8BCA1002201250AF1040B03264FF0F6
:100C10000F090BF1040E00BF0B6805FA02F4234024
:100C2000A34270D10F7907F00307012F01D0022FE3
:100C300016D187684FEA420806FA08FC27EA0C0733
:100C4000D1F80CC00CFA08FC4CEA070CC0F808C03C
:100C50004768A7430C79C4F3001494403C434460B4
:100C60000C79E443A4070AD0C4684FEA420C06FAA0
:100C70000CF7BC438F6807FA0CF72743C7600C7961
:100C800004F00304022C12D1D40800EB840CDCF82D
:100C900020405707FF0E09FA07F824EA0804D1F8A4
:100CA000108008FA07F848EA0408CCF820800468A5
:100CB0004FEA420C06FA0CF7BC430F7907F0030722
:100CC00007FA0CF7274307604C6814F4403F70D0D4
:100CD0003C4C276847F480472760246822F00307CC
:100CE00004F480440094384C07EB040CDCF808480A
:100CF00097074FEA177809FA08F7BC43334FB84211
:100D000002D1002724E054E0314FB84201D101273D
:100D10001EE0304FB84201D1022719E02E4FB842F1
:100D200001D1032714E02D4FB84201D104270FE071
:100D30002B4FB84201D105270AE02A4FB84201D112
:100D4000062705E0284FB84201D1072700E0082711
:100D500007FA08F72743CCF80878DAF80040574636
:100D6000D1F804C09C435FEACC3C00D51C433C60F6
:100D7000DBF800405F46D1F804C09C435FEA8C3C3E
:100D800000D51C433C60DEF800407746D1F804C033
:100D90009C435FEACC2C00D51C433C60084F0C37C9
:100DA0003C68D1F804C09C435FEA8C2C00D51C43FE
:100DB0003C60521C102AFFF42FAFBDE8F88F0000F2
:100DC000003C014044380240003001400000024035
:100DD0000004024000080240000C024000100240E3
:100DE0000014024000180240001C02400AB1816158
:100DF00070470904FBE70000014880687047000065
:100E000064000020704770472DE9F04101680446F6
:100E10004A694E6890F83E000025D743FA0506D48B
:100E2000F243D20503D46FF4807201254A61B905FB
:100E300008D4F143C90505D422686FF4007145F068
:100E400002055161790525D4F143C90522D4638D8A
:100E500094F83D10226B202808D13BB9212910D0ED
:100E600029290ED0282901D1212A0AD022686FF41D
:100E70008061516145F00405102806D0402804D057
:100E800008E0204603F084FC04E02068016841F497
:100E900000710160380508D4F043C00505D421680D
:100EA0006FF4006045F008054861002D07D0206C04
:100EB000284320642046BDE8F04103F021B8BDE896
:100EC000F0812DE9F047026800215368C66A90F866
:100ED0003E4090F83D50102C12D0402C10D0046CA5
:100EE000002C7DD05469E443A6077AD4DE43B605CE
:100EF00077D4036C03B19169BDE8F04703F024BCDB
:100F0000976951694FF42A0CC9435FEAC1784FF0E1
:100F10002A4904D066452AD04E4528D010E0DE4349
:100F2000B6050DD4C16A614501D1012103E0C16A52
:100F3000494501D10821C162BDE8F04703F06EBB0D
:100F40000E0716D4DE43B60513D4416CC9B2116145
:100F5000416B09B1C96B29B9816B002907D0C96BF5
:100F6000002904D00068416841F400614160BDE897
:100F7000F0878E0706D4DE43B60503D4BDE8F047FC
:100F800003F0C0BAFE43526876074FEA02521DD4FE
:100F9000002AECDB0A0608D4DA43520505D44907D7
:100FA00005D5BDE8F04703F051BA4907DFD4D9436E
:100FB0008905DCD4212D05D0402CD8D1BDE8F047DF
:100FC00003F072BBBDE8F04703F0FEB9002ACEDBA8
:100FD0004A060BD4DA43520508D4490708D501E084
:100FE0000DE00EE0BDE8F04703F0B6B84907BED407
:100FF000D9438905BBD4BDE8F04703F044B89169F3
:1010000070E7E10606D4D943890503D4BDE8F0476B
:1010100003F000BC2821212D27D0292D25D06506DD
:1010200055D4DD436D0552D4640752D590F83D3058
:10103000448D002C9BD01269446A2270426A521C73
:101040004262428D521E4285428D002A8FD12A2B48
:101050008DD10268536823F48063536022220263B7
:1010600080F83D1000F04AFB81E7250623D4DD43DC
:101070006D0520D4640720D590F83D30448D002CB8
:10108000F2D0446A24781461426A521C4262428D52
:10109000521E4285428D002AE6D1292BE4D10268F6
:1010A000536823F4806353602122026380F83D106B
:1010B00000F025FB5BE76107D6D4D9438905D3D47B
:1010C000418D0029D0D0416A097811610AE0610799
:1010D000CAD4D9438905C7D4418D0029C4D0116928
:1010E000426A1170416A491C4162418D491E418525
:1010F0003DE7704770B5040025D094F83D00002509
:1011000020B984F83C50204600F046FA242084F8A8
:101110003D002068016821F001010160206801683C
:1011200041F4004101602068016821F40041016040
:1011300001F0BCFD4D4A6168914201D84C4900E084
:101140004C49884201D2012070BD4B492368B0FB55
:10115000F1F15E6826F03F060E435E6063689342DD
:1011600006D94FF4967359434FF47A73B1FBF3F1F8
:101170002368491C1E6A26F03F06314319626168E4
:10118000914210D84900401EB0FBF1F2521CC2F34C
:101190000B02042A01D2042022E0B0FBF1F0401C33
:1011A000C0F30B001CE0A268F2B301EBC10303EB38
:1011B0000116431EB3FBF6F35B1C43F480431B058F
:1011C00049D092B301EBC10202EB0111401EB0FB0A
:1011D000F1F0401CC0F30B0040F4804040F40040AC
:1011E0002168CA694CF6FF739A431043C861D4E979
:1011F000071001432068026822F0C0021143016019
:10120000D4E9030101432068826848F2FF339A431E
:1012100011438160D4E9050108432168CA6822F0BE
:10122000FF021043C86001E00EE016E0206801688C
:1012300041F0010101602564202084F83D00256310
:1012400084F83E50002070BD01EB4106431EB3FB05
:10125000F6F35B1CB3E70120C2E701EB4101401E3E
:10126000B0FBF1F0401CC0F30B00B7E7A086010013
:1012700080841E0000093D0040420F00704708F0C6
:101280008BB908F08AB900002DE9F84F1F46904647
:101290008A460446DDF82890FFF7AEFD054694F82F
:1012A0003D00202875D1192301226C492046009564
:1012B00003F084FB0028F5D194F83C00012868D0A5
:1012C000012084F83C0020680168C90703D1016847
:1012D00041F0010101602068016821F400610160B2
:1012E000222084F83D00102084F83E000026266469
:1012F000C4F824806785608D20855948E0622B46BC
:101300004A465146204602F09BFF002878D1208DA6
:10131000544F68B1012814D002282068016816D003
:1013200041F480610160206841698069009087E034
:101330002068416981690091016841F40071016090
:101340007EE02068016821F480610160F0E721F40B
:10135000806101602068016841F40061E2E70328D0
:1013600048D801280AD0022814D04B46002239461A
:101370002046009503F022FBD8BB27E02A464946C9
:10138000204603F09AFBA0BB20680069616A0870E0
:101390004DE061E04B46002239462046009503F0BF
:1013A0000DFB30BB2068016841F4007101602068CA
:1013B0000069616A0870606A401C6062218D491E84
:1013C0002185618D491E618521682EE020680168B4
:1013D00021F48061016020680069616A0870606AB8
:1013E000401C6062208D401E2085608D401E6085FF
:1013F000D0E705E02A464946204603F05EFB10B1DF
:101400000120BDE8F88F20680069616A0870606A91
:10141000401C6062218D491E2185618D491E6185B8
:1014200021684A69D24352070AD409690170606A87
:10143000401C6062208D401E2085608D401E6085AE
:10144000208D00288BD1202084F83D0084F83E6058
:1014500084F83C600020D4E70220D2E702001000AC
:101460000000FFFF040001002DE9F84F1F469046E1
:101470008A460446DDF82890FFF7BEFC054694F83E
:101480003D0020287FD119230122404920460095A4
:1014900003F094FA002876D194F83C00012872D029
:1014A000012084F83C0020680168C90703D1016865
:1014B00041F0010101602068016821F400610160D0
:1014C000212084F83D00102084F83E000026266488
:1014D000C4F824806785608D20852D48E0622B4606
:1014E0004A465146204602F021FF90B920684169E2
:1014F0008069009036E02A464946204603F010FBFA
:1015000050B1206C042804D12068016841F40071B6
:1015100001600120BDE8F88F606A216800780861E9
:10152000606A401C6062618D491E6185218D491E83
:1015300089B2218522685369DB435B070BD451B123
:1015400000781061606A401C6062608D401E60859A
:10155000208D401E20852A464946204603F008FA81
:101560000028CED1208D0028C5D154F83D0B01684C
:1015700041F400710160202004F81E09E6776677C7
:101580000020C7E7FFE70220C4E7000002001000C8
:101590000000FFFF704770472DE9F04786B0064610
:1015A00014216846FEF7B8FE4C4ADFF834A13168D2
:1015B0004B481225012700244FF003084FF004097F
:1015C0000AF1100A91425BD1016841F00201016009
:1015D0000068694600F0020005904FF440708DE805
:1015E000A1034048FFF70AFBDAF8001041F40011AC
:1015F000CAF80010DAF800003C4D00F40010059025
:1016000039487F06E5E8020740204FF48068A5E8E6
:101610001101364845F81449AC61EC612C626C62EA
:10162000FFF738FA08B1FFF704F87563AE632F4D82
:101630002D48603590382860C5E90174C5E9034834
:101640006C61AC61EC612C6228466C62FFF722FA97
:1016500008B1FEF7EEFFB563002205211F20AE633F
:1016600000F0FCFB1F2000F0EBFB002205212020F6
:1016700000F0F4FB202000F0E3FB06B0BDE8F087AB
:101680001B4A9142F9D1016841F0040101600168EF
:1016900001F004010591016841F001010160006859
:1016A000694600F00100059050158DE8A10311482E
:1016B000FFF7A4FA4FF480708DE8A10369460E4845
:1016C000FFF79CFADAF8001041F40001CAF80010A4
:1016D000DAF8000000F400000590CEE70054004066
:1016E0003038024000040240A0600240D4030020D1
:1016F000005C004000080240000002407047704754
:101700002DE9FF4104460068816800917749784ED1
:101710004FF04027884201D1324600E03A469268B5
:10172000019240688846029001D1304600E0384678
:101730004068039060684FF00105B0F5007F1CD051
:10174000D8B1900705D50398000602D5204603F0CE
:101750003DFA0098C0070FD0029840067FD5216857
:101760002046CA68E16A8B1CE3620A80618E491ECA
:101770006186618E002967D071E00098800719D5D5
:101780000298000616D5616A20468A1C62622268A9
:101790000988D160618D491E6185618D51B90168EB
:1017A0004A6822F0A0024A60418E19B980F841507F
:1017B00000F072F90198C00705D00398400602D5E1
:1017C000204603F0D3F90198400622D503988006FD
:1017D0001FD52168414501D1304600E038464068B8
:1017E00020F0600101D1304600E0384641602068B9
:1017F000416821F0A00141602068C16880680190C3
:1018000084F84150606C40F002006064204600F0B3
:1018100049F90098000767D50298800664D52068CA
:10182000416821F0A00141602168414501D1304665
:1018300000E03846406820F0600000D03E4670600E
:1018400020688068009043E001684A6822F06002E6
:101850004A60418D19B980F8415000F01DF9009897
:1018600040061ED5029880061BD52068416821F0ED
:10187000600141602168414501D1304600E03846B1
:10188000406820F0A00101D1304600E038464160B8
:1018900084F84150606C40F002006064204600F023
:1018A00001F9019800071FD5039880061CD521680F
:1018B000414501D1304600E03846406820F0A000A4
:1018C00000D03E4670602068416821F060014160B0
:1018D00084F84150606C40F00400606404B020461D
:1018E000BDE8F04100F0DEB8BDE8FF8100380040FF
:1018F000003400402DE9F84F044690F841001546A9
:1019000089464FF0000AD346012802D04FF0020A60
:1019100084E0E1B3DAB3D3B394F8400001283FD0B8
:10192000012084F84000E26261622068C06900F032
:101930000700032836D0052834D023856385238605
:10194000A4F83230C4F844B0052384F84130E66B83
:101950004C4B3364E66B4C4BF363E66B4B4BF364DD
:10196000A66BC6F840B0A66BC6F83CB0A06BC364CB
:101970002068C369DFF8188103F44073454E4FF0C7
:101980004027B3F5007F16D0ABB1C26900E004E098
:10199000C2F30122032A45D047E00120BDE8F88FB9
:1019A0000220FBE74FF6FF7000EA430020856085C8
:1019B00020866086C6E7238E404501D1314600E08F
:1019C00039460C31E06BFFF7CFF82068404501D174
:1019D000304600E03846406840F0010001D1314611
:1019E00000E039464860238D2268494602F10C0226
:1019F000A06BFFF7B9F82068416841F0020138E0B8
:101A000040453CD13046C06940F4806000D03E463D
:101A1000F0612068C16941F48061C16184F840B01F
:101A20005046BBE7C26882680092238D404501D1D1
:101A3000324600E03A460C32A06BFFF795F8216879
:101A4000414501D1314600E03946496841F0020183
:101A500001D1304600E038464160238E21682A4695
:101A600001F10C01E06BFFF77FF82068416841F05D
:101A7000010141602068C1694905C1D5CEE73846FA
:101A8000C1E70000094D00082D4C0008B54C0008C6
:101A9000003800400034004010B506F089FF00BF58
:101AA00010BD70477047416B084700002DE9F047B3
:101AB000040005D094F841004FF0000818B109E087
:101AC0000120BDE8F08784F84080514860632046DB
:101AD00000F0A6F8022684F841602068C16940F64B
:101AE000BF77B943C1612068066260694FF400792D
:101AF00002282FD0E06870B12025A068202800D8E7
:101B00006D00012000F0ACFE216949451FD1E1685C
:101B100019B1A90002E01025EFE7E900B0FBF1F0F0
:101B200000EB800061694000B0FBF1F0401D0A212C
:101B3000B0FBF1F000F00101401A40080902821EDA
:101B4000FE2A09D3606C40F010006064B8E7B0FB77
:101B5000F5F0E5E7022000212269084302432068EE
:101B60000262D4E901010843A269E1681143084314
:101B70002168CA69BA43104340F40060C861206A12
:101B800001283AD12348606323482168234A4FF053
:101B90004023814201D1114600E01946C96921EA7A
:101BA000070101D1154600E01D46E9612168814227
:101BB00001D1114600E019460E622568854201D127
:101BC000114600E01946C9698EB2616849451BD0CB
:101BD000D1B100212789B4F80CC047EA0C07B4F84A
:101BE00018C04CEA010C47EA0C07B9B2314341F482
:101BF0000061854200D01A46D161C4F844800120BA
:101C000084F8410000205CE74FF48071E2E70000B7
:101C1000134D000801170008003800400034004050
:101C20002DE9F04786B0064614216846FEF774FB9E
:101C30003F493068884278D13E480024016841F429
:101C400000410160006800F40040059039481038F8
:101C5000016841F004010160016801F0040105918F
:101C6000016841F0010101600068022500F00100F7
:101C700005904FF4A4500090CDE901540627DFF8F9
:101C8000B8A0CDE9034769465046FEF7B7FFA80361
:101C90000090CDE90154CDE9034769462748FEF796
:101CA000ADFF4FF40069CDF80090CDE90154052057
:101CB000CDE90340C84669465046FEF79FFF214DD7
:101CC0001F48E5E8020440200701A5E891014FF410
:101CD000005865E806841B482C626C62FEF7DAFE49
:101CE00008B1FEF7A6FCB563AE63164D1448603527
:101CF000483828600005C5E9010405F10C0080E8BA
:101D00009002C5E906842C6228466C62FEF7C2FE8A
:101D100008B1FEF78EFCF563002205213320AE6387
:101D200000F09CF8332000F08BF806B0BDE8F08797
:101D3000003C0040403802400008024000000240E1
:101D400088600240DC04002000BF704706F030BE0F
:101D50000248816802781144816070476400002065
:101D60000B4810B5016841F400710160016841F44D
:101D700080610160016841F480710160032000F01E
:101D80008DF8002000F006F800F03EF8002010BDAD
:101D9000003C024010B5014688B000222D2000F022
:101DA0005DF82D2000F04CF813480024016841F440
:101DB00080710160006805A900F480700690684693
:101DC00000F04EFF00F072FF0C494000B0FBF1F153
:101DD0000C480B4A491E026040F2E732C0E9032476
:101DE000C0E9011401F01CFC10B1012008B010BDC5
:101DF000044801F0A9FCF9E74038024040420F00D6
:101E000000200040680800200C4882B0016841F4BE
:101E100080410160006800F4804000900748001F86
:101E2000016841F0805101600068002200F080509C
:101E300000900F21901E02B000F010B8443802400C
:101E4000002809DB00F01F020121914040098000B9
:101E500000F1E020C0F8001170470000F0B40E4B14
:101E60001B680C46C3F30223C3F10705042D00D9F8
:101E70000425191D072901D2002300E0DB1E0126DD
:101E800006FA05F1491E214099409E40761E1640F3
:101E90003143F0BC06F034BD0CED00E0064900F023
:101EA000070208684FF6FF03184040EA0220034A81
:101EB00010430860704700000CED00E00000FA05D8
:101EC00070470068416200207047F0B50368586AA7
:101ED00039B19C6A4FF4827600EB144400204D1E09
:101EE0000AE040EA024098620FE006EB8007DF5903
:101EF000401C04EB1744C0B2A842F6D344EA0240A7
:101F00004FF4807202EB810158500020F0BDD0F8F0
:101F1000040404F01CBCC1EBC10200EB8202D0F847
:101F20000404926C04F089BBC1EBC10200EB820295
:101F3000D0F80404D2F8082204F0D3BBD0F804048B
:101F400004F007BC70B504460B0601F00F00C0EBAF
:101F5000C00104EB81014FF001024FF0000503D5F1
:101F600081F83D203C3103E081F8FD5101F5FE711F
:101F7000087094F8BC03012808D084F8BC232068BA
:101F800004F0AAFF84F8BC53002070BD022070BD8D
:101F900070B5044601F00F006268904201D901203B
:101FA00070BD0B0601F00F01C1EBC10104EB810113
:101FB0004FF001024FF0000503D581F83D203C3180
:101FC00003E081F8FD5101F5FE718D70087094F801
:101FD000BC03012808D084F8BC23206805F076F9FA
:101FE00084F8BC53002070BD022070BD01F00F01C9
:101FF000C1EBC10100EB8100D0F8140270472DE95C
:10200000F04104460F0601F00F00C0EBC00104EBE5
:1020100081014FF001064FF0000503D581F83D60C6
:102020003C3103E081F8FD5101F5FE7108708A60D2
:10203000CB704A7802B1C880022B00D10D7194F8A0
:10204000BC03012809D084F8BC63206804F09CFE1E
:10205000284684F8BC53BDE8F0810220FBE770B548
:102060000C4601F00F05C5EBC50100EB8101C1F87D
:102070001032C1F808220023C1F8143281F8FD3172
:1020800081F8FC51036901F5FE71012B00D10A6151
:102090002207027C006803D005F070F9002070BDB3
:1020A00005F05CF8FAE770B504460D4601F00F0044
:1020B0006168884201D9012070BD29064FF00006F1
:1020C0004FF0010207D5C0EBC00104EB810181F89C
:1020D0003D203C3107E0C5EBC50104EB810181F8EF
:1020E000FD6101F5FE718A70087094F8BC03012847
:1020F00007D084F8BC23206805F014F9280702D023
:1021000007E0022070BD217C04F57172206805F0A3
:10211000B1F884F8BC63002070BD70B50C4601F0C6
:102120000F05C5EBC50100EB81010B658A64002337
:102130004B65012381F83D3001F83C5F0369012BB9
:1021400000D10A612207027C006803D005F016F96D
:10215000002070BD05F002F8FAE700002DE9FC5FF1
:1021600005680446284605F03AFA00287ED1206822
:1021700005F061FA002879D0206805F05CFA800744
:1021800004D52168486900F002004861206805F024
:1021900052FAC10604F57170009034D52068816947
:1021A00021F0100181612F6A07F00F00C0EBC00021
:1021B00004EB8006C7F3434006F5FE76022802D002
:1021C000062811D01AE047F6F070074216D0C7F380
:1021D0000A1217462846F16805F031FAF0683844CB
:1021E000F060B069384408E008222846009905F0FC
:1021F00026FAB069C7F30A110844B0612068816902
:1022000041F010018161206805F015FA00034FF0DC
:10221000010A4FF0080B5BD50026206805F0EAF9AB
:102220000746DFF8689351E0F8074DD0F1B2206817
:1022300005F0F9F98046C00707D005EB4611C1F853
:1022400008AB3146204603F01FF85FEA087022D53C
:1022500005EB4611C1F808BB2068016C00EB461085
:102260000191D0F8082B494507D900E08BE1110412
:1022700003D54FF40041C0F8081B204600F0B0FA27
:102280000198484507D92069012804D12068012117
:10229000009A04F0EFFF5FEAC86004D505EB461131
:1022A0001020C1F8080B5FEA886004D505EB4611E1
:1022B0002020C1F8080B5FEA884005D505EB4610E1
:1022C0004FF40051C0F8081B7F08761C002FABD1DB
:1022D000206805F0B0F940034FF000095CD5206894
:1022E00005F081F90746002654E0F80750D0F1B216
:1022F000206805F086F98046C00723D006F00F025B
:102300000AFA02F0D5F834288243C5F8342805EBE0
:102310004610C0F808A9206901280FD1C6EBC600F5
:1023200004EB8000D0E911211144816436B9206D9D
:1023300020B920680121009A04F09CFFF1B22046E8
:10234000FFF7E9FD5FEA087003D505EB4611C1F818
:1023500008B95FEAC86004D505EB46111020C1F842
:1023600008095FEA486004D505EB46114020C1F832
:1023700008095FEA887004D505EB46110220C1F810
:1023800008095FEA086003D53146204602F0E2FF03
:102390007F08761C002FA8D1206805F04CF9002892
:1023A00011DAD5F8040820F00100C5F8040894F803
:1023B000F403012829D0204600F0F6F9206841698D
:1023C00001F000414161206805F035F900050BD5A9
:1023D000D5F80808C00702D0204600F029FA206886
:1023E000416901F400614161206805F024F9C004ED
:1023F00068D5D5F8040820F00100C5F804081021BC
:10240000206805F0C9F8002127E084F8F493002142
:102410002046FFF755FDD1E705EB41104FF67F321F
:10242000C0F80829D0F8003923F40013C0F80039A7
:10243000D0F8003943F00063C0F80039C0F8082B29
:10244000D0F8002B22F40012C0F8002BD0F8002B9B
:1024500042F00062C0F8002B491C60688842DBD85B
:10246000D5F81C0840F00110C5F81C08206B60B1BD
:10247000D5F8840840F00B00C5F88408D5F8440866
:1024800040F00B00C5F844080CE0D5F8141842F2EF
:102490002B000143C5F81418D5F8100840F00B00C4
:1024A000C5F81008D5F8000820F4FE60C5F800084B
:1024B000217C2068009A04F0DDFE2068416901F467
:1024C00080514161206805F0B6F8800415D5206878
:1024D00004F09AFC206805F075F8E06000F0E0FB7D
:1024E0000146227B206805F009F9204600F046F9F4
:1024F0002068416901F400514161206805F09BF8B2
:10250000000707D5204600F053F92068416901F023
:1025100008014161206805F08EF8C00208D500214D
:10252000204600F035F82068416901F480114161CE
:10253000206805F080F8800208D50021204600F0D0
:102540002BF82068416901F400114161206805F011
:1025500072F8400007D52046FFF7D9FC2068416992
:1025600001F080414161206805F065F840070AD517
:1025700020684568680702D52046FFF7DFFC206821
:10258000416829434160BDE8FC9F00000A30544F78
:10259000D0F8040404F032B9D0F8040404F03EB9D1
:1025A0002DE9F0418AB0040005D094F8BD032668F7
:1025B000002520B108E001200AB0BDE8F08184F8D0
:1025C000BC53204600F05EF8032084F8BD03F06B96
:1025D000C00500D42561206804F0BAFD04F11001A3
:1025E000282288466846FDF77EFE94E80F0004F036
:1025F00019FC0226C8BB0021206805F03FF8002026
:1026000001270EE0C0EBC00104EB810181F83D70B1
:1026100001F83C0FC880CD708D60CD60401CC0B209
:102620004D6161688142EDD8002011E0C0EBC0012E
:1026300004EB810181F8FD5181F8FC0181F8FF5123
:10264000C1F80452C1F80852401CC0B2C1F810527F
:1026500061688142EAD8282241466846FDF743FE78
:1026600094E80F0004F0BAFC10B184F8BD63A2E74F
:1026700084F8385084F8BD73206804F0A1FC002071
:102680009AE700002DE9F04186B00446142168461F
:10269000FDF742FE34492068884261D1334C4FF047
:1026A0000008206840F004002060206800F004006A
:1026B0000590206840F001002060206800F00100D3
:1026C0000590206840F0020020602068022500F09C
:1026D000020005900D208DE8210103260A27694696
:1026E0002348CDE90367FEF789FA28208DE8210108
:1026F00069462048CDE90367FEF780FA43F6234098
:102700008DE8210169461C48CDE90367FEF776FA9A
:10271000206840F000502060206800F000500590D4
:10272000206840F0804020602068002200F0804057
:10273000059005214A20FFF791FB4A20FFF780FB17
:10274000002205214B20FFF789FB4B20FFF778FB88
:10275000002205214D20FFF781FB4D20FFF770FB84
:1027600006B0BDE8F08100000000044030380240AF
:1027700000080240000002400004024070B5044618
:10278000C068012570B1022801D0FDF752FF29462B
:10279000D4F8040404F0AEF8D4F80404BDE87040A2
:1027A00004F061B80025F2E7D0F8040404F088B81A
:1027B000D0F8040404F08EB810B5044690F8BC03B9
:1027C00001280BD0012084F8BC0384F8381020685D
:1027D00004F082FF002084F8BC0310BD022010BD6D
:1027E000D0F8042400F57171104604F08FB810B5CC
:1027F0000446006894F8BC13012906D0012184F82E
:10280000BC13A16A012902D008E0022010BDA16911
:10281000012903D0816B41F480318163206804F089
:10282000A1FE206804F0BEFB002084F8BC0310BDAC
:1028300010B50446D0F8040404F0AAF82068D0F8D3
:10284000001E41F00101C0F8001E206A002804D0DB
:102850000248016841F00601016010BD10ED00E082
:1028600001460020012907D11049096811F400012F
:1028700003D0012900D10E4870470C48001F0168A1
:102880000068490200F03F0001D50A4900E00A490A
:10289000064AB1FBF0F07C321168C1F38811414364
:1028A0001068C0F30270B1FBF0F0704708380240C6
:1028B0000080BB0000127A000024F4002DE9F843E8
:1028C000054600684FF00109C1074FF0000601D12D
:1028D000400727D5DFF80C81C8F86860FEF78CFA4E
:1028E0000746414C05E000BFFEF786FAC01B0228F0
:1028F00057D820680001F7D468688101287A41EA36
:102900000070394984310860C8F86890FEF774FA9D
:10291000074604E0FEF770FAC01B022841D8206881
:102920000001F7D52878800752D52F48403001683C
:1029300041F08051016000682C4C00F08050009004
:10294000206840F480702060FEF756FA074604E0E5
:10295000FEF752FAC01B022823D82068C005F7D51D
:10296000214C7034206810F4407020D0A98901F403
:10297000407181421BD020681D4920F44070C1F88D
:1029800000900E6020602068C00710D0FEF734FA77
:10299000064641F2883707E0FEF72EFA801BB84260
:1029A00002D90320BDE8F88320688007F4D5E968E0
:1029B0000D48C1F301220830032A0BD0016821F42D
:1029C000F81101602068A989C1F30B010843206058
:1029D0000020E7E70268074B22F4F81219400A4387
:1029E0000260EFE7000047420038024000700040FC
:1029F000400E4742FFFCFF0F2DE9F0470E46050051
:102A000065D0DFF81481D8F80000F7B200F00700B5
:102A1000B04207D288F80070D8F8000000F0070034
:102A2000B04254D128683D4C810712D5400703D5E8
:102A3000206840F4E05020602878000703D5206823
:102A400040F4604020602068A96820F0F00008434E
:102A500020602878C0072DD03049686808390128DF
:102A600012D0022813D0032811D009688907002941
:102A70002DDA216821F0030101432160FEF7BCF942
:102A8000814641F2883A0EE009688903EFE7096858
:102A90008901ECE7FEF7B0F9A0EB0901514502D935
:102AA0000320BDE8F0872068696800F00C00B0EBF7
:102AB000810FEFD1D8F80010404601F00701B14274
:102AC00007D90770006800F00700B04201D001206C
:102AD000E7E72878400705D52068E96820F4E0504A
:102AE000084320602878000706D52068296920F46B
:102AF000604040EAC100206000F0F8F82168084A10
:102B0000C1F30311515CC8400649086006480068DB
:102B1000FFF740F90020C4E7003C024008380240BB
:102B2000E4A8000870000020680000202DE9F041B2
:102B3000FEF762F9444C0546206840F00100206031
:102B400005E000BFFEF758F9401B022847D820686F
:102B50008007F7D5206840F080002060FEF74CF930
:102B60000546394E00200836306041F2883704E0CF
:102B7000FEF742F9401BB84231D8306810F00C0F14
:102B8000F6D1FEF739F90546206820F45020206080
:102B900005E000BFFEF730F9401B64281FD820680D
:102BA0008003F7D4FEF728F90546206820F08070EE
:102BB000206004E0FEF720F9401B02280FD82068AF
:102BC0008001F7D4FEF718F90546206820F08060F0
:102BD000206007E0FEF710F9401B022802D903200D
:102BE000BDE8F08120680001F4D417491748091D99
:102BF0000860154916488431086013480C30016894
:102C000021F4F8510160016821F40051016001686C
:102C100041F41F010160016841F4001101600A489C
:102C20007430016821F001010160016841F0807198
:102C3000016009490748086008480068FFF7AAF8DA
:102C40000028CDD00120CBE700380240103000042E
:102C5000003000200024F4007000002068000020F4
:102C60000F2202600C4A136803F0030343601368E9
:102C700003F0F0038360136803F4E053C360126849
:102C80004FF4E05303EAD20202610448006800F006
:102C9000070008607047000008380240003C02400E
:102CA0000148006870470000700000200448054992
:102CB00000680968044AC1F38221515CC84070472A
:102CC0007000002008380240F4A8000804480549B4
:102CD00000680968044AC1F34231515CC84070473A
:102CE0007000002008380240F4A80008154810B50C
:102CF000006810F00C02144813D04110042A0FD0C1
:102D0000082A0ED10F4C241F2268236802F03F02CC
:102D10005B0207D52068C0F38810A0FB010106E024
:102D2000084610BD2168C1F38811A1FB00010023F2
:102D3000FDF7A8FA2168C1F30141491C4900B0FB25
:102D4000F1F010BD083802400024F4002DE9F84FDE
:102D500004006ED02078DFF84C93C007A9F1040579
:102D60004AD009F104000168C1F38101012908D0AA
:102D70000068C0F3810002280AD1D9F8000040029F
:102D800006D52868800337D560680028E1D033E095
:102D90006068B0F5803F10D0B0F5A02F286810D043
:102DA00020F480302860286820F480202860606843
:102DB000A8B1FEF721F806460DE0286840F48030FF
:102DC000F4E740F480202860F7E700BFFEF714F82E
:102DD000801B642873D828688003F7D50CE0FEF7C1
:102DE0000BF8064605E000BFFEF706F8801B6428D6
:102DF000F0D828688003F7D42078DFF8AC82800709
:102E00004FF0000A3ED5A748001D016811F00C0FD5
:102E100008D00068C0F3810002280BD1D9F8000067
:102E2000400207D42868800716D5E068012800D141
:102E300012E033E1E068B8B10120C8F80000FDF706
:102E4000DBFF064605E000BFFDF7D6FF801B02282A
:102E5000C0D828688007F7D52868216920F0F800D5
:102E600040EAC10028600DE0C8F800A0FDF7C4FFEB
:102E7000064604E0FDF7C0FF801B02281FD8286823
:102E80008007F7D42078000722D5864F87486169EC
:102E9000703771B101210160FDF7AEFF064604E015
:102EA000FDF7AAFF801B022809D838688007F7D5EC
:102EB0000EE0C0F800A0FDF79FFF064605E082E0A7
:102EC000FDF79AFF801B02287DD838688007F7D469
:102ED0002078400768D5DFF8CCB100270BF13C0B18
:102EE000DBF80000C0000BD4DBF8001041F080518B
:102EF000CBF80010DBF80000012700F080500090B4
:102F00006B4E3068C00510D4306840F4807030607B
:102F1000FDF772FF009005E0FDF76EFF0099401A83
:102F2000022850D83068C005F6D55E4EA0686C36D1
:102F300001280FD00528306810D020F00100306043
:102F4000306820F004003060A068B8B1FDF754FF8D
:102F500000900FE0306840F00100F4E740F004001A
:102F60003060F7E7FDF748FF0099411A41F28830D9
:102F7000814266D830688007F4D50EE0FDF73CFF4B
:102F8000009007E0FDF738FF0099411A41F28830C0
:102F9000814256D830688007F4D42FB1DBF8001096
:102FA00021F08051CBF80010A069C8B33D49091D3C
:102FB0000968C1F3810102294AD00228504607D08E
:102FC000C8F8600000E03CE0FDF716FF04463BE077
:102FD0004746C8F86000FDF70FFF064605E000BF52
:102FE000FDF70AFF801B02282BD828688001F7D440
:102FF000D4E907010843A16A2E4A490802EB0141BE
:10300000626A41EA8211084394F82C1040EA016197
:10301000C9F8001001203866FDF7EEFE044606E010
:103020003EE000BFFDF7E8FE001B022809D8286833
:103030008001F7D534E000BFFDF7DEFE001B02285B
:1030400002D90320BDE8F88F28688001F4D427E076
:103050000128F7D0D9F80000E26900F4800191421C
:103060001CD1226A00F03F01914217D147F6C0718E
:10307000626A0140B1EB821F10D1A26A4FF0FF33A8
:1030800000F4403103EB5202B1EB024F06D194F849
:103090002C1000F07060B0EB016F01D00120D1E77F
:1030A0000020CFE70438024000004742800E47422C
:1030B000007000400000FFFF7047000038B5016855
:1030C00004464A688868C043430606D5C30704D14E
:1030D000D3435B0601D4216C05E0830708D4D343B6
:1030E0001B0605D4616C01B02046BDE8304008479E
:1030F000830603D5430601D5C30551D4D3439B06AC
:103100004ED443060AD494F85130032B49D0636D52
:1031100043F004036365CB688B680093830609D48E
:10312000636D43F0010363658B6800930B6823F0C4
:1031300040030B60C00506D4606D40F00800606578
:10314000206880680090606D002829D02068416860
:1031500021F0E0014160012084F85100900701D482
:10316000D00722D02068416821F003014160114D51
:10317000E06C40B10565E06CFDF7A7FB18B1606D30
:1031800040F040006065A06C002809D00565A06C87
:10319000FDF79BFB002803D0606D40F040006065A8
:1031A00038BDC8688868009038BD2046FFF784FFA6
:1031B00038BD00001154000870B5040009D0606AE1
:1031C000002540B125616561A56294F8510040B1C8
:1031D0000CE0012070BD6068B0F5827FF4D0E5613D
:1031E000F2E784F85050204600F044F8022084F8BA
:1031F00051002068016821F040010160A088218908
:1032000000F4827001F404410843A18901F40061D3
:103210000843217C01F002010843217D01F00101F6
:103220000843218B01F400710843217F01F038012C
:10323000084394F8201001F080010843218D01F427
:103240000051084321680860A069042101EA104088
:1032500094F8241001F010010843216848602068A8
:10326000C16921F40061C1616565012084F85100E4
:10327000002070BD2DE9F04186B006461421684655
:10328000FDF74AF82949306888424CD12848002582
:10329000016841F4805101600068254900F48050C4
:1032A00014390590086840F001000860086800F0D3
:1032B00001000590086840F00200086008680224D8
:1032C00000F002000590C02003274FF005088DE8AC
:1032D000B10169461748FDF791FC08208DE8B1015E
:1032E00069461548FDF78AFC154C1448206078069D
:1032F00060604020C4E902050001C4E90405A5613D
:10330000E561256220466562FDF7C4FB08B1FDF763
:1033100090F9B464002205212320A663FEF79EFDE8
:103320002320FEF78DFD06B0BDE8F081003001409E
:103330004438024000000240000402405864024049
:10334000F40500202DE9F84F044690F850000027BE
:103350001D461646894601280DD04FF0010B84F812
:1033600050B0FDF749FD804694F85100BA46012857
:1033700004D0022793E00220BDE8F88FB9F1000FD6
:1033800073D0002E71D0032084F85100C4F854A0EB
:10339000C4F83090A686E686C4F838A0A4F83CA00D
:1033A000A4F83EA0C4F844A0C4F840A0A068B0F5BA
:1033B000004F09D12068016821F0400101602068B8
:1033C000016841F48041016020680168490603D426
:1033D000016841F040010160E068B0F5006F60688D
:1033E00003D030B3012E24D041E008B1012E1CD10E
:1033F000206B21680088C86006E020688168890722
:1034000009D5216B0988C160206B801C2063E08E88
:10341000401EE08609E0FDF7EFFCA0EB0800A842A3
:1034200002D3681C01D031E07DB3E08E0028E4D1E6
:1034300020E0206B21680078087306E0206881682E
:10344000890709D5216B09780173206B401C206323
:10345000E08E401EE0860AE0FDF7CEFCA0EB0800FF
:10346000A84203D3681C02D010E017E06DB1E08ED3
:103470000028E3D142462946204602F019F808B157
:1034800020206065A06818B106E0FFE7032706E08A
:103490002068C16880680090606D00B1012784F8E1
:1034A00051B084F850A0384666E700002DE9F0419D
:1034B000044690F850000026012809D0012784F81E
:1034C000507094F851000025012804D002264EE0E7
:1034D0000220BDE8F08189B182B1032084F8510057
:1034E00065652163A286E286A56365642564A58778
:1034F000E587A068B0F5004F02D00BE0012636E06A
:103500002068016821F0400101602068016841F4F1
:1035100080410160A16C18480864A16C1748C86319
:10352000A16C1748C864A06C0565E38E2268216B06
:103530000C32A06CFDF718FB38B1606D40F0100044
:103540006065012684F8517011E020680168490621
:1035500003D4016841F0400101602068416841F0F6
:10356000200141602068416841F00201416084F817
:1035700050503046ADE70000435400084D54000859
:103580002154000805F0EEBF7047704770470000F7
:1035900070B590F83C20012A32D0012480F83C40DC
:1035A000022280F83D2003685A689D6822F0700668
:1035B0000A6832435A60134B02689A4214D0B2F13F
:1035C000804F11D0104B9A420ED0104B9A420BD024
:1035D0000F4B9A4208D00F4B9A4205D00E4B9A429D
:1035E00002D00E4B9A4204D1496825F0800319435A
:1035F000916080F83D40002180F83C10084670BD85
:10360000022070BD0000014000040040000800409E
:10361000000C004000040140004001400018004040
:1036200010B5040003D094F83D0010B107E001206C
:1036300010BD002084F83C00204600F01FF8022056
:1036400084F83D00211D206802F072F8012084F802
:10365000460084F83E0084F83F0084F8400084F877
:10366000410084F8420084F8430084F8440084F860
:10367000450084F83D00002010BD000008B5114A47
:1036800001681148914211D1016841F004010160C3
:103690000068002200F00400009005211E20FEF7C3
:1036A000DDFBBDE808401E20FEF7CABB074A914279
:1036B00007D1016841F008010160006800F00800CE
:1036C000009008BD0008004040380240000C004057
:1036D00090F83D10012901D001207047022180F8A7
:1036E0003D1000681149884214D0B0F1804F11D0CC
:1036F0000F4988420ED00F4988420BD00E498842AC
:1037000008D00E49884205D00D49884202D00D49A3
:10371000884204D1816801F00701062903D00168BD
:1037200041F00101016000207047000000000140ED
:103730000004004000080040000C0040000401406C
:10374000004001400018004090F83D10012901D0D0
:1037500001207047022180F83D100168CA6842F0DC
:103760000102CA6000681149884214D0B0F1804F4C
:1037700011D00F4988420ED00E4988420BD00E4915
:10378000884208D00D49884205D00D49884202D0B0
:103790000C49884204D1816801F00701062903D051
:1037A000016841F001010160002070470000014004
:1037B0000004004000080040000C004000040140EC
:1037C000004001400018004070B5044690F83C00ED
:1037D0000025012817D0012684F83C60022084F8D7
:1037E0003D002068826822F0770222F47F428260E6
:1037F0000868502838D00DDC20284FD005DC90B365
:10380000102811D14AE0022070BD302846D040284F
:103810000AD13BE060282FD070280DD0B0F5805F32
:1038200003D0B0F5005F12D0012584F83D60002080
:1038300084F83C00284670BDCB68D1E9012120689E
:1038400001F0DAFF2068816841F0770109E0CB6878
:10385000D1E90121206801F0CFFF2068816841F49F
:1038600080418160E1E719E0CA684968206801F099
:10387000D5FF5021206806E0CA684968206801F039
:10388000DEFF6021206801F0C1FFCEE7CA68496809
:10389000206801F0C3FF40212068F4E72268014658
:1038A0001046F0E7704770B50446006801694FF0B4
:1038B0000005C943890715D4C168C943890711D4D4
:1038C000E91E016101202077206880698007204679
:1038D00002D0FFF7E7FF04E000F098F8204600F080
:1038E00096F8257720680169C943490717D4C1684C
:1038F000C943490713D46FF0040101610220207706
:103900002068806910F4407F204602D0FFF7CAFF8C
:1039100004E000F07BF8204600F079F82577206875
:103920000169C943090716D4C168C943090712D4FC
:103930006FF008010161042020772068C0698007CA
:10394000204602D0FFF7AEFF04E000F05FF820460B
:1039500000F05DF8257720680169C943C90617D4CE
:10396000C168C943C90613D46FF010010161082072
:1039700020772068C06910F4407F204602D0FFF70E
:1039800091FF04E000F042F8204600F040F825776F
:1039900020680169C943C90708D1C168C943C9077B
:1039A00004D1891E0161204600F032F820680169C7
:1039B000C943090609D4C168C943090605D46FF093
:1039C000800101612046FFF7E0FD20680169C943DD
:1039D000490609D4C168C943490605D46FF04001BE
:1039E0000161204600F02AF820680169C943890670
:1039F0000BD4C168C943890607D46FF02001016167
:103A00002046BDE87040FFF7C1BD70BD70477047EC
:103A100010B5044600680749884201D1FEF798F9BD
:103A200005492068884203D1BDE8104005F0B6BDC5
:103A300010BD0000002000400008004070477047A3
:103A400070470000F8B5016804460868CA684B6909
:103A500010F00F0F4FF000055AD003F0010602F4EA
:103A60009077374365D0C10705D0D10503D5216CC8
:103A700041F001012164410705D5D90703D0216C2C
:103A800041F002012164810705D5D90703D0216CDB
:103A900041F004012164010707D502F02001314300
:103AA00003D0216C41F008012164216C00293BD036
:103AB000800604D5900602D5204602F065F92068FC
:103AC0004069216CC0F3801001F0080101432046D9
:103AD0002BD002F024F920684069400621D52068E7
:103AE000143050E8001F21F0400140E80012002A85
:103AF000F5D1A06BA8B16C490165A06BFCF7E5FEA0
:103B0000002811D0A06B016D01B0BDE8F04008475E
:103B100083060ED593060CD52046BDE8F84002F08A
:103B200033B92046FFF78CFFF8BDFFF789FF256406
:103B3000F8BD266B2023012E79D1C60677D5D6068F
:103B400075D50868486800904869400640D5A16B63
:103B5000086840680004000CEAD0A28D8242E7D9D0
:103B6000E085C869B0F5807F2DD020680C3050E822
:103B7000001F21F4807140E80012002AF5D120686E
:103B8000143050E8001F21F0010140E80012002A23
:103B9000F5D12068143050E8001F21F0400140E8C2
:103BA0000012002AF5D184F83E30256320680C30DD
:103BB00050E8001F21F0100140E80012002AF5D162
:103BC000A06BFCF739FEA08DE18D401A81B229E08F
:103BD000A08DE18D401A81B2E08D0028A8D0002987
:103BE000A6D020680C3050E8002F22F4907240E8F4
:103BF0000026002EF5D12068143050E8002F22F066
:103C0000010240E80026002EF5D184F83E302563FD
:103C100020680C3050E8002F22F0100240E800230A
:103C2000002BF5D12046FFF70AFFF8BDFFE7050698
:103C30002BD5150629D594F83D002128F5D1A0688B
:103C4000B0F5805F01D12069B0B1206A411C2162CA
:103C5000216800784860E08C401E0004000CE0847D
:103C6000E3D12068C16821F08001C1602068C1688B
:103C700041F04001C160D8E7206A0088C0F3080025
:103C80004860206A801C2062E5E74006CDD55006DA
:103C9000CBD5CA68204622F04002CA6084F83D3085
:103CA00000F0C1F8C1E70000295C000870B504000D
:103CB00004D094F83D00002510B106E0012070BD4D
:103CC00084F83C50204600F023F8242084F83D007E
:103CD0002068C16821F40051C160204602F0B4F8A8
:103CE0002068016921F4904101612068416921F057
:103CF0002A0141612068C16841F40051C160256416
:103D0000202084F83D0084F83E00002070BD0000B3
:103D10002DE9F04186B0064614216846FCF7FCFA0E
:103D20003049306888425AD12F480024016841F058
:103D300010010160006800F0100005902A48143856
:103D4000016841F0010101600068694600F001006E
:103D500005904FF4C06000900220CDE901040320DB
:103D60000390072004902148FCF748FF214D20488C
:103D70004FF000672860C5E901744FF48068C5E919
:103D8000034880156C61C5E906402C6228466C62C8
:103D9000FCF780FE08B1FCF74CFCB563AE63154D33
:103DA000134860357830E5E802074020A5E81101A6
:103DB000104845F814496030AC61EC612C626C62CB
:103DC000FCF768FE08B1FCF734FC7563002205219E
:103DD0002520AE63FEF742F82520FEF731F806B045
:103DE000BDE8F0810010014044380240000002406C
:103DF00040640240A807002090F83E30202B0ED1EE
:103E000059B152B190F83C30012B08D0012380F811
:103E10003C300023036302F09DB80120704702206C
:103E20007047704770477047FEE700000148FCF795
:103E3000EBBF00002C0300200148FDF742B8000052
:103E40002C03002038B5806B002190F83D202B4BCF
:103E500046F2A8141B68B3FBF4F3C3EBC30303EBF4
:103E6000830300933BB15B1E009303681B689B05B3
:103E700005D5009BF6E7036C43F020030364436B16
:103E800003B1D963836B03B1D96303681C6824F45D
:103E900080641C604185436B03B11965836B03B17A
:103EA000196503681C6824F001041C6090F83D400B
:103EB0002023602C0BD0282434EA02020FD080F893
:103EC0003D3080F83E1000BFFDF713F938BD80F893
:103ED0003D3080F83E100164FCF794FF38BD026865
:103EE000136843F0010313600268136843F48063AE
:103EF0001360016380F83D40E6E700007000002099
:103F000070B5044690F83D0094F83E10102901D099
:103F1000402906D1222804D121680A6822F40062CF
:103F20000A60282131EA00024FF000054FF0200618
:103F300026D021684968090505D4602803D084F893
:103F40003D6084F83E50256320684168090537D5F7
:103F5000416821F400614160606B90F835203C4974
:103F6000012A11D00165606BFCF7AFFC38B3206803
:103F7000016821F00101016084F83D60606B1CE084
:103F8000256384F83D10DFE7A06B0165A06BFCF7AB
:103F90009CFCA0B120684169C943490605D4006969
:103FA000616A0870606A401C60622068016821F0E4
:103FB0000101016084F83D60A06B016D884710E04D
:103FC00094F83D10602910D04169C943490605D4D1
:103FD0000069616A0870606A401C60622046FDF7F3
:103FE00088F8206CC1071CD115E084F83D60256479
:103FF0004169C943490605D40069616A0870606A6D
:10400000401C60622068016821F0010101602046C7
:10401000FCF7F8FEE5E7810703D4410701D4000768
:1040200004D52068416821F4E061416094F83D00C6
:10403000216C49070BD5282809D10648E062256381
:1040400084F83D6084F83E502046FDF717F970BDB6
:10405000453E00080000FFFF01684A69D24352054F
:104060000FD46FF480624A61002140F8301F202293
:1040700042738173026942F00402026101730120FC
:1040800070470020704710B5C26A438D0168042B49
:1040900006D0438D032B08D0438D022B1DD012E098
:1040A0004A6822F480624A600CE04B6823F4806323
:1040B0004B60042A06D0022A04D001680A6822F460
:1040C00080620A6001680969426A1170416A491C8C
:1040D0004162418D491E418510BD012A30D0102A10
:1040E0002ED0042A30D0022A2ED00A6842F4007260
:1040F0000A6001680969426A1170416A491C41629B
:10410000428D521E4285026812690A70416A491C3A
:104110004162418D491E418501684A6822F440721E
:104120004A60202180F83D1090F83E200021402A6E
:1041300080F83E100CD012210163FDF7A0F810BDED
:104140000A6822F48062D3E70A6842F48062CFE70B
:104150000163FDF71FFA10BD38B590F83D10222914
:1041600014D1418D032912D901680969426A11707D
:10417000416A491C4162418D491E4185418D032997
:1041800004D10068416821F48061416038BDC26A91
:10419000022AFBD0012901D00029F7D1274946F294
:1041A000A81300220968B1FBF3F101EB8101009132
:1041B00001682023009C641E009422D00C68A40592
:1041C000F8D40C6824F480640C6001684C6824F412
:1041D000E0644C6001680969446A2170416A491CC5
:1041E0004162418D491E418580F83D3090F83E1076
:1041F00080F83E2040291DD012210163FDF73FF8D1
:1042000038BD046C44F0200404644C6824F4E06479
:104210004C6001680969446A2170416A491C416225
:10422000418D491E418580F83D3080F83E20FCF7E5
:1042300060FF38BD0263FDF7ADF938BD70000020A6
:104240002DE9F84F0446C06A1E4693460D46216884
:104250000A6842F480620A60082807D0012805D065
:1042600010F5803F02D0206B112804D1206801682E
:1042700041F4807101604FF001195B46002249460C
:104280002046009600F09AFB4FF4007840B1206879
:104290000068C00501D5C4F840800320BDE8F88F50
:1042A0002069DFF884A0B0F5804F0FD00620216888
:1042B00000EAD51747F0F000086133465A460AF184
:1042C0000601204600F0AEFB58BB03E0E8B240F028
:1042D00001001CE02168E8B2086133465A465146A5
:1042E000204600F09FFBE0B9206841698169009198
:1042F000016841F4807101605B4600224946204616
:10430000009600F05BFB0028C1D147F0F100216866
:10431000086133465A465146204600F083FB002888
:10432000BCD00120BAE7000002000100F8B5044645
:10433000C06A1E460D461746082807D0012805D03A
:1043400010F5803F02D0206B122804D1206801684C
:1043500041F480710160134600224FF001112046A4
:10436000009600F02BFB40B120680068C00502D524
:104370004FF4007020640320F8BD2069B0F5804F31
:104380000ED00620216800EAD51040F0F000086148
:1043900033463A460B49204600F044FB78B902E028
:1043A00005F0FE0000E0E8B22168086105493346E7
:1043B0003A46891F204600F035FB0028DCD001205A
:1043C000F8BD00000800010010B5C26A90F83D1069
:1043D00021290BD1418D51B1416A026809781161DF
:1043E000416A491C4162418D491E418510BD20230F
:1043F0000021082A13D0202A11D012F5803F0ED0B8
:104400000268546824F4E06454601122026380F866
:104410003E1080F83D3000BFFCF733FF10BD02684E
:10442000546824F4E06454600268146844F400742E
:104430001460016380F83D3090F83E2080F83E1013
:10444000402AE9D1FDF7A7F810BD000010B590F89B
:104450003D1090F83E30C26A048DB4B1212903D0DA
:10446000402B11D122290FD1418DE1B390F83E109C
:10447000402942D0416A026809781161416A491CA9
:104480004162418D491E418510BD2129E8D120237B
:104490000021082A13D0202A11D012F5803F0ED017
:1044A0000268546824F4E06454601122026380F8C6
:1044B0003E1080F83D3000BFFCF7E3FE10BD0268FF
:1044C000546824F4E06454600268146844F400748E
:1044D0001460016380F83D3090F83E2080F83E1073
:1044E000402AE9D100E002E0FDF755F810BD006870
:1044F000416821F48061416010BDBDE8104000F0CA
:10450000D3B8000078B590F83E50C26A036B90F8BB
:104510003D6000240168222E7AD1066D0EB9402D2F
:1045200076D0056D1DB90569B5F5404F09D0458DAB
:1045300005B3468D384D012E0ED0438D022B3AD057
:104540005DE04A698A6900920A6842F480720A60F2
:10455000016D491C016578BDAA4213D10A6822F495
:1045600080620A6001684A68120503D50A6822F46D
:10457000806216E04A698A6900920A6842F4007211
:104580000A6039E0082A10D0202A0ED0122B0AD057
:10459000042A03D0022A01D0102AE7D10A6842F483
:1045A00080620A6024E0012AE0D00A6822F4806276
:1045B0000A600168DEE7042A21D0022A1FD0102AEF
:1045C0001DD00B6823F480630B6001680B6843F413
:1045D00000630B6001684B681B0509D5AA4212D025
:1045E000012A10D0082A0ED0102A0CD0202A0AD076
:1045F00001684A6989690091046578BD08E00B6823
:1046000043F48063E5E74A6842F480524A60EFE78A
:10461000486988690090F0E70000FFFF90F83E10BD
:10462000402910D00169B1F5804F19D0016DA9B3AF
:10463000016D012910D1416C5FF0F10201F440716C
:1046400042EAD11106E0016D0029416C05D0C9B2E2
:1046500041F0010100680161704701F0FE01F9E7D6
:1046600090F83D102129416C09D0C9B241F00101F7
:1046700002681161416B29B1C96B49B902E001F0CF
:10468000FE01F5E7816B0029E6D0C96B0029E3D074
:104690000068416841F4006141607047FFE7416C88
:1046A000F02201F44071CBE710B590F83D10026D97
:1046B00022B3026D012A2FD0026D022A1DD12229B8
:1046C0002FD0428D0AB1212933D0428D002A14D136
:1046D000212912D101684A6822F4E0624A60016827
:1046E0000A6842F400720A6000210163202280F807
:1046F0003D2080F83E10FCF74EFF10BDC16C012933
:10470000816C02D0C1F3072108E00268C9B21161CF
:10471000016D891C016510BD816CC9B2026811610F
:1047200004E001680A6842F480720A60016D491C65
:10473000F0E7416A026809781161416A491C4162E7
:10474000418D491E418510BD38B50C4690F83D207D
:1047500000212825954302680B4605D051699169CF
:10476000009180F83C3038BD556825F4806555606F
:10477000E243540700D50121120601D5828900E0E9
:10478000028B80F83C3092B2FCF73DFB38BD000054
:104790002DE9F04190F83D40C26A002320261C4FCD
:1047A00001686FF48065082A01D0202A01D1282CE5
:1047B00004D0212C16D04D61BDE8F081C7624A6853
:1047C00022F4E0624A6001684D6101680A6822F4DF
:1047D00080620A60036380F83D6080F83E30FCF739
:1047E0004DFDE9E7C7622122026380F83D6080F851
:1047F0003E304A6822F4E0624A6001684D61016817
:104800000A6822F480620A60FCF779FFD4E70000AE
:104810000000FFFFF8B590F83D600446006841686D
:1048200021F4E06141602068002541690091016840
:1048300041F0010101602068016821F4806101609C
:1048400020684168090520D5474F222E48D02A2EDE
:1048500046D0616B096849686185618D19B1216C29
:1048600041F004012164416821F400614160606B02
:10487000FCF73DF8012808D0606B0765606BFCF71A
:1048800024F810B1606B016D8847608D08B3206813
:104890004169C943490708D40069616A0870606AC0
:1048A000401C6062608D401E608520684169C9437C
:1048B000490608D40069616A0870606A401C606239
:1048C000608D401E6085608D18B1206C40F0040042
:1048D0002064206C00B32046BDE8F840FFF710BB11
:1048E000A16B096849686185618D19B1216C41F03E
:1048F00004012164416821F400614160A06BFBF771
:10490000F6FF0128C1D0A06B0765A06BFBF7DDFFA8
:104910000028BAD0A06BB6E72A2E06D1256328203E
:1049200084F83D002046FCF7E9FE94F83D10202075
:1049300028290DD0216B222901D0222E07D12563F1
:1049400084F83D0084F83E502046FCF7D7FEF8BDC1
:104950000649E162256384F83D0084F83E50204614
:10496000FCF78CFCF8BD0000453E00080000FFFF8E
:1049700070B516460D4604460DE02046FFF76CFB69
:1049800008B1012070BD681C05D0FCF735FA801B0A
:10499000A84207D835B120684069C0434007ECD42D
:1049A000002070BD002044F8300F20216173A073F7
:1049B000216941F0200121612073E2E72DE9F047F0
:1049C0001E4690460D460446C1F30747DDF8209089
:1049D00008E0701C06D0FCF70FFAA0EB0900B0420B
:1049E0000FD876B12068012F18D0806925EA000021
:1049F0000004000C14D000214145EAD00020BDE89D
:104A0000F087002044F8300F20216173A0732169E2
:104A100041F02001216120730120F0E74069E5E7C2
:104A20000121E9E72DE9F0479A4691460E460446F2
:104A300000254FF02008C1F3074725E020684069B2
:104A4000C043400514D42068016841F4007101603E
:104A500021686FF480604861256384F83D8084F8A4
:104A60003E50206C40F00400206484F83C501FE06D
:104A7000B9F1FF3F08D0FCF7BFF9A0EB0A014945A7
:104A80000CD8B9F1000F09D02068012F13D080692C
:104A900026EA00000004000C0BD0CFE744F8305F9A
:104AA00084F80D80A573206940F0200020612573F3
:104AB0000120BDE8F0874069EAE72DE9F0410025D3
:104AC00090460E460446202717E04069C043C006C2
:104AD0000CD454F8301B6FF01000486144F81059A2
:104AE0006777A577206A2062257717E0FCF784F9BD
:104AF000A0EB0800B04208D83EB120684169C94324
:104B00004906E2D40020BDE8F08144F8305F6773C5
:104B1000A573206940F02000206125730120F2E791
:104B200070B516460D4604460DE02046FFF794FA90
:104B300008B1012070BD681C05D0FCF75DF9801B31
:104B4000A84207D835B120684069C0430006ECD4BC
:104B5000002070BD002044F8300F20216173A07345
:104B6000216941F0200121612073E2E770B5154908
:104B70000268154B4FF040248A4201D11A4600E0EA
:104B80002246D568C26A961CC6621580428E521EA5
:104B90004286428E002A14D102688A4201D1194607
:104BA00000E02146496821F0600100D023465960A9
:104BB000418D002905D14FF0010180F84110FCF72B
:104BC0006BFF70BD003800400034004070B5416A92
:104BD000144B8A1C426205680988134A4FF040242E
:104BE0009D4201D1154600E02546E960418D491EF0
:104BF0004185418D002914D10168994201D11146A6
:104C000000E02146496821F0A00100D02246516011
:104C1000418E002905D14FF0010180F84110FCF7C9
:104C20003BFF70BD003800400034004070B50146C5
:104C3000806BC969B1BB0168CA691D4BC2F301250C
:104C40001A4A4FF04024022D0CD0CD6915F4407F54
:104C500008D04D6825F001054D600168914212D1E0
:104C6000194611E0914201D1194600E021464968F8
:104C700021F0010100D02346596001684A6822F002
:104C800002024A6006E02146496821F0020100D094
:104C9000234659604FF00001418641854FF00101E4
:104CA00080F84110FCF7F8FE70BD000000380040AD
:104CB0000034004030B4806B01684A6822F003027F
:104CC0004A600F4A04680F494FF04023944201D1D3
:104CD0000A4600E01A46526822F0030200D0194644
:104CE0004A604FF00001418541864FF0010180F894
:104CF0004110416C41F00801416430BCFCF7D2BE68
:104D0000003800400034004010B5806BFCF7C9FE4D
:104D100010BD7CB5016804468868009094F8410095
:104D20000125042834D10098C00718D04868C04332
:104D3000400614D4C9682046E26A1180E16A891CE1
:104D4000E162618E491E6186618E41B901684A68DF
:104D500022F060024A6080F84150FCF7F5FF0098AD
:104D6000400615D520684168C943890610D44168BA
:104D700021F0600141602068C1688068019084F87A
:104D80004150606C40F0020060642046FCF78AFEEF
:104D900094F84100032834D10098800719D5216880
:104DA0004868C043000614D4626A20461288CA606C
:104DB000616A891C6162618D491E6185618D41B99D
:104DC00001684A6822F0A0024A6080F84150FCF76E
:104DD000BDFF0098000714D520684168C9438906C3
:104DE0000FD4416821F0A0014160206880680090E4
:104DF00084F84150606C40F0040060642046FCF789
:104E000051FE7CBDF0B500230A24302537261F460D
:104E100011E000BFB4EB107F02D905EB107C01E07C
:104E200006EB107C01F813C001EB430C00015B1C86
:104E30008CF80170DBB29342ECD3F0BD7FB5002457
:104E400015480094019402941249039401604FF4B0
:104E50008031C0E901140461047680F820400F49D4
:104E6000C0E90A140125C561C46080F8304045617D
:104E7000FBF788FC08B1FBF7DCFBCDE90045694690
:104E800005480294FBF7D8FB002801D0FBF7D1FBC3
:104E90007FBD000000200140E40200200100000F5F
:104EA000254808B5016841F480010160016801F4FA
:104EB00080010091016841F4001101600068002246
:104EC00000F40010009005210B20FCF7C7FF0B2019
:104ED000FCF7B6FF002205210D20FCF7BFFF0D20D7
:104EE000FCF7AEFF002205211020FCF7B7FF1020D1
:104EF000FCF7A6FF002205211120FCF7AFFF1120CF
:104F0000FCF79EFF002205213A20FCF7A7FF3A207C
:104F1000FCF796FF002205213B20FCF79FFF3B207A
:104F2000FCF78EFF002205214620FCF797FFBDE825
:104F300008404620FCF784BF3038024010B5044AD0
:104F40000021044803F0B8FD0349086010BD0000CB
:104F500028A80008D155000800000020F0B587B04F
:104F600014216846FBF7D8F922480024016841F073
:104F700080010160016801F080010591016841F044
:104F800004010160016801F004010591016841F02C
:104F900001010160016801F001010591016841F022
:104FA000020101600068144E00F002004FF4016538
:104FB0000590002229463046FBF718FF0F4F0022CC
:104FC000D0213846FBF712FF00950125CDE90154A9
:104FD000694630460394FBF711FED020CDE9000569
:104FE0000320CDE9024069463846FBF707FE07B0CB
:104FF000F0BD0000303802400000024000040240D2
:105000000D4810B50B4901600C49416000214FF477
:1050100080428160C0E9031241618161C161016226
:10502000FCF768F8002803D0BDE81040FBF701BB8F
:1050300010BD0000005400402C030020A086010099
:105040000D4810B50B4901600C49416000214FF437
:1050500080428160C0E9031241618161C1610162E6
:10506000FCF748F8002803D0BDE81040FBF7E1BA90
:1050700010BD0000005C004080030020A0860100FD
:105080000C490D4810B54A15C0E900120021012352
:105090008160C0E903324AF64442C0E90521C0E913
:1050A0000713FCF703FD002803D0BDE81040FBF711
:1050B000C0BA10BD003C0040940400200F4810B559
:1050C0000D4901604FF48271416000218160C1602F
:1050D0004FF400720161C0E90512C16101624162D1
:1050E00081620A21C162FEF767F8002803D0BDE89B
:1050F0001040FBF79EBA10BD003001409C05002017
:1051000010B586B0002417480094019402940394CB
:105110000494134905940160A721C0E90114642196
:10512000C0E903148461FEF77BFA08B1FBF781FA4A
:105130004FF48050009069460A48FEF745FB08B1DD
:10514000FBF777FA2020CDE9040404A90548FEF70F
:105150001FFA002801D0FBF76CFA06B010BD000062
:10516000000800405406002010B586B00024164800
:1051700000940194029403940494124905940160EC
:10518000A721C0E90114611EC0E903148461FEF780
:1051900047FA08B1FBF74DFA4FF48050009069468A
:1051A0000948FEF711FB08B1FBF743FA049404A980
:1051B00005480594FEF7ECF9002801D0FBF739FA11
:1051C00006B010BD000C00409C0600200E4810B533
:1051D0000C4901604FF4E1314160002181600C22F3
:1051E000C160C0E904128161C161FEF75FFD08B1D1
:1051F000FBF71FFA04498022BDE8104080390248BD
:10520000FEF7FABD001001406407002010B501222E
:105210000F49104801F0ECF908B1FBF70AFA0E4902
:105220000C4801F0DDFB08B1FBF703FA0B49094814
:1052300000F0DDFF08B1FBF7FCF9064801F04AFC7D
:10524000002803D0BDE81040FBF7F3B910BD000003
:1052500014000020B0080020D00100200802002027
:10526000FEE7FEE70148FCF779BF0000A00F002031
:105270000148FCF773BF0000A00F00200148FCF7B5
:105280006DBF0000A00F00202DE9F04103680D461E
:1052900004461E6C03EB4511D1F8080BD4F810E05E
:1052A0004FF400474FF0200C04F57172BEF1010F6E
:1052B00009D0DFF898E0764539D1020432D500BF35
:1052C000C1F8087B3FE0224B5FEA007E04D59E4296
:1052D00039D90004F4D436E05FEA806E02D5C1F813
:1052E00008CB30E010F0280F2DD19E4201D90004E8
:1052F000E6D4C5EBC50004EB8000D1F8101BD0F854
:105300000432C1F31201591AC0F81412D0F808126D
:105310001944C0F8081295B9D4F8100278B90121DF
:1053200020680AE080060AD5C1F808CB07E035B945
:10533000D4F8100218B90021184601F09BFFE9B219
:105340002046FCF7F1FD0020BDE8F0810A31544F02
:105350000A30544F2DE9F84F0E46C1EBC60100EB61
:10536000810481460568D4E914103C34884202D98E
:105370000120BDE8F88F081AA168814200D20846D2
:10538000C01C870805EB46181BE000BFA0EB010A14
:10539000A068504500D282460AF10300870899F8B8
:1053A000100000901FFA8AF3F2B22846E16802F07A
:1053B00019FAE16801EB0A00E060A16901EB0A005B
:1053C000A061D8F8180980B2B84205D3D4E9050124
:1053D000814201D20028D9D1D4E90501884208D8F8
:1053E00006F00F0101208840D5F834188143C5F834
:1053F00034180020BDE700000148FDF75FBE000043
:105400009C0500200148FCF74EBB000094040020DE
:1054100010B5806B0021C187C186FDF74DFE10BD20
:1054200010B5806B01684A6822F003024A60416D42
:1054300041F010014165012180F85110FDF73CFE5B
:1054400010BD10B5806BFEF79FF810BD38B505464E
:10545000846BFBF7D1FC024628680068C00523D4A2
:105460002068416821F0200141602068416821F0F6
:10547000020141606421204600F01AF818B1606D05
:1054800040F020006065A068002118B92068C2685B
:1054900080680090E186012084F85100606D18B1A9
:1054A0002046FDF709FE38BD2046FEF76BF838BDF3
:1054B00038B504461248134B0068B0FBF3F04FF4C4
:1054C0007A73584300906068B0F5827F0DD10B4627
:1054D000009200228021204600F016F870B1606D25
:1054E00040F020006065032038BD009830B1401EB8
:1054F000009020688068C0430006F6D5002038BDC3
:105500007000002000366E012DE9F8431E469146DA
:1055100088460446089DFBF76FFC401B351AFBF7D5
:105520006BFC074625480068C0F3CB30684338E081
:10553000701C37D0FBF760FCC01BA84203D215B12A
:10554000009860B32CE02068416821F0E0014160E0
:105550006068B0F5827F0BD1A068B0F5004F02D033
:10556000B0F5806F04D12068016821F0400101602E
:10557000A06AB0F5005F09D12068016821F40051EC
:1055800001602068016841F400510160012084F845
:105590005100002084F850000320BDE8F883002566
:1055A000401E00902068816838EA010004D0002184
:1055B0004945BDD10020F0E70121F9E77000002046
:1055C0000178407841EA0020704700F04BB90000B4
:1055D00010B5FFF71BFE104A0021104803F06CFACB
:1055E0000F4C0D4A0021606024320E4803F064FA2B
:1055F000094AA0606C3200210B4803F05DFA064AAC
:10560000206148320021094803F056FAE060206822
:10561000BDE8104004F056B94CA80008CB5500086E
:1056200000000020355600083956000831560008A1
:1056300000F06EB900F0A0B900F0DAB910B54FF083
:10564000E020006904F0FEFE012803D0BDE8104010
:1056500004F002BB10BD000070B596B03021684662
:10566000FAF75AFE14210CA8FAF756FE0025244832
:105670001195129513951495016841F080510160C0
:10568000006800F0805015901E48016841F4804188
:1056900001600068022400F4804015900126009407
:1056A00010200694CDE903600820CDE90750A8201A
:1056B000CDE9090407200B906846FDF747FB08B1C8
:1056C00072B6FEE70CA90F2081E831004FF4A0501C
:1056D0000F904FF48050109005210CA8FDF78CF925
:1056E00008B172B6FEE7C020CDE91204119611A8E8
:1056F000FDF7E4F8002801D072B6FEE716B070BDE1
:1057000040380240007000400248016841F47001D6
:105710000160704788ED00E00148FEF7C4B8000062
:10572000540600200148FEF7BEB8000068080020BB
:10573000F0B50268254C264D264E274F274B4FF0DB
:10574000804CA04209D0604507D0A84205D0B042A5
:1057500003D0B84201D0984204D122F0700E4A68BA
:1057600042EA0E02A0421BD0604519D0A84217D0D1
:10577000B04215D0B84213D0984211D0184DA8426B
:105780000ED0184DA8420BD0174DA84208D0174D87
:10579000A84205D0164DA84202D0164DA84203D10A
:1057A00022F44075CA682A434D6922F080022A43D8
:1057B00002608A68C2620A688262A04201D098428E
:1057C00001D10969016301214161F0BD000001407F
:1057D0000004004000080040000C004000040140AC
:1057E00000400140004401400048014000180040D2
:1057F000001C00400020004010B5846842EA0322EB
:1058000024F47F440A432243826010BD826822F060
:1058100070020A4342F007018160704710B5036AC5
:10582000046A24F001040462846924F0F00444EA68
:10583000021423F00A020A438461026210BD10B50B
:10584000036A23F0100303628369046A23F470433C
:1058500043EA023224F0A00343EA011182610162AB
:1058600010BD0000244802F0D1F9182003F0E4FD37
:10587000234922488860642003F0E2F8DFF884803E
:10588000214C4FF000094D46C4F8009003F0E0FDB4
:10589000002802DA642003F0D3F820680228F2D14D
:1058A000C8F80C50D8F80410491EC8F8041001D5E7
:1058B000C8F804500020124AD4E9025601461432B6
:1058C0000BE000BF02EB40037718801CB7F800C064
:1058D000A3F800C03F885F80891C8D42F2D80B4A34
:1058E000ABB2A2F58061044802F002FA6A000749EF
:1058F000032003F0BBFDC6E78C57002009790008A0
:1059000098B800201C020020E4C80020ACBC002095
:1059100008B5322003F0CEFD134C00BF03F0D6FDD6
:10592000002802DA642003F08BF82068032805D0F1
:105930000528F3D1D4E902210C4811E0D4E9022171
:105940000B48FAF7D0FC4FF480600A4D0090084AEB
:1059500069462846A36802F060F829460348009A81
:1059600002F028F9DAE7000004C900209858002066
:10597000C4C40020C4C0002008B50021174802F0AC
:1059800045FCEF200023024600901946134802F020
:1059900073FF182003F0CCFD12491148124D134C2F
:1059A000C1F8040003F0D0FD002802DA642003F0FF
:1059B00047F820680128F5D1A868401EA86001D5E5
:1059C0000020A8606068012806D00123D4E90221E4
:1059D000024802F0FBFBE5E70023F7E798570020B9
:1059E0002579000898B800201C020020F4C8002087
:1059F0001CB5854802F01FFB834901221C318248F7
:105A0000019102F006FA8049012238317E48009166
:105A100002F0FFF97C49012254318B467A4802F0AA
:105A2000F8F97949012270318A46774802F0F1F994
:105A3000754901228C318946734802F0EAF97249AE
:105A40000122A8318846704802F0E3F970486F4996
:105A50006D4DC1606F4900266F4CC43501612078DF
:105A600038B32670607820B36C4F6748019997ED82
:105A7000000A02F0DEF997ED010A6348009902F08E
:105A8000D8F997ED020A59465F4802F0D2F997ED2E
:105A9000030A51465C4802F0CCF997ED040A4946E6
:105AA000594802F0C6F997ED050A4146564802F0FA
:105AB000C0F9A07800287CD06169002911DB524828
:105AC00000F8C41F9FED560A80ED010ADFED550A6C
:105AD000C0ED020A80ED030A80ED040AC0ED050A5C
:105AE000067694ED070AB5EEC00AF1EE10FA0ADB6D
:105AF000002908DB2946444802F0DFF994ED070A43
:105B000084ED0E0A0CE094ED0E0AB5EEC00AF1EE3B
:105B100010FA05DB002903DB29463B4802F0CDF9EA
:105B2000206900280BDB6169002908DB002801DD02
:105B3000012200E000222946334802F06AF9A069F8
:105B4000002807DB6169002904DBC2B229462E4820
:105B500002F0D6F894ED080AB5EEC00AF1EE10FA9C
:105B600006DB6069002803DB2946274802F017F9A5
:105B700094ED090AB5EEC00AF1EE10FA06DB606991
:105B8000002803DB2946204802F0ECF894ED0A0ACD
:105B9000B5EEC00AF1EE10FA06DB6069002803DBFF
:105BA0002946194802F018F994ED0B0AB5EEC00A1F
:105BB00000E025E0F1EE10FA06DB6069002803DB67
:105BC0002946114802F0B1F894ED0C0AB5EEC00A6E
:105BD000F1EE10FA06DB6069002803DB29460A486B
:105BE00002F094F994ED0D0AB5EEC00AF1EE10FA48
:105BF00006DB6069002803DB2946034802F0CAF986
:105C0000142002F01DFF2AE7A45700204179000864
:105C100098B80020717900081C020020ACC0002058
:105C2000000000000000344310B5806B0021C185E6
:105C3000C184FDF705FF10BD70B5846B2068406915
:105C400094F83D10C0F3C0100025212904D118B1EB
:105C5000E584204600F08AF82068406994F83E10F8
:105C6000C0F38010222904D118B1E585204600F048
:105C700056F8206C40F0100020642046FDF7E0FE4E
:105C800070BD10B50146806B09680968C9052FD43D
:105C90000021C18501680C3151E8002F22F4807287
:105CA00041E80023002BF5D10168143151E8002FA1
:105CB00022F0010241E80023002BF5D101681431E4
:105CC00051E8002F22F0400241E80023002BF5D1DB
:105CD000202180F83E10016B012909D101680C31A7
:105CE00051E8002F22F0100241E80023002BF5D1EB
:105CF000016B012902D0FEF794F810BD818DFDF7EC
:105D00009EFE10BD10B5806B016B012902D0FEF71D
:105D100089F810BD818D4908FDF791FE10BD01681D
:105D20000C3151E8002F22F4907241E80023002B3F
:105D3000F5D10168143151E8002F22F0010241E849
:105D40000023002BF5D1016B012909D101680C3129
:105D500051E8002F22F0100241E80023002BF5D17A
:105D6000202180F83E1000210163704701680C314A
:105D700051E8002F22F0C00241E80023002BF5D1AA
:105D8000202180F83D10704708B590F83E10222978
:105D900001D0022008BD82684FF480539A4201D19D
:105DA000016921B1816A9A421BD04AB10AE00268B6
:105DB000816A5268C2F308020A80816A891C08E07D
:105DC000026972B10268526802F07F020A70816A49
:105DD000491C8162C18D491E0904090CC18503D08B
:105DE00019E002685268F1E70168CA6822F02002EF
:105DF000CA600168CA6822F48072CA6001684A6990
:105E000022F001024A61202180F83E10016B012935
:105E100003D0FEF706F8002008BD002101630168E9
:105E20000C3151E8002F22F0100241E80023002B32
:105E3000F5D101680A68D20602D50A68496800915E
:105E4000818DFDF7FCFDE6E770B504460068016949
:105E5000E26821F44051114301612169A068E269BF
:105E600008436169114308432168CA6849F20C6319
:105E70009A430243CA6020684169A26921F44071D3
:105E80001143416131492068884202D0304988423B
:105E900002D1FCF71BFF01E0FCF708FFE2690023D9
:105EA000192164253226B2F5004F626828D0A0FB84
:105EB0000101930F9200FAF7E5F90146B0FBF5F006
:105EC0006FF01802504301EB800006EB0010B0FBAE
:105ED000F5F000F0F002B1FBF5F002EB0012B1FBBF
:105EE000F5F06FF01803584301EB800006EB00104B
:105EF000B0FBF5F000F00F0021681044886070BD21
:105F0000A0FB010192185B41FAF7BCF90146B0FB16
:105F1000F5F00201B1FBF5F06FF01803584301EB07
:105F2000800006EBC000B0FBF5F000F0F80002EBDB
:105F30004002B1FBF5F0584301EB800006EBC000D6
:105F4000B0FBF5F000F00700D6E7000000100140BC
:105F50000014014038B5816282850025134604464D
:105F60000564222084F83E00A26B1B48D063A26B1C
:105F70001A481064A26B1A48D064A06B0A460565E3
:105F80002168A06B091DFAF7EFFD206801684068E1
:105F9000009084F83C5020680C3050E8001F41F419
:105FA000807140E80012002AF5D12068143050E8D2
:105FB000001F41F0010140E80012002AF5D12068DD
:105FC000143050E8001F41F0400140E80012002A60
:105FD000F5D1002038BD0000835C0008055D000895
:105FE000395C00080148FDF72DBD00006407002062
:105FF0002DE9F0410C46D0F8C422D0F8BC12F9B11A
:1060000004EB840300EB83050026AB694BB1C4EBC2
:10601000C40702EB8702526CB3FBF2F702FB1732A4
:1060200082B1C1F81462D0F8C00203692BB1D1F873
:106030000802224601F5047198470020BDE8F0816E
:106040000320FBE700231A462146AE6100F0A9FCBD
:10605000F3E770B5D0F8BC4205466CB100F085FBA3
:10606000C4F80C02D5F8C012D4F80402CA6804F5CA
:1060700003719047002070BD032070BD70B50446C9
:10608000812100F0D1FA002525870121204600F06A
:10609000CBFAA4F878518221204600F0C5FAA4F882
:1060A0004C50A4F84E50D4F8BC0248B1D4F8C00209
:1060B00004F52F7440688047206800F060FE25607A
:1060C000002070BD10B5D0F8BC4284B1D0F8C01229
:1060D00059B194F80002FF2807D08B6894F8012288
:1060E00021469847FF2084F80002002010BD0320BD
:1060F00010BD00000A21018000487047F800002010
:10610000432101800048704748010020432101805D
:106110000048704704010020432101800048704777
:106120008C0100202DE9F04704464FF4077000F081
:1061300027FE05004FF0000735D0C4F8BC52207C84
:106140004FF010084FF40079012680B3402302225B
:106150008121204600F072FB268740230222012184
:10616000204600F06BFBA4F87861A4F84E80082369
:1061700003228221204600F061FBA4F84C60D4F891
:10618000C00200688047C5F81472C5F81872207CF8
:10619000D5F80422A8B140230121204600F05AFB83
:1061A0000020BDE8F0870220C4F8BC72F9E7FFE7E1
:1061B0004B4602228121204600F040FB26874B46B9
:1061C000CCE74B46E8E710B5D0F8BC1251B1027CE1
:1061D000002AD1F8042207D04023012100F03AFB25
:1061E000002010BD032010BD4FF40073F5E719B176
:1061F000C0F8C0120020704703207047D0F8BC02DE
:1062000018B1C0F804120020704703207047D0F87E
:10621000BC0228B1C0F81022C0F808120020704754
:10622000032070472DE9FC410646D0F8BC720020DF
:106230000C468DF80000ADF80400054637B1207813
:1062400010F0600128D0202944D102E00320BDE8ED
:10625000FC81E288C2B1000660780AD5D6F8C01287
:106260008B6839469847E288072A00D907223946C1
:1062700028E087F80002A07987F80102E288394611
:10628000304600F06CF82AE0D6F8C01260780022A0
:106290008B682146984722E0607830B101281ED0F3
:1062A0000A2809D00B2815D110E096F89C02032883
:1062B00010D1022201A905E096F89C02032809D119
:1062C00001226946304600F064F808E096F89C0226
:1062D000032804D02146304600F036F8032528462E
:1062E000B5E710B5D0F8BC12012219B1D1F81432BB
:1062F00013B10FE0032010BD0122C1F81422D1F820
:106300001022C262D1F81032D1F80822812100F0A7
:1063100048FB0022104610BD10B5D0F8B8220AB1D3
:1063200052689047002010BD134610B50A46002160
:1063300000F090FA002010BD134610B50A46002167
:1063400000F02FFB002010BD10B50446802100F0A6
:106350000DFB2046BDE81040002100F007BB10B542
:106360000323C0F89432C0F858211346C0F85C21CA
:106370000A46002100F06EFA002010BD10B505217C
:10638000C0F8941200231A46194600F063FA002060
:1063900010BD10B50223C0F8943282611346C26169
:1063A0000A46002100F0FDFA002010BD10B50421BE
:1063B000C0F8941200231A46194600F0F2FA0020A1
:1063C00010BDF8B504460020ADF8000048880D4621
:1063D000010A08295FD2DFE801F05E0409175E5E5A
:1063E0003C45D4F8B412207C0A6819E0207C0226CF
:1063F0000028D4F8B80205D0C16A6846884701462B
:10640000467039E0816AF8E7C0B2062843D2DFE877
:1064100000F0030A1014181CD4F8B402426805E016
:10642000694690471CE0D4F8B402826892B3207C9D
:10643000F6E7D4F8B402C268F8E7D4F8B402026907
:10644000F4E7D4F8B4024269F0E7D4F8B402826900
:10645000ECE7207CF0B9D4F8B802416B6846884775
:10646000014609E0207CA8B9D4F8B802016B68465F
:106470008847014607204870EA888AB1BDF80000C5
:1064800040B1824200D90246ADF800202046FFF715
:1064900080FFF8BDFFE729462046FFF755FFF8E7E4
:1064A0002046FFF783FFF4E770B5002300281ED0D5
:1064B0000025044602E06D1CEDB2641C2678002E17
:1064C000F9D1022404EB450414801278CA545B1CF1
:1064D0000322CA5400245B1C06E0CA545B1CDAB2D7
:1064E0008C54521CD3B2401C0278002AF5D170BDE6
:1064F00001004FF0000004D0012901D0022901D091
:10650000032070470120704710B50A46024903A0D6
:10651000FFF7CAFF004810BD800B00204344432012
:10652000436F6E666967000012200880004870475C
:106530003400002010B50A46024903A0FFF7B4FF5B
:10654000004810BD800B002043444320496E746511
:10655000726661636500000004200880004870478F
:106560003000002010B50A46024903A0FFF79CFF47
:10657000004810BD800B002053544D6963726F6555
:106580006C656374726F6E696373000010B50A46C0
:10659000024903A0FFF788FF004810BD800B0020D0
:1065A00053544D3332205669727475616C20436FB9
:1065B0006D506F727400000010B51A2008800A48F0
:1065C0000168001D0468001D0068081809D0082231
:1065D0000649FEF717FC0549042210312046FEF754
:1065E00011FC0248801E10BD107AFF1F4A000020D7
:1065F00078B10023C0F8B832C0F8C032C0F8CC324D
:1066000009B1C0F8B412012180F89C12027000F0A8
:10661000B1B80320704710B5D0F8C402FBF7B8FC3E
:10662000BDE81040FFF764BF10B5D0F8C402FBF717
:1066300089FCBDE81040FFF75BBF70B51646044605
:1066400021B194F89C02032841D048E0D4F8941278
:1066500004F114000025022932D1D0E902318B4225
:1066600006D95A1A826031462046FFF765FE0FE0D0
:10667000994214D14068884211D3D4F898128842C4
:106680000DD2002211462046FFF756FEC4F898525C
:1066900000231A461946204600F0DCF810E094F872
:1066A0009C02032805D1D4F8B802C16809B120467C
:1066B00088478021204600F059F92046FFF75EFE0A
:1066C00094F8A00201280AD184F8A05207E0D4F877
:1066D000B80242691AB120469047002800D1002034
:1066E00070BD10B51346044621B194F89C020328EE
:1066F00023D02AE0D4F8941204F5AA70032924D1F7
:10670000D0E9021291420AD98A1A8260C068824294
:1067100000D3024619462046FFF706FE15E094F81E
:106720009C02032805D1D4F8B802016909B12046BA
:1067300088472046FFF73AFE07E0D4F8B80282699E
:106740001AB120469047002800D1002010BD00203B
:10675000704710B5012180F89C12D0F8B82212B110
:10676000526801799047002010BDD0F8C402FBF7B1
:106770003DBC000010B50178012929D1154901223D
:10678000C1F80404C0F8C412134808600620486029
:106790000020C1E90302C1E9062008624862C8621C
:1067A000086348630846FBF7FBFE08B1F9F741FFB1
:1067B0004FF400710748FBF784FB80220021054855
:1067C000FBF783FB4FF4BA7201210248FBF77DFB14
:1067D000002010BDA00F0020000004400A0601F0B8
:1067E0007F01D0F8C402C1EBC10100EB810002D5EA
:1067F00090F83E00704790F8FE01704710B5D0F851
:10680000B82222B190F89C32032B02D004E003207E
:1068100010BD126A02B19047002010BD10B5D0F82B
:10682000B82222B190F89C32032B02D004E003205E
:1068300010BD526A02B19047002010BD10B51C4631
:106840001346D0F8C4022246FBF7D9FBBDE810403E
:10685000FFF74EBE10B5D0F8C402FBF700FCBDE850
:106860001040FFF745BE70B50125044680F89C52E4
:106870000020C4F894026060C4F8A402D4F8B802FE
:10688000E0B1D4F8BC1221B1426812B10021204617
:1068900090470022402311462046FFF7CFFF4026B5
:1068A000A4F864513346002280212046C4F8606178
:1068B000FFF7C4FFA5840020266270BD032070BDD1
:1068C00090F89C12042903D190F89D1280F89C1234
:1068D0000020704710B5D0F8B81221B190F89C2272
:1068E000032A02D004E0032010BDC96901B1884722
:1068F000002010BD01740020704710B5D0F8C4020C
:10690000FBF75AFFBDE81040FFF7F2BD70B5044633
:1069100000F2AA20054600F04DF80120C4F89402C8
:10692000B4F8B002C4F8980294F8AA0210F01F015B
:106930000AD001290ED0022912D000F08001204691
:10694000BDE8704000F012B829462046BDE870400E
:1069500000F0C2B829462046BDE8704000F0E6B914
:1069600029462046BDE8704000F040B910B5D0F887
:10697000C402FBF798FBBDE81040FFF7B9BD10B5A6
:10698000D0F8C402FBF733FFBDE81040FFF7B0BDFD
:1069900090F89C1280F89D12042180F89C1200202F
:1069A000704710B5D0F8C402FBF7B7FBBDE8104044
:1069B000FFF79EBD70B5054611F8010B28700878E9
:1069C00068704C1C2046FEF7FBFD6880A41C204626
:1069D000FEF7F6FDA880A01CFEF7F2FDE88070BD72
:1069E00038B504460020ADF8000049B1C4F8B8122B
:1069F000C96A19B168468847C4F8CC02002038BD7E
:106A0000032038BD02460320D2F8B832002B02D052
:106A10001B681046184770472DE9F0410F462C4E71
:106A20008978002504463170012906D93946204667
:106A3000FFF78AFC0320BDE8F08194F89C0202284D
:106A40000CD003281DD039462046FFF77DFC317855
:106A50002046FFF761FC03252846ECE799B3204662
:106A60006160FFF7CFFF050004D039462046FFF7ED
:106A70006BFCF1E72046FFF799FC032084F89C02A9
:106A8000EAE74FF00208C1B1606888421BD0C1B28A
:106A90002046FFF741FC317820466160FFF7B2FFE6
:106AA000050010D039462046FFF74EFC21792046DC
:106AB000FFF732FC84F89C82CEE784F89C82204663
:106AC0006160FFF729FC2046FFF770FCC4E7000077
:106AD000F4000020FFF753BF2DE9F0410A780025AC
:106AE00012F0600208D0202A01D0402A71D1D0F8DB
:106AF000B8229268904731E04B78002201260A2B99
:106B000067D2DFE803F0415E6658660805662D2906
:106B1000FFF757FC5FE004468888D8B9C888C8B931
:106B20004888802816D200F07F0794F89C0203283A
:106B300010D084F89E7239462046FFF7DEFE2046CC
:106B4000FFF734FC1FB1022084F89C0243E084F874
:106B50009C6240E020463CE0FFF75EFF05463AE0DD
:106B6000CB88012B35D190F89C32012B04D0022B1D
:106B700002D0032B2DD104E08260012200F1080134
:106B800016E00122011D13E090F89C22012A03D097
:106B9000022A01D0032A1CD1CA88022A19D1C66050
:106BA000D0F8A41209B10321C160022200F10C0146
:106BB000FFF7EFFB0FE0498801290CD1C0F8A46270
:106BC00011E090F89C32012B08D0022B06D0032B49
:106BD00004D0FFF7B9FB2846BDE8F08149880129B8
:106BE000F9D1C0F8A422FFF7E1FBF4E72DE9F04169
:106BF0000D46044628780026097910F060000BD075
:106C0000202801D040286DD1D4F8B80229468268E6
:106C100020469047064686E06878A8B3012822D02F
:106C200003287CD194F89C02022802D0032876D154
:106C30000BE0002973D0802971D02046FFF796FE23
:106C400080212046FFF792FE6DE0688838B931B1A7
:106C5000802904D0E88810B92046FFF787FE204637
:106C6000FFF7A4FB5FE094F89C020228E1D0032820
:106C700055D16888A8BB480602D02046FFF7CBFC58
:106C80002046FFF793FBBFE7FFE794F89C0200273D
:106C9000022802D0032842D111E009B180293ED157
:106CA000080601F07F0000EB800004EB800101D5B5
:106CB000143101E001F5AA7102220F602BE00806F1
:106CC00001F00F0000EB800004EB80000BD5808CFE
:106CD00040B101F07F0000EB800004EB800514352B
:106CE0000CE020E01BE0B0F86401C0B101F07F00CF
:106CF00000EB800004EB800505F5AA7541B1802901
:106D000006D02046FFF76AFD10B10120286000E0A0
:106D10002F60022229462046FFF73BFB03E029466D
:106D20002046FFF711FB3046BDE8F08170B50646FE
:106D3000087800240D4610F0600003D0202801D010
:106D4000402817D196F89C02012803D0022801D0D0
:106D500003280FD1287901280CD8D6F8B802826808
:106D6000304690470446E888204306D13046FFF776
:106D70001DFB02E03046FFF7E7FA204670BD704782
:106D800000487047800D002070B50A78012302F09A
:106D90000F054E78AB401B4CD0F81C58012E17D075
:106DA00045EA0343C0F81C3800EB4210D0F8002B32
:106DB00012040BD4D0F8002B0B89C978C3F30A0353
:106DC0001A4344EA81410A43C0F8002B002070BDF9
:106DD0009BB21D43C0F81C5800EB4210D0F800399C
:106DE0001B04F3D4D0F800390D89C978C5F30A051E
:106DF00089042B4341EA82510B432343C0F80039F5
:106E0000E4E7000000800010D0F800196FF30A01D9
:106E1000C0F80019D0F8041841F48071C0F80418C3
:106E20000020704770B5044606990A9E049D0D988F
:106E3000012916D0E06840F04000E060204600F0F4
:106E40002BF8A16B1EB321F48031A163012D07D172
:106E5000A16841F00601A160A16841F02001A16094
:106E600070BDA16B21F48031A163E168094A114032
:106E7000E160E16821F44011E160012803D1E0689C
:106E800040F48010E060204600F006F8DEE741F4B0
:106E90008031DAE7BFFFBDFF08B500220D4900923F
:106EA000009B5B1C00938B420CD80369002BF7DA24
:106EB0000092026942F001020261009A521C0092A3
:106EC0008A4201D9032008BD0269D207F5D100200A
:106ED00008BD0000400D030030B54C780A7801234E
:106EE00000EB4212012C2CD0D2F8004B002C0BDA14
:106EF000D2F8004B44F00064C2F8004BD2F8004BCB
:106F000044F08044C2F8004BD0F83C580C7804F0B0
:106F10000F0403FA04F425EA0444C0F83C48D0F80E
:106F20001C48097801F00F018B4024EA0341C0F8A6
:106F30001C18D2F8000B19490840C2F8000B0020B9
:106F400030BDD2F80049002C0BDAD2F8004944F0E9
:106F50000064C2F80049D2F8004944F08044C2F805
:106F60000049D0F83C480D7805F00F0503FA05F507
:106F7000ADB2AC43C0F83C48D0F81C48097801F0E9
:106F80000F018B4099B28C43C0F81C48D2F800091D
:106F900003490840C2F80009D1E700000078F3EF88
:106FA000007833ECD0F8001E21F00301C0F8001E79
:106FB000D0F8041821F00201C0F80418002070472E
:106FC000D0F8001E21F00301C0F8001ED0F804180C
:106FD00041F00201C0F80418002070472DE9F04F7D
:106FE00000250E460446DDF82CC0DDF824B0109FC5
:106FF0002846294604EB8002C2F80411401C0F28E1
:10700000F8D32046C7B1806B20F40012A263A06BB6
:1070100040F40022A26308468846C4F8000ED4F863
:1070200000182046C4F80018BCF1010F16D0D0F8A3
:10703000001841F0030116E0D0F8040840F0020205
:10704000C4F80428A06B40F40012A263A06B20F4E3
:107050000022A263A06B20F48022DBE7D0F80018A6
:107060000BB141F00101C0F80018102100F094FAB2
:1070700000B10125204600F07BFA00B10125404611
:10708000C4F81088C4F81488C4F81C8800214FF094
:1070900000694FF0904A4FF67F3314E004EB411241
:1070A000D2F800C9BCF1000F06DA11B1C2F800A98C
:1070B00004E0C4F8009901E0C2F80009C2F8100920
:1070C000C2F80839491C8E42E8D8002115E000BFFB
:1070D00004EB4112D2F800CBBCF1000F06DA11B17B
:1070E000C2F800AB04E0C4F8009B01E0C2F8000B5A
:1070F000C2F8100BC2F8083B491C8E42E8D8D4F8FD
:10710000101821F48072C4F81028A0616FF080403C
:107110006061BBF1000F03D1A06940F01000A061D5
:10712000A06909490843A0610C9818B1A06940F012
:107130000800A061012F03D1A06904490843A061A0
:107140002846BDE8F08F000000383C800400004075
:10715000816821F0010181600020704770B50D78D1
:107160004E78434CEBB200EB4313012E1FD0D3F803
:10717000100B6FF31200C3F8100BD3F8100B204064
:10718000C3F8100B486908B188684861D3F8100B40
:1071900040F40020C3F8100BD3F8100B8C68C4F334
:1071A00012042043C3F8100B012A55D058E04E6951
:1071B000002ED3F8106932D06FF31206C3F81069AD
:1071C000D3F810692640C3F810694E698C68A6424E
:1071D00000D94C61D3F8104944F40024C3F8104995
:1071E000D3F810494E69C6F312063443C3F8104968
:1071F000012A22D000EB4512D2F8003943F00443B3
:10720000C2F800394A6932B3D0F83428097801F05D
:107210000F03012199400A43C0F8342826E0264094
:10722000C3F81069D3F8104944F40024C3F8104996
:10723000D3F810496FF31204D8E7096919B100EBCC
:107240004512C2F8141900EB4510D0F8001941F0AE
:107250000441C0F8001909E0C86808B1C3F8140B6C
:10726000D3F8000B40F00440C3F8000B002070BDC1
:10727000FFFF07E010B5036C134CA34203D9D0F80D
:10728000003B002B1EDB0023C0F8103BD0F8103B66
:1072900043F40023C0F8103BD0F8103B43F0180330
:1072A000C0F8103BD0F8103B43F0C043C0F8103B8F
:1072B000012907D1C0F8142BD0F8001B41F0802120
:1072C000C0F8001B002010BD0A30544F4A780B78DC
:1072D000012A00EB43100BD0D0F8002B22F400124F
:1072E000C0F8002BC978032914D0022912D017E066
:1072F000D0F8002922F40012C0F80029C978032927
:1073000001D002290CD1D0F8001941F08051C0F809
:10731000001905E0D0F8001B41F08051C0F8001BB7
:10732000002070470A784B78D1B200EB4110012B56
:1073300012D0D0F8001B002906DB2AB1D0F8001BC0
:1073400021F08041C0F8001BD0F8001B41F400116F
:10735000C0F8001B00207047D0F80019002906DB98
:107360002AB1D0F8001921F08041C0F80019D0F8F6
:10737000001941F40011C0F80019EBE7F8B50C78DA
:107380004F78774DE3B26FF0604600EB4313012F67
:1073900026D0D3F8104B6FF31204C3F8104BD3F878
:1073A000104B2C40C3F8104B4C69002C74D08D68E6
:1073B0002C44641EB4FBF5F4D3F8105BA4B206EAC7
:1073C000C4463543C3F8105BD3F8105B8E68664340
:1073D000C6F312042543C3F8105B012A71D0A6E05E
:1073E0004F691FB3D3F810796FF31207C3F8107900
:1073F000D3F810792F40C3F810794F698D682F4466
:107400007F1EB7FBF5F506EAC545D3F8106935438D
:10741000C3F81059D3F810594E69C6F31206354314
:10742000C3F81059CD78012D10D01BE0D3F81069A6
:107430002E40C3F81069D3F8105945F40025C3F85D
:107440001059D3F810596FF3120509E0D3F8105909
:1074500025F0C045C3F81059D3F8105945F0005530
:10746000C3F81059012A18D000EB4413D3F800498F
:1074700044F00444C3F80049CC78012C2FD04A6969
:1074800062B3D0F83428097801F00F030121994044
:107490000A43C0F8342860E036E00A691AB100EB0C
:1074A0004413C3F81429C97801290FD1D0F808185A
:1074B000C90500EB4411D1F8002903D442F0005271
:1074C00002E030E042F08052C1F8002900EB4410A5
:1074D000D0F8001941F00441C0F800193DE0D0F89F
:1074E0000848E405D3F8004902D444F0005401E010
:1074F00044F08054C3F8004900928A8A93B20A7813
:10750000C96800F06FF928E0D3F8104B8D68C5F317
:1075100012052C43C3F8104BD3F8104B44F400244D
:10752000C3F8104B59E7CA680AB1C3F8142BC978DD
:1075300001290CD1D0F80808C005D3F8000B02D4FB
:1075400040F0005001E040F08050C3F8000BD3F849
:10755000000B40F00440C3F8000B0020F8BD000011
:10756000FFFF07E0816841F0010181600020704762
:1075700008B500210091102101610649009A521CB2
:1075800000928A4201D9032008BD0269D206F5D4CF
:10759000002008BD400D030008B500220092202203
:1075A00042EA811101610649009A521C00928A4206
:1075B00001D9032008BD02699206F5D4002008BD58
:1075C000400D0300D0F8080810F0060004D002288F
:1075D00003D0062801D00F20704702207047406971
:1075E00000F001007047D0F81818D0F81C080840C7
:1075F00080B27047D0F81818D0F81C080840000C6A
:10760000704710B5D0F81038D0F8342801F00F04C6
:1076100000EB4110E24002F00102D0F8080943EA11
:10762000C212104010BD00EB4111D1F8081BD0F878
:10763000140808407047416980690840704730B5B8
:1076400003460846940802F00301002203F5805324
:1076500003E01D6840F8045B521CA242F9D30029E4
:107660000BD01C680022D50024FA05F3491E521CD9
:10767000090400F8013B090CF5D130BD70B5044692
:10768000C068002520F0C040E060012901D079B138
:1076900020E0E06840F00050E0600120F9F79CFA3B
:1076A00060696D1C10F0010F10D1322DF5D30DE083
:1076B000E06840F08040E0600120F9F78DFA6069F1
:1076C0006D1C10F0010F01D0322DF5D3322D01D0F9
:1076D000002070BD012070BDD0F8002822F4FE62A9
:1076E000C0F80028D0F800284FF4FE6303EA011127
:1076F0000A43C0F80028002070470000022A3ED14B
:10770000264A274B0A449A4201D20F2138E0254AE3
:10771000254B0A449A4201D20E2131E0234A244BE0
:107720000A449A4201D20D212AE0224A224B0A44FD
:107730009A4201D20C2123E0204A214B0A449A426A
:1077400001D20B211CE01F4A1F4B0A449A4201D26E
:107750000A2115E01D4A1E4B0A449A420FD31D4AC6
:107760001D4B0A449A4201D2082109E01B4A1144E8
:107770001B4A914201D2072102E0062100E00921C3
:10778000C26822F47052C260C2684FF4705303EAB8
:1077900081210A43C260002070470000405327FF48
:1077A00000350C00401E1BFF40420F0000DC0BFFA9
:1077B000804F1200808CF9FE20D6130060B6E5FEE3
:1077C00060E3160000D3CEFE40771B00C05BB3FE23
:1077D000C091210000CA91FE20753800E05459FE86
:1077E000E09C410010B5029C74B9DB1C9C0800EBC6
:1077F0000230002300F5805004E000BF51F8042B54
:1078000002605B1CA342F9D3002010BDFEE700001C
:1078100010B5002204490548FEF7F9FC0449034865
:10782000FEF7ECFC002010BD8C4F0020B0080020BB
:107830008C470020002070470020704710B50A6870
:1078400004460146054800F00BF921460448FEF7BE
:10785000D5FC0348FEF7B7FC002010BD9858002067
:10786000B008002030B50B4A0568156043685360C6
:1078700083689360C468D46000691061A5F5806076
:10788000573802D11819884201D9002030BD01486B
:1078900030BD000014C900202DE9F0411D46DDE98E
:1078A00006E60346286834681827183840F2574C13
:1078B000844200D90446C2F800C053609760D46087
:1078C000116102F1180022467146F8F70CFD346090
:1078D000183400202C60BDE8F0810000094A10B582
:1078E000D2F8BC22D2F814220AB1012010BD0A46F7
:1078F00001460448FEF78BFCBDE810400148FEF746
:10790000F0BC0000B008002010B501F071FD044982
:107910004868401C4860182801DD1820486010BDE8
:107920001C02002010B501F0DFFD04498868401CEE
:107930008860182801DD1820886010BD1C02002016
:10794000034981EC060A034948700120087070471A
:10795000ACC000201C02002004480068002803D0AE
:107960004FF0FF3102F020BC704700006C02002095
:10797000034B07C30120A3EC070A03F8360C70473A
:107980002C020020F0B51929DDE90854DDE906765E
:10799000DDF814C002D24FF0FF30F0BD0168116075
:1079A000416819608168CCF80010C16839600169CC
:1079B000316041692960007E20700020F0BD002008
:1079C00070472DE9F0472829DDE90D94DDE90B65C5
:1079D000DDE909C7DDF83CA0DDF8208003D24FF0D7
:1079E000FF30BDE8F0870168116041681960816867
:1079F000C8F80010C168CCF800100169396041690D
:107A0000316081692960C269C9F80020016A21607A
:107A1000406ACAF800000020E3E70EB5029302AB0B
:107A2000CDE900230B46024600210620FFF734FF74
:107A30000EBD10B594B0202412948DF808208DF856
:107A4000093003AC12AB84EC070A02AACDE900238B
:107A50000B46024600210820FFF71EFF14B010BDA0
:107A60002DE9F04F8846044693B0934611464046B0
:107A7000FFF7F8FE050036D068684FF0180904F5E6
:107A8000C046032832D0042855D005286ED00728D8
:107A900029D1A96804AF01EB0800E96808AD09AC79
:107AA0000AAB0BAA87E83C000CAD0DAC0EAB0FAADD
:107AB0008DE83C0010AB11AAFFF783FF3369002B60
:107AC00011D0DDE910109DED083ADDED092A9DED9C
:107AD0000A2ADDED0B1A9DED0C1ADDED0D0A9DED68
:107AE0000E0A0F9A984713B0BDE8F08F04F540577F
:107AF00043F2020A78785A4604EB402101EB0A006F
:107B00004146F8F7F0FB787804EB402101EB0A00DE
:107B1000A9680144D5E9032000B10120B3680BB185
:107B2000736898477878401CC0B2B0FBF9F209FB43
:107B300012007870D7E720785A4604EB402041467F
:107B4000401CF8F7D0FB2078A96804EB4020401CCB
:107B50000844E968B26802B190472078401CC0B27E
:107B6000B0FBF9F209FB12002070BCE7A96801AF75
:107B700001EB0800E96805AD06AC07AB08AA87E889
:107B80003C0009AA00920AAB0BAAFFF7FBFEF168C2
:107B90000029A8D09DF81400DDED062A9DED072AE6
:107BA000DDED081A9DED091ADDED0A0A9DED0B0ABF
:107BB000884798E770B514460D46A1B22846FFF7EE
:107BC0008DFE0028F9D170BD70B501F03F04054667
:107BD00022462D2100F06AF844F480722846BDE860
:107BE00070402E2100F062B870B5054611F03F04D8
:107BF00000D140242246362100F058F844F4807227
:107C00002846BDE87040372100F050B870B50446F2
:107C100003220021012002F035F8234900220860E8
:107C20001146204600F042F81B220121204600F0B8
:107C30003DF840F2BF120221204600F037F86F22D3
:107C40000321204600F032F800220621204600F0F1
:107C50002DF810222B21204600F028F84FF48075D3
:107C60002A462F21204600F021F82A4630212046BE
:107C700000F01CF802223121204600F017F80822FB
:107C80000A21204600F012F808220E21204600F0BA
:107C90000DF839212046FFF797FF2046BDE87040D8
:107CA0003C21FFF7A1BF00006C0200207FB50D460C
:107CB0000021019102910391C2F3002141EA4501A3
:107CC0008DF804104FF0FF318DF805200091144617
:107CD0004068022301AA3421F9F7C6FB002804D129
:107CE0003A2D02D2014820F815407FBD70020020D5
:107CF00010B50068F9F7FEFDBDE81040FFF72CBE97
:107D000070B50446212084F8EC000D4684F8ED207F
:107D10000978204600F067F9D4F8E500E860BDE88E
:107D200070404FF4FA70F8F757BF73B50D462DED5C
:107D3000020B04462521684684F8EC100022A318A3
:107D4000815C521C83F8ED10042AF8DB2978204668
:107D500000F049F9D4F8E500E8604FF4FA70F8F75C
:107D60003BFF7FBD73B50D462DED020B044623216D
:107D7000684684F8EC100022A318815C521C83F83A
:107D8000ED10042AF8DB2978204600F02CF9D4F80D
:107D9000E500E8604FF4FA70F8F71EFF7FBD73B599
:107DA0000D462DED020B04462221684684F8EC10A6
:107DB0000022A318815C521C83F8ED10042AF8DB22
:107DC0002978204600F00FF9D4F8E500E8604FF478
:107DD000FA70F8F701FF7FBD73B50D462DED020B6C
:107DE00004462421684684F8EC100022A318815C24
:107DF000521C83F8ED10042AF8DB2978204600F0A5
:107E0000F2F8D4F8E500E8604FF4FA70F8F7E4FE11
:107E10007FBD70B50446FF2084F8EC000D4684F861
:107E2000ED200978204600F0DEF8D4F8E500E8609F
:107E300070BD10B50C46097ED4ED040A94ED051A08
:107E400030EE600A71EE601AD4ED010A80EE211A5C
:107E500094ED020A21B170EEC00A01EE200A05E09D
:107E600070EE601AB0EE600A01EE210A214600F0C1
:107E700024F8207E50B194ED020AD4ED030A30EECE
:107E8000601AD4ED010A30EE600A09E0D4ED030A6D
:107E900094ED010A30EEC01AD4ED020A30EEC00AA9
:107EA000C1EE000A94ED051A94ED040A31EE401A71
:107EB00000EE810A84ED030A10BD73B50C462DED6A
:107EC000020B0546D1ED010A9DED000AF4EEC00A51
:107ED000F1EE10FA19D8D4ED020AF4EEC00AF1EE70
:107EE00010FA12DB0121684685F8EC100022AB186D
:107EF000815C521C83F8ED10042AF8DB21782846B7
:107F000000F071F8D5F8E500E0607FBD73B5054677
:107F10002DED020B0C4691ED050AD1ED040A9DED05
:107F2000001A087E30EE600A71EE600A91ED011AC7
:107F3000C0EE801AD1ED020A20B131EE602AB0EE17
:107F4000600A03E030EEC12AB0EE410A01EE820A77
:107F5000B4EEC01AF1EE10FA1BD8F4EEC00AF1EE3E
:107F600010FA16DB272185F8EC10684600216B1803
:107F7000425C491C83F8ED200429F8DB217828466F
:107F800000F031F8D5F8E500E0604FF4FA70F8F74A
:107F900023FE7FBD73B50D462DED020B04469DED0E
:107FA000000AB5EEC00AF1EE10FA1BDB10EE100A63
:107FB000B0F17E5F16DC2621684684F8EC100022C2
:107FC000A318815C521C83F8ED10042AF8DB297891
:107FD000204600F008F8D4F8E500E8604FF4FA70A5
:107FE000F8F7FAFD7FBD2DE9F843002688460446E0
:107FF00000F1EC070525009505233A464146D4F8E3
:10800000E000F9F731FA761C08B1052EF3D300260B
:1080100004F1E407009505233A464146D4F8E00010
:10802000F9F732F9761C08B1052EF3D3BDE8F84311
:108030000520F8F7D1BD7047C0F8E010002100F826
:10804000041B9FED3D0ADFED3D0A9FED3D1ADFED7C
:108050003D1A0222A0EC040A0423FBEE042A80ED60
:10806000001A01719FED382A027280ED032A9FEDFC
:10807000372A012280ED042A80ED051ABAEE0E2A75
:1080800080ED062AB2EE0E2A80ED072A80F8202025
:1080900080F824309FED2E2A80ED0A1A80ED0B2AFD
:1080A00080ED0C0A80ED0D0AB3EE0E2A80ED0E2A4B
:1080B00080F83C10062380F8403080ED110AC0EDB6
:1080C000120A80ED130AC0ED142AC0ED150A80F8DB
:1080D000581008219FED1F3A80F85C1080ED183A87
:1080E0009FED1D3A0A2180ED193A80ED1A0A80EDC4
:1080F0001B0A80ED1C2A80F8742080F8781080ED2F
:108100001F0AC0ED200A80ED210AC0ED222AC0ED31
:10811000230A80F890200C2180F8941080ED260A24
:10812000C0ED270A80ED280AC0ED291A80ED2A1A31
:1081300080F8AC2014387047000000000000344381
:108140000000B4420000B4C2000070420000C84207
:108150000000F0420000A0420000DC4213B50246DD
:10816000012100F029F850686423012201A9FBF7DE
:10817000E9F81CBDB5EEC00A0848F1EE10FA4FF45C
:10818000006101D8002205E010EE102AB2F17E5FF6
:1081900002DB0122F8F72ABE70470000000002400F
:1081A00013B50246002100F007F85068642301224D
:1081B00001A9FBF7C7F81CBD034809B1102101E074
:1081C0004FF48011016070471804024070B50446F6
:1081D000012015460E4620700BB13C2100E02C21F9
:1081E0002046FFF7DDFF01232A463146204600F0F6
:1081F00073FB05480068002805D0BDE870404FF0CB
:10820000FF3101F0D1BF70BD6802002070B50C468F
:10821000054603220021012001F034FDFE490860DB
:10822000FE494FF4000008600520F8F7D5FC012155
:10823000284600F017FB0A20F8F7CEFC002128465C
:1082400000F010FB7820F8F7C7FCEF212846FFF775
:10825000A7FFEB212846FFF7A3FF14212846FFF7CD
:108260007DFFFE212846FFF79BFFEF212846FFF701
:1082700097FFEB212846FFF793FF14212846FFF7CD
:108280006DFF84212846FFF78BFF40212846FFF72A
:1082900065FF85212846FFF783FFFF212846FFF76A
:1082A0005DFF86212846FFF77BFFFF212846FFF769
:1082B00055FF87212846FFF773FFFF212846FFF768
:1082C0004DFF88212846FFF76BFF0A212846FFF75C
:1082D00045FF89212846FFF763FF21212846FFF744
:1082E0003DFF8A212846FFF75BFF00212846FFF764
:1082F00035FF8B212846FFF753FF80212846FFF7E3
:108300002DFF8C212846FFF74BFF01212846FFF760
:1083100025FF8D212846FFF743FF01212846FFF75F
:108320001DFF8E212846FFF73BFFFF212846FFF760
:1083300015FF8F212846FFF733FFFF212846FFF75F
:108340000DFFB6212846FFF72BFF00212846FFF737
:1083500005FF00212846FFF701FF36212846FFF7D9
:108360001FFF34B1012C06D0022C13D0032C06D1F0
:1083700012E0182100E028212846FFF7EFFE3A21FD
:108380002846FFF70DFF687A40B1012808D002287F
:108390000AD164E24821EFE78821EDE7032100E0FC
:1083A00005212846FFF7DAFE90212846FFF7F8FE60
:1083B00008212846FFF7D2FE08212846FFF7CEFE07
:1083C00008212846FFF7CAFE08212846FFF7C6FE07
:1083D000BD212846FFF7E4FE06212846FFF7BEFE32
:1083E000BC212846FFF7DCFE00212846FFF7B6FE39
:1083F000FF212846FFF7D4FE60212846FFF7AEFE96
:1084000001212846FFF7AAFE04212846FFF7A6FE11
:10841000C3212846FFF7C4FE13212846FFF79EFE1E
:10842000C4212846FFF7BCFE13212846FFF796FE1D
:10843000C9212846FFF7B4FE22212846FFF78EFE09
:10844000BE212846FFF7ACFE11212846FFF786FE25
:10845000E1212846FFF7A4FE10212846FFF77EFE03
:108460000E212846FFF77AFEDF212846FFF798FE07
:1084700021212846FFF772FE0C212846FFF76EFEE9
:1084800002212846FFF76AFEF0212846FFF788FE02
:1084900045212846FFF762FE09212846FFF75EFEC8
:1084A00008212846FFF75AFE08212846FFF756FE06
:1084B00026212846FFF752FE2A212846FFF74EFEC6
:1084C000F1212846FFF76CFE43212846FFF746FEC0
:1084D00070212846FFF742FE72212846FFF73EFE34
:1084E00036212846FFF73AFE37212846FFF736FEA9
:1084F0006F212846FFF732FEF2212846FFF750FE93
:1085000045212846FFF72AFE09212846FFF726FEC7
:1085100008212846FFF722FE08212846FFF71EFE05
:1085200026212846FFF71AFE2A212846FFF716FEC5
:10853000F3212846FFF734FE43212846FFF70EFEBD
:1085400070212846FFF70AFE72212846FFF706FE33
:1085500036212846FFF702FE37212846FFF7FEFDA9
:108560006F212846FFF7FAFDED212846FFF718FE98
:108570001B212846FFF7F2FD0B212846FFF7EEFDF1
:10858000AE212846FFF70CFE77212846FFF7E6FDCF
:10859000CD212846FFF704FE63212846FFF7DEFDC4
:1085A00070212846FFF7FCFD07212846FFF7D6FD7E
:1085B00007212846FFF7D2FD04212846FFF7CEFD0C
:1085C0000E212846FFF7CAFD0F212846FFF7C6FDFA
:1085D00009212846FFF7C2FD07212846FFF7BEFD07
:1085E00008212846FFF7BAFD03212846FFF7B6FD0C
:1085F000E8212846FFF7D4FD34212846FFF7AEFDD9
:1086000062212846FFF7CCFD18212846FFF7A6FD7A
:108610000D21284604E000006802002018040240F2
:10862000FFF79CFD71212846FFF798FDED212846B4
:10863000FFF794FD70212846FFF790FD7021284632
:10864000FFF78CFD18212846FFF788FD0F212846EB
:10865000FFF784FD71212846FFF780FDEF212846B2
:10866000FFF77CFD70212846FFF778FD7021284632
:10867000FFF774FD63212846FFF792FD1821284675
:10868000FFF76CFD11212846FFF768FD7121284690
:10869000FFF764FDF1212846FFF760FD70212846B1
:1086A000FFF75CFD70212846FFF758FD182128468A
:1086B000FFF754FD13212846FFF750FD712128468E
:1086C000FFF74CFDF3212846FFF748FD70212846AF
:1086D000FFF744FD70212846FFF740FD642128463E
:1086E000FFF75EFD28212846FFF738FD292128469F
:1086F000FFF734FDF1212846FFF730FD0121284620
:10870000FFF72CFDF1212846FFF728FD0021284620
:10871000FFF724FD07212846FFF720FD66212846A4
:10872000FFF73EFD3C212846FFF718FD00212846B3
:10873000FFF714FDCD212846FFF710FD67212846DD
:10874000FFF70CFD45212846FFF708FD4521284687
:10875000FFF704FD10212846FFF700FD0021284601
:10876000FFF7FCFC00212846FFF7F8FC0021284613
:10877000FFF7F4FC67212846FFF712FD0021284689
:10878000FFF7ECFC3C212846FFF7E8FC00212846D7
:10879000FFF7E4FC00212846FFF7E0FC0021284613
:1087A000FFF7DCFC01212846FFF7D8FC54212846BE
:1087B000FFF7D4FC10212846FFF7D0FC32212846D1
:1087C000FFF7CCFC98212846FFF7C8FC7421284607
:1087D000FFF7E6FC10212846FFF7C0FC852128465C
:1087E000FFF7BCFC80212846FFF7B8FC0021284693
:1087F000FFF7B4FC00212846FFF7B0FC4E212846C5
:10880000FFF7ACFC00212846FFF7A8FC982128467A
:10881000FFF7C6FC3E212846FFF7A0FC07212846AB
:10882000FFF79CFC35212846FFF7BAFC212128469A
:10883000FFF7B6FC11212846FFF7B2FC7820F8F7C5
:10884000CBF929212846FFF7ABFC1420F8F7C4F92F
:108850002846BDE87040B7EE000AFFF78BBC062142
:108860009FE50000034811B14FF4800100E0402172
:1088700001607047180402402DE9F8430E461C467B
:10888000154680462A21089FFFF78AFC300A8DF89A
:1088900000008DF80160280A8DF802008DF8035061
:1088A000002304226946404600F016F82B2140467A
:1088B000FFF776FC200A8DF800008DF80140380A99
:1088C0008DF802008DF803700023042269464046AB
:1088D00000F002F8BDE8F88370B50D4604460121AA
:1088E000FFF76AFC606892B223B12946BDE8704088
:1088F000FAF7DCBD2946BDE870406423FAF722BDD3
:108900000907090E002804DB00F1E02080F80014BC
:10891000704700F00F0000F1E02080F8141D704750
:1089200002E008C8121F08C1002AFAD17047704738
:10893000002001E001C1121F002AFBD17047000096
:1089400010B51248134A1249C0E9001200240472FB
:10895000114812490160124804600C4811490C305A
:10896000416004720121417204700F490C30FFF71D
:1089700063FB0E4901F5C04044608460C46004613B
:108980000C7001F540514C7010BD00008C57002058
:108990009404002080030020580200209C06002040
:1089A000240C00409C0500202C0300209858002037
:1089B0000A4808B5006800280FD0002100916946D8
:1089C00001F007FB0098002807D005494FF08050C0
:1089D0000860BFF34F8FBFF36F8F08BD6C0200209C
:1089E00004ED00E0F9F7BCF9FAF7A0F8FCF734FE63
:1089F0006420F8F7F1F8FCF7B1FAFCF751FAFCF74C
:108A00001DFAFCF75BFBFCF7E1FBFCF7F9FAFCF75E
:108A100037FBFCF715FBFCF7A7FBFCF771FB0648DF
:108A2000FAF756FE0548FAF78FFE00F017F8FCF744
:108A300085FA00F025F8FEE79C0600205406002089
:108A400010B5EFF3058111B16FF0050403E00024C8
:108A500008B100F011FF204610BD0000EFF30580C3
:108A600010B16FF0050070470448016811B14FF074
:108A7000FF3070470121016000207047C4000020D2
:108A800010B5EFF3058010B16FF0050010BD084878
:108A90000168012902D04FF0FF3010BD054A0021C6
:108AA00082F8141D0221016000F0DEFF002010BDDD
:108AB000C40000200BE000E02DE9FF410B464FF021
:108AC0000005EFF30581039549BB40B380271821CA
:108AD00000244AB3166806B1344696691EB1314681
:108AE000761E382E02D21679F60703D0002004B085
:108AF000BDE8F081566906B1B708D2F808C0BCF1EC
:108B0000000F0DD0D5685C2D18D312693AB136B17B
:108B10008DE806103A46214601F069FC03900DE00D
:108B2000D6685EB912694AB903AACDE90012BAB291
:108B3000214601F02FFC012800D003950398D6E7C9
:108B40002DE9F041134C0F460546E6682068001DEC
:108B500000F05EFD681C07D137B12168BDE8F04127
:108B60000D48091D00F0A4BD20683544B54245609C
:108B7000216805D2A06BBDE8F041091D00F080BD61
:108B8000606B091D00F07CFDA06A854200D2A562E1
:108B9000BDE8F08174000020981800202DE9F04114
:108BA000054600F091FD2D4CA068401CA060206897
:108BB0002B4F10B1606930B32BE02560A06801280D
:108BC00027D1002606EB860007EB800000F04AFD67
:108BD000761C382EF6D3234800F044FD214814308B
:108BE00000F040FD1F48283000F03CFD1D483C309F
:108BF00000F038FD1B48503000F034FD1948606328
:108C00001430A06305E02068E96AC06A884200D891
:108C10002560606A401C60626864E86A2169884275
:108C200000D9206100EB800007EB8000291D00F0D7
:108C30003FFD00F069FD606900280CD02068E96AFA
:108C4000C06A884207D208494FF080500860BFF3DD
:108C50004F8FBFF36F8FBDE8F081000074000020DC
:108C6000E81300204818002004ED00E038B500F0BB
:108C70002BFD104C2068C8B90F4800F0F3FC0E48DB
:108C8000143000F0EFFC0C48E060143020610A4B17
:108C90000020F03B009003F1500210210A2001F067
:108CA00012F8206010B105A100F0B0FDBDE8384019
:108CB00000F02ABDB00000209C190020546D7251B4
:108CC0000000000030B4026C0B46002A0BD0C168D3
:108CD0001144C1608468A14201D30168C16030BC05
:108CE0001846F7F700BB30BC70472DE9F041856BA3
:108CF000174604460026026C82B1C7B1E068F7F758
:108D0000F2FAE168206C091AE1602268914202D20D
:108D1000A168081AE060022F16D017E02068A8B9F1
:108D2000A06801F007FC06460020A0600EE0606825
:108D3000F7F7D9FA216C606808446060A16888423E
:108D400004D32068606001E005B16D1E6D1CA56351
:108D50003046BDE8F08110B5044690F8590058B18E
:108D600001280CD002280FD0502080F31188BFF3C7
:108D70004F8FBFF36F8FFEE7206B00F0D9FC2046CA
:108D8000BDE8104000F0D4BC10BD00000F4842F216
:108D90001071420705D0C01D0C4A20F00700821A4E
:108DA000891A0B4A00230144C2E900030839183A22
:108DB00021F0070111604B600B600B1AC0E9001332
:108DC00093604FF000405360506170477C2000205A
:108DD000E0000020144E154CA6F29C474FF080583E
:108DE000DFF84C9012E000BF00F06EFCF068C56840
:108DF000281D00F00DFCA068401EA0606068401EA9
:108E0000606000F081FC2846FFF7A5FF606800283D
:108E1000EAD138680128F9D9C9F80080BFF34F8F2B
:108E2000BFF36F8FF2E70000841800207400002069
:108E300004ED00E070B51D46049C51B1C4F800205B
:108E4000C4E90F010121204600F070FF84F84C5066
:108E500070BD2460F4E700002DE9F05F8846DDE98D
:108E60000B941546834691009A460A9EA522206BD4
:108E7000F7F74BFA6FF00301206B01EB8501084413
:108E800020F00707780707D0502080F31188BFF340
:108E90004F8FBFF36F8FFEE70025B8F1000F0FD0A3
:108EA0005FF00000221818F8001082F8341018F84B
:108EB000001011B1401C1028F4D384F8435001E095
:108EC00084F83450382E00D33726E662C4E913659F
:108ED000201D00F0D2FB04F1180000F0CEFB24614D
:108EE000C6F138006462A061656584F85850524646
:108EF0005946384600F066FA2060B9F1000F01D0FB
:108F0000C9F80040BDE8F09F30B5114900E01146B6
:108F10000A688242FBD34B685C18844203D14068E4
:108F200018444860084643681C18944209D1084C0C
:108F3000183C2468A24209D052681A4442600A6868
:108F400012680260814200D0086030BD0460F9E719
:108F5000E000002070B5002441600B4D006191429B
:108F600006D8D11A8269914206D2011D286907E00C
:108F70009A4203D2994201D3012403E0011DE8681B
:108F800000F07EFB204670BDB000002010B5044606
:108F900000F09AFBA06B28B15FF0000400F0B4FB76
:108FA000204610BD0124F9E730B589B03C4D6EE094
:108FB0000498002806DADDE90601059A904704982E
:108FC000002864DB069C606910B1201D00F020FBC6
:108FD00003A800F0D7F8024604980A2857D2DFE821
:108FE00000F00505052D334A05052D3394F82800BA
:108FF00040F0010084F828000599A069059B014410
:109000002046FFF7A7FF68B3216A2046884794F8F7
:10901000280040073BD5002000900598A169002357
:1090200042181946204601F0CBFBD8B9502080F3F6
:109030001188BFF34F8FBFF36F8FFEE714F8280F2F
:1090400020F00100207022E094F8280040F0010098
:1090500084F828000598A06128B18118134620469D
:10906000FFF778FF13E0502080F31188BFF34F8F94
:10907000BFF36F8FFEE794F82800810703D42046E2
:1090800000F056FB03E020F0010084F828000022E5
:1090900004A9286800F0ECFF002889D109B030BD90
:1090A000B00000202DE9FC410F46054600F020FDF0
:1090B00001A800F067F80446019818B101F0EEFA33
:1090C000BDE8FC81254EAFB130690068D0B3002700
:1090D000291B3A46306800F0ADFB01F0DFFA0028AA
:1090E000EED11F494FF080500860BFF34F8FBFF3A0
:1090F0006F8FE5E7A542EBD801F0D0FAF06827467C
:10910000C068C468201D00F083FA94F82800410765
:1091100019D5A0692B4641193A462046FFF71AFF98
:10912000A8B100200346014600902A46204601F0DF
:1091300047FB60B9502080F31188BFF34F8FBFF316
:109140006F8FFEE707E020F0010084F82800216A15
:1091500020468847B4E70127BAE70000B0000020A6
:1091600004ED00E00648416B096829B1416BC9680C
:10917000C9684968816270474FF0FF31FAE7000023
:109180007400002070B5054601F06AF9064E0446E9
:10919000B068844203D200F009F8012000E000200A
:1091A00028602046B46070BDB0000020F8B5194DAD
:1091B00020E0C068C4680668201D00F029FA216A12
:1091C0002046884794F82800400713D5A06930440A
:1091D000B04206D924616060211DE86800F050FAB1
:1091E00008E000200346014600903246204601F088
:1091F000E7FA38B1E86801680029DAD12969C5E9D8
:109200000310F8BD502080F31188BFF34F8FBFF3D8
:109210006F8FFEE7B000002008484068401C4FF008
:10922000500080F3118804D0BFF34F8FBFF36F8FCE
:10923000FEE7BFF34F8FBFF36F8FFEE7E80000201C
:10924000074CE068016841B1C0680021D0F8000017
:10925000FFF728FFFFF7A8FEF3E701210020F7E75B
:10926000B00000202DE9F041044600F02DFA94F9F9
:10927000455004F1240609E0606A48B1304601F027
:10928000D5F908B100F06EFB6D1E6DB2002DF3DC58
:109290004FF0FF3684F8456000F036FA00F014FA1B
:1092A00094F9445004F1100709E0206948B13846A8
:1092B00001F0BCF908B100F055FB6D1E6DB2002D38
:1092C000F3DC84F84460BDE8F04100F01DBA000012
:1092D0002DE9F0410546002700F00AFC324E3068C7
:1092E00008B9FFF753FD706905424ED1C5B3083583
:1092F00068070ED005F00700C0F1080005446807B4
:1093000007D0502080F31188BFF34F8FBFF36F8FCA
:10931000FEE72DB37068854237D8234818300146E0
:109320000C6801E020460C466168A94202D221681F
:109330000029F7D131688C4227D007682168016085
:1093400060680837411B10290FD96019420708D0FF
:10935000502080F31188BFF34F8FBFF36F8FFEE76C
:1093600013E041606560FFF7CFFD61687068401AE7
:109370007060B268904200D2B06070690143002012
:10938000C4E90001F068401CF06001F087F978073B
:1093900007D0502080F31188BFF34F8FBFF36F8F3A
:1093A000FEE73846BDE8F081C8000020044908689F
:1093B00018B10868026D521C026508687047000009
:1093C0007400002010B5031F4FF080741C601B1F39
:1093D00021F001011960191F044B0B6014390A6058
:1093E000091F6FF0020244380A6010BD199200088C
:1093F00002460F4800B5006887B0B0B10223019360
:109400000023CDE90231049206AA01A9069300F0D7
:1094100081FD3CB107494FF080500860BFF34F8F8A
:10942000BFF36F8F002007B000BD4FF0FF30FAE7A9
:109430005C02002004ED00E010B50022102100F0D5
:1094400021FC02490860002010BD00005C020020E1
:1094500004484FF0FF32006810B1034900F008BE25
:10946000104670475C020020E4C8002003460F4805
:1094700000B5806887B0A8B101930023CDE902321E
:10948000049106AA01A9069300F044FD3CB10849E5
:109490004FF080500860BFF34F8FBFF36F8F0020F5
:1094A00007B000BD4FF0FF30FAE700005C0200207B
:1094B00004ED00E010B50022102100F0E3FB0249AA
:1094C0008860002010BD00005C02002004484FF0BE
:1094D000FF32806810B1034900F0CABD10467047E2
:1094E0005C02002004C9002003460F4820B54068F4
:1094F00086B0B0B1CDE902210125CDE900530021AC
:1095000004910B4604AA694600F004FD34B10749F2
:1095100028070860BFF34F8FBFF36F8F002006B09E
:1095200020BD4FF0FF30FAE75C02002004ED00E0C0
:1095300010B50022102100F0A5FB02494860002070
:1095400010BD00005C02002004484FF0FF3240686C
:1095500010B1034900F08CBD104670475C0200203A
:10956000F4C800200A4808B5006800280FD0002180
:109570000091694600F02DFD0098002807D00549AC
:109580004FF080500860BFF34F8FBFF36F8F08BD5F
:109590006802002004ED00E07047704738B5194CB0
:1095A0006420642361684143182091FBF0F1CAB242
:1095B000A168594391FBF0F0C3B2402000901248DB
:1095C000694690ED343AD0ED2D2A90ED262AD0ED63
:1095D0001F1A90ED181AD0ED110A90ED0A0A0B48E7
:1095E000FEF727FA09490520009AFFF73FFFE068D8
:1095F00042F21071401CE060884201D90020606096
:1096000038BD00001C020020A4570020C4C8002060
:10961000D0E9013201699A60D0E901235A604A68B1
:10962000824201D182684A60002202610868401EBD
:109630000860086870470000034B036003F15C009A
:109640000860802010607047C4190020044B03603C
:1096500003F15C0008604FF48070106070470000F8
:10966000201C002000F108014FF0FF32C0E9011278
:10967000C1600161002101607047002101617047F4
:1096800030B50B685A1C02D000F1080202E00269F2
:1096900004E02246546825689D42FAD953684B601D
:1096A00099608A60516008610168491C016030BDA1
:1096B00042684A6093688B60936859609160086162
:1096C0000168491C01607047502080F31188BFF386
:1096D0004F8FBFF36F8F0A494868401C48600128CC
:1096E0000CD10848006810F0FF0F07D0502080F31D
:1096F0001188BFF34F8FBFF36F8FFEE770470000F5
:10970000E800002004ED00E00849486828B1401E48
:10971000486001D180F311887047502080F3118890
:10972000BFF34F8FBFF36F8FFEE70000E80000200C
:1097300070B500282AD0164DA0F108046068696948
:10974000084207D1502080F31188BFF34F8FBFF339
:109750006F8FFEE722683AB1502080F31188BFF383
:109760004F8FBFF36F8FFEE78843606000F0C0F952
:1097700060686968084468602046FFF7C5FB28698F
:10978000401C2861BDE8704000F088BF70BD00003B
:10979000C80000204FF0E0200021016181610549EF
:1097A0004FF47A720968B1FBF2F1491E4161072159
:1097B000016170477000002010B5F6F74DFD1149AA
:1097C00010280ED300F1E02090F8F0030A789042C0
:1097D00007D2502080F31188BFF34F8FBFF36F8FF4
:1097E000FEE709480068896800F4E060884207D90C
:1097F000502080F31188BFF34F8FBFF36F8FFEE7C8
:1098000010BD0000E80000200CED00E010B5084B92
:10981000002200BF53F832401CB1521C082AF9D371
:1098200010BD43F8321003EBC201486010BD0000C8
:10983000A813002070B515460E460446FFF744FFF6
:1098400094F944100020491C01D184F8440094F993
:109850004510491C01D184F84500FFF755FFA06B66
:1098600028B92A46314604F1240000F099F8204630
:10987000BDE87040FFF7F6BC10B5020014D00F48E9
:10988000006B38B1502080F31188BFF34F8FBFF3C6
:109890006F8FFEE700F02CF900211046FFF750F91A
:1098A00000F0FCFE002807D105494FF08050086009
:1098B000BFF34F8FBFF36F8F10BD00007400002007
:1098C00004ED00E070B50546FFF7FEFE1E4C05B93D
:1098D0002568281DFFF79CFEA86A18B105F118003D
:1098E000FFF796FE606A401C60622068854207D1DF
:1098F000291D1648FFF7DCFE6068401C606007E029
:10990000A068401EA0602846FFF725FAFFF72AFC52
:10991000FFF7FAFE6069002814D02068854211D153
:10992000206B38B1502080F31188BFF34F8FBFF305
:109930006F8FFEE706494FF080500860BFF34F8FEE
:10994000BFF36F8F70BD00007400002084180020EA
:1099500004ED00E002490A6A0260C968416070478C
:109960007400002001490120C86170477400002084
:1099700010B50C4650B1094909681831FFF780FE4F
:109980002046BDE810400121FFF7DAB8502080F3EF
:109990001188BFF34F8FBFF36F8FFEE77400002075
:1099A00070B514460D4668B10A4909681831FFF7C9
:1099B0007FFE0CB14FF0FF3521462846BDE87040D0
:1099C000FFF7BEB8502080F31188BFF34F8FBFF36D
:1099D0006F8FFEE77400002070B504003ED0226D4A
:1099E000A2B1E06C884200D30146E06A884235D0DB
:1099F000012A33D11A4D2A6894420FD1502080F3A6
:109A00001188BFF34F8FBFF36F8FFEE7502080F3B5
:109A10001188BFF34F8FBFF36F8FFEE7E162A2693A
:109A2000002A02DBC1F13801A1610E4E00EB80007B
:109A3000616906EB8000814210D1201DFFF7E8FD2F
:109A4000E06A2969884200D9286100EB800006EBB2
:109A50008000211DBDE87040FFF72ABE70BD0000E8
:109A600074000020E813002030B587B00024039470
:109A700005AA04A903A80494FFF7DEFDDDE90301AC
:109A80000094CDE90110002315A11748059A00F0B4
:109A9000AEFC164D0028E8621FD000F061FE0128E0
:109AA00009D0401C19D1502080F31188BFF34F8F8B
:109AB000BFF36F8FFEE7502080F31188BFF34F8F05
:109AC000BFF36F8F4FF0FF30A86201206861EC6038
:109AD00007B0BDE8304000F045B807B030BD000029
:109AE00049444C4500000000D58D0008740000205A
:109AF0000248016B491C016370470000740000209C
:109B0000164810B5016B11B10121C16110BD0021D2
:109B1000C1610169124A01E0B9B1491E01EB81033B
:109B200052F82330002BF7D001EB810302EB8302C4
:109B300002F1080453685B685360A34201D15B687B
:109B40005360DA680260016110BD502080F3118813
:109B5000BFF34F8FBFF36F8FFEE70000740000204C
:109B6000E81300201CB537480168374A914207D1F5
:109B7000502080F31188BFF34F8FBFF36F8FFEE744
:109B800000683149491E884207D1502080F311886E
:109B9000BFF34F8FBFF36F8FFEE72C49087801901A
:109BA000FF20087008788DF800009DF800009DF8EF
:109BB000002000F0F000904207D0502080F3118880
:109BC000BFF34F8FBFF36F8FFEE79DF80000204C6F
:109BD00000F0500020700720A06005E09DF80020F4
:109BE00052008DF80020401E9DF800201206F5D48A
:109BF000A060032807D0502080F31188BFF34F8F57
:109C0000BFF36F8FFEE74FF44070A06001980870BB
:109C10000C482030016841F470010160016841F096
:109C200070410160FFF7B6FD00206060F6F7DCFAD6
:109C30000848016841F040410160F6F7C1FA002090
:109C40001CBD000000ED00E071C20F4100E400E027
:109C5000E800002034EF00E010B5502080F31188B8
:109C6000BFF34F8FBFF36F8F00F000FC18B10449B2
:109C70004FF080500860002080F3118810BD000074
:109C800004ED00E0F8B517460E46050013D005FBBD
:109C900006F05030FFF71CFB04000AD0002084F8C7
:109CA000460004F150023B46314628460094FFF737
:109CB000C1F82046F8BD502080F31188BFF34F8FC4
:109CC000BFF36F8FFEE738B5049D18B153B1CAB129
:109CD00081B120E0502080F31188BFF34F8FBFF394
:109CE0006F8FFEE7502080F31188BFF34F8FBFF3D3
:109CF0006F8FFEE7502080F31188BFF34F8FBFF3C3
:109D00006F8FFEE739B1502080F31188BFF34F8F7A
:109D1000BFF36F8FFEE750241C46012384F84630C2
:109D20002B460094FFF786F8204638BD70B50D46E7
:109D3000040025D0FFF7C8FCD4E90F20216802FBFE
:109D40000011A1600021A163216861600A46D4E985
:109D50000F01401E00FB0121E16021464FF0FF3062
:109D600001F8440F487004F110008DB1FFF77AFC40
:109D700004F12400FFF776FCFFF7C6FC012070BD5C
:109D8000502080F31188BFF34F8FBFF36F8FFEE732
:109D900021690029F0D000F049FC0028ECD00449EA
:109DA0004FF080500860BFF34F8FBFF36F8FE3E732
:109DB00004ED00E02DE9FF4782B01D468A464FF0D2
:109DC0000008040003D0BAF1000F08D011E05020C1
:109DD00080F31188BFF34F8FBFF36F8FFEE7206CC6
:109DE00038B1502080F31188BFF34F8FBFF36F8FCE
:109DF000FEE7022D0AD1E06B012807D0502080F346
:109E00001188BFF34F8FBFF36F8FFEE700F01AFB8F
:109E10003F4F4FF000094FF0805648B9049838B1D1
:109E2000502080F31188BFF34F8FBFF36F8FFEE791
:109E3000FFF74AFCA06BE16B884207D3022D05D0E7
:109E40000498D0B1B8F1000F1AD01EE02A4651464E
:109E50002046FEF74AFF616A19B104F1240000F0C0
:109E6000E5FB20B13E60BFF34F8FBFF36F8FFFF76D
:109E70004BFC012006B0BDE8F087FFF745FC22E06F
:109E80006846FFF767FD4FF00108FFF73DFCFFF75D
:109E90002FFEFFF719FC94F94400401C01D184F80F
:109EA000449094F94500401C01D184F84590FFF797
:109EB0002BFC04A9684600F033FA30B12046FFF7C6
:109EC000D1F900F0EBFB0020D4E7FFF7FDFBA06B1E
:109ED000E16B884213D1FFF717FC04F110000499DD
:109EE000FFF746FD2046FFF7BDF900F0D7FB00283D
:109EF0009ED13E60BFF34F8FBFF36F8F98E7FFF7A0
:109F000003FC2046FFF7AEF900F0C8FB90E7000025
:109F100004ED00E02DE9F0471F4690468946040015
:109F200003D0B9F1000F08D011E0502080F3118860
:109F3000BFF34F8FBFF36F8FFEE7206C38B1502017
:109F400080F31188BFF34F8FBFF36F8FFEE7022FAF
:109F50000AD1E06B012807D0502080F31188BFF3AD
:109F60004F8FBFF36F8FFEE7FFF726FC5020EFF314
:109F7000118680F31188BFF34F8FBFF36F8FA06BF3
:109F8000E16B884206D3022F04D0002086F31188AB
:109F9000BDE8F08794F94550A06B3A464946204603
:109FA000FEF7A3FE681C04D06D1C84F84550012008
:109FB000ECE7606A0028FAD004F1240000F036FBD8
:109FC0000028F4D0B8F1000FF1D00121C8F800103A
:109FD000EDE770B50E46040009D0206C78B1502032
:109FE00080F31188BFF34F8FBFF36F8FFEE75020D0
:109FF00080F31188BFF34F8FBFF36F8FFEE72068A8
:10A0000048B9A06838B1502080F31188BFF34F8F52
:10A01000BFF36F8FFEE7FFF7CFFB5020EFF3118503
:10A0200080F31188BFF34F8FBFF36F8FA16BE06B8D
:10A03000884218D994F94500491CA163411C04D0F9
:10A04000401C84F8450001200EE0606A0028FAD028
:10A0500004F1240000F0EAFA0028F4D0002EF2D037
:10A0600001203060EFE7002085F3118870BD00000B
:10A070002DE9F747002683B08A46040003D0BAF1E1
:10A08000000F08D011E0502080F31188BFF34F8FEC
:10A09000BFF36F8FFEE7206C38B1502080F311883A
:10A0A000BFF34F8FBFF36F8FFEE700F0CBF9DFF800
:10A0B000F4804FF000094FF0805748B9059838B147
:10A0C000502080F31188BFF34F8FBFF36F8FFEE7EF
:10A0D000FFF7FAFAA56BC5B151462046FEF7F2FD2F
:10A0E0006D1EA563206950B104F1100000F09EFAC6
:10A0F00028B1C8F80070BFF34F8FBFF36F8FFFF721
:10A1000003FB012006B0BDE8F087059808B11EB139
:10A1100006E0FFF7F9FA27E06846FFF71BFC012687
:10A12000FFF7F2FAFFF7E4FCFFF7CEFA94F94400E8
:10A13000401C01D184F8449094F94500401C01D1A1
:10A1400084F84590FFF7E0FA05A9684600F0E8F8C2
:10A15000002820460AD0FFF785F800F09FFA204635
:10A16000FEF714FF0028B3D00020CBE7FEF70EFF68
:10A1700090B104F124000599FFF7FAFB2046FFF7A0
:10A1800071F800F08BFA0028A2D1C8F80070BFF374
:10A190004F8FBFF36F8F9BE72046FFF763F800F008
:10A1A0007DFA95E704ED00E02DE9F343002683B046
:10A1B0000400354609D0206C78B1502080F3118816
:10A1C000BFF34F8FBFF36F8FFEE7502080F31188EE
:10A1D000BFF34F8FBFF36F8FFEE700F033F9DFF867
:10A1E0003C814FF000094FF0805748B9049838B1CE
:10A1F000502080F31188BFF34F8FBFF36F8FFEE7BE
:10A20000FFF762FAA06BC8B1401EA063206810B9C6
:10A21000FFF7CCF8A060206950B104F1100000F005
:10A2200005FA28B1C8F80070BFF34F8FBFF36F8FE6
:10A23000FFF76AFA012005B0BDE8F083049808B181
:10A2400066B10FE03DB1502080F31188BFF34F8F0E
:10A25000BFF36F8FFEE7FFF757FA5DE06846FFF741
:10A2600079FB0126FFF750FAFFF742FCFFF72CFAC3
:10A2700094F94400401C01D184F8449094F94500BD
:10A28000401C01D184F84590FFF73EFA04A96846C6
:10A2900000F046F80028204612D0FEF7E3FF00F059
:10A2A000FDF92046FEF772FE0028A9D09DB3FFF706
:10A2B0000BFA606A50B3206B0068C0F1380126E0E9
:10A2C000FEF764FEE0B1206838B9FFF7FDF9A06839
:10A2D00000F070F90546FFF717FA04F1240004991D
:10A2E000FFF746FB2046FEF7BDFF00F0D7F9002838
:10A2F00086D1C8F80070BFF34F8FBFF36F8F7FE731
:10A300002046FEF7AFFF00F0C9F979E70021A06809
:10A31000FFF762FB9FE7FFE700208CE704ED00E01A
:10A320002DE9F0410C46050011D0C4B1FFF7CCF97E
:10A33000174BDA686E682068911B471C17D02F688E
:10A340001B6A9F4219D0964217D8012410E0502072
:10A3500080F31188BFF34F8FBFF36F8FFEE750205C
:10A3600080F31188BFF34F8FBFF36F8FFEE7002498
:10A37000FFF7CAF92046BDE8F081884205D9401AA6
:10A3800020602846FFF7E6FAF1E700202060DCE7CE
:10A39000740000202DE9FF5F8346DDE90E879946B2
:10A3A00016468A469000FEF793FF05001CD05C20FD
:10A3B000FEF78EFF040014D00020256384F85900B6
:10A3C000CDE90240CDE900874B463246514658461A
:10A3D000FEF742FD2046FEF7E1FB012004B0BDE898
:10A3E000F09F2846FFF7A4F94FF0FF30F6E7F0B5ED
:10A3F00085B0DDE90B640A9DA6B1DCB15C2700974E
:10A400002663022684F85960002604AFCDE902468F
:10A41000CDE90057FEF720FD2046FEF7BFFB04986C
:10A4200005B0F0BD502080F31188BFF34F8FBFF30C
:10A430006F8FFEE7502080F31188BFF34F8FBFF37B
:10A440006F8FFEE70548416919B1006B18B1002014
:10A450007047012070470220704700007400002000
:10A460000148C06870470000740000202DE9F041E9
:10A470002E4C0027206B28B1A069401CA0613846F3
:10A48000BDE8F081E668761CE66013D1606B006879
:10A4900038B1502080F31188BFF34F8FBFF36F8F17
:10A4A000FEE7606BA16B6163A063206A401C2062C1
:10A4B000FEF758FEA06ADFF87880864209D3606B09
:10A4C0000068A0B1606BC068C5686868864211D238
:10A4D000A0622068C06A00EB800158F821000128C2
:10A4E00000D90127E0690028C9D00127C7E74FF04C
:10A4F000FF30EDE7281DFFF78BF8A86A18B105F1CA
:10A500001800FFF785F8E86A2169884200D92061C0
:10A5100000EB800108EB8100291DFFF7C9F8E86A0C
:10A520002168C96A8842CAD30127C8E7740000209D
:10A53000E813002070B504004FF0000133D01B4D2C
:10A540002868844207D0502080F31188BFF34F8FD2
:10A55000BFF36F8FFEE7206D38B1401E2065E36CBE
:10A56000E26A9A421FD040B11DE0502080F311886A
:10A57000BFF34F8FBFF36F8FFEE7201DFFF748F843
:10A58000E06CE062C0F13800A061E06A29698842AD
:10A5900000D92861064900EB800001EB8000211DF5
:10A5A000FFF786F80121084670BD00007400002006
:10A5B000E813002070B504004FF000002BD0194DB7
:10A5C000E16A2A68D26A914226D2A069002804DB97
:10A5D0002868C06AC0F13800A061134E01EB810108
:10A5E000606906EB8101884211D1201DFFF710F848
:10A5F0002868C06AE0622969884200D9286100EBB6
:10A60000800006EB8000211DFFF752F802E0286869
:10A61000C06AE062012070BDE16C2A68D26A914292
:10A62000F8D370BD74000020E813002070B5C06836
:10A63000C46854B104F118000646FEF7E9FF144D52
:10A64000286B50B13146134815E0502080F3118833
:10A65000BFF34F8FBFF36F8FFEE7201DFEF7D8FFCC
:10A66000E06A2969884200D928610B4900EB800023
:10A6700001EB8000211DFFF71BF8E06A2968C96A19
:10A68000884202D90120E86170BD002070BD000041
:10A690007400002070180020E81300202DE9F04716
:10A6A0002C4D00242746286B38B1FFF70DF8286B96
:10A6B000401E2863286B40B146E0502080F311888B
:10A6C000BFF34F8FBFF36F8FFEE7A968224E0120C3
:10A6D000D1B3A6F5916980463068E0B1F068C468EE
:10A6E00004F11800FEF794FF201DFEF791FFE06AC9
:10A6F0002969884200D9286100EB800109EB8100BB
:10A70000211DFEF7D5FFE06A2968C96A8842E3D3B4
:10A71000C5F81C80E0E70CB1FEF724FDAC694CB134
:10A720004FEA0806FFF7A2FE00B1EE61641EF9D100
:10A730000020A861E86938B1084901273807086096
:10A74000BFF34F8FBFF36F8FFEF7DEFF3846BDE8D4
:10A75000F0870000740000207018002004ED00E075
:10A7600010B586B0FEF782FA114C2068B8B100200F
:10A770000390049005AA04A903A8FEF767FFDDE98A
:10A78000032102208DE8070000230AA10B48059A47
:10A79000FFF72DFE606010B106B0012010BD502003
:10A7A00080F31188BFF34F8FBFF36F8FFEE7000078
:10A7B000B0000020546D722053766300419200086F
:10A7C0002DE9FF411E46134602000A9D4FF000008E
:10A7D00016D0144C2768002F0FD0CDE90013029239
:10A7E000062917DAFFF72EFE02284FF000030FD0DC
:10A7F000002269462068FFF7DDFA04B0BDE8F08169
:10A80000502080F31188BFF34F8FBFF36F8FFEE7A7
:10A810002A46EEE70023324669463846FFF77AFBC0
:10A82000EBE70000B00000202CA9000800000000A9
:10A830000000000000000000000000000002000016
:10A8400018000000000000000000000014A900082B
:10A8500000000000000000000000000000000000F8
:10A8600000040000200000000000000000000000C4
:10A87000FCA800080000000000000000000000002C
:10A8800000000000000400001800000000000000AC
:10A890000000000008A900080000000000000000FF
:10A8A000000000000000000000020000180000008E
:10A8B000000000000000000020A9000800000000C7
:10A8C0000000000000000000000000000002000086
:10A8D0001800000000000000000000000006101634
:10A8E0000006101600000000000000000102030432
:10A8F0000607080900000000010203047363726583
:10A90000656E5461736B00006D61696E5461736BA9
:10A9100000000000617564696F5461736B00000092
:10A92000736572766F5461736B00000064656661D5
:10A93000756C745461736B005CA900080000002002
:10A94000E4020000B403000868AA0008E402002042
:10A950005CD6000030890008E9DFFFFF01141329ED
:10A96000651B0859041A65041A8D041AB9041A09DA
:10A97000041A350417040309041201140202021612
:10A980004001102380260201020301031A1A031951
:10A990001F118210037924F41AAA0181130A0632C6
:10A9A000022A409C1C090243C7111DC0320904AD94
:10A9B0001A020B13052416100105240110090104C5
:10A9C000240202052406170107058203081C10094A
:10A9D00004FD320A1D07050102432C070581070902
:10A9E00038442A40072A8107112B0907440A3B04EF
:10A9F0004413256114087D601408256242081AC5B5
:10AA00000C13F15F1B085308C11A0D281A01041A10
:10AA100019041AF51C1311781B0835041A39041A85
:10AA20003D04CBBF7930419AFF01210B1C80BF044C
:10AA3000011E32507B40015A1902314A0108142C80
:10AA4000012C490221F23212383A0B141208120C6E
:10AA5000129392E912031A10021112012B0102053E
:08AA6000115A3902290C000013
:040000050800018965
:00000001FF
